{
  "fileName": "BondingCurve.sol",
  "contractName": "BondingCurve",
  "source": "// SPDX-License-Identifier: Unlicense\n\npragma solidity 0.6.12;\n\nimport \"@openzeppelin/contracts/math/SafeMath.sol\";\nimport \"@openzeppelin/contracts/math/SignedSafeMath.sol\";\n\n\n/// @title Monitor\n/// @notice Math for Quadratic Bonding Curves. Used in the Foresight Token Distribution.\ncontract BondingCurve {\n    using SafeMath for uint;\n    using SignedSafeMath for int;\n\n    /// @notice Returns the cost of a token delta using Quadratic pricing, as well as the new token price.\n    /// @param currentAmount Current Amount of the tokens in circulation.\n    /// @param deltaAmount Change in tokens to compute cost for.\n    /// @return cost Returns the cost of the new deltaAmount.\n    function computeCostForAmount(\n        uint currentAmount,\n        uint deltaAmount\n    ) public view returns (uint cost) {\n        uint currentBalance = ((currentAmount ** 3) / 3);\n        cost = (((currentAmount + deltaAmount) ** 3) / 3) - currentBalance;\n    }\n\n    /// @notice Returns the square root of x using the Babylonian method.\n    /// @param x Value.\n    /// @return y Returns the square root.\n    function sqrt(uint x) public returns (uint y) {\n        uint z = (x + 1) / 2;\n        y = x;\n        while (z < y) {\n            y = z;\n            z = (x / z + z) / 2;\n        }\n    }\n}\n",
  "sourcePath": "contracts/BondingCurve.sol",
  "abi": [
    {
      "inputs": [
        {
          "internalType": "uint256",
          "name": "currentAmount",
          "type": "uint256"
        },
        {
          "internalType": "uint256",
          "name": "deltaAmount",
          "type": "uint256"
        }
      ],
      "name": "computeCostForAmount",
      "outputs": [
        {
          "internalType": "uint256",
          "name": "cost",
          "type": "uint256"
        }
      ],
      "stateMutability": "view",
      "type": "function"
    },
    {
      "inputs": [
        {
          "internalType": "uint256",
          "name": "x",
          "type": "uint256"
        }
      ],
      "name": "sqrt",
      "outputs": [
        {
          "internalType": "uint256",
          "name": "y",
          "type": "uint256"
        }
      ],
      "stateMutability": "nonpayable",
      "type": "function"
    }
  ],
  "bytecode": "0x608060405234801561001057600080fd5b5061010f806100206000396000f3fe6080604052348015600f57600080fd5b506004361060325760003560e01c8063677342ce1460375780639d6564b2146063575b600080fd5b605160048036036020811015604b57600080fd5b50356083565b60408051918252519081900360200190f35b605160048036036040811015607757600080fd5b508035906020013560b6565b80600260018201045b8181101560b05780915060028182858160a157fe5b04018160a957fe5b049050608c565b50919050565b600080600380850a049050806003808587010a8160cf57fe5b040394935050505056fea2646970667358221220f81c42ae1076be96ce78b1167f2ed54e82926d3d4d583389aab553181860a7b864736f6c634300060c0033",
  "compiler": {
    "name": "solc",
    "version": "0.6.12+commit.27d51765.Emscripten.clang",
    "optimizer": {
      "enabled": true,
      "runs": 1
    },
    "evmVersion": "petersburg"
  }
}