{
  "fileName": "Deploy.sol",
  "contractName": "Deploy",
  "source": "// SPDX-License-Identifier: Unlicense\n\npragma solidity 0.6.12;\n\nimport \"./Monitor.sol\";\nimport \"./YieldOffering.sol\";\n\n\n/// @title Deploy\n/// @notice Deploys the Monitor and Yield Offering.\ncontract Deploy {\n\n    /// @notice Monitor instance.\n    Monitor public monitor;\n    /// @notice Monitor address.\n    address public monitorAddress;\n    /// @notice Yield offering instance.\n    YieldOffering public yieldOffering;\n    /// @notice Yield offering address.\n    address public yieldOfferingAddress;\n\n    /// @notice Instantiates the monitor and Yield Offering.\n    /// @param startTime1 Start time for pool.\n    /// @param endTime1 End time for pool.\n    /// @param startTime2 Start time for pool.\n    /// @param endTime2 End time for pool.\n    /// @param startTime3 Start time for pool.\n    /// @param endTime3 End time for pool.\n    /// @param startTime4 Start time for pool.\n    /// @param endTime4 End time for pool.\n    /// @param secondReward Amount to start in the stake reward contracts.\n    /// @param monitorTradeToken Complete set minting token.\n    /// @param yieldRewardStakeToken Token used to generate yield during staking.\n    constructor(\n        uint startTime1,\n        uint endTime1,\n        uint startTime2,\n        uint endTime2,\n        uint startTime3,\n        uint endTime3,\n        uint startTime4,\n        uint endTime4,\n        uint secondReward,\n        address yieldRewardStakeToken,\n        address monitorTradeToken\n    ) public {\n        yieldOffering = new YieldOffering(\n            startTime1,\n            endTime1,\n            startTime2,\n            endTime2,\n            startTime3,\n            endTime3,\n            startTime4,\n            endTime4,\n            secondReward,\n            yieldRewardStakeToken\n        );\n        yieldOfferingAddress = address(yieldOffering);\n\n        monitor = new Monitor(yieldOffering.mainTokenAddress(), monitorTradeToken);\n        monitorAddress = address(monitor);\n    }\n}\n",
  "sourcePath": "contracts/Deploy.sol",
  "abi": [
    {
      "inputs": [
        {
          "internalType": "uint256",
          "name": "startTime1",
          "type": "uint256"
        },
        {
          "internalType": "uint256",
          "name": "endTime1",
          "type": "uint256"
        },
        {
          "internalType": "uint256",
          "name": "startTime2",
          "type": "uint256"
        },
        {
          "internalType": "uint256",
          "name": "endTime2",
          "type": "uint256"
        },
        {
          "internalType": "uint256",
          "name": "startTime3",
          "type": "uint256"
        },
        {
          "internalType": "uint256",
          "name": "endTime3",
          "type": "uint256"
        },
        {
          "internalType": "uint256",
          "name": "startTime4",
          "type": "uint256"
        },
        {
          "internalType": "uint256",
          "name": "endTime4",
          "type": "uint256"
        },
        {
          "internalType": "uint256",
          "name": "secondReward",
          "type": "uint256"
        },
        {
          "internalType": "address",
          "name": "yieldRewardStakeToken",
          "type": "address"
        },
        {
          "internalType": "address",
          "name": "monitorTradeToken",
          "type": "address"
        }
      ],
      "stateMutability": "nonpayable",
      "type": "constructor"
    },
    {
      "inputs": [],
      "name": "monitor",
      "outputs": [
        {
          "internalType": "contract Monitor",
          "name": "",
          "type": "address"
        }
      ],
      "stateMutability": "view",
      "type": "function"
    },
    {
      "inputs": [],
      "name": "monitorAddress",
      "outputs": [
        {
          "internalType": "address",
          "name": "",
          "type": "address"
        }
      ],
      "stateMutability": "view",
      "type": "function"
    },
    {
      "inputs": [],
      "name": "yieldOffering",
      "outputs": [
        {
          "internalType": "contract YieldOffering",
          "name": "",
          "type": "address"
        }
      ],
      "stateMutability": "view",
      "type": "function"
    },
    {
      "inputs": [],
      "name": "yieldOfferingAddress",
      "outputs": [
        {
          "internalType": "address",
          "name": "",
          "type": "address"
        }
      ],
      "stateMutability": "view",
      "type": "function"
    }
  ],
  "bytecode": "0x608060405234801561001057600080fd5b50604051619f56380380619f56833981810160405261016081101561003457600080fd5b50805160208201516040808401516060850151608086015160a087015160c088015160e08901516101008a01516101208b0151610140909b01519751999a9899969895979496939592949193909291908b908b908b908b908b908b908b908b908b908b906100a190610238565b998a5260208a01989098526040808a01979097526060890195909552608088019390935260a087019190915260c086015260e08501526101008401526001600160a01b03909116610120830152519081900361014001906000f08015801561010d573d6000803e3d6000fd5b50600280546001600160a01b03199081166001600160a01b039384161791829055600380549290931691168117909155604080517fce1f335c000000000000000000000000000000000000000000000000000000008152905163ce1f335c91600480820192602092909190829003018186803b15801561018c57600080fd5b505afa1580156101a0573d6000803e3d6000fd5b505050506040513d60208110156101b657600080fd5b505160405182906101c690610245565b6001600160a01b03928316815291166020820152604080519182900301906000f0801580156101f9573d6000803e3d6000fd5b50600080546001600160a01b03199081166001600160a01b03938416179182905560018054929093169116179055506102529950505050505050505050565b613ace8061035183390190565b61613780613e1f83390190565b60f1806102606000396000f3fe6080604052348015600f57600080fd5b506004361060465760003560e01c80633241992a14604b578063686e57e814606d5780638476cf65146073578063e5521092146079575b600080fd5b6051607f565b604080516001600160a01b039092168252519081900360200190f35b6051608e565b6051609d565b605160ac565b6000546001600160a01b031681565b6003546001600160a01b031681565b6002546001600160a01b031681565b6001546001600160a01b03168156fea2646970667358221220b82615bfb0c35134d0a5cf97384e40c983f5a3ae9f971cfa464cfc4909194a6364736f6c634300060c0033608060405234801561001057600080fd5b50604051613ace380380613ace833981810160405261014081101561003457600080fd5b50805160208201516040808401516060850151608086015160a087015160c088015160e08901516101008a0151610120909a01516001600055600880546001600160a01b0319166001600160a01b0383161790559651989997989597949693959294919390926100a390610459565b604051809103906000f0801580156100bf573d6000803e3d6000fd5b50600680546001600160a01b03199081166001600160a01b03938416179182905560078054929093169116179055604051309082908c908c90869061010390610466565b6001600160a01b0395861681529390941660208401526040808401929092526060830152608082019290925290519081900360a001906000f08015801561014e573d6000803e3d6000fd5b50600160006101000a8154816001600160a01b0302191690836001600160a01b0316021790555030818989610191600a8761034e60201b6103d31790919060201c565b60405161019d90610466565b6001600160a01b0395861681529390941660208401526040808401929092526060830152608082019290925290519081900360a001906000f0801580156101e8573d6000803e3d6000fd5b50600260006101000a8154816001600160a01b0302191690836001600160a01b031602179055503081878761022b60648761034e60201b6103d31790919060201c565b60405161023790610466565b6001600160a01b0395861681529390941660208401526040808401929092526060830152608082019290925290519081900360a001906000f080158015610282573d6000803e3d6000fd5b50600360006101000a8154816001600160a01b0302191690836001600160a01b03160217905550308185856102c66103e88761034e60201b6103d31790919060201c565b6040516102d290610466565b6001600160a01b0395861681529390941660208401526040808401929092526060830152608082019290925290519081900360a001906000f08015801561031d573d6000803e3d6000fd5b50600480546001600160a01b0319166001600160a01b03929092169190911790555061047398505050505050505050565b600061039683836040518060400160405280601a81526020017f536166654d6174683a206469766973696f6e206279207a65726f00000000000081525061039d60201b60201c565b9392505050565b60008183610443576040517f08c379a00000000000000000000000000000000000000000000000000000000081526004018080602001828103825283818151815260200191508051906020019080838360005b838110156104085781810151838201526020016103f0565b50505050905090810190601f1680156104355780820380516001836020036101000a031916815260200191505b509250505060405180910390fd5b50600083858161044f57fe5b0495945050505050565b6127a58061099183390190565b6109988061313683390190565b61050f806104826000396000f3fe608060405234801561001057600080fd5b50600436106100995760003560e01c806305ea3ed51461009e57806327e235e3146100c25780633fc15f15146100fa57806351ed6a301461010257806353ce36a91461010a578063b941d3e014610112578063be040fb01461011a578063ce1f335c14610124578063e0b1cccb1461012c578063e4b6db4c14610158578063e9f246dd14610198575b600080fd5b6100a66101a0565b604080516001600160a01b039092168252519081900360200190f35b6100e8600480360360208110156100d857600080fd5b50356001600160a01b03166101af565b60408051918252519081900360200190f35b6100a66101c1565b6100a66101d0565b6100a66101df565b6100a66101ee565b6101226101fd565b005b6100a66102f5565b6101226004803603604081101561014257600080fd5b506001600160a01b038135169060200135610304565b61016061037d565b6040518082608080838360005b8381101561018557818101518382015260200161016d565b5050505090500191505060405180910390f35b6100a66103c4565b6001546001600160a01b031681565b60056020526000908152604090205481565b6006546001600160a01b031681565b6008546001600160a01b031681565b6003546001600160a01b031681565b6002546001600160a01b031681565b60026000541415610255576040805162461bcd60e51b815260206004820152601f60248201527f5265656e7472616e637947756172643a207265656e7472616e742063616c6c00604482015290519081900360640190fd5b60026000908155338152600560205260409020548061027357600080fd5b3360008181526005602052604080822082905560065481516340c10f1960e01b815260048101949094526024840185905290516001600160a01b03909116926340c10f1992604480830193919282900301818387803b1580156102d557600080fd5b505af11580156102e9573d6000803e3d6000fd5b50506001600055505050565b6007546001600160a01b031681565b6001546000906001600160a01b031633148061032a57506002546001600160a01b031633145b8061033f57506003546001600160a01b031633145b8061035457506004546001600160a01b031633145b90508061036057600080fd5b506001600160a01b03909116600090815260056020526040902055565b6103856104bb565b50604080516080810182526001546001600160a01b03908116825260025481166020830152600354811692820192909252600454909116606082015290565b6004546001600160a01b031681565b600061041283836040518060400160405280601a815260200179536166654d6174683a206469766973696f6e206279207a65726f60301b815250610419565b9392505050565b600081836104a55760405162461bcd60e51b81526004018080602001828103825283818151815260200191508051906020019080838360005b8381101561046a578181015183820152602001610452565b50505050905090810190601f1680156104975780820380516001836020036101000a031916815260200191505b509250505060405180910390fd5b5060008385816104b157fe5b0495945050505050565b6040518060800160405280600490602082028036833750919291505056fea26469706673582212207473a40b47664f78bf642656d6ae73e51e2eacf66f40b81cf58bc90ae98a8d3064736f6c634300060c003360806040523480156200001157600080fd5b50604080518082018252600681527f566973696f6e0000000000000000000000000000000000000000000000000000602080830191825283518085018552600381527f564953000000000000000000000000000000000000000000000000000000000081830152845160008152918201909452825192939290916200009a9160029190620002f8565b508151620000b0906003906020850190620002f8565b508051620000c69060049060208401906200037d565b5060005b600454811015620001265760016005600060048481548110620000e957fe5b6000918252602080832091909101546001600160a01b031683528201929092526040019020805460ff1916911515919091179055600101620000ca565b50604080517f29965a1d00000000000000000000000000000000000000000000000000000000815230600482018190527fac7fbab5f54a3ca8194167523c6753bfeb96a445279294b6125b68cce2177054602483015260448201529051731820a4b7618bde71dce8cdc73aab6c95905fad24916329965a1d91606480830192600092919082900301818387803b158015620001c057600080fd5b505af1158015620001d5573d6000803e3d6000fd5b5050604080517f29965a1d00000000000000000000000000000000000000000000000000000000815230600482018190527faea199e31a596269b42cdafd93407f14436db6e4cad65417994c2eb37381e05a602483015260448201529051731820a4b7618bde71dce8cdc73aab6c95905fad2493506329965a1d9250606480830192600092919082900301818387803b1580156200027257600080fd5b505af115801562000287573d6000803e3d6000fd5b505050505050506000620002a0620002f460201b60201c565b600980546001600160a01b0319166001600160a01b038316908117909155604051919250906000907f8be0079c531659141344cd1fd0a4f28419497f9722a3daafe3b4186f6b6457e0908290a3506200041b565b3390565b828054600181600116156101000203166002900490600052602060002090601f016020900481019282601f106200033b57805160ff19168380011785556200036b565b828001600101855582156200036b579182015b828111156200036b5782518255916020019190600101906200034e565b5062000379929150620003e3565b5090565b828054828255906000526020600020908101928215620003d5579160200282015b82811115620003d557825182546001600160a01b0319166001600160a01b039091161782556020909201916001909101906200039e565b5062000379929150620003fa565b5b80821115620003795760008155600101620003e4565b5b80821115620003795780546001600160a01b0319168155600101620003fb565b61237a806200042b6000396000f3fe608060405234801561001057600080fd5b50600436106101125760003560e01c806306e485381461011757806306fdde031461016f578063095ea7b3146101ec57806318160ddd1461022c57806323b872dd14610246578063313ce5671461027c57806340c10f191461029a578063556f0dc7146102c857806362ad1b83146102d057806370a0823114610419578063715018a61461043f5780638da5cb5b14610447578063959b8c3f1461046b57806395d89b41146104915780639bd9bbc614610499578063a9059cbb14610552578063d95b63711461057e578063dd62ed3e146105ac578063f2fde38b146105da578063fad8b32a14610600578063fc673c4f14610626578063fe9d930314610764575b600080fd5b61011f61080f565b60408051602080825283518183015283519192839290830191858101910280838360005b8381101561015b578181015183820152602001610143565b505050509050019250505060405180910390f35b610177610871565b6040805160208082528351818301528351919283929083019185019080838360005b838110156101b1578181015183820152602001610199565b50505050905090810190601f1680156101de5780820380516001836020036101000a031916815260200191505b509250505060405180910390f35b6102186004803603604081101561020257600080fd5b506001600160a01b0381351690602001356108fb565b604080519115158252519081900360200190f35b61023461091d565b60408051918252519081900360200190f35b6102186004803603606081101561025c57600080fd5b506001600160a01b03813581169160208101359091169060400135610923565b610284610aa0565b6040805160ff9092168252519081900360200190f35b6102c6600480360360408110156102b057600080fd5b506001600160a01b038135169060200135610aa5565b005b610234610b2b565b6102c6600480360360a08110156102e657600080fd5b6001600160a01b03823581169260208101359091169160408201359190810190608081016060820135600160201b81111561032057600080fd5b82018360208201111561033257600080fd5b803590602001918460018302840111600160201b8311171561035357600080fd5b91908080601f0160208091040260200160405190810160405280939291908181526020018383808284376000920191909152509295949360208101935035915050600160201b8111156103a557600080fd5b8201836020820111156103b757600080fd5b803590602001918460018302840111600160201b831117156103d857600080fd5b91908080601f016020809104026020016040519081016040528093929190818152602001838380828437600092019190915250929550610b30945050505050565b6102346004803603602081101561042f57600080fd5b50356001600160a01b0316610b92565b6102c6610bad565b61044f610c3d565b604080516001600160a01b039092168252519081900360200190f35b6102c66004803603602081101561048157600080fd5b50356001600160a01b0316610c4c565b610177610d98565b6102c6600480360360608110156104af57600080fd5b6001600160a01b0382351691602081013591810190606081016040820135600160201b8111156104de57600080fd5b8201836020820111156104f057600080fd5b803590602001918460018302840111600160201b8311171561051157600080fd5b91908080601f016020809104026020016040519081016040528093929190818152602001838380828437600092019190915250929550610df9945050505050565b6102186004803603604081101561056857600080fd5b506001600160a01b038135169060200135610e23565b6102186004803603604081101561059457600080fd5b506001600160a01b0381358116916020013516610efc565b610234600480360360408110156105c257600080fd5b506001600160a01b0381358116916020013516610f9e565b6102c6600480360360208110156105f057600080fd5b50356001600160a01b0316610fc9565b6102c66004803603602081101561061657600080fd5b50356001600160a01b03166110b0565b6102c66004803603608081101561063c57600080fd5b6001600160a01b0382351691602081013591810190606081016040820135600160201b81111561066b57600080fd5b82018360208201111561067d57600080fd5b803590602001918460018302840111600160201b8311171561069e57600080fd5b91908080601f0160208091040260200160405190810160405280939291908181526020018383808284376000920191909152509295949360208101935035915050600160201b8111156106f057600080fd5b82018360208201111561070257600080fd5b803590602001918460018302840111600160201b8311171561072357600080fd5b91908080601f0160208091040260200160405190810160405280939291908181526020018383808284376000920191909152509295506111fc945050505050565b6102c66004803603604081101561077a57600080fd5b81359190810190604081016020820135600160201b81111561079b57600080fd5b8201836020820111156107ad57600080fd5b803590602001918460018302840111600160201b831117156107ce57600080fd5b91908080601f01602080910402602001604051908101604052809392919081815260200183838082843760009201919091525092955061125a945050505050565b6060600480548060200260200160405190810160405280929190818152602001828054801561086757602002820191906000526020600020905b81546001600160a01b03168152600190910190602001808311610849575b5050505050905090565b60028054604080516020601f60001961010060018716150201909416859004938401819004810282018101909252828152606093909290918301828280156108675780601f106108cf57610100808354040283529160200191610867565b820191906000526020600020905b8154815290600101906020018083116108dd57509395945050505050565b60008061090661127c565b9050610913818585611280565b5060019392505050565b60015490565b60006001600160a01b03831661096a5760405162461bcd60e51b81526004018080602001828103825260248152602001806122406024913960400191505060405180910390fd5b6001600160a01b0384166109af5760405162461bcd60e51b81526004018080602001828103825260268152602001806122d96026913960400191505060405180910390fd5b60006109b961127c565b90506109e781868686604051806020016040528060008152506040518060200160405280600081525061136c565b610a13818686866040518060200160405280600081525060405180602001604052806000815250611599565b610a678582610a62866040518060600160405280602981526020016122b0602991396001600160a01b03808c166000908152600860209081526040808320938b168352929052205491906117a0565b611280565b610a958186868660405180602001604052806000815250604051806020016040528060008152506000611837565b506001949350505050565b601290565b610aad61127c565b6009546001600160a01b03908116911614610afd576040805162461bcd60e51b815260206004820181905260248201526000805160206121b3833981519152604482015290519081900360640190fd5b610b2782826040518060200160405280600081525060405180602001604052806000815250611abc565b5050565b600190565b610b41610b3b61127c565b86610efc565b610b7c5760405162461bcd60e51b815260040180806020018281038252602c815260200180612284602c913960400191505060405180910390fd5b610b8b85858585856001611ce2565b5050505050565b6001600160a01b031660009081526020819052604090205490565b610bb561127c565b6009546001600160a01b03908116911614610c05576040805162461bcd60e51b815260206004820181905260248201526000805160206121b3833981519152604482015290519081900360640190fd5b6009546040516000916001600160a01b0316906000805160206121d3833981519152908390a3600980546001600160a01b0319169055565b6009546001600160a01b031690565b806001600160a01b0316610c5e61127c565b6001600160a01b03161415610ca45760405162461bcd60e51b815260040180806020018281038252602481526020018061216e6024913960400191505060405180910390fd5b6001600160a01b03811660009081526005602052604090205460ff1615610d075760076000610cd161127c565b6001600160a01b03908116825260208083019390935260409182016000908120918516815292529020805460ff19169055610d4e565b600160066000610d1561127c565b6001600160a01b03908116825260208083019390935260409182016000908120918616815292529020805460ff19169115159190911790555b610d5661127c565b6001600160a01b0316816001600160a01b03167ff4caeb2d6ca8932a215a353d0703c326ec2d81fc68170f320eb2ab49e9df61f960405160405180910390a350565b60038054604080516020601f60026000196101006001881615020190951694909404938401819004810282018101909252828152606093909290918301828280156108675780601f106108cf57610100808354040283529160200191610867565b610e1e610e0461127c565b848484604051806020016040528060008152506001611ce2565b505050565b60006001600160a01b038316610e6a5760405162461bcd60e51b81526004018080602001828103825260248152602001806122406024913960400191505060405180910390fd5b6000610e7461127c565b9050610ea281828686604051806020016040528060008152506040518060200160405280600081525061136c565b610ece818286866040518060200160405280600081525060405180602001604052806000815250611599565b6109138182868660405180602001604052806000815250604051806020016040528060008152506000611837565b6000816001600160a01b0316836001600160a01b03161480610f6757506001600160a01b03831660009081526005602052604090205460ff168015610f6757506001600160a01b0380831660009081526007602090815260408083209387168352929052205460ff16155b80610f9757506001600160a01b0380831660009081526006602090815260408083209387168352929052205460ff165b9392505050565b6001600160a01b03918216600090815260086020908152604080832093909416825291909152205490565b610fd161127c565b6009546001600160a01b03908116911614611021576040805162461bcd60e51b815260206004820181905260248201526000805160206121b3833981519152604482015290519081900360640190fd5b6001600160a01b0381166110665760405162461bcd60e51b81526004018080602001828103825260268152602001806121266026913960400191505060405180910390fd5b6009546040516001600160a01b038084169216906000805160206121d383398151915290600090a3600980546001600160a01b0319166001600160a01b0392909216919091179055565b6110b861127c565b6001600160a01b0316816001600160a01b031614156111085760405162461bcd60e51b81526004018080602001828103825260218152602001806121926021913960400191505060405180910390fd5b6001600160a01b03811660009081526005602052604090205460ff16156111745760016007600061113761127c565b6001600160a01b03908116825260208083019390935260409182016000908120918616815292529020805460ff19169115159190911790556111b2565b6006600061118061127c565b6001600160a01b03908116825260208083019390935260409182016000908120918516815292529020805460ff191690555b6111ba61127c565b6001600160a01b0316816001600160a01b03167f50546e66e5f44d728365dc3908c63bc5cfeeab470722c1677e3073a6ac294aa160405160405180910390a350565b61120d61120761127c565b85610efc565b6112485760405162461bcd60e51b815260040180806020018281038252602c815260200180612284602c913960400191505060405180910390fd5b61125484848484611db9565b50505050565b610b2761126561127c565b838360405180602001604052806000815250611db9565b3390565b6001600160a01b0383166112c55760405162461bcd60e51b81526004018080602001828103825260258152602001806120b86025913960400191505060405180910390fd5b6001600160a01b03821661130a5760405162461bcd60e51b81526004018080602001828103825260238152602001806123226023913960400191505060405180910390fd5b6001600160a01b03808416600081815260086020908152604080832094871680845294825291829020859055815185815291517f8c5be1e5ebec7d5bd14f71427d1e84f3dd0314c0f7b2291e5b200ac8c7c3b9259281900390910190a3505050565b6040805163555ddc6560e11b81526001600160a01b03871660048201527f29ddb589b1fb5fc7cf394961c1adf5f8c6454761adf795e67fe149f658abe89560248201529051600091731820a4b7618bde71dce8cdc73aab6c95905fad249163aabbb8ca91604480820192602092909190829003018186803b1580156113f057600080fd5b505afa158015611404573d6000803e3d6000fd5b505050506040513d602081101561141a57600080fd5b505190506001600160a01b0381161561159057806001600160a01b03166375ab97828888888888886040518763ffffffff1660e01b815260040180876001600160a01b03168152602001866001600160a01b03168152602001856001600160a01b031681526020018481526020018060200180602001838103835285818151815260200191508051906020019080838360005b838110156114c55781810151838201526020016114ad565b50505050905090810190601f1680156114f25780820380516001836020036101000a031916815260200191505b50838103825284518152845160209182019186019080838360005b8381101561152557818101518382015260200161150d565b50505050905090810190601f1680156115525780820380516001836020036101000a031916815260200191505b5098505050505050505050600060405180830381600087803b15801561157757600080fd5b505af115801561158b573d6000803e3d6000fd5b505050505b50505050505050565b6115a586868686611254565b6115e2836040518060600160405280602781526020016120ff602791396001600160a01b03881660009081526020819052604090205491906117a0565b6001600160a01b0380871660009081526020819052604080822093909355908616815220546116119084611fe1565b600080866001600160a01b03166001600160a01b0316815260200190815260200160002081905550836001600160a01b0316856001600160a01b0316876001600160a01b03167f06b541ddaa720db2b10a4d0cdac39b8d360425fc073085fac19bc82614677987868686604051808481526020018060200180602001838103835285818151815260200191508051906020019080838360005b838110156116c25781810151838201526020016116aa565b50505050905090810190601f1680156116ef5780820380516001836020036101000a031916815260200191505b50838103825284518152845160209182019186019080838360005b8381101561172257818101518382015260200161170a565b50505050905090810190601f16801561174f5780820380516001836020036101000a031916815260200191505b509550505050505060405180910390a4836001600160a01b0316856001600160a01b0316600080516020612264833981519152856040518082815260200191505060405180910390a3505050505050565b6000818484111561182f5760405162461bcd60e51b81526004018080602001828103825283818151815260200191508051906020019080838360005b838110156117f45781810151838201526020016117dc565b50505050905090810190601f1680156118215780820380516001836020036101000a031916815260200191505b509250505060405180910390fd5b505050900390565b6040805163555ddc6560e11b81526001600160a01b03871660048201527fb281fc8c12954d22544db45de3159a39272895b169a852b314f9cc762e44c53b60248201529051600091731820a4b7618bde71dce8cdc73aab6c95905fad249163aabbb8ca91604480820192602092909190829003018186803b1580156118bb57600080fd5b505afa1580156118cf573d6000803e3d6000fd5b505050506040513d60208110156118e557600080fd5b505190506001600160a01b03811615611a5e57806001600160a01b03166223de298989898989896040518763ffffffff1660e01b815260040180876001600160a01b03168152602001866001600160a01b03168152602001856001600160a01b031681526020018481526020018060200180602001838103835285818151815260200191508051906020019080838360005b8381101561198f578181015183820152602001611977565b50505050905090810190601f1680156119bc5780820380516001836020036101000a031916815260200191505b50838103825284518152845160209182019186019080838360005b838110156119ef5781810151838201526020016119d7565b50505050905090810190601f168015611a1c5780820380516001836020036101000a031916815260200191505b5098505050505050505050600060405180830381600087803b158015611a4157600080fd5b505af1158015611a55573d6000803e3d6000fd5b50505050611ab2565b8115611ab257611a76866001600160a01b0316612039565b15611ab25760405162461bcd60e51b815260040180806020018281038252604d8152602001806121f3604d913960600191505060405180910390fd5b5050505050505050565b6001600160a01b038416611b17576040805162461bcd60e51b815260206004820181905260248201527f4552433737373a206d696e7420746f20746865207a65726f2061646472657373604482015290519081900360640190fd5b6000611b2161127c565b9050611b308160008787611254565b600154611b3d9085611fe1565b6001556001600160a01b038516600090815260208190526040902054611b639085611fe1565b6001600160a01b038616600090815260208190526040812091909155611b90908290878787876001611837565b846001600160a01b0316816001600160a01b03167f2fe5be0146f74c5bce36c0b80911af6c7d86ff27e89d5cfa61fc681327954e5d868686604051808481526020018060200180602001838103835285818151815260200191508051906020019080838360005b83811015611c0f578181015183820152602001611bf7565b50505050905090810190601f168015611c3c5780820380516001836020036101000a031916815260200191505b50838103825284518152845160209182019186019080838360005b83811015611c6f578181015183820152602001611c57565b50505050905090810190601f168015611c9c5780820380516001836020036101000a031916815260200191505b509550505050505060405180910390a36040805185815290516001600160a01b038716916000916000805160206122648339815191529181900360200190a35050505050565b6001600160a01b038616611d275760405162461bcd60e51b81526004018080602001828103825260228152602001806120dd6022913960400191505060405180910390fd5b6001600160a01b038516611d82576040805162461bcd60e51b815260206004820181905260248201527f4552433737373a2073656e6420746f20746865207a65726f2061646472657373604482015290519081900360640190fd5b6000611d8c61127c565b9050611d9c81888888888861136c565b611daa818888888888611599565b61159081888888888888611837565b6001600160a01b038416611dfe5760405162461bcd60e51b815260040180806020018281038252602281526020018061214c6022913960400191505060405180910390fd5b6000611e0861127c565b9050611e178186600087611254565b611e268186600087878761136c565b611e63846040518060600160405280602381526020016122ff602391396001600160a01b03881660009081526020819052604090205491906117a0565b6001600160a01b038616600090815260208190526040902055600154611e899085612075565b600181905550846001600160a01b0316816001600160a01b03167fa78a9be3a7b862d26933ad85fb11d80ef66b8f972d7cbba06621d583943a4098868686604051808481526020018060200180602001838103835285818151815260200191508051906020019080838360005b83811015611f0e578181015183820152602001611ef6565b50505050905090810190601f168015611f3b5780820380516001836020036101000a031916815260200191505b50838103825284518152845160209182019186019080838360005b83811015611f6e578181015183820152602001611f56565b50505050905090810190601f168015611f9b5780820380516001836020036101000a031916815260200191505b509550505050505060405180910390a36040805185815290516000916001600160a01b038816916000805160206122648339815191529181900360200190a35050505050565b600082820183811015610f97576040805162461bcd60e51b815260206004820152601b60248201527a536166654d6174683a206164646974696f6e206f766572666c6f7760281b604482015290519081900360640190fd5b6000813f7fc5d2460186f7233c927e7db2dcc703c0e500b653ca82273b7bfad8045d85a47081811480159061206d57508115155b949350505050565b6000610f9783836040518060400160405280601e81526020017f536166654d6174683a207375627472616374696f6e206f766572666c6f7700008152506117a056fe4552433737373a20617070726f76652066726f6d20746865207a65726f20616464726573734552433737373a2073656e642066726f6d20746865207a65726f20616464726573734552433737373a207472616e7366657220616d6f756e7420657863656564732062616c616e63654f776e61626c653a206e6577206f776e657220697320746865207a65726f20616464726573734552433737373a206275726e2066726f6d20746865207a65726f20616464726573734552433737373a20617574686f72697a696e672073656c66206173206f70657261746f724552433737373a207265766f6b696e672073656c66206173206f70657261746f724f776e61626c653a2063616c6c6572206973206e6f7420746865206f776e65728be0079c531659141344cd1fd0a4f28419497f9722a3daafe3b4186f6b6457e04552433737373a20746f6b656e20726563697069656e7420636f6e747261637420686173206e6f20696d706c656d656e74657220666f7220455243373737546f6b656e73526563697069656e744552433737373a207472616e7366657220746f20746865207a65726f2061646472657373ddf252ad1be2c89b69c2b068fc378daa952ba7f163c4a11628f55a4df523b3ef4552433737373a2063616c6c6572206973206e6f7420616e206f70657261746f7220666f7220686f6c6465724552433737373a207472616e7366657220616d6f756e74206578636565647320616c6c6f77616e63654552433737373a207472616e736665722066726f6d20746865207a65726f20616464726573734552433737373a206275726e20616d6f756e7420657863656564732062616c616e63654552433737373a20617070726f766520746f20746865207a65726f2061646472657373a264697066735822122063a4340c71de9d59d31c00a3a3e90ffe8ddfa872657b45def275e46647c559a964736f6c634300060c0033608060405234801561001057600080fd5b50604051610998380380610998833981810160405260a081101561003357600080fd5b50805160208201516040830151606084015160809094015160016000818155600280546001600160a01b03199081166001600160a01b039889161790915582541695909416949094179093556005556006929092556007556108fd90819061009b90396000f3fe608060405234801561001057600080fd5b50600436106100835760003560e01c80630c98b5da1461008857806327e235e3146100c05780632e1a7d4d146100e65780633197cbb61461010357806351ed6a301461010b57806378e979251461012f5780638476cf6514610137578063b6b55f251461013f578063fec94ad11461015c575b600080fd5b6100ae6004803603602081101561009e57600080fd5b50356001600160a01b0316610164565b60408051918252519081900360200190f35b6100ae600480360360208110156100d657600080fd5b50356001600160a01b0316610176565b6100ae600480360360208110156100fc57600080fd5b5035610188565b6100ae610391565b610113610397565b604080516001600160a01b039092168252519081900360200190f35b6100ae6103a6565b6101136103ac565b6100ae6004803603602081101561015557600080fd5b50356103bb565b6100ae61061c565b60036020526000908152604090205481565b60046020526000908152604090205481565b6000600260005414156101d0576040805162461bcd60e51b815260206004820152601f6024820152600080516020610887833981519152604482015290519081900360640190fd5b600260008181559054604080516327e235e360e01b815233600482015290516001600160a01b03909216916327e235e39160248082019260209290919082900301818787803b15801561022257600080fd5b505af1158015610236573d6000803e3d6000fd5b505050506040513d602081101561024c57600080fd5b50519050600061025a610622565b3360009081526004602052604090205490915061027790856106f3565b336000908152600460205260409020556002546040805163e0b1cccb60e01b8152336004820152838501602482015290516001600160a01b039092169163e0b1cccb9160448082019260009290919082900301818387803b1580156102db57600080fd5b505af11580156102ef573d6000803e3d6000fd5b50506001546040805163a9059cbb60e01b81523360048201526024810189905290516001600160a01b03909216935063a9059cbb92506044808201926020929091908290030181600087803b15801561034757600080fd5b505af115801561035b573d6000803e3d6000fd5b505050506040513d602081101561037157600080fd5b505033600090815260046020526040902054925050506001600055919050565b60065481565b6001546001600160a01b031681565b60055481565b6002546001600160a01b031681565b600060026000541415610403576040805162461bcd60e51b815260206004820152601f6024820152600080516020610887833981519152604482015290519081900360640190fd5b60026000556006544290811061045a576040805162461bcd60e51b81526020600482015260176024820152761cdd185ada5b99c81c1bdbdb081a185cc818db1bdcd959604a1b604482015290519081900360640190fd5b600254604080516327e235e360e01b815233600482015290516000926001600160a01b0316916327e235e391602480830192602092919082900301818787803b1580156104a657600080fd5b505af11580156104ba573d6000803e3d6000fd5b505050506040513d60208110156104d057600080fd5b5051905060006104de610622565b336000908152600460205260409020549091506104fb908661073e565b33600081815260046020819052604080832094909455600254845163e0b1cccb60e01b815291820193909352858501602482015292516001600160a01b039092169263e0b1cccb926044808301939282900301818387803b15801561055f57600080fd5b505af1158015610573573d6000803e3d6000fd5b5050600154604080516323b872dd60e01b8152336004820152306024820152604481018a905290516001600160a01b0390921693506323b872dd92506064808201926020929091908290030181600087803b1580156105d157600080fd5b505af11580156105e5573d6000803e3d6000fd5b505050506040513d60208110156105fb57600080fd5b50503360009081526004602052604090205493505050506001600055919050565b60075481565b60006002600054141561066a576040805162461bcd60e51b815260206004820152601f6024820152600080516020610887833981519152604482015290519081900360640190fd5b600260009081553381526004602090815260408083205460039092528220546005544293908410156106ae57600554336000908152600360205260409020556106e6565b6106d1836106cb6007546106cb86896106f390919063ffffffff16565b90610796565b33600090815260036020526040902085905590505b9350505050600160005590565b600061073583836040518060400160405280601e81526020017f536166654d6174683a207375627472616374696f6e206f766572666c6f7700008152506107ef565b90505b92915050565b600082820183811015610735576040805162461bcd60e51b815260206004820152601b60248201527a536166654d6174683a206164646974696f6e206f766572666c6f7760281b604482015290519081900360640190fd5b6000826107a557506000610738565b828202828482816107b257fe5b04146107355760405162461bcd60e51b81526004018080602001828103825260218152602001806108a76021913960400191505060405180910390fd5b6000818484111561087e5760405162461bcd60e51b81526004018080602001828103825283818151815260200191508051906020019080838360005b8381101561084357818101518382015260200161082b565b50505050905090810190601f1680156108705780820380516001836020036101000a031916815260200191505b509250505060405180910390fd5b50505090039056fe5265656e7472616e637947756172643a207265656e7472616e742063616c6c00536166654d6174683a206d756c7469706c69636174696f6e206f766572666c6f77a264697066735822122019678d7ee69409913760cf2c96d057bd4c0bd79f19e1e9337c3769843aa7208364736f6c634300060c0033608060405234801561001057600080fd5b506040516161373803806161378339818101604052604081101561003357600080fd5b5080516020909101516001600055600480546001600160a01b038085166001600160a01b0319928316179283905560058054831693821693909317909255600380549284169290911691909117905560405161008e906100d3565b604051809103906000f0801580156100aa573d6000803e3d6000fd5b50600680546001600160a01b0319166001600160a01b0392909216919091179055506100e09050565b61573480610a0383390190565b610914806100ef6000396000f3fe608060405234801561001057600080fd5b50600436106100785760003560e01c806314f592d41461007d5780631c1cb323146102515780633ac2a032146102595780636279cb2714610261578063a3dd595d14610269578063a877d7451461028f578063c23a5cea146102c7578063f2fd83e0146102ef575b600080fd5b610235600480360360a081101561009357600080fd5b810190602081018135600160201b8111156100ad57600080fd5b8201836020820111156100bf57600080fd5b803590602001918460018302840111600160201b831117156100e057600080fd5b91908080601f01602080910402602001604051908101604052809392919081815260200183838082843760009201919091525092958435959094909350604081019250602001359050600160201b81111561013a57600080fd5b82018360208201111561014c57600080fd5b803590602001918460018302840111600160201b8311171561016d57600080fd5b91908080601f0160208091040260200160405190810160405280939291908181526020018383808284376000920191909152509295949360208101935035915050600160201b8111156101bf57600080fd5b8201836020820111156101d157600080fd5b803590602001918460018302840111600160201b831117156101f257600080fd5b91908080601f01602080910402602001604051908101604052809392919081815260200183838082843760009201919091525092955050913592506102f7915050565b604080516001600160a01b039092168252519081900360200190f35b610235610628565b610235610637565b610235610646565b6102356004803603602081101561027f57600080fd5b50356001600160a01b0316610655565b6102b5600480360360208110156102a557600080fd5b50356001600160a01b0316610670565b60408051918252519081900360200190f35b6102ed600480360360208110156102dd57600080fd5b50356001600160a01b0316610682565b005b61023561088a565b60006002600054141561033f576040805162461bcd60e51b815260206004820152601f602482015260008051602061089a833981519152604482015290519081900360640190fd5b60026000819055506000600660009054906101000a90046001600160a01b03166001600160a01b031663f452bbcb8888888833600460009054906101000a90046001600160a01b0316600360009054906101000a90046001600160a01b03166040518863ffffffff1660e01b815260040180806020018881526020018060200180602001876001600160a01b03168152602001866001600160a01b03168152602001856001600160a01b0316815260200184810384528b818151815260200191508051906020019080838360005b8381101561042557818101518382015260200161040d565b50505050905090810190601f1680156104525780820380516001836020036101000a031916815260200191505b5084810383528951815289516020918201918b019080838360005b8381101561048557818101518382015260200161046d565b50505050905090810190601f1680156104b25780820380516001836020036101000a031916815260200191505b5084810382528851815288516020918201918a019080838360005b838110156104e55781810151838201526020016104cd565b50505050905090810190601f1680156105125780820380516001836020036101000a031916815260200191505b509a5050505050505050505050602060405180830381600087803b15801561053957600080fd5b505af115801561054d573d6000803e3d6000fd5b505050506040513d602081101561056357600080fd5b50516001600160a01b0380821660009081526001602090815260408083208890556002825280832080546001600160a01b0319163390811790915560055482516323b872dd60e01b81526004810192909252306024830152604482018a905291519596509316936323b872dd93606480820194918390030190829087803b1580156105ed57600080fd5b505af1158015610601573d6000803e3d6000fd5b505050506040513d602081101561061757600080fd5b505060016000559695505050505050565b6003546001600160a01b031681565b6006546001600160a01b031681565b6004546001600160a01b031681565b6002602052600090815260409020546001600160a01b031681565b60016020526000908152604090205481565b600260005414156106c8576040805162461bcd60e51b815260206004820152601f602482015260008051602061089a833981519152604482015290519081900360640190fd5b600260009081556001600160a01b03821681526001602052604090205461072d576040805162461bcd60e51b81526020600482015260146024820152734e6f207374616b6520746f20776974686472617760601b604482015290519081900360640190fd5b6000819050806001600160a01b0316639b34ae036040518163ffffffff1660e01b8152600401602060405180830381600087803b15801561076d57600080fd5b505af1158015610781573d6000803e3d6000fd5b505050506040513d602081101561079757600080fd5b5051670de0b6b3a763ffff1914156107e05760405162461bcd60e51b81526004018080602001828103825260258152602001806108ba6025913960400191505060405180910390fd5b6001600160a01b0380831660009081526001602090815260408083208054908490556005546002845282852054835163a9059cbb60e01b815290871660048201526024810183905292519195169363a9059cbb93604480850194919392918390030190829087803b15801561085457600080fd5b505af1158015610868573d6000803e3d6000fd5b505050506040513d602081101561087e57600080fd5b50506001600055505050565b6005546001600160a01b03168156fe5265656e7472616e637947756172643a207265656e7472616e742063616c6c004d61726b657420776173206465656d656420696e76616c69642e205374616b65206c6f7374a26469706673582212208d29f54bccfc7fc5ea764f2130019beab1461e4c5aaa9df641004a8c399cf78d64736f6c634300060c0033608060405234801561001057600080fd5b50600061001b61006a565b600080546001600160a01b0319166001600160a01b0383169081178255604051929350917f8be0079c531659141344cd1fd0a4f28419497f9722a3daafe3b4186f6b6457e0908290a35061006e565b3390565b6156b78061007d6000396000f3fe60806040523480156200001157600080fd5b50600436106200005e5760003560e01c8063715018a614620000635780638da5cb5b146200006f578063a3dd595d1462000095578063f2fde38b14620000be578063f452bbcb14620000e7575b600080fd5b6200006d620002c3565b005b6200007962000358565b604080516001600160a01b039092168252519081900360200190f35b6200007960048036036020811015620000ad57600080fd5b50356001600160a01b031662000367565b6200006d60048036036020811015620000d657600080fd5b50356001600160a01b031662000382565b62000079600480360360e0811015620000ff57600080fd5b810190602081018135600160201b8111156200011a57600080fd5b8201836020820111156200012d57600080fd5b803590602001918460018302840111600160201b831117156200014f57600080fd5b91908080601f01602080910402602001604051908101604052809392919081815260200183838082843760009201919091525092958435959094909350604081019250602001359050600160201b811115620001aa57600080fd5b820183602082011115620001bd57600080fd5b803590602001918460018302840111600160201b83111715620001df57600080fd5b91908080601f0160208091040260200160405190810160405280939291908181526020018383808284376000920191909152509295949360208101935035915050600160201b8111156200023257600080fd5b8201836020820111156200024557600080fd5b803590602001918460018302840111600160201b831117156200026757600080fd5b91908080601f016020809104026020016040519081016040528093929190818152602001838380828437600092019190915250929550506001600160a01b038335811694506020840135811693604001351691506200046f9050565b620002cd620006a6565b6000546001600160a01b039081169116146200031f576040805162461bcd60e51b8152602060048201819052602482015260008051602062005642833981519152604482015290519081900360640190fd5b600080546040516001600160a01b039091169060008051602062005662833981519152908390a3600080546001600160a01b0319169055565b6000546001600160a01b031690565b6001602052600090815260409020546001600160a01b031681565b6200038c620006a6565b6000546001600160a01b03908116911614620003de576040805162461bcd60e51b8152602060048201819052602482015260008051602062005642833981519152604482015290519081900360640190fd5b6001600160a01b038116620004255760405162461bcd60e51b81526004018080602001828103825260268152602001806200561c6026913960400191505060405180910390fd5b600080546040516001600160a01b03808516939216916000805160206200566283398151915291a3600080546001600160a01b0319166001600160a01b0392909216919091179055565b60006200047b620006a6565b6000546001600160a01b03908116911614620004cd576040805162461bcd60e51b8152602060048201819052602482015260008051602062005642833981519152604482015290519081900360640190fd5b6000888884868a8a604051620004e390620006aa565b8080602001878152602001866001600160a01b03168152602001856001600160a01b03168152602001806020018060200184810384528a818151815260200191508051906020019080838360005b838110156200054b57818101518382015260200162000531565b50505050905090810190601f168015620005795780820380516001836020036101000a031916815260200191505b50848103835286518152865160209182019188019080838360005b83811015620005ae57818101518382015260200162000594565b50505050905090810190601f168015620005dc5780820380516001836020036101000a031916815260200191505b50848103825285518152855160209182019187019080838360005b8381101562000611578181015183820152602001620005f7565b50505050905090810190601f1680156200063f5780820380516001836020036101000a031916815260200191505b509950505050505050505050604051809103906000f08015801562000668573d6000803e3d6000fd5b506001600160a01b03818116600090815260016020526040902080546001600160a01b03191697909116969096179095555092979650505050505050565b3390565b614f6380620006b98339019056fe60806040523480156200001157600080fd5b5060405162004f6338038062004f63833981810160405260c08110156200003757600080fd5b81019080805160405193929190846401000000008211156200005857600080fd5b9083019060208201858111156200006e57600080fd5b82516401000000008111828201881017156200008957600080fd5b82525081516020918201929091019080838360005b83811015620000b85781810151838201526020016200009e565b50505050905090810190601f168015620000e65780820380516001836020036101000a031916815260200191505b506040818152602083015190830151606084015160809094018051929691959192846401000000008211156200011b57600080fd5b9083019060208201858111156200013157600080fd5b82516401000000008111828201881017156200014c57600080fd5b82525081516020918201929091019080838360005b838110156200017b57818101518382015260200162000161565b50505050905090810190601f168015620001a95780820380516001836020036101000a031916815260200191505b5060405260200180516040519392919084640100000000821115620001cd57600080fd5b908301906020820185811115620001e357600080fd5b8251640100000000811182820188101715620001fe57600080fd5b82525081516020918201929091019080838360005b838110156200022d57818101518382015260200162000213565b50505050905090810190601f1680156200025b5780820380516001836020036101000a031916815260200191505b506040525050600160005550428511620002d657604080517f08c379a000000000000000000000000000000000000000000000000000000000815260206004820152601c60248201527f656e642074696d65206d75737420626520616674657220737461727400000000604482015290519081900360640190fd5b60088590558551620002f090600590602089019062000441565b50600280546001600160a01b038087166001600160a01b03199283168117909355600180548316909317909255600480549286169282168317905560038054909116909117905581516200034c90600690602085019062000441565b5080516200036290600790602084019062000441565b50306040516200037290620004c6565b6001600160a01b03909116815260405190819003602001906000f080158015620003a0573d6000803e3d6000fd5b50600b80546001600160a01b0319166001600160a01b0392831617905560035460405187929190911690620003d590620004d4565b9182526001600160a01b03166020820152604080519182900301906000f08015801562000406573d6000803e3d6000fd5b50600980546001600160a01b03199081166001600160a01b039384161791829055600a805492909316911617905550620004f9945050505050565b828054600181600116156101000203166002900490600052602060002090601f016020900481019282601f106200048457805160ff1916838001178555620004b4565b82800160010185558215620004b4579182015b82811115620004b457825182559160200191906001019062000497565b50620004c2929150620004e2565b5090565b61355e806200123783390190565b6107ce806200479583390190565b5b80821115620004c25760008155600101620004e3565b610d2e80620005096000396000f3fe608060405234801561001057600080fd5b50600436106100d05760003560e01c80630b8a5c46146100d55780631a973c84146100f45780631c1cb323146101185780631ea736e0146101205780633d402f7e1461013a5780633fad9ae01461015d5780635c99ee01146101da5780636279cb27146101e25780636b2fa374146101ea5780637920c127146101f25780639b34ae03146101fa578063d2fa717014610202578063ebb01e651461020a578063f2fd83e014610227578063f3a8a2321461022f578063fce1ccca1461024c575b600080fd5b6100f2600480360360208110156100eb57600080fd5b5035610254565b005b6100fc610768565b604080516001600160a01b039092168252519081900360200190f35b6100fc610777565b610128610786565b60408051918252519081900360200190f35b6100f26004803603604081101561015057600080fd5b508035906020013561078c565b6101656107fc565b6040805160208082528351818301528351919283929083019185019080838360005b8381101561019f578181015183820152602001610187565b50505050905090810190601f1680156101cc5780820380516001836020036101000a031916815260200191505b509250505060405180910390f35b61016561088a565b6100fc6108e5565b6100fc6108f4565b610165610903565b61012861095e565b6100fc6109d5565b6100f26004803603602081101561022057600080fd5b50356109e4565b6100fc610ad8565b6100f26004803603602081101561024557600080fd5b5035610ae7565b6100fc610cc9565b60085442116102a6576040805162461bcd60e51b8152602060048201526019602482015278159bdd19481a5cc81b9bdd081e595d0818dbdb5c1b195d1959603a1b604482015290519081900360640190fd5b600260005414156102ec576040805162461bcd60e51b815260206004820152601f6024820152600080516020610cd9833981519152604482015290519081900360640190fd5b6002600081905550600960009054906101000a90046001600160a01b03166001600160a01b0316639b34ae036040518163ffffffff1660e01b8152600401602060405180830381600087803b15801561034457600080fd5b505af1158015610358573d6000803e3d6000fd5b505050506040513d602081101561036e57600080fd5b5051670de0b6b3a763ffff19141561047357600b5460408051635084280d60e11b81523360048201526024810184905290516001600160a01b039092169163a108501a9160448082019260009290919082900301818387803b1580156103d357600080fd5b505af11580156103e7573d6000803e3d6000fd5b50506002546040805163a9059cbb60e01b8152336004820152670de0b6b3a7640000602482015290516001600160a01b03909216935063a9059cbb92506044808201926020929091908290030181600087803b15801561044657600080fd5b505af115801561045a573d6000803e3d6000fd5b505050506040513d602081101561047057600080fd5b50505b600960009054906101000a90046001600160a01b03166001600160a01b0316639b34ae036040518163ffffffff1660e01b8152600401602060405180830381600087803b1580156104c357600080fd5b505af11580156104d7573d6000803e3d6000fd5b505050506040513d60208110156104ed57600080fd5b5051670de0b6b3a764000014156105f157600b54604080516323ed3bfd60e21b81523360048201526024810184905290516001600160a01b0390921691638fb4eff49160448082019260009290919082900301818387803b15801561055157600080fd5b505af1158015610565573d6000803e3d6000fd5b50506002546040805163a9059cbb60e01b8152336004820152670de0b6b3a7640000602482015290516001600160a01b03909216935063a9059cbb92506044808201926020929091908290030181600087803b1580156105c457600080fd5b505af11580156105d8573d6000803e3d6000fd5b505050506040513d60208110156105ee57600080fd5b50505b600960009054906101000a90046001600160a01b03166001600160a01b0316639b34ae036040518163ffffffff1660e01b8152600401602060405180830381600087803b15801561064157600080fd5b505af1158015610655573d6000803e3d6000fd5b505050506040513d602081101561066b57600080fd5b505161076057600b54604080516379a9568560e11b81523360048201526024810184905290516001600160a01b039092169163f352ad0a9160448082019260009290919082900301818387803b1580156106c457600080fd5b505af11580156106d8573d6000803e3d6000fd5b50506002546040805163a9059cbb60e01b815233600482015260006024820181905291516001600160a01b03909316945063a9059cbb9350604480820193602093909283900390910190829087803b15801561073357600080fd5b505af1158015610747573d6000803e3d6000fd5b505050506040513d602081101561075d57600080fd5b50505b506001600055565b600b546001600160a01b031681565b6001546001600160a01b031681565b60085481565b60095460408051631ea017bf60e11b8152600481018590526024810184905290516001600160a01b0390921691633d402f7e9160448082019260009290919082900301818387803b1580156107e057600080fd5b505af11580156107f4573d6000803e3d6000fd5b505050505050565b6005805460408051602060026001851615610100026000190190941693909304601f810184900484028201840190925281815292918301828280156108825780601f1061085757610100808354040283529160200191610882565b820191906000526020600020905b81548152906001019060200180831161086557829003601f168201915b505050505081565b6007805460408051602060026001851615610100026000190190941693909304601f810184900484028201840190925281815292918301828280156108825780601f1061085757610100808354040283529160200191610882565b6003546001600160a01b031681565b6002546001600160a01b031681565b6006805460408051602060026001851615610100026000190190941693909304601f810184900484028201840190925281815292918301828280156108825780601f1061085757610100808354040283529160200191610882565b60095460408051639b34ae0360e01b815290516000926001600160a01b031691639b34ae0391600480830192602092919082900301818787803b1580156109a457600080fd5b505af11580156109b8573d6000803e3d6000fd5b505050506040513d60208110156109ce57600080fd5b5051905090565b600a546001600160a01b031681565b600254604080516323b872dd60e01b81523360048201523060248201526044810184905290516001600160a01b03909216916323b872dd916064808201926020929091908290030181600087803b158015610a3e57600080fd5b505af1158015610a52573d6000803e3d6000fd5b505050506040513d6020811015610a6857600080fd5b5050600b5460408051631e633a8560e31b81523360048201526024810184905290516001600160a01b039092169163f319d4289160448082019260009290919082900301818387803b158015610abd57600080fd5b505af1158015610ad1573d6000803e3d6000fd5b5050505050565b6004546001600160a01b031681565b60026000541415610b2d576040805162461bcd60e51b815260206004820152601f6024820152600080516020610cd9833981519152604482015290519081900360640190fd5b60026000908155600b54604080516323ed3bfd60e21b81523360048201526024810185905290516001600160a01b0390921692638fb4eff49260448084019382900301818387803b158015610b8157600080fd5b505af1158015610b95573d6000803e3d6000fd5b5050600b54604080516379a9568560e11b81523360048201526024810186905290516001600160a01b03909216935063f352ad0a925060448082019260009290919082900301818387803b158015610bec57600080fd5b505af1158015610c00573d6000803e3d6000fd5b5050600b5460408051635084280d60e11b81523360048201526024810186905290516001600160a01b03909216935063a108501a925060448082019260009290919082900301818387803b158015610c5757600080fd5b505af1158015610c6b573d6000803e3d6000fd5b5050600254604080516323b872dd60e01b81523060048201523360248201526044810186905290516001600160a01b0390921693506323b872dd92506064808201926020929091908290030181600087803b15801561073357600080fd5b6009546001600160a01b03168156fe5265656e7472616e637947756172643a207265656e7472616e742063616c6c00a2646970667358221220fa6c7e7b547333c37c94178f77dee9396e6c75271b86521f5b162f42b918128e64736f6c634300060c0033608060405234801561001057600080fd5b5060405161355e38038061355e8339818101604052602081101561003357600080fd5b5051600061003f610331565b600080546001600160a01b0319166001600160a01b0383169081178255604051929350917f8be0079c531659141344cd1fd0a4f28419497f9722a3daafe3b4186f6b6457e0908290a350600180546001600160a01b0319166001600160a01b03831617905560405181906100b290610335565b6001600160a01b0390911660408083019190915260608083526015908301527f466f72657369676874202d205965732f53686f72740000000000000000000000608083015260a0602083018190526003908301527f465953000000000000000000000000000000000000000000000000000000000060c0830152519081900360e001906000f08015801561014a573d6000803e3d6000fd5b50600280546001600160a01b0319166001600160a01b0392909216919091179055604051819061017990610335565b6001600160a01b0390911660408083019190915260608083526013908301527f466f72657369676874202d204e6f2f4c6f6e6700000000000000000000000000608083015260a0602083018190526003908301527f464e4c000000000000000000000000000000000000000000000000000000000060c0830152519081900360e001906000f080158015610211573d6000803e3d6000fd5b50600380546001600160a01b0319166001600160a01b0392909216919091179055604051819061024090610335565b6001600160a01b0390911660408083019190915260608083526013908301527f466f72657369676874202d20496e76616c696400000000000000000000000000608083015260a0602083018190526004908301527f46494e560000000000000000000000000000000000000000000000000000000060c0830152519081900360e001906000f0801580156102d8573d6000803e3d6000fd5b50600480546001600160a01b039283166001600160a01b03199182161791829055600254600580548316918516919091179055600354600680548316918516919091179055600780549091169190921617905550610342565b3390565b6129d280610b8c83390190565b61083b806103516000396000f3fe608060405234801561001057600080fd5b50600436106100ba5760003560e01c80630e49dd7e146100bf57806315edaf8b146100e35780631eb3dfcc146100eb57806338f4a5bf146100f357806365a2e2e8146100fb578063715018a6146101035780638da5cb5b1461010d5780638fb4eff4146101155780639562364114610141578063a108501a14610149578063f2fde38b14610175578063f319d4281461019b578063f3297347146101c7578063f352ad0a146101cf575b600080fd5b6100c76101fb565b604080516001600160a01b039092168252519081900360200190f35b6100c761020a565b6100c7610219565b6100c7610228565b6100c7610237565b61010b610246565b005b6100c76102d6565b61010b6004803603604081101561012b57600080fd5b506001600160a01b0381351690602001356102e5565b6100c76103ae565b61010b6004803603604081101561015f57600080fd5b506001600160a01b0381351690602001356103bd565b61010b6004803603602081101561018b57600080fd5b50356001600160a01b031661046e565b61010b600480360360408110156101b157600080fd5b506001600160a01b038135169060200135610554565b6100c76106df565b61010b600480360360408110156101e557600080fd5b506001600160a01b0381351690602001356106ee565b6005546001600160a01b031681565b6006546001600160a01b031681565b6007546001600160a01b031681565b6002546001600160a01b031681565b6004546001600160a01b031681565b61024e61079b565b6000546001600160a01b0390811691161461029e576040805162461bcd60e51b815260206004820181905260248201526000805160206107c6833981519152604482015290519081900360640190fd5b600080546040516001600160a01b03909116906000805160206107e6833981519152908390a3600080546001600160a01b0319169055565b6000546001600160a01b031690565b6102ed61079b565b6000546001600160a01b0390811691161461033d576040805162461bcd60e51b815260206004820181905260248201526000805160206107c6833981519152604482015290519081900360640190fd5b60025460408051632770a7eb60e21b81526001600160a01b0385811660048301526024820185905291519190921691639dc29fac91604480830192600092919082900301818387803b15801561039257600080fd5b505af11580156103a6573d6000803e3d6000fd5b505050505050565b6001546001600160a01b031681565b6103c561079b565b6000546001600160a01b03908116911614610415576040805162461bcd60e51b815260206004820181905260248201526000805160206107c6833981519152604482015290519081900360640190fd5b6004805460408051632770a7eb60e21b81526001600160a01b03868116948201949094526024810185905290519290911691639dc29fac9160448082019260009290919082900301818387803b15801561039257600080fd5b61047661079b565b6000546001600160a01b039081169116146104c6576040805162461bcd60e51b815260206004820181905260248201526000805160206107c6833981519152604482015290519081900360640190fd5b6001600160a01b03811661050b5760405162461bcd60e51b81526004018080602001828103825260268152602001806107a06026913960400191505060405180910390fd5b600080546040516001600160a01b03808516939216916000805160206107e683398151915291a3600080546001600160a01b0319166001600160a01b0392909216919091179055565b61055c61079b565b6000546001600160a01b039081169116146105ac576040805162461bcd60e51b815260206004820181905260248201526000805160206107c6833981519152604482015290519081900360640190fd5b600354604080516340c10f1960e01b81526001600160a01b03858116600483015260248201859052915191909216916340c10f1991604480830192600092919082900301818387803b15801561060157600080fd5b505af1158015610615573d6000803e3d6000fd5b5050600254604080516340c10f1960e01b81526001600160a01b0387811660048301526024820187905291519190921693506340c10f199250604480830192600092919082900301818387803b15801561066e57600080fd5b505af1158015610682573d6000803e3d6000fd5b505060048054604080516340c10f1960e01b81526001600160a01b03888116948201949094526024810187905290519290911693506340c10f19925060448082019260009290919082900301818387803b15801561039257600080fd5b6003546001600160a01b031681565b6106f661079b565b6000546001600160a01b03908116911614610746576040805162461bcd60e51b815260206004820181905260248201526000805160206107c6833981519152604482015290519081900360640190fd5b60035460408051632770a7eb60e21b81526001600160a01b0385811660048301526024820185905291519190921691639dc29fac91604480830192600092919082900301818387803b15801561039257600080fd5b339056fe4f776e61626c653a206e6577206f776e657220697320746865207a65726f20616464726573734f776e61626c653a2063616c6c6572206973206e6f7420746865206f776e65728be0079c531659141344cd1fd0a4f28419497f9722a3daafe3b4186f6b6457e0a2646970667358221220598cb88c267ee1cf293cad96b72d45f64dfa16e14918fe6a7980eec47d14992564736f6c634300060c003360806040523480156200001157600080fd5b50604051620029d2380380620029d2833981810160405260608110156200003757600080fd5b81019080805160405193929190846401000000008211156200005857600080fd5b9083019060208201858111156200006e57600080fd5b82516401000000008111828201881017156200008957600080fd5b82525081516020918201929091019080838360005b83811015620000b85781810151838201526020016200009e565b50505050905090810190601f168015620000e65780820380516001836020036101000a031916815260200191505b50604052602001805160405193929190846401000000008211156200010a57600080fd5b9083019060208201858111156200012057600080fd5b82516401000000008111828201881017156200013b57600080fd5b82525081516020918201929091019080838360005b838110156200016a57818101518382015260200162000150565b50505050905090810190601f168015620001985780820380516001836020036101000a031916815260200191505b5060408181526020928301516000835283830190915286519094508693508592620001c9916002918601906200044a565b508151620001df9060039060208501906200044a565b508051620001f5906004906020840190620004cf565b5060005b6004548110156200025557600160056000600484815481106200021857fe5b6000918252602080832091909101546001600160a01b031683528201929092526040019020805460ff1916911515919091179055600101620001f9565b50604080517f29965a1d00000000000000000000000000000000000000000000000000000000815230600482018190527fac7fbab5f54a3ca8194167523c6753bfeb96a445279294b6125b68cce2177054602483015260448201529051731820a4b7618bde71dce8cdc73aab6c95905fad24916329965a1d91606480830192600092919082900301818387803b158015620002ef57600080fd5b505af115801562000304573d6000803e3d6000fd5b5050604080517f29965a1d00000000000000000000000000000000000000000000000000000000815230600482018190527faea199e31a596269b42cdafd93407f14436db6e4cad65417994c2eb37381e05a602483015260448201529051731820a4b7618bde71dce8cdc73aab6c95905fad2493506329965a1d9250606480830192600092919082900301818387803b158015620003a157600080fd5b505af1158015620003b6573d6000803e3d6000fd5b505050505050506000620003cf6200044660201b60201c565b600980546001600160a01b0319166001600160a01b038316908117909155604051919250906000907f8be0079c531659141344cd1fd0a4f28419497f9722a3daafe3b4186f6b6457e0908290a350600a80546001600160a01b0319166001600160a01b0392909216919091179055506200056d9050565b3390565b828054600181600116156101000203166002900490600052602060002090601f016020900481019282601f106200048d57805160ff1916838001178555620004bd565b82800160010185558215620004bd579182015b82811115620004bd578251825591602001919060010190620004a0565b50620004cb92915062000535565b5090565b82805482825590600052602060002090810192821562000527579160200282015b828111156200052757825182546001600160a01b0319166001600160a01b03909116178255602090920191600190910190620004f0565b50620004cb9291506200054c565b5b80821115620004cb576000815560010162000536565b5b80821115620004cb5780546001600160a01b03191681556001016200054d565b612455806200057d6000396000f3fe608060405234801561001057600080fd5b50600436106101285760003560e01c806306e485381461012d57806306fdde0314610185578063095ea7b31461020257806318160ddd1461024257806323b872dd1461025c578063313ce5671461029257806340c10f19146102b0578063556f0dc7146102de57806362ad1b83146102e657806370a082311461042f578063715018a6146104555780638da5cb5b1461045d5780639562364114610481578063959b8c3f1461048957806395d89b41146104af5780639bd9bbc6146104b75780639dc29fac14610570578063a9059cbb1461059c578063d95b6371146105c8578063dd62ed3e146105f6578063f2fde38b14610624578063fad8b32a1461064a578063fc673c4f14610670578063fe9d9303146107ae575b600080fd5b610135610859565b60408051602080825283518183015283519192839290830191858101910280838360005b83811015610171578181015183820152602001610159565b505050509050019250505060405180910390f35b61018d6108bb565b6040805160208082528351818301528351919283929083019185019080838360005b838110156101c75781810151838201526020016101af565b50505050905090810190601f1680156101f45780820380516001836020036101000a031916815260200191505b509250505060405180910390f35b61022e6004803603604081101561021857600080fd5b506001600160a01b038135169060200135610945565b604080519115158252519081900360200190f35b61024a610967565b60408051918252519081900360200190f35b61022e6004803603606081101561027257600080fd5b506001600160a01b0381358116916020810135909116906040013561096d565b61029a610aea565b6040805160ff9092168252519081900360200190f35b6102dc600480360360408110156102c657600080fd5b506001600160a01b038135169060200135610aef565b005b61024a610b75565b6102dc600480360360a08110156102fc57600080fd5b6001600160a01b03823581169260208101359091169160408201359190810190608081016060820135600160201b81111561033657600080fd5b82018360208201111561034857600080fd5b803590602001918460018302840111600160201b8311171561036957600080fd5b91908080601f0160208091040260200160405190810160405280939291908181526020018383808284376000920191909152509295949360208101935035915050600160201b8111156103bb57600080fd5b8201836020820111156103cd57600080fd5b803590602001918460018302840111600160201b831117156103ee57600080fd5b91908080601f016020809104026020016040519081016040528093929190818152602001838380828437600092019190915250929550610b7a945050505050565b61024a6004803603602081101561044557600080fd5b50356001600160a01b0316610bdc565b6102dc610bf7565b610465610c87565b604080516001600160a01b039092168252519081900360200190f35b610465610c96565b6102dc6004803603602081101561049f57600080fd5b50356001600160a01b0316610ca5565b61018d610df1565b6102dc600480360360608110156104cd57600080fd5b6001600160a01b0382351691602081013591810190606081016040820135600160201b8111156104fc57600080fd5b82018360208201111561050e57600080fd5b803590602001918460018302840111600160201b8311171561052f57600080fd5b91908080601f016020809104026020016040519081016040528093929190818152602001838380828437600092019190915250929550610e52945050505050565b6102dc6004803603604081101561058657600080fd5b506001600160a01b038135169060200135610e7c565b61022e600480360360408110156105b257600080fd5b506001600160a01b038135169060200135610efe565b61022e600480360360408110156105de57600080fd5b506001600160a01b0381358116916020013516610fd7565b61024a6004803603604081101561060c57600080fd5b506001600160a01b0381358116916020013516611079565b6102dc6004803603602081101561063a57600080fd5b50356001600160a01b03166110a4565b6102dc6004803603602081101561066057600080fd5b50356001600160a01b031661118b565b6102dc6004803603608081101561068657600080fd5b6001600160a01b0382351691602081013591810190606081016040820135600160201b8111156106b557600080fd5b8201836020820111156106c757600080fd5b803590602001918460018302840111600160201b831117156106e857600080fd5b91908080601f0160208091040260200160405190810160405280939291908181526020018383808284376000920191909152509295949360208101935035915050600160201b81111561073a57600080fd5b82018360208201111561074c57600080fd5b803590602001918460018302840111600160201b8311171561076d57600080fd5b91908080601f0160208091040260200160405190810160405280939291908181526020018383808284376000920191909152509295506112d7945050505050565b6102dc600480360360408110156107c457600080fd5b81359190810190604081016020820135600160201b8111156107e557600080fd5b8201836020820111156107f757600080fd5b803590602001918460018302840111600160201b8311171561081857600080fd5b91908080601f016020809104026020016040519081016040528093929190818152602001838380828437600092019190915250929550611335945050505050565b606060048054806020026020016040519081016040528092919081815260200182805480156108b157602002820191906000526020600020905b81546001600160a01b03168152600190910190602001808311610893575b5050505050905090565b60028054604080516020601f60001961010060018716150201909416859004938401819004810282018101909252828152606093909290918301828280156108b15780601f10610919576101008083540402835291602001916108b1565b820191906000526020600020905b81548152906001019060200180831161092757509395945050505050565b600080610950611357565b905061095d81858561135b565b5060019392505050565b60015490565b60006001600160a01b0383166109b45760405162461bcd60e51b815260040180806020018281038252602481526020018061231b6024913960400191505060405180910390fd5b6001600160a01b0384166109f95760405162461bcd60e51b81526004018080602001828103825260268152602001806123b46026913960400191505060405180910390fd5b6000610a03611357565b9050610a31818686866040518060200160405280600081525060405180602001604052806000815250611447565b610a5d818686866040518060200160405280600081525060405180602001604052806000815250611674565b610ab18582610aac8660405180606001604052806029815260200161238b602991396001600160a01b03808c166000908152600860209081526040808320938b1683529290522054919061187b565b61135b565b610adf8186868660405180602001604052806000815250604051806020016040528060008152506000611912565b506001949350505050565b601290565b610af7611357565b6009546001600160a01b03908116911614610b47576040805162461bcd60e51b8152602060048201819052602482015260008051602061228e833981519152604482015290519081900360640190fd5b610b7182826040518060200160405280600081525060405180602001604052806000815250611b97565b5050565b600190565b610b8b610b85611357565b86610fd7565b610bc65760405162461bcd60e51b815260040180806020018281038252602c81526020018061235f602c913960400191505060405180910390fd5b610bd585858585856001611dbd565b5050505050565b6001600160a01b031660009081526020819052604090205490565b610bff611357565b6009546001600160a01b03908116911614610c4f576040805162461bcd60e51b8152602060048201819052602482015260008051602061228e833981519152604482015290519081900360640190fd5b6009546040516000916001600160a01b0316906000805160206122ae833981519152908390a3600980546001600160a01b0319169055565b6009546001600160a01b031690565b600a546001600160a01b031681565b806001600160a01b0316610cb7611357565b6001600160a01b03161415610cfd5760405162461bcd60e51b81526004018080602001828103825260248152602001806122496024913960400191505060405180910390fd5b6001600160a01b03811660009081526005602052604090205460ff1615610d605760076000610d2a611357565b6001600160a01b03908116825260208083019390935260409182016000908120918516815292529020805460ff19169055610da7565b600160066000610d6e611357565b6001600160a01b03908116825260208083019390935260409182016000908120918616815292529020805460ff19169115159190911790555b610daf611357565b6001600160a01b0316816001600160a01b03167ff4caeb2d6ca8932a215a353d0703c326ec2d81fc68170f320eb2ab49e9df61f960405160405180910390a350565b60038054604080516020601f60026000196101006001881615020190951694909404938401819004810282018101909252828152606093909290918301828280156108b15780601f10610919576101008083540402835291602001916108b1565b610e77610e5d611357565b848484604051806020016040528060008152506001611dbd565b505050565b610e84611357565b6009546001600160a01b03908116911614610ed4576040805162461bcd60e51b8152602060048201819052602482015260008051602061228e833981519152604482015290519081900360640190fd5b610b7182826040518060200160405280600081525060405180602001604052806000815250611e94565b60006001600160a01b038316610f455760405162461bcd60e51b815260040180806020018281038252602481526020018061231b6024913960400191505060405180910390fd5b6000610f4f611357565b9050610f7d818286866040518060200160405280600081525060405180602001604052806000815250611447565b610fa9818286866040518060200160405280600081525060405180602001604052806000815250611674565b61095d8182868660405180602001604052806000815250604051806020016040528060008152506000611912565b6000816001600160a01b0316836001600160a01b0316148061104257506001600160a01b03831660009081526005602052604090205460ff16801561104257506001600160a01b0380831660009081526007602090815260408083209387168352929052205460ff16155b8061107257506001600160a01b0380831660009081526006602090815260408083209387168352929052205460ff165b9392505050565b6001600160a01b03918216600090815260086020908152604080832093909416825291909152205490565b6110ac611357565b6009546001600160a01b039081169116146110fc576040805162461bcd60e51b8152602060048201819052602482015260008051602061228e833981519152604482015290519081900360640190fd5b6001600160a01b0381166111415760405162461bcd60e51b81526004018080602001828103825260268152602001806122016026913960400191505060405180910390fd5b6009546040516001600160a01b038084169216906000805160206122ae83398151915290600090a3600980546001600160a01b0319166001600160a01b0392909216919091179055565b611193611357565b6001600160a01b0316816001600160a01b031614156111e35760405162461bcd60e51b815260040180806020018281038252602181526020018061226d6021913960400191505060405180910390fd5b6001600160a01b03811660009081526005602052604090205460ff161561124f57600160076000611212611357565b6001600160a01b03908116825260208083019390935260409182016000908120918616815292529020805460ff191691151591909117905561128d565b6006600061125b611357565b6001600160a01b03908116825260208083019390935260409182016000908120918516815292529020805460ff191690555b611295611357565b6001600160a01b0316816001600160a01b03167f50546e66e5f44d728365dc3908c63bc5cfeeab470722c1677e3073a6ac294aa160405160405180910390a350565b6112e86112e2611357565b85610fd7565b6113235760405162461bcd60e51b815260040180806020018281038252602c81526020018061235f602c913960400191505060405180910390fd5b61132f84848484611e94565b50505050565b610b71611340611357565b838360405180602001604052806000815250611e94565b3390565b6001600160a01b0383166113a05760405162461bcd60e51b81526004018080602001828103825260258152602001806121936025913960400191505060405180910390fd5b6001600160a01b0382166113e55760405162461bcd60e51b81526004018080602001828103825260238152602001806123fd6023913960400191505060405180910390fd5b6001600160a01b03808416600081815260086020908152604080832094871680845294825291829020859055815185815291517f8c5be1e5ebec7d5bd14f71427d1e84f3dd0314c0f7b2291e5b200ac8c7c3b9259281900390910190a3505050565b6040805163555ddc6560e11b81526001600160a01b03871660048201527f29ddb589b1fb5fc7cf394961c1adf5f8c6454761adf795e67fe149f658abe89560248201529051600091731820a4b7618bde71dce8cdc73aab6c95905fad249163aabbb8ca91604480820192602092909190829003018186803b1580156114cb57600080fd5b505afa1580156114df573d6000803e3d6000fd5b505050506040513d60208110156114f557600080fd5b505190506001600160a01b0381161561166b57806001600160a01b03166375ab97828888888888886040518763ffffffff1660e01b815260040180876001600160a01b03168152602001866001600160a01b03168152602001856001600160a01b031681526020018481526020018060200180602001838103835285818151815260200191508051906020019080838360005b838110156115a0578181015183820152602001611588565b50505050905090810190601f1680156115cd5780820380516001836020036101000a031916815260200191505b50838103825284518152845160209182019186019080838360005b838110156116005781810151838201526020016115e8565b50505050905090810190601f16801561162d5780820380516001836020036101000a031916815260200191505b5098505050505050505050600060405180830381600087803b15801561165257600080fd5b505af1158015611666573d6000803e3d6000fd5b505050505b50505050505050565b6116808686868661132f565b6116bd836040518060600160405280602781526020016121da602791396001600160a01b038816600090815260208190526040902054919061187b565b6001600160a01b0380871660009081526020819052604080822093909355908616815220546116ec90846120bc565b600080866001600160a01b03166001600160a01b0316815260200190815260200160002081905550836001600160a01b0316856001600160a01b0316876001600160a01b03167f06b541ddaa720db2b10a4d0cdac39b8d360425fc073085fac19bc82614677987868686604051808481526020018060200180602001838103835285818151815260200191508051906020019080838360005b8381101561179d578181015183820152602001611785565b50505050905090810190601f1680156117ca5780820380516001836020036101000a031916815260200191505b50838103825284518152845160209182019186019080838360005b838110156117fd5781810151838201526020016117e5565b50505050905090810190601f16801561182a5780820380516001836020036101000a031916815260200191505b509550505050505060405180910390a4836001600160a01b0316856001600160a01b031660008051602061233f833981519152856040518082815260200191505060405180910390a3505050505050565b6000818484111561190a5760405162461bcd60e51b81526004018080602001828103825283818151815260200191508051906020019080838360005b838110156118cf5781810151838201526020016118b7565b50505050905090810190601f1680156118fc5780820380516001836020036101000a031916815260200191505b509250505060405180910390fd5b505050900390565b6040805163555ddc6560e11b81526001600160a01b03871660048201527fb281fc8c12954d22544db45de3159a39272895b169a852b314f9cc762e44c53b60248201529051600091731820a4b7618bde71dce8cdc73aab6c95905fad249163aabbb8ca91604480820192602092909190829003018186803b15801561199657600080fd5b505afa1580156119aa573d6000803e3d6000fd5b505050506040513d60208110156119c057600080fd5b505190506001600160a01b03811615611b3957806001600160a01b03166223de298989898989896040518763ffffffff1660e01b815260040180876001600160a01b03168152602001866001600160a01b03168152602001856001600160a01b031681526020018481526020018060200180602001838103835285818151815260200191508051906020019080838360005b83811015611a6a578181015183820152602001611a52565b50505050905090810190601f168015611a975780820380516001836020036101000a031916815260200191505b50838103825284518152845160209182019186019080838360005b83811015611aca578181015183820152602001611ab2565b50505050905090810190601f168015611af75780820380516001836020036101000a031916815260200191505b5098505050505050505050600060405180830381600087803b158015611b1c57600080fd5b505af1158015611b30573d6000803e3d6000fd5b50505050611b8d565b8115611b8d57611b51866001600160a01b0316612114565b15611b8d5760405162461bcd60e51b815260040180806020018281038252604d8152602001806122ce604d913960600191505060405180910390fd5b5050505050505050565b6001600160a01b038416611bf2576040805162461bcd60e51b815260206004820181905260248201527f4552433737373a206d696e7420746f20746865207a65726f2061646472657373604482015290519081900360640190fd5b6000611bfc611357565b9050611c0b816000878761132f565b600154611c1890856120bc565b6001556001600160a01b038516600090815260208190526040902054611c3e90856120bc565b6001600160a01b038616600090815260208190526040812091909155611c6b908290878787876001611912565b846001600160a01b0316816001600160a01b03167f2fe5be0146f74c5bce36c0b80911af6c7d86ff27e89d5cfa61fc681327954e5d868686604051808481526020018060200180602001838103835285818151815260200191508051906020019080838360005b83811015611cea578181015183820152602001611cd2565b50505050905090810190601f168015611d175780820380516001836020036101000a031916815260200191505b50838103825284518152845160209182019186019080838360005b83811015611d4a578181015183820152602001611d32565b50505050905090810190601f168015611d775780820380516001836020036101000a031916815260200191505b509550505050505060405180910390a36040805185815290516001600160a01b0387169160009160008051602061233f8339815191529181900360200190a35050505050565b6001600160a01b038616611e025760405162461bcd60e51b81526004018080602001828103825260228152602001806121b86022913960400191505060405180910390fd5b6001600160a01b038516611e5d576040805162461bcd60e51b815260206004820181905260248201527f4552433737373a2073656e6420746f20746865207a65726f2061646472657373604482015290519081900360640190fd5b6000611e67611357565b9050611e77818888888888611447565b611e85818888888888611674565b61166b81888888888888611912565b6001600160a01b038416611ed95760405162461bcd60e51b81526004018080602001828103825260228152602001806122276022913960400191505060405180910390fd5b6000611ee3611357565b9050611ef2818660008761132f565b611f0181866000878787611447565b611f3e846040518060600160405280602381526020016123da602391396001600160a01b038816600090815260208190526040902054919061187b565b6001600160a01b038616600090815260208190526040902055600154611f649085612150565b600181905550846001600160a01b0316816001600160a01b03167fa78a9be3a7b862d26933ad85fb11d80ef66b8f972d7cbba06621d583943a4098868686604051808481526020018060200180602001838103835285818151815260200191508051906020019080838360005b83811015611fe9578181015183820152602001611fd1565b50505050905090810190601f1680156120165780820380516001836020036101000a031916815260200191505b50838103825284518152845160209182019186019080838360005b83811015612049578181015183820152602001612031565b50505050905090810190601f1680156120765780820380516001836020036101000a031916815260200191505b509550505050505060405180910390a36040805185815290516000916001600160a01b0388169160008051602061233f8339815191529181900360200190a35050505050565b600082820183811015611072576040805162461bcd60e51b815260206004820152601b60248201527a536166654d6174683a206164646974696f6e206f766572666c6f7760281b604482015290519081900360640190fd5b6000813f7fc5d2460186f7233c927e7db2dcc703c0e500b653ca82273b7bfad8045d85a47081811480159061214857508115155b949350505050565b600061107283836040518060400160405280601e81526020017f536166654d6174683a207375627472616374696f6e206f766572666c6f77000081525061187b56fe4552433737373a20617070726f76652066726f6d20746865207a65726f20616464726573734552433737373a2073656e642066726f6d20746865207a65726f20616464726573734552433737373a207472616e7366657220616d6f756e7420657863656564732062616c616e63654f776e61626c653a206e6577206f776e657220697320746865207a65726f20616464726573734552433737373a206275726e2066726f6d20746865207a65726f20616464726573734552433737373a20617574686f72697a696e672073656c66206173206f70657261746f724552433737373a207265766f6b696e672073656c66206173206f70657261746f724f776e61626c653a2063616c6c6572206973206e6f7420746865206f776e65728be0079c531659141344cd1fd0a4f28419497f9722a3daafe3b4186f6b6457e04552433737373a20746f6b656e20726563697069656e7420636f6e747261637420686173206e6f20696d706c656d656e74657220666f7220455243373737546f6b656e73526563697069656e744552433737373a207472616e7366657220746f20746865207a65726f2061646472657373ddf252ad1be2c89b69c2b068fc378daa952ba7f163c4a11628f55a4df523b3ef4552433737373a2063616c6c6572206973206e6f7420616e206f70657261746f7220666f7220686f6c6465724552433737373a207472616e7366657220616d6f756e74206578636565647320616c6c6f77616e63654552433737373a207472616e736665722066726f6d20746865207a65726f20616464726573734552433737373a206275726e20616d6f756e7420657863656564732062616c616e63654552433737373a20617070726f766520746f20746865207a65726f2061646472657373a2646970667358221220267ca9c3b51275c2eab95fa95a1979cb6c6e42027ad750f60c6a365a2605b3d064736f6c634300060c0033608060405234801561001057600080fd5b506040516107ce3803806107ce8339818101604052604081101561003357600080fd5b508051602090910151600080546001600160a01b039283166001600160a01b0319918216179182905560018054909116919092161790556002556107528061007c6000396000f3fe608060405234801561001057600080fd5b50600436106100a45760003560e01c80631425bf2e146100a95780631576dfc2146100c35780631ea736e0146100e957806333ad95e7146100f15780633ccfd60b1461010d5780633d402f7e14610117578063421d0a201461013a57806351ed6a30146101575780636dd175711461017b5780637f0c75a01461019857806385107367146101be5780639b34ae03146101c6575b600080fd5b6100b16101ce565b60408051918252519081900360200190f35b6100b1600480360360208110156100d957600080fd5b50356001600160a01b03166101d4565b6100b16101e6565b6100f96101ec565b604080519115158252519081900360200190f35b6101156101f5565b005b6101156004803603604081101561012d57600080fd5b5080359060200135610336565b6100b16004803603602081101561015057600080fd5b50356103de565b61015f6103fc565b604080516001600160a01b039092168252519081900360200190f35b6100b16004803603602081101561019157600080fd5b503561040b565b6100b1600480360360208110156101ae57600080fd5b50356001600160a01b031661041d565b61015f61042f565b6100b161043e565b60085481565b60056020526000908152604090205481565b60025481565b60075460ff1681565b6002544211610247576040805162461bcd60e51b8152602060048201526019602482015278159bdd19481a5cc81b9bdd081e595d0818dbdb5c1b195d1959603a1b604482015290519081900360640190fd5b61024f61043e565b336000908152600560205260409020541461029b5760405162461bcd60e51b81526004018080602001828103825260248152602001806106cf6024913960400191505060405180910390fd5b336000818152600660209081526040808320805490849055600154825163a9059cbb60e01b8152600481019690965260248601829052915190946001600160a01b039092169363a9059cbb93604480850194919392918390030190829087803b15801561030757600080fd5b505af115801561031b573d6000803e3d6000fd5b505050506040513d602081101561033157600080fd5b505050565b600254421061037f576040805162461bcd60e51b815260206004820152601060248201526f1d9bdd1a5b99c81a185cc8195b99195960821b604482015290519081900360640190fd5b600081116103d0576040805162461bcd60e51b815260206004820152601960248201527821b0b73737ba103b37ba32903bb4ba3410181039ba30b5b29760391b604482015290519081900360640190fd5b6103da828261054d565b5050565b600381815481106103eb57fe5b600091825260209091200154905081565b6001546001600160a01b031681565b60046020526000908152604090205481565b60066020526000908152604090205481565b6000546001600160a01b031681565b60006002544211610492576040805162461bcd60e51b8152602060048201526019602482015278159bdd19481a5cc81b9bdd081e595d0818dbdb5c1b195d1959603a1b604482015290519081900360640190fd5b60075460ff16156104a6575060085461054a565b6003546000906104c257670de0b6b3a763ffff1991505061054a565b60036000815481106104d057fe5b600091825260209091200154905060015b600354811015610534576000600382815481106104fa57fe5b6000918252602080832090910154808352600490915260408083205486845292205490925081111561052a578193505b50506001016104e1565b5060088190556007805460ff1916600117905590505b90565b81600081670de0b6b3a76400001480610564575081155b80610577575081670de0b6b3a763ffff19145b9050806105b55760405162461bcd60e51b815260040180806020018281038252602a8152602001806106f3602a913960400191505060405180910390fd5b6105bf848461064b565b600154604080516323b872dd60e01b81523360048201523060248201526044810186905290516001600160a01b03909216916323b872dd916064808201926020929091908290030181600087803b15801561061957600080fd5b505af115801561062d573d6000803e3d6000fd5b505050506040513d602081101561064357600080fd5b505050505050565b60008281526004602052604090205461069457600380546001810182556000919091527fc2575a0e9e593c00f959f8c92f12db2869c3395a3b0502d05e2516446f71f85b018290555b600082815260046020908152604080832080548501905533835260058252808320805490950190945560069052919091208054909101905556fe5573657220646964206e6f7420766f7465206f6e2077696e6e696e67206f7574636f6d65566f7465206973206e6f7420696e20636f72726563742042696e61727920566f746520466f726d61742ea26469706673582212207f261b078ab7fe75127041fc43d5f04378eea7ac207ea9b948837b76c7962a8264736f6c634300060c00334f776e61626c653a206e6577206f776e657220697320746865207a65726f20616464726573734f776e61626c653a2063616c6c6572206973206e6f7420746865206f776e65728be0079c531659141344cd1fd0a4f28419497f9722a3daafe3b4186f6b6457e0a2646970667358221220a7531b58b4fb706c5fe8150eea99e5f93cf186af88fdf13e303e40d6d908883464736f6c634300060c0033",
  "compiler": {
    "name": "solc",
    "version": "0.6.12+commit.27d51765.Emscripten.clang",
    "optimizer": {
      "enabled": true,
      "runs": 1
    },
    "evmVersion": "petersburg"
  }
}