{
  "fileName": "ERC115Adapter.sol",
  "contractName": "ERC1155withAdapter",
  "source": "// SPDX-License-Identifier: Unlicense\n\npragma solidity 0.6.12;\n\nimport \"./ERC1155.sol\";\nimport \"@openzeppelin/contracts/introspection/ERC165.sol\";\n\n\ncontract ERC1155withAdapter is ERC1155 {\n    mapping(uint256 => address) public adapter;\n\n    mapping(uint256 => uint256) public totalSupply;\n\n    address public template;\n\n    event NewAdapter(uint256 indexed id, address indexed adapter);\n\n    constructor(string memory uri) public ERC1155(uri) {\n        template = address(new ERC20Adapter());\n    }\n\n    function createAdapter(uint256 _id, string memory _name, string memory _symbol, uint8 _decimals) public {\n        require(adapter[_id] == address(0));\n        address a = createClone(template);\n        ERC20Adapter(a).setup(_id, _name, _symbol, _decimals);\n        adapter[_id] = a;\n        emit NewAdapter(_id, a);\n    }\n\n    function transferByAdapter(address _from, address _to, uint256 _id, uint256 _value) public returns(bool) {\n        require(adapter[_id] == msg.sender);\n\n        // SafeMath will throw with insuficient funds _from\n        // or if _id is not valid (balance will be 0)\n        _balances[_id][_from] = _balances[_id][_from].sub(_value);\n        _balances[_id][_to] = _value.add(_balances[_id][_to]);\n\n        bytes memory _data;\n\n        if (_to.isContract()) {\n            if (ERC165(_from).supportsInterface(0x4e2312e0)) {\n                _doSafeTransferAcceptanceCheck(_from, _from, _to, _id, _value, _data);\n            }\n        }\n\n        // MUST emit event\n        emit TransferSingle(msg.sender, _from, _to, _id, _value);\n        return true;\n    }\n\n    function createClone(address target) internal returns (address result) {\n        bytes20 targetBytes = bytes20(target);\n        assembly {\n            let clone := mload(0x40)\n                mstore(clone, 0x3d602d80600a3d3981f3363d3d373d3d3d363d73000000000000000000000000)\n                mstore(add(clone, 0x14), targetBytes)\n                mstore(add(clone, 0x28), 0x5af43d82803e903d91602b57fd5bf30000000000000000000000000000000000)\n                result := create(0, clone, 0x37)\n        }\n    }\n\n}\n\n\ncontract ERC20Adapter {\n    using SafeMath for uint256;\n\n    ERC1155withAdapter public entity;\n\n    uint256 public id;\n    string public name;\n    string public symbol;\n    uint8 public decimals;\n\n    mapping (address => mapping (address => uint256)) private allowed;\n\n    event Transfer(address indexed from, address indexed to, uint256 value);\n    event Approval(address indexed owner, address indexed spender, uint256 value);\n\n    /**\n     * @dev Moves `amount` tokens from the caller's account to `recipient`.\n     *\n     * Returns a boolean value indicating whether the operation succeeded.\n     *\n     * Emits a `Transfer` event.\n     */\n    function transfer(address recipient, uint256 amount) external returns (bool) {\n        require(entity.transferByAdapter(msg.sender, recipient, id, amount));\n        emit Transfer(msg.sender, recipient, amount);\n        return true;\n    }\n\n    /**\n     * @dev Sets `amount` as the allowance of `spender` over the caller's tokens.\n     *\n     * Returns a boolean value indicating whether the operation succeeded.\n     *\n     * Emits an `Approval` event.\n     */\n    function approve(address spender, uint256 amount) external returns (bool) {\n        allowed[msg.sender][spender] = amount;\n        emit Approval(msg.sender, spender, amount);\n        return true;\n    }\n\n    /**\n     * @dev Moves `amount` tokens from `sender` to `recipient` using the\n     * allowance mechanism. `amount` is then deducted from the caller's\n     * allowance.\n     *\n     * Returns a boolean value indicating whether the operation succeeded.\n     *\n     * Emits a `Transfer` event.\n     */\n    function transferFrom(address sender, address recipient, uint256 amount) external returns (bool) {\n        allowed[sender][msg.sender] = allowed[sender][msg.sender].sub(amount);\n        require(entity.transferByAdapter(sender, recipient, id, amount));\n        emit Transfer(sender, recipient, amount);\n        return true;\n    }\n\n    function totalSupply() external view returns (uint256) {\n        return entity.totalSupply(id);\n    }\n\n    /**\n     * @dev Returns the amount of tokens owned by `account`.\n     */\n    function balanceOf(address account) external view returns (uint256) {\n        return entity.balanceOf(account, id);\n    }\n\n    /**\n     * @dev Returns the remaining number of tokens that `spender` will be\n     * allowed to spend on behalf of `owner` through `transferFrom`. This is\n     * zero by default.\n     *\n     * This value changes when `approve` or `transferFrom` are called.\n     */\n    function allowance(address owner, address spender) external view returns (uint256) {\n        return allowed[owner][spender];\n    }\n\n    /**\n     * @dev setup the adapter, use as a constructor.\n     */\n    function setup(uint256 _id, string memory _name, string memory _symbol, uint8 _decimals) public {\n        require(id == 0 && address(entity) == address(0));\n        entity = ERC1155withAdapter(msg.sender);\n        id = _id;\n        name = _name;\n        symbol = _symbol;\n        decimals = _decimals;\n    }\n\n}\n",
  "sourcePath": "contracts/ERC115Adapter.sol",
  "abi": [
    {
      "inputs": [
        {
          "internalType": "string",
          "name": "uri",
          "type": "string"
        }
      ],
      "stateMutability": "nonpayable",
      "type": "constructor"
    },
    {
      "anonymous": false,
      "inputs": [
        {
          "indexed": true,
          "internalType": "address",
          "name": "account",
          "type": "address"
        },
        {
          "indexed": true,
          "internalType": "address",
          "name": "operator",
          "type": "address"
        },
        {
          "indexed": false,
          "internalType": "bool",
          "name": "approved",
          "type": "bool"
        }
      ],
      "name": "ApprovalForAll",
      "type": "event"
    },
    {
      "anonymous": false,
      "inputs": [
        {
          "indexed": true,
          "internalType": "uint256",
          "name": "id",
          "type": "uint256"
        },
        {
          "indexed": true,
          "internalType": "address",
          "name": "adapter",
          "type": "address"
        }
      ],
      "name": "NewAdapter",
      "type": "event"
    },
    {
      "anonymous": false,
      "inputs": [
        {
          "indexed": true,
          "internalType": "address",
          "name": "operator",
          "type": "address"
        },
        {
          "indexed": true,
          "internalType": "address",
          "name": "from",
          "type": "address"
        },
        {
          "indexed": true,
          "internalType": "address",
          "name": "to",
          "type": "address"
        },
        {
          "indexed": false,
          "internalType": "uint256[]",
          "name": "ids",
          "type": "uint256[]"
        },
        {
          "indexed": false,
          "internalType": "uint256[]",
          "name": "values",
          "type": "uint256[]"
        }
      ],
      "name": "TransferBatch",
      "type": "event"
    },
    {
      "anonymous": false,
      "inputs": [
        {
          "indexed": true,
          "internalType": "address",
          "name": "operator",
          "type": "address"
        },
        {
          "indexed": true,
          "internalType": "address",
          "name": "from",
          "type": "address"
        },
        {
          "indexed": true,
          "internalType": "address",
          "name": "to",
          "type": "address"
        },
        {
          "indexed": false,
          "internalType": "uint256",
          "name": "id",
          "type": "uint256"
        },
        {
          "indexed": false,
          "internalType": "uint256",
          "name": "value",
          "type": "uint256"
        }
      ],
      "name": "TransferSingle",
      "type": "event"
    },
    {
      "anonymous": false,
      "inputs": [
        {
          "indexed": false,
          "internalType": "string",
          "name": "value",
          "type": "string"
        },
        {
          "indexed": true,
          "internalType": "uint256",
          "name": "id",
          "type": "uint256"
        }
      ],
      "name": "URI",
      "type": "event"
    },
    {
      "inputs": [
        {
          "internalType": "uint256",
          "name": "",
          "type": "uint256"
        }
      ],
      "name": "adapter",
      "outputs": [
        {
          "internalType": "address",
          "name": "",
          "type": "address"
        }
      ],
      "stateMutability": "view",
      "type": "function"
    },
    {
      "inputs": [
        {
          "internalType": "address",
          "name": "account",
          "type": "address"
        },
        {
          "internalType": "uint256",
          "name": "id",
          "type": "uint256"
        }
      ],
      "name": "balanceOf",
      "outputs": [
        {
          "internalType": "uint256",
          "name": "",
          "type": "uint256"
        }
      ],
      "stateMutability": "view",
      "type": "function"
    },
    {
      "inputs": [
        {
          "internalType": "address[]",
          "name": "accounts",
          "type": "address[]"
        },
        {
          "internalType": "uint256[]",
          "name": "ids",
          "type": "uint256[]"
        }
      ],
      "name": "balanceOfBatch",
      "outputs": [
        {
          "internalType": "uint256[]",
          "name": "",
          "type": "uint256[]"
        }
      ],
      "stateMutability": "view",
      "type": "function"
    },
    {
      "inputs": [
        {
          "internalType": "uint256",
          "name": "_id",
          "type": "uint256"
        },
        {
          "internalType": "string",
          "name": "_name",
          "type": "string"
        },
        {
          "internalType": "string",
          "name": "_symbol",
          "type": "string"
        },
        {
          "internalType": "uint8",
          "name": "_decimals",
          "type": "uint8"
        }
      ],
      "name": "createAdapter",
      "outputs": [],
      "stateMutability": "nonpayable",
      "type": "function"
    },
    {
      "inputs": [
        {
          "internalType": "address",
          "name": "account",
          "type": "address"
        },
        {
          "internalType": "address",
          "name": "operator",
          "type": "address"
        }
      ],
      "name": "isApprovedForAll",
      "outputs": [
        {
          "internalType": "bool",
          "name": "",
          "type": "bool"
        }
      ],
      "stateMutability": "view",
      "type": "function"
    },
    {
      "inputs": [
        {
          "internalType": "address",
          "name": "from",
          "type": "address"
        },
        {
          "internalType": "address",
          "name": "to",
          "type": "address"
        },
        {
          "internalType": "uint256[]",
          "name": "ids",
          "type": "uint256[]"
        },
        {
          "internalType": "uint256[]",
          "name": "amounts",
          "type": "uint256[]"
        },
        {
          "internalType": "bytes",
          "name": "data",
          "type": "bytes"
        }
      ],
      "name": "safeBatchTransferFrom",
      "outputs": [],
      "stateMutability": "nonpayable",
      "type": "function"
    },
    {
      "inputs": [
        {
          "internalType": "address",
          "name": "from",
          "type": "address"
        },
        {
          "internalType": "address",
          "name": "to",
          "type": "address"
        },
        {
          "internalType": "uint256",
          "name": "id",
          "type": "uint256"
        },
        {
          "internalType": "uint256",
          "name": "amount",
          "type": "uint256"
        },
        {
          "internalType": "bytes",
          "name": "data",
          "type": "bytes"
        }
      ],
      "name": "safeTransferFrom",
      "outputs": [],
      "stateMutability": "nonpayable",
      "type": "function"
    },
    {
      "inputs": [
        {
          "internalType": "address",
          "name": "operator",
          "type": "address"
        },
        {
          "internalType": "bool",
          "name": "approved",
          "type": "bool"
        }
      ],
      "name": "setApprovalForAll",
      "outputs": [],
      "stateMutability": "nonpayable",
      "type": "function"
    },
    {
      "inputs": [
        {
          "internalType": "bytes4",
          "name": "interfaceId",
          "type": "bytes4"
        }
      ],
      "name": "supportsInterface",
      "outputs": [
        {
          "internalType": "bool",
          "name": "",
          "type": "bool"
        }
      ],
      "stateMutability": "view",
      "type": "function"
    },
    {
      "inputs": [],
      "name": "template",
      "outputs": [
        {
          "internalType": "address",
          "name": "",
          "type": "address"
        }
      ],
      "stateMutability": "view",
      "type": "function"
    },
    {
      "inputs": [
        {
          "internalType": "uint256",
          "name": "",
          "type": "uint256"
        }
      ],
      "name": "totalSupply",
      "outputs": [
        {
          "internalType": "uint256",
          "name": "",
          "type": "uint256"
        }
      ],
      "stateMutability": "view",
      "type": "function"
    },
    {
      "inputs": [
        {
          "internalType": "address",
          "name": "_from",
          "type": "address"
        },
        {
          "internalType": "address",
          "name": "_to",
          "type": "address"
        },
        {
          "internalType": "uint256",
          "name": "_id",
          "type": "uint256"
        },
        {
          "internalType": "uint256",
          "name": "_value",
          "type": "uint256"
        }
      ],
      "name": "transferByAdapter",
      "outputs": [
        {
          "internalType": "bool",
          "name": "",
          "type": "bool"
        }
      ],
      "stateMutability": "nonpayable",
      "type": "function"
    },
    {
      "inputs": [
        {
          "internalType": "uint256",
          "name": "",
          "type": "uint256"
        }
      ],
      "name": "uri",
      "outputs": [
        {
          "internalType": "string",
          "name": "",
          "type": "string"
        }
      ],
      "stateMutability": "view",
      "type": "function"
    }
  ],
  "bytecode": "0x60806040523480156200001157600080fd5b5060405162002b1838038062002b18833981810160405260208110156200003757600080fd5b81019080805160405193929190846401000000008211156200005857600080fd5b9083019060208201858111156200006e57600080fd5b82516401000000008111828201881017156200008957600080fd5b82525081516020918201929091019080838360005b83811015620000b85781810151838201526020016200009e565b50505050905090810190601f168015620000e65780820380516001836020036101000a031916815260200191505b50604052508291506200011b90507f01ffc9a700000000000000000000000000000000000000000000000000000000620001d0565b62000126816200029f565b620001517fd9b67a2600000000000000000000000000000000000000000000000000000000620001d0565b6200017c7f0e89341c00000000000000000000000000000000000000000000000000000000620001d0565b506040516200018b90620002b8565b604051809103906000f080158015620001a8573d6000803e3d6000fd5b50600680546001600160a01b0319166001600160a01b03929092169190911790555062000362565b7fffffffff0000000000000000000000000000000000000000000000000000000080821614156200026257604080517f08c379a000000000000000000000000000000000000000000000000000000000815260206004820152601c60248201527f4552433136353a20696e76616c696420696e7465726661636520696400000000604482015290519081900360640190fd5b7fffffffff00000000000000000000000000000000000000000000000000000000166000908152602081905260409020805460ff19166001179055565b8051620002b4906003906020840190620002c6565b5050565b610abb806200205d83390190565b828054600181600116156101000203166002900490600052602060002090601f016020900481019282601f106200030957805160ff191683800117855562000339565b8280016001018555821562000339579182015b82811115620003395782518255916020019190600101906200031c565b50620003479291506200034b565b5090565b5b808211156200034757600081556001016200034c565b611ceb80620003726000396000f3fe608060405234801561001057600080fd5b50600436106100ae5760003560e01c8062fdd58e146100b357806301ffc9a7146100f15780630e89341c1461012c57806316581d82146101be57806321668cea146101fa5780632eb2c2d6146103315780634e1273f4146104f2578063676395c8146106655780636f2ddd931461069e578063a22cb465146106a6578063bd85b039146106d4578063e985e9c5146106f1578063f242432a1461071f575b600080fd5b6100df600480360360408110156100c957600080fd5b506001600160a01b0381351690602001356107e8565b60408051918252519081900360200190f35b6101186004803603602081101561010757600080fd5b50356001600160e01b031916610857565b604080519115158252519081900360200190f35b6101496004803603602081101561014257600080fd5b5035610876565b6040805160208082528351818301528351919283929083019185019080838360005b8381101561018357818101518382015260200161016b565b50505050905090810190601f1680156101b05780820380516001836020036101000a031916815260200191505b509250505060405180910390f35b610118600480360360808110156101d457600080fd5b506001600160a01b0381358116916020810135909116906040810135906060013561090e565b61032f6004803603608081101561021057600080fd5b81359190810190604081016020820135600160201b81111561023157600080fd5b82018360208201111561024357600080fd5b803590602001918460018302840111600160201b8311171561026457600080fd5b91908080601f0160208091040260200160405190810160405280939291908181526020018383808284376000920191909152509295949360208101935035915050600160201b8111156102b657600080fd5b8201836020820111156102c857600080fd5b803590602001918460018302840111600160201b831117156102e957600080fd5b91908080601f0160208091040260200160405190810160405280939291908181526020018383808284376000920191909152509295505050903560ff169150610ab19050565b005b61032f600480360360a081101561034757600080fd5b6001600160a01b038235811692602081013590911691810190606081016040820135600160201b81111561037a57600080fd5b82018360208201111561038c57600080fd5b803590602001918460208302840111600160201b831117156103ad57600080fd5b9190808060200260200160405190810160405280939291908181526020018383602002808284376000920191909152509295949360208101935035915050600160201b8111156103fc57600080fd5b82018360208201111561040e57600080fd5b803590602001918460208302840111600160201b8311171561042f57600080fd5b9190808060200260200160405190810160405280939291908181526020018383602002808284376000920191909152509295949360208101935035915050600160201b81111561047e57600080fd5b82018360208201111561049057600080fd5b803590602001918460018302840111600160201b831117156104b157600080fd5b91908080601f016020809104026020016040519081016040528093929190818152602001838380828437600092019190915250929550610c82945050505050565b6106156004803603604081101561050857600080fd5b810190602081018135600160201b81111561052257600080fd5b82018360208201111561053457600080fd5b803590602001918460208302840111600160201b8311171561055557600080fd5b9190808060200260200160405190810160405280939291908181526020018383602002808284376000920191909152509295949360208101935035915050600160201b8111156105a457600080fd5b8201836020820111156105b657600080fd5b803590602001918460208302840111600160201b831117156105d757600080fd5b919080806020026020016040519081016040528093929190818152602001838360200280828437600092019190915250929550610f80945050505050565b60408051602080825283518183015283519192839290830191858101910280838360005b83811015610651578181015183820152602001610639565b505050509050019250505060405180910390f35b6106826004803603602081101561067b57600080fd5b50356110fd565b604080516001600160a01b039092168252519081900360200190f35b610682611118565b61032f600480360360408110156106bc57600080fd5b506001600160a01b0381351690602001351515611127565b6100df600480360360208110156106ea57600080fd5b5035611216565b6101186004803603604081101561070757600080fd5b506001600160a01b0381358116916020013516611228565b61032f600480360360a081101561073557600080fd5b6001600160a01b03823581169260208101359091169160408201359160608101359181019060a081016080820135600160201b81111561077457600080fd5b82018360208201111561078657600080fd5b803590602001918460018302840111600160201b831117156107a757600080fd5b91908080601f016020809104026020016040519081016040528093929190818152602001838380828437600092019190915250929550611256945050505050565b60006001600160a01b03831661082f5760405162461bcd60e51b815260040180806020018281038252602b815260200180611b36602b913960400191505060405180910390fd5b5060009081526001602090815260408083206001600160a01b03949094168352929052205490565b6001600160e01b03191660009081526020819052604090205460ff1690565b60038054604080516020601f60026000196101006001881615020190951694909404938401819004810282018101909252828152606093909290918301828280156109025780601f106108d757610100808354040283529160200191610902565b820191906000526020600020905b8154815290600101906020018083116108e557829003601f168201915b50505050509050919050565b6000828152600460205260408120546001600160a01b0316331461093157600080fd5b60008381526001602090815260408083206001600160a01b038916845290915290205461095e908361140f565b60008481526001602090815260408083206001600160a01b038a81168552925280832093909355861681522054610996908390611458565b60008481526001602090815260408083206001600160a01b0389168085529252909120919091556060906109c9906114b0565b15610a5a57604080516301ffc9a760e01b8152630271189760e51b600482015290516001600160a01b038816916301ffc9a7916024808301926020929190829003018186803b158015610a1b57600080fd5b505afa158015610a2f573d6000803e3d6000fd5b505050506040513d6020811015610a4557600080fd5b505115610a5a57610a5a8687878787866114ec565b846001600160a01b0316866001600160a01b0316336001600160a01b0316600080516020611b168339815191528787604051808381526020018281526020019250505060405180910390a450600195945050505050565b6000848152600460205260409020546001600160a01b031615610ad357600080fd5b600654600090610aeb906001600160a01b031661172d565b9050806001600160a01b031663f201e5a1868686866040518563ffffffff1660e01b81526004018085815260200180602001806020018460ff168152602001838103835286818151815260200191508051906020019080838360005b83811015610b5f578181015183820152602001610b47565b50505050905090810190601f168015610b8c5780820380516001836020036101000a031916815260200191505b50838103825285518152855160209182019187019080838360005b83811015610bbf578181015183820152602001610ba7565b50505050905090810190601f168015610bec5780820380516001836020036101000a031916815260200191505b509650505050505050600060405180830381600087803b158015610c0f57600080fd5b505af1158015610c23573d6000803e3d6000fd5b50505060008681526004602052604080822080546001600160a01b0319166001600160a01b038616908117909155905190925087917fb8a980ccc5186c15dc94e9f3bf60eff74b64aef1567c97a0524753530607f8fe91a35050505050565b8151835114610cc25760405162461bcd60e51b8152600401808060200182810382526028815260200180611c8e6028913960400191505060405180910390fd5b6001600160a01b038416610d075760405162461bcd60e51b8152600401808060200182810382526025815260200180611bbb6025913960400191505060405180910390fd5b610d0f61177f565b6001600160a01b0316856001600160a01b03161480610d3a5750610d3a85610d3561177f565b611228565b610d755760405162461bcd60e51b8152600401808060200182810382526032815260200180611be06032913960400191505060405180910390fd5b6000610d7f61177f565b9050610d8f818787878787610f78565b60005b8451811015610e90576000858281518110610da957fe5b602002602001015190506000858381518110610dc157fe5b60200260200101519050610e2e816040518060600160405280602a8152602001611c12602a91396001600086815260200190815260200160002060008d6001600160a01b03166001600160a01b03168152602001908152602001600020546117849092919063ffffffff16565b60008381526001602090815260408083206001600160a01b038e811685529252808320939093558a1681522054610e659082611458565b60009283526001602081815260408086206001600160a01b038d168752909152909320555001610d92565b50846001600160a01b0316866001600160a01b0316826001600160a01b03167f4a39dc06d4c0dbc64b70af90fd698a233a518aa5d07e595d983b8c0526c8f7fb8787604051808060200180602001838103835285818151815260200191508051906020019060200280838360005b83811015610f16578181015183820152602001610efe565b50505050905001838103825284818151815260200191508051906020019060200280838360005b83811015610f55578181015183820152602001610f3d565b5050505090500194505050505060405180910390a4610f788187878787876117de565b505050505050565b60608151835114610fc25760405162461bcd60e51b8152600401808060200182810382526029815260200180611c656029913960400191505060405180910390fd5b606083516001600160401b0381118015610fdb57600080fd5b50604051908082528060200260200182016040528015611005578160200160208202803683370190505b50905060005b84518110156110f55760006001600160a01b031685828151811061102b57fe5b60200260200101516001600160a01b031614156110795760405162461bcd60e51b8152600401808060200182810382526031815260200180611b616031913960400191505060405180910390fd5b6001600085838151811061108957fe5b6020026020010151815260200190815260200160002060008683815181106110ad57fe5b60200260200101516001600160a01b03166001600160a01b03168152602001908152602001600020548282815181106110e257fe5b602090810291909101015260010161100b565b509392505050565b6004602052600090815260409020546001600160a01b031681565b6006546001600160a01b031681565b816001600160a01b031661113961177f565b6001600160a01b0316141561117f5760405162461bcd60e51b8152600401808060200182810382526029815260200180611c3c6029913960400191505060405180910390fd5b806002600061118c61177f565b6001600160a01b03908116825260208083019390935260409182016000908120918716808252919093529120805460ff1916921515929092179091556111d061177f565b6001600160a01b03167f17307eab39ab6107e8899845ad3d59bd9653f200f220920489ca2b5937696c318360405180821515815260200191505060405180910390a35050565b60056020526000908152604090205481565b6001600160a01b03918216600090815260026020908152604080832093909416825291909152205460ff1690565b6001600160a01b03841661129b5760405162461bcd60e51b8152600401808060200182810382526025815260200180611bbb6025913960400191505060405180910390fd5b6112a361177f565b6001600160a01b0316856001600160a01b031614806112c957506112c985610d3561177f565b6113045760405162461bcd60e51b8152600401808060200182810382526029815260200180611b926029913960400191505060405180910390fd5b600061130e61177f565b905061132e81878761131f886119cb565b611328886119cb565b87610f78565b611375836040518060600160405280602a8152602001611c12602a913960008781526001602090815260408083206001600160a01b038d1684529091529020549190611784565b60008581526001602090815260408083206001600160a01b038b811685529252808320939093558716815220546113ac9084611458565b60008581526001602090815260408083206001600160a01b03808b168086529184529382902094909455805188815291820187905280518a841693861692600080516020611b1683398151915292908290030190a4610f788187878787876114ec565b600061145183836040518060400160405280601e81526020017f536166654d6174683a207375627472616374696f6e206f766572666c6f770000815250611784565b9392505050565b600082820183811015611451576040805162461bcd60e51b815260206004820152601b60248201527a536166654d6174683a206164646974696f6e206f766572666c6f7760281b604482015290519081900360640190fd5b6000813f7fc5d2460186f7233c927e7db2dcc703c0e500b653ca82273b7bfad8045d85a4708181148015906114e457508115155b949350505050565b6114fe846001600160a01b03166114b0565b15610f7857836001600160a01b031663f23a6e6187878686866040518663ffffffff1660e01b815260040180866001600160a01b03168152602001856001600160a01b0316815260200184815260200183815260200180602001828103825283818151815260200191508051906020019080838360005b8381101561158d578181015183820152602001611575565b50505050905090810190601f1680156115ba5780820380516001836020036101000a031916815260200191505b509650505050505050602060405180830381600087803b1580156115dd57600080fd5b505af192505050801561160257506040513d60208110156115fd57600080fd5b505160015b6116d55761160e611a15565b80611619575061169e565b8060405162461bcd60e51b81526004018080602001828103825283818151815260200191508051906020019080838360005b8381101561166357818101518382015260200161164b565b50505050905090810190601f1680156116905780820380516001836020036101000a031916815260200191505b509250505060405180910390fd5b60405162461bcd60e51b8152600401808060200182810382526034815260200180611aba6034913960400191505060405180910390fd5b6001600160e01b0319811663f23a6e6160e01b146117245760405162461bcd60e51b8152600401808060200182810382526028815260200180611aee6028913960400191505060405180910390fd5b50505050505050565b6000808260601b9050604051733d602d80600a3d3981f3363d3d373d3d3d363d7360601b81528160148201526e5af43d82803e903d91602b57fd5bf360881b60288201526037816000f0949350505050565b335b90565b600081848411156117d65760405162461bcd60e51b815260206004820181815283516024840152835190928392604490910191908501908083836000831561166357818101518382015260200161164b565b505050900390565b6117f0846001600160a01b03166114b0565b15610f7857836001600160a01b031663bc197c8187878686866040518663ffffffff1660e01b815260040180866001600160a01b03168152602001856001600160a01b03168152602001806020018060200180602001848103845287818151815260200191508051906020019060200280838360005b8381101561187e578181015183820152602001611866565b50505050905001848103835286818151815260200191508051906020019060200280838360005b838110156118bd5781810151838201526020016118a5565b50505050905001848103825285818151815260200191508051906020019080838360005b838110156118f95781810151838201526020016118e1565b50505050905090810190601f1680156119265780820380516001836020036101000a031916815260200191505b5098505050505050505050602060405180830381600087803b15801561194b57600080fd5b505af192505050801561197057506040513d602081101561196b57600080fd5b505160015b61197c5761160e611a15565b6001600160e01b0319811663bc197c8160e01b146117245760405162461bcd60e51b8152600401808060200182810382526028815260200180611aee6028913960400191505060405180910390fd5b6040805160018082528183019092526060918291906020808301908036833701905050905082816000815181106119fe57fe5b602090810291909101015292915050565b60e01c90565b600060443d1015611a2557611781565b600481823e6308c379a0611a398251611a0f565b14611a4357611781565b6040513d600319016004823e80513d6001600160401b038083116024840183101715611a725750505050611781565b82840192508251915080821115611a8c5750505050611781565b503d83016020828401011115611aa457505050611781565b601f01601f191681016020016040529150509056fe455243313135353a207472616e7366657220746f206e6f6e2045524331313535526563656976657220696d706c656d656e746572455243313135353a204552433131353552656365697665722072656a656374656420746f6b656e73c3d58168c5ae7397731d063d5bbf3d657854427343f4c083240f7aacaa2d0f62455243313135353a2062616c616e636520717565727920666f7220746865207a65726f2061646472657373455243313135353a2062617463682062616c616e636520717565727920666f7220746865207a65726f2061646472657373455243313135353a2063616c6c6572206973206e6f74206f776e6572206e6f7220617070726f766564455243313135353a207472616e7366657220746f20746865207a65726f2061646472657373455243313135353a207472616e736665722063616c6c6572206973206e6f74206f776e6572206e6f7220617070726f766564455243313135353a20696e73756666696369656e742062616c616e636520666f72207472616e73666572455243313135353a2073657474696e6720617070726f76616c2073746174757320666f722073656c66455243313135353a206163636f756e747320616e6420696473206c656e677468206d69736d61746368455243313135353a2069647320616e6420616d6f756e7473206c656e677468206d69736d61746368a264697066735822122098b570f3c477f91ac502ede8730a746e174e8d234315e11bc7fa88e129194caa64736f6c634300060c0033608060405234801561001057600080fd5b50610a9b806100206000396000f3fe608060405234801561001057600080fd5b50600436106100a45760003560e01c806306fdde03146100a9578063095ea7b31461012657806318160ddd1461016657806323b872dd14610180578063313ce567146101b65780636cdbbc66146101d457806370a08231146101f857806395d89b411461021e578063a9059cbb14610226578063af640d0f14610252578063dd62ed3e1461025a578063f201e5a114610288575b600080fd5b6100b16103bf565b6040805160208082528351818301528351919283929083019185019080838360005b838110156100eb5781810151838201526020016100d3565b50505050905090810190601f1680156101185780820380516001836020036101000a031916815260200191505b509250505060405180910390f35b6101526004803603604081101561013c57600080fd5b506001600160a01b03813516906020013561044a565b604080519115158252519081900360200190f35b61016e6104b0565b60408051918252519081900360200190f35b6101526004803603606081101561019657600080fd5b506001600160a01b03813581169160208101359091169060400135610531565b6101be610658565b6040805160ff9092168252519081900360200190f35b6101dc610661565b604080516001600160a01b039092168252519081900360200190f35b61016e6004803603602081101561020e57600080fd5b50356001600160a01b0316610670565b6100b16106f9565b6101526004803603604081101561023c57600080fd5b506001600160a01b038135169060200135610754565b61016e610827565b61016e6004803603604081101561027057600080fd5b506001600160a01b038135811691602001351661082d565b6103bd6004803603608081101561029e57600080fd5b81359190810190604081016020820135600160201b8111156102bf57600080fd5b8201836020820111156102d157600080fd5b803590602001918460018302840111600160201b831117156102f257600080fd5b91908080601f0160208091040260200160405190810160405280939291908181526020018383808284376000920191909152509295949360208101935035915050600160201b81111561034457600080fd5b82018360208201111561035657600080fd5b803590602001918460018302840111600160201b8311171561037757600080fd5b91908080601f0160208091040260200160405190810160405280939291908181526020018383808284376000920191909152509295505050903560ff1691506108589050565b005b6002805460408051602060018416156101000260001901909316849004601f810184900484028201840190925281815292918301828280156104425780601f1061041757610100808354040283529160200191610442565b820191906000526020600020905b81548152906001019060200180831161042557829003601f168201915b505050505081565b3360008181526005602090815260408083206001600160a01b038716808552908352818420869055815186815291519394909390927f8c5be1e5ebec7d5bd14f71427d1e84f3dd0314c0f7b2291e5b200ac8c7c3b925928290030190a350600192915050565b600080546001546040805163bd85b03960e01b81526004810192909252516001600160a01b039092169163bd85b03991602480820192602092909190829003018186803b15801561050057600080fd5b505afa158015610514573d6000803e3d6000fd5b505050506040513d602081101561052a57600080fd5b5051905090565b6001600160a01b038316600090815260056020908152604080832033845290915281205461055f90836108d2565b6001600160a01b03808616600081815260056020908152604080832033845282528083209590955581546001548651630b2c0ec160e11b815260048101959095528986166024860152604485015260648401889052945194909316936316581d82936084808501949193918390030190829087803b1580156105e057600080fd5b505af11580156105f4573d6000803e3d6000fd5b505050506040513d602081101561060a57600080fd5b505161061557600080fd5b826001600160a01b0316846001600160a01b0316600080516020610a46833981519152846040518082815260200191505060405180910390a35060019392505050565b60045460ff1681565b6000546001600160a01b031681565b6000805460015460408051627eeac760e11b81526001600160a01b03868116600483015260248201939093529051919092169162fdd58e916044808301926020929190829003018186803b1580156106c757600080fd5b505afa1580156106db573d6000803e3d6000fd5b505050506040513d60208110156106f157600080fd5b505192915050565b6003805460408051602060026001851615610100026000190190941693909304601f810184900484028201840190925281815292918301828280156104425780601f1061041757610100808354040283529160200191610442565b6000805460015460408051630b2c0ec160e11b81523360048201526001600160a01b038781166024830152604482019390935260648101869052905191909216916316581d8291608480830192602092919082900301818787803b1580156107bb57600080fd5b505af11580156107cf573d6000803e3d6000fd5b505050506040513d60208110156107e557600080fd5b50516107f057600080fd5b6040805183815290516001600160a01b038516913391600080516020610a468339815191529181900360200190a350600192915050565b60015481565b6001600160a01b03918216600090815260056020908152604080832093909416825291909152205490565b60015415801561087157506000546001600160a01b0316155b61087a57600080fd5b600080546001600160a01b03191633179055600184905582516108a49060029060208601906109b2565b5081516108b89060039060208501906109b2565b506004805460ff191660ff92909216919091179055505050565b600061091483836040518060400160405280601e81526020017f536166654d6174683a207375627472616374696f6e206f766572666c6f77000081525061091b565b9392505050565b600081848411156109aa5760405162461bcd60e51b81526004018080602001828103825283818151815260200191508051906020019080838360005b8381101561096f578181015183820152602001610957565b50505050905090810190601f16801561099c5780820380516001836020036101000a031916815260200191505b509250505060405180910390fd5b505050900390565b828054600181600116156101000203166002900490600052602060002090601f016020900481019282601f106109f357805160ff1916838001178555610a20565b82800160010185558215610a20579182015b82811115610a20578251825591602001919060010190610a05565b50610a2c929150610a30565b5090565b5b80821115610a2c5760008155600101610a3156feddf252ad1be2c89b69c2b068fc378daa952ba7f163c4a11628f55a4df523b3efa2646970667358221220e6cf103d0229c3a9b14649d0d5a49149b32a438f98636ec1b026151daf5ac8e064736f6c634300060c0033",
  "compiler": {
    "name": "solc",
    "version": "0.6.12+commit.27d51765.Emscripten.clang",
    "optimizer": {
      "enabled": true,
      "runs": 1
    },
    "evmVersion": "petersburg"
  }
}