{
  "fileName": "ERC115Adapter.sol",
  "contractName": "ERC20Adapter",
  "source": "// SPDX-License-Identifier: Unlicense\n\npragma solidity 0.6.12;\n\nimport \"./ERC1155.sol\";\nimport \"@openzeppelin/contracts/introspection/ERC165.sol\";\n\n\ncontract ERC1155withAdapter is ERC1155 {\n    mapping(uint256 => address) public adapter;\n\n    mapping(uint256 => uint256) public totalSupply;\n\n    address public template;\n\n    event NewAdapter(uint256 indexed id, address indexed adapter);\n\n    constructor(string memory uri) public ERC1155(uri) {\n        template = address(new ERC20Adapter());\n    }\n\n    function createAdapter(uint256 _id, string memory _name, string memory _symbol, uint8 _decimals) public {\n        require(adapter[_id] == address(0));\n        address a = createClone(template);\n        ERC20Adapter(a).setup(_id, _name, _symbol, _decimals);\n        adapter[_id] = a;\n        emit NewAdapter(_id, a);\n    }\n\n    function transferByAdapter(address _from, address _to, uint256 _id, uint256 _value) public returns(bool) {\n        require(adapter[_id] == msg.sender);\n\n        // SafeMath will throw with insuficient funds _from\n        // or if _id is not valid (balance will be 0)\n        _balances[_id][_from] = _balances[_id][_from].sub(_value);\n        _balances[_id][_to] = _value.add(_balances[_id][_to]);\n\n        bytes memory _data;\n\n        if (_to.isContract()) {\n            if (ERC165(_from).supportsInterface(0x4e2312e0)) {\n                _doSafeTransferAcceptanceCheck(_from, _from, _to, _id, _value, _data);\n            }\n        }\n\n        // MUST emit event\n        emit TransferSingle(msg.sender, _from, _to, _id, _value);\n        return true;\n    }\n\n    function createClone(address target) internal returns (address result) {\n        bytes20 targetBytes = bytes20(target);\n        assembly {\n            let clone := mload(0x40)\n                mstore(clone, 0x3d602d80600a3d3981f3363d3d373d3d3d363d73000000000000000000000000)\n                mstore(add(clone, 0x14), targetBytes)\n                mstore(add(clone, 0x28), 0x5af43d82803e903d91602b57fd5bf30000000000000000000000000000000000)\n                result := create(0, clone, 0x37)\n        }\n    }\n\n}\n\n\ncontract ERC20Adapter {\n    using SafeMath for uint256;\n\n    ERC1155withAdapter public entity;\n\n    uint256 public id;\n    string public name;\n    string public symbol;\n    uint8 public decimals;\n\n    mapping (address => mapping (address => uint256)) private allowed;\n\n    event Transfer(address indexed from, address indexed to, uint256 value);\n    event Approval(address indexed owner, address indexed spender, uint256 value);\n\n    /**\n     * @dev Moves `amount` tokens from the caller's account to `recipient`.\n     *\n     * Returns a boolean value indicating whether the operation succeeded.\n     *\n     * Emits a `Transfer` event.\n     */\n    function transfer(address recipient, uint256 amount) external returns (bool) {\n        require(entity.transferByAdapter(msg.sender, recipient, id, amount));\n        emit Transfer(msg.sender, recipient, amount);\n        return true;\n    }\n\n    /**\n     * @dev Sets `amount` as the allowance of `spender` over the caller's tokens.\n     *\n     * Returns a boolean value indicating whether the operation succeeded.\n     *\n     * Emits an `Approval` event.\n     */\n    function approve(address spender, uint256 amount) external returns (bool) {\n        allowed[msg.sender][spender] = amount;\n        emit Approval(msg.sender, spender, amount);\n        return true;\n    }\n\n    /**\n     * @dev Moves `amount` tokens from `sender` to `recipient` using the\n     * allowance mechanism. `amount` is then deducted from the caller's\n     * allowance.\n     *\n     * Returns a boolean value indicating whether the operation succeeded.\n     *\n     * Emits a `Transfer` event.\n     */\n    function transferFrom(address sender, address recipient, uint256 amount) external returns (bool) {\n        allowed[sender][msg.sender] = allowed[sender][msg.sender].sub(amount);\n        require(entity.transferByAdapter(sender, recipient, id, amount));\n        emit Transfer(sender, recipient, amount);\n        return true;\n    }\n\n    function totalSupply() external view returns (uint256) {\n        return entity.totalSupply(id);\n    }\n\n    /**\n     * @dev Returns the amount of tokens owned by `account`.\n     */\n    function balanceOf(address account) external view returns (uint256) {\n        return entity.balanceOf(account, id);\n    }\n\n    /**\n     * @dev Returns the remaining number of tokens that `spender` will be\n     * allowed to spend on behalf of `owner` through `transferFrom`. This is\n     * zero by default.\n     *\n     * This value changes when `approve` or `transferFrom` are called.\n     */\n    function allowance(address owner, address spender) external view returns (uint256) {\n        return allowed[owner][spender];\n    }\n\n    /**\n     * @dev setup the adapter, use as a constructor.\n     */\n    function setup(uint256 _id, string memory _name, string memory _symbol, uint8 _decimals) public {\n        require(id == 0 && address(entity) == address(0));\n        entity = ERC1155withAdapter(msg.sender);\n        id = _id;\n        name = _name;\n        symbol = _symbol;\n        decimals = _decimals;\n    }\n\n}\n",
  "sourcePath": "contracts/ERC115Adapter.sol",
  "abi": [
    {
      "anonymous": false,
      "inputs": [
        {
          "indexed": true,
          "internalType": "address",
          "name": "owner",
          "type": "address"
        },
        {
          "indexed": true,
          "internalType": "address",
          "name": "spender",
          "type": "address"
        },
        {
          "indexed": false,
          "internalType": "uint256",
          "name": "value",
          "type": "uint256"
        }
      ],
      "name": "Approval",
      "type": "event"
    },
    {
      "anonymous": false,
      "inputs": [
        {
          "indexed": true,
          "internalType": "address",
          "name": "from",
          "type": "address"
        },
        {
          "indexed": true,
          "internalType": "address",
          "name": "to",
          "type": "address"
        },
        {
          "indexed": false,
          "internalType": "uint256",
          "name": "value",
          "type": "uint256"
        }
      ],
      "name": "Transfer",
      "type": "event"
    },
    {
      "inputs": [
        {
          "internalType": "address",
          "name": "owner",
          "type": "address"
        },
        {
          "internalType": "address",
          "name": "spender",
          "type": "address"
        }
      ],
      "name": "allowance",
      "outputs": [
        {
          "internalType": "uint256",
          "name": "",
          "type": "uint256"
        }
      ],
      "stateMutability": "view",
      "type": "function"
    },
    {
      "inputs": [
        {
          "internalType": "address",
          "name": "spender",
          "type": "address"
        },
        {
          "internalType": "uint256",
          "name": "amount",
          "type": "uint256"
        }
      ],
      "name": "approve",
      "outputs": [
        {
          "internalType": "bool",
          "name": "",
          "type": "bool"
        }
      ],
      "stateMutability": "nonpayable",
      "type": "function"
    },
    {
      "inputs": [
        {
          "internalType": "address",
          "name": "account",
          "type": "address"
        }
      ],
      "name": "balanceOf",
      "outputs": [
        {
          "internalType": "uint256",
          "name": "",
          "type": "uint256"
        }
      ],
      "stateMutability": "view",
      "type": "function"
    },
    {
      "inputs": [],
      "name": "decimals",
      "outputs": [
        {
          "internalType": "uint8",
          "name": "",
          "type": "uint8"
        }
      ],
      "stateMutability": "view",
      "type": "function"
    },
    {
      "inputs": [],
      "name": "entity",
      "outputs": [
        {
          "internalType": "contract ERC1155withAdapter",
          "name": "",
          "type": "address"
        }
      ],
      "stateMutability": "view",
      "type": "function"
    },
    {
      "inputs": [],
      "name": "id",
      "outputs": [
        {
          "internalType": "uint256",
          "name": "",
          "type": "uint256"
        }
      ],
      "stateMutability": "view",
      "type": "function"
    },
    {
      "inputs": [],
      "name": "name",
      "outputs": [
        {
          "internalType": "string",
          "name": "",
          "type": "string"
        }
      ],
      "stateMutability": "view",
      "type": "function"
    },
    {
      "inputs": [
        {
          "internalType": "uint256",
          "name": "_id",
          "type": "uint256"
        },
        {
          "internalType": "string",
          "name": "_name",
          "type": "string"
        },
        {
          "internalType": "string",
          "name": "_symbol",
          "type": "string"
        },
        {
          "internalType": "uint8",
          "name": "_decimals",
          "type": "uint8"
        }
      ],
      "name": "setup",
      "outputs": [],
      "stateMutability": "nonpayable",
      "type": "function"
    },
    {
      "inputs": [],
      "name": "symbol",
      "outputs": [
        {
          "internalType": "string",
          "name": "",
          "type": "string"
        }
      ],
      "stateMutability": "view",
      "type": "function"
    },
    {
      "inputs": [],
      "name": "totalSupply",
      "outputs": [
        {
          "internalType": "uint256",
          "name": "",
          "type": "uint256"
        }
      ],
      "stateMutability": "view",
      "type": "function"
    },
    {
      "inputs": [
        {
          "internalType": "address",
          "name": "recipient",
          "type": "address"
        },
        {
          "internalType": "uint256",
          "name": "amount",
          "type": "uint256"
        }
      ],
      "name": "transfer",
      "outputs": [
        {
          "internalType": "bool",
          "name": "",
          "type": "bool"
        }
      ],
      "stateMutability": "nonpayable",
      "type": "function"
    },
    {
      "inputs": [
        {
          "internalType": "address",
          "name": "sender",
          "type": "address"
        },
        {
          "internalType": "address",
          "name": "recipient",
          "type": "address"
        },
        {
          "internalType": "uint256",
          "name": "amount",
          "type": "uint256"
        }
      ],
      "name": "transferFrom",
      "outputs": [
        {
          "internalType": "bool",
          "name": "",
          "type": "bool"
        }
      ],
      "stateMutability": "nonpayable",
      "type": "function"
    }
  ],
  "bytecode": "0x608060405234801561001057600080fd5b50610a9b806100206000396000f3fe608060405234801561001057600080fd5b50600436106100a45760003560e01c806306fdde03146100a9578063095ea7b31461012657806318160ddd1461016657806323b872dd14610180578063313ce567146101b65780636cdbbc66146101d457806370a08231146101f857806395d89b411461021e578063a9059cbb14610226578063af640d0f14610252578063dd62ed3e1461025a578063f201e5a114610288575b600080fd5b6100b16103bf565b6040805160208082528351818301528351919283929083019185019080838360005b838110156100eb5781810151838201526020016100d3565b50505050905090810190601f1680156101185780820380516001836020036101000a031916815260200191505b509250505060405180910390f35b6101526004803603604081101561013c57600080fd5b506001600160a01b03813516906020013561044a565b604080519115158252519081900360200190f35b61016e6104b0565b60408051918252519081900360200190f35b6101526004803603606081101561019657600080fd5b506001600160a01b03813581169160208101359091169060400135610531565b6101be610658565b6040805160ff9092168252519081900360200190f35b6101dc610661565b604080516001600160a01b039092168252519081900360200190f35b61016e6004803603602081101561020e57600080fd5b50356001600160a01b0316610670565b6100b16106f9565b6101526004803603604081101561023c57600080fd5b506001600160a01b038135169060200135610754565b61016e610827565b61016e6004803603604081101561027057600080fd5b506001600160a01b038135811691602001351661082d565b6103bd6004803603608081101561029e57600080fd5b81359190810190604081016020820135600160201b8111156102bf57600080fd5b8201836020820111156102d157600080fd5b803590602001918460018302840111600160201b831117156102f257600080fd5b91908080601f0160208091040260200160405190810160405280939291908181526020018383808284376000920191909152509295949360208101935035915050600160201b81111561034457600080fd5b82018360208201111561035657600080fd5b803590602001918460018302840111600160201b8311171561037757600080fd5b91908080601f0160208091040260200160405190810160405280939291908181526020018383808284376000920191909152509295505050903560ff1691506108589050565b005b6002805460408051602060018416156101000260001901909316849004601f810184900484028201840190925281815292918301828280156104425780601f1061041757610100808354040283529160200191610442565b820191906000526020600020905b81548152906001019060200180831161042557829003601f168201915b505050505081565b3360008181526005602090815260408083206001600160a01b038716808552908352818420869055815186815291519394909390927f8c5be1e5ebec7d5bd14f71427d1e84f3dd0314c0f7b2291e5b200ac8c7c3b925928290030190a350600192915050565b600080546001546040805163bd85b03960e01b81526004810192909252516001600160a01b039092169163bd85b03991602480820192602092909190829003018186803b15801561050057600080fd5b505afa158015610514573d6000803e3d6000fd5b505050506040513d602081101561052a57600080fd5b5051905090565b6001600160a01b038316600090815260056020908152604080832033845290915281205461055f90836108d2565b6001600160a01b03808616600081815260056020908152604080832033845282528083209590955581546001548651630b2c0ec160e11b815260048101959095528986166024860152604485015260648401889052945194909316936316581d82936084808501949193918390030190829087803b1580156105e057600080fd5b505af11580156105f4573d6000803e3d6000fd5b505050506040513d602081101561060a57600080fd5b505161061557600080fd5b826001600160a01b0316846001600160a01b0316600080516020610a46833981519152846040518082815260200191505060405180910390a35060019392505050565b60045460ff1681565b6000546001600160a01b031681565b6000805460015460408051627eeac760e11b81526001600160a01b03868116600483015260248201939093529051919092169162fdd58e916044808301926020929190829003018186803b1580156106c757600080fd5b505afa1580156106db573d6000803e3d6000fd5b505050506040513d60208110156106f157600080fd5b505192915050565b6003805460408051602060026001851615610100026000190190941693909304601f810184900484028201840190925281815292918301828280156104425780601f1061041757610100808354040283529160200191610442565b6000805460015460408051630b2c0ec160e11b81523360048201526001600160a01b038781166024830152604482019390935260648101869052905191909216916316581d8291608480830192602092919082900301818787803b1580156107bb57600080fd5b505af11580156107cf573d6000803e3d6000fd5b505050506040513d60208110156107e557600080fd5b50516107f057600080fd5b6040805183815290516001600160a01b038516913391600080516020610a468339815191529181900360200190a350600192915050565b60015481565b6001600160a01b03918216600090815260056020908152604080832093909416825291909152205490565b60015415801561087157506000546001600160a01b0316155b61087a57600080fd5b600080546001600160a01b03191633179055600184905582516108a49060029060208601906109b2565b5081516108b89060039060208501906109b2565b506004805460ff191660ff92909216919091179055505050565b600061091483836040518060400160405280601e81526020017f536166654d6174683a207375627472616374696f6e206f766572666c6f77000081525061091b565b9392505050565b600081848411156109aa5760405162461bcd60e51b81526004018080602001828103825283818151815260200191508051906020019080838360005b8381101561096f578181015183820152602001610957565b50505050905090810190601f16801561099c5780820380516001836020036101000a031916815260200191505b509250505060405180910390fd5b505050900390565b828054600181600116156101000203166002900490600052602060002090601f016020900481019282601f106109f357805160ff1916838001178555610a20565b82800160010185558215610a20579182015b82811115610a20578251825591602001919060010190610a05565b50610a2c929150610a30565b5090565b5b80821115610a2c5760008155600101610a3156feddf252ad1be2c89b69c2b068fc378daa952ba7f163c4a11628f55a4df523b3efa2646970667358221220e6cf103d0229c3a9b14649d0d5a49149b32a438f98636ec1b026151daf5ac8e064736f6c634300060c0033",
  "compiler": {
    "name": "solc",
    "version": "0.6.12+commit.27d51765.Emscripten.clang",
    "optimizer": {
      "enabled": true,
      "runs": 1
    },
    "evmVersion": "petersburg"
  }
}