{
  "fileName": "ForesightTokens.sol",
  "contractName": "ForesightTokens",
  "source": "// SPDX-License-Identifier: Unlicense\n\npragma solidity 0.6.12;\n\nimport \"@openzeppelin/contracts/token/ERC1155/ERC1155.sol\";\nimport \"@openzeppelin/contracts/token/ERC777/IERC777.sol\";\nimport \"@openzeppelin/contracts/math/SafeMath.sol\";\nimport \"@openzeppelin/contracts/access/Ownable.sol\";\nimport \"@openzeppelin/contracts/utils/ReentrancyGuard.sol\";\n\n\n/// @title ForesightTokens\n/// @notice Manages Foresight tokens.\n/// @dev Foresight tokens are a set of ERC1155 tokens representing positions in the\n///      Monitor system. Each market will have 3 tokens representing Yes, No, and Invalid.\ncontract ForesightTokens is ERC1155, Ownable, ReentrancyGuard {\n    using SafeMath for uint;\n\n    /// @notice Token Ids created.\n    uint public totalTokensMinted = 0;\n\n    /// @notice Setup ERC1155.\n    constructor() public ERC1155(\"\") {}\n\n    /// @notice Register a new set of Foresight Tokens when a new market is created.\n    /// @return currentSet starting index of the market's new set.\n    function registerNewSet() public onlyOwner nonReentrant returns (uint currentSet) {\n        currentSet = totalTokensMinted + 1;\n        totalTokensMinted += 3;\n    }\n\n    /// @notice Mint a new amount of Foresight Tokens for the given address.\n    /// @param acct Account to send created tokens.\n    /// @param id Id of the token to mint.\n    /// @param amount Amount of tokens to mint.\n    function mint(address acct, uint id, uint amount) public onlyOwner nonReentrant {\n        _mint(acct, id, amount, \"\");\n    }\n\n    /// @notice Burn the amount of Foresight Tokens for the given address.\n    /// @param acct Address of the Foresight to burn from.\n    /// @param id Id of the token to burn.\n    /// @param amount Amount of tokens to burn.\n    function burn(address acct, uint id, uint amount) public onlyOwner nonReentrant {\n        _burn(acct, id, amount);\n    }\n}\n",
  "sourcePath": "contracts/ForesightTokens.sol",
  "abi": [
    {
      "inputs": [],
      "stateMutability": "nonpayable",
      "type": "constructor"
    },
    {
      "anonymous": false,
      "inputs": [
        {
          "indexed": true,
          "internalType": "address",
          "name": "account",
          "type": "address"
        },
        {
          "indexed": true,
          "internalType": "address",
          "name": "operator",
          "type": "address"
        },
        {
          "indexed": false,
          "internalType": "bool",
          "name": "approved",
          "type": "bool"
        }
      ],
      "name": "ApprovalForAll",
      "type": "event"
    },
    {
      "anonymous": false,
      "inputs": [
        {
          "indexed": true,
          "internalType": "address",
          "name": "previousOwner",
          "type": "address"
        },
        {
          "indexed": true,
          "internalType": "address",
          "name": "newOwner",
          "type": "address"
        }
      ],
      "name": "OwnershipTransferred",
      "type": "event"
    },
    {
      "anonymous": false,
      "inputs": [
        {
          "indexed": true,
          "internalType": "address",
          "name": "operator",
          "type": "address"
        },
        {
          "indexed": true,
          "internalType": "address",
          "name": "from",
          "type": "address"
        },
        {
          "indexed": true,
          "internalType": "address",
          "name": "to",
          "type": "address"
        },
        {
          "indexed": false,
          "internalType": "uint256[]",
          "name": "ids",
          "type": "uint256[]"
        },
        {
          "indexed": false,
          "internalType": "uint256[]",
          "name": "values",
          "type": "uint256[]"
        }
      ],
      "name": "TransferBatch",
      "type": "event"
    },
    {
      "anonymous": false,
      "inputs": [
        {
          "indexed": true,
          "internalType": "address",
          "name": "operator",
          "type": "address"
        },
        {
          "indexed": true,
          "internalType": "address",
          "name": "from",
          "type": "address"
        },
        {
          "indexed": true,
          "internalType": "address",
          "name": "to",
          "type": "address"
        },
        {
          "indexed": false,
          "internalType": "uint256",
          "name": "id",
          "type": "uint256"
        },
        {
          "indexed": false,
          "internalType": "uint256",
          "name": "value",
          "type": "uint256"
        }
      ],
      "name": "TransferSingle",
      "type": "event"
    },
    {
      "anonymous": false,
      "inputs": [
        {
          "indexed": false,
          "internalType": "string",
          "name": "value",
          "type": "string"
        },
        {
          "indexed": true,
          "internalType": "uint256",
          "name": "id",
          "type": "uint256"
        }
      ],
      "name": "URI",
      "type": "event"
    },
    {
      "inputs": [
        {
          "internalType": "address",
          "name": "account",
          "type": "address"
        },
        {
          "internalType": "uint256",
          "name": "id",
          "type": "uint256"
        }
      ],
      "name": "balanceOf",
      "outputs": [
        {
          "internalType": "uint256",
          "name": "",
          "type": "uint256"
        }
      ],
      "stateMutability": "view",
      "type": "function"
    },
    {
      "inputs": [
        {
          "internalType": "address[]",
          "name": "accounts",
          "type": "address[]"
        },
        {
          "internalType": "uint256[]",
          "name": "ids",
          "type": "uint256[]"
        }
      ],
      "name": "balanceOfBatch",
      "outputs": [
        {
          "internalType": "uint256[]",
          "name": "",
          "type": "uint256[]"
        }
      ],
      "stateMutability": "view",
      "type": "function"
    },
    {
      "inputs": [
        {
          "internalType": "address",
          "name": "acct",
          "type": "address"
        },
        {
          "internalType": "uint256",
          "name": "id",
          "type": "uint256"
        },
        {
          "internalType": "uint256",
          "name": "amount",
          "type": "uint256"
        }
      ],
      "name": "burn",
      "outputs": [],
      "stateMutability": "nonpayable",
      "type": "function"
    },
    {
      "inputs": [
        {
          "internalType": "address",
          "name": "account",
          "type": "address"
        },
        {
          "internalType": "address",
          "name": "operator",
          "type": "address"
        }
      ],
      "name": "isApprovedForAll",
      "outputs": [
        {
          "internalType": "bool",
          "name": "",
          "type": "bool"
        }
      ],
      "stateMutability": "view",
      "type": "function"
    },
    {
      "inputs": [
        {
          "internalType": "address",
          "name": "acct",
          "type": "address"
        },
        {
          "internalType": "uint256",
          "name": "id",
          "type": "uint256"
        },
        {
          "internalType": "uint256",
          "name": "amount",
          "type": "uint256"
        }
      ],
      "name": "mint",
      "outputs": [],
      "stateMutability": "nonpayable",
      "type": "function"
    },
    {
      "inputs": [],
      "name": "owner",
      "outputs": [
        {
          "internalType": "address",
          "name": "",
          "type": "address"
        }
      ],
      "stateMutability": "view",
      "type": "function"
    },
    {
      "inputs": [],
      "name": "registerNewSet",
      "outputs": [
        {
          "internalType": "uint256",
          "name": "currentSet",
          "type": "uint256"
        }
      ],
      "stateMutability": "nonpayable",
      "type": "function"
    },
    {
      "inputs": [],
      "name": "renounceOwnership",
      "outputs": [],
      "stateMutability": "nonpayable",
      "type": "function"
    },
    {
      "inputs": [
        {
          "internalType": "address",
          "name": "from",
          "type": "address"
        },
        {
          "internalType": "address",
          "name": "to",
          "type": "address"
        },
        {
          "internalType": "uint256[]",
          "name": "ids",
          "type": "uint256[]"
        },
        {
          "internalType": "uint256[]",
          "name": "amounts",
          "type": "uint256[]"
        },
        {
          "internalType": "bytes",
          "name": "data",
          "type": "bytes"
        }
      ],
      "name": "safeBatchTransferFrom",
      "outputs": [],
      "stateMutability": "nonpayable",
      "type": "function"
    },
    {
      "inputs": [
        {
          "internalType": "address",
          "name": "from",
          "type": "address"
        },
        {
          "internalType": "address",
          "name": "to",
          "type": "address"
        },
        {
          "internalType": "uint256",
          "name": "id",
          "type": "uint256"
        },
        {
          "internalType": "uint256",
          "name": "amount",
          "type": "uint256"
        },
        {
          "internalType": "bytes",
          "name": "data",
          "type": "bytes"
        }
      ],
      "name": "safeTransferFrom",
      "outputs": [],
      "stateMutability": "nonpayable",
      "type": "function"
    },
    {
      "inputs": [
        {
          "internalType": "address",
          "name": "operator",
          "type": "address"
        },
        {
          "internalType": "bool",
          "name": "approved",
          "type": "bool"
        }
      ],
      "name": "setApprovalForAll",
      "outputs": [],
      "stateMutability": "nonpayable",
      "type": "function"
    },
    {
      "inputs": [
        {
          "internalType": "bytes4",
          "name": "interfaceId",
          "type": "bytes4"
        }
      ],
      "name": "supportsInterface",
      "outputs": [
        {
          "internalType": "bool",
          "name": "",
          "type": "bool"
        }
      ],
      "stateMutability": "view",
      "type": "function"
    },
    {
      "inputs": [],
      "name": "totalTokensMinted",
      "outputs": [
        {
          "internalType": "uint256",
          "name": "",
          "type": "uint256"
        }
      ],
      "stateMutability": "view",
      "type": "function"
    },
    {
      "inputs": [
        {
          "internalType": "address",
          "name": "newOwner",
          "type": "address"
        }
      ],
      "name": "transferOwnership",
      "outputs": [],
      "stateMutability": "nonpayable",
      "type": "function"
    },
    {
      "inputs": [
        {
          "internalType": "uint256",
          "name": "",
          "type": "uint256"
        }
      ],
      "name": "uri",
      "outputs": [
        {
          "internalType": "string",
          "name": "",
          "type": "string"
        }
      ],
      "stateMutability": "view",
      "type": "function"
    }
  ],
  "bytecode": "0x608060405260006006553480156200001657600080fd5b50604080516020810190915260008152620000517f01ffc9a70000000000000000000000000000000000000000000000000000000062000118565b6200005c81620001e7565b620000877fd9b67a260000000000000000000000000000000000000000000000000000000062000118565b620000b27f0e89341c0000000000000000000000000000000000000000000000000000000062000118565b506000620000bf62000200565b600480546001600160a01b0319166001600160a01b038316908117909155604051919250906000907f8be0079c531659141344cd1fd0a4f28419497f9722a3daafe3b4186f6b6457e0908290a3506001600555620002a0565b7fffffffff000000000000000000000000000000000000000000000000000000008082161415620001aa57604080517f08c379a000000000000000000000000000000000000000000000000000000000815260206004820152601c60248201527f4552433136353a20696e76616c696420696e7465726661636520696400000000604482015290519081900360640190fd5b7fffffffff00000000000000000000000000000000000000000000000000000000166000908152602081905260409020805460ff19166001179055565b8051620001fc90600390602084019062000204565b5050565b3390565b828054600181600116156101000203166002900490600052602060002090601f016020900481019282601f106200024757805160ff191683800117855562000277565b8280016001018555821562000277579182015b82811115620002775782518255916020019190600101906200025a565b506200028592915062000289565b5090565b5b808211156200028557600081556001016200028a565b611e7480620002b06000396000f3fe608060405234801561001057600080fd5b50600436106100c45760003560e01c8062fdd58e146100c957806301ffc9a7146101075780630e89341c14610142578063156e29f6146101d45780632eb2c2d6146102085780634e1273f4146103c95780635d2585a51461053c578063715018a6146105445780637d549e991461054c5780638da5cb5b14610554578063a22cb46514610578578063e985e9c5146105a6578063f242432a146105d4578063f2fde38b1461069d578063f5298aca146106c3575b600080fd5b6100f5600480360360408110156100df57600080fd5b506001600160a01b0381351690602001356106f5565b60408051918252519081900360200190f35b61012e6004803603602081101561011d57600080fd5b50356001600160e01b031916610764565b604080519115158252519081900360200190f35b61015f6004803603602081101561015857600080fd5b5035610783565b6040805160208082528351818301528351919283929083019185019080838360005b83811015610199578181015183820152602001610181565b50505050905090810190601f1680156101c65780820380516001836020036101000a031916815260200191505b509250505060405180910390f35b610206600480360360608110156101ea57600080fd5b506001600160a01b03813516906020810135906040013561081b565b005b610206600480360360a081101561021e57600080fd5b6001600160a01b038235811692602081013590911691810190606081016040820135600160201b81111561025157600080fd5b82018360208201111561026357600080fd5b803590602001918460208302840111600160201b8311171561028457600080fd5b9190808060200260200160405190810160405280939291908181526020018383602002808284376000920191909152509295949360208101935035915050600160201b8111156102d357600080fd5b8201836020820111156102e557600080fd5b803590602001918460208302840111600160201b8311171561030657600080fd5b9190808060200260200160405190810160405280939291908181526020018383602002808284376000920191909152509295949360208101935035915050600160201b81111561035557600080fd5b82018360208201111561036757600080fd5b803590602001918460018302840111600160201b8311171561038857600080fd5b91908080601f0160208091040260200160405190810160405280939291908181526020018383808284376000920191909152509295506108e6945050505050565b6104ec600480360360408110156103df57600080fd5b810190602081018135600160201b8111156103f957600080fd5b82018360208201111561040b57600080fd5b803590602001918460208302840111600160201b8311171561042c57600080fd5b9190808060200260200160405190810160405280939291908181526020018383602002808284376000920191909152509295949360208101935035915050600160201b81111561047b57600080fd5b82018360208201111561048d57600080fd5b803590602001918460208302840111600160201b831117156104ae57600080fd5b919080806020026020016040519081016040528093929190818152602001838360200280828437600092019190915250929550610be4945050505050565b60408051602080825283518183015283519192839290830191858101910280838360005b83811015610528578181015183820152602001610510565b505050509050019250505060405180910390f35b6100f5610d61565b610206610e18565b6100f5610ea8565b61055c610eae565b604080516001600160a01b039092168252519081900360200190f35b6102066004803603604081101561058e57600080fd5b506001600160a01b0381351690602001351515610ebe565b61012e600480360360408110156105bc57600080fd5b506001600160a01b0381358116916020013516610fad565b610206600480360360a08110156105ea57600080fd5b6001600160a01b03823581169260208101359091169160408201359160608101359181019060a081016080820135600160201b81111561062957600080fd5b82018360208201111561063b57600080fd5b803590602001918460018302840111600160201b8311171561065c57600080fd5b91908080601f016020809104026020016040519081016040528093929190818152602001838380828437600092019190915250929550610fdb945050505050565b610206600480360360208110156106b357600080fd5b50356001600160a01b0316611194565b610206600480360360608110156106d957600080fd5b506001600160a01b03813516906020810135906040013561127b565b60006001600160a01b03831661073c5760405162461bcd60e51b815260040180806020018281038252602b815260200180611bf1602b913960400191505060405180910390fd5b5060009081526001602090815260408083206001600160a01b03949094168352929052205490565b6001600160e01b03191660009081526020819052604090205460ff1690565b60038054604080516020601f600260001961010060018816150201909516949094049384018190048102820181019092528281526060939092909183018282801561080f5780601f106107e45761010080835404028352916020019161080f565b820191906000526020600020905b8154815290600101906020018083116107f257829003601f168201915b50505050509050919050565b610823611329565b6004546001600160a01b03908116911614610873576040805162461bcd60e51b81526020600482018190526024820152600080516020611d64833981519152604482015290519081900360640190fd5b600260055414156108b9576040805162461bcd60e51b815260206004820152601f6024820152600080516020611bb1833981519152604482015290519081900360640190fd5b60026005819055506108dc8383836040518060200160405280600081525061132d565b5050600160055550565b81518351146109265760405162461bcd60e51b8152600401808060200182810382526028815260200180611df66028913960400191505060405180910390fd5b6001600160a01b03841661096b5760405162461bcd60e51b8152600401808060200182810382526025815260200180611cc06025913960400191505060405180910390fd5b610973611329565b6001600160a01b0316856001600160a01b0316148061099e575061099e85610999611329565b610fad565b6109d95760405162461bcd60e51b8152600401808060200182810382526032815260200180611ce56032913960400191505060405180910390fd5b60006109e3611329565b90506109f3818787878787610bdc565b60005b8451811015610af4576000858281518110610a0d57fe5b602002602001015190506000858381518110610a2557fe5b60200260200101519050610a92816040518060600160405280602a8152602001611d3a602a91396001600086815260200190815260200160002060008d6001600160a01b03166001600160a01b03168152602001908152602001600020546114239092919063ffffffff16565b60008381526001602090815260408083206001600160a01b038e811685529252808320939093558a1681522054610ac990826114ba565b60009283526001602081815260408086206001600160a01b038d1687529091529093205550016109f6565b50846001600160a01b0316866001600160a01b0316826001600160a01b03167f4a39dc06d4c0dbc64b70af90fd698a233a518aa5d07e595d983b8c0526c8f7fb8787604051808060200180602001838103835285818151815260200191508051906020019060200280838360005b83811015610b7a578181015183820152602001610b62565b50505050905001838103825284818151815260200191508051906020019060200280838360005b83811015610bb9578181015183820152602001610ba1565b5050505090500194505050505060405180910390a4610bdc818787878787611519565b505050505050565b60608151835114610c265760405162461bcd60e51b8152600401808060200182810382526029815260200180611dcd6029913960400191505060405180910390fd5b606083516001600160401b0381118015610c3f57600080fd5b50604051908082528060200260200182016040528015610c69578160200160208202803683370190505b50905060005b8451811015610d595760006001600160a01b0316858281518110610c8f57fe5b60200260200101516001600160a01b03161415610cdd5760405162461bcd60e51b8152600401808060200182810382526031815260200180611c1c6031913960400191505060405180910390fd5b60016000858381518110610ced57fe5b602002602001015181526020019081526020016000206000868381518110610d1157fe5b60200260200101516001600160a01b03166001600160a01b0316815260200190815260200160002054828281518110610d4657fe5b6020908102919091010152600101610c6f565b509392505050565b6000610d6b611329565b6004546001600160a01b03908116911614610dbb576040805162461bcd60e51b81526020600482018190526024820152600080516020611d64833981519152604482015290519081900360640190fd5b60026005541415610e01576040805162461bcd60e51b815260206004820152601f6024820152600080516020611bb1833981519152604482015290519081900360640190fd5b506006805460038101909155600160058190550190565b610e20611329565b6004546001600160a01b03908116911614610e70576040805162461bcd60e51b81526020600482018190526024820152600080516020611d64833981519152604482015290519081900360640190fd5b6004546040516000916001600160a01b031690600080516020611d84833981519152908390a3600480546001600160a01b0319169055565b60065481565b6004546001600160a01b03165b90565b816001600160a01b0316610ed0611329565b6001600160a01b03161415610f165760405162461bcd60e51b8152600401808060200182810382526029815260200180611da46029913960400191505060405180910390fd5b8060026000610f23611329565b6001600160a01b03908116825260208083019390935260409182016000908120918716808252919093529120805460ff191692151592909217909155610f67611329565b6001600160a01b03167f17307eab39ab6107e8899845ad3d59bd9653f200f220920489ca2b5937696c318360405180821515815260200191505060405180910390a35050565b6001600160a01b03918216600090815260026020908152604080832093909416825291909152205460ff1690565b6001600160a01b0384166110205760405162461bcd60e51b8152600401808060200182810382526025815260200180611cc06025913960400191505060405180910390fd5b611028611329565b6001600160a01b0316856001600160a01b0316148061104e575061104e85610999611329565b6110895760405162461bcd60e51b8152600401808060200182810382526029815260200180611c976029913960400191505060405180910390fd5b6000611093611329565b90506110b38187876110a488611798565b6110ad88611798565b87610bdc565b6110fa836040518060600160405280602a8152602001611d3a602a913960008781526001602090815260408083206001600160a01b038d1684529091529020549190611423565b60008581526001602090815260408083206001600160a01b038b8116855292528083209390935587168152205461113190846114ba565b60008581526001602090815260408083206001600160a01b03808b168086529184529382902094909455805188815291820187905280518a841693861692600080516020611bd183398151915292908290030190a4610bdc8187878787876117dc565b61119c611329565b6004546001600160a01b039081169116146111ec576040805162461bcd60e51b81526020600482018190526024820152600080516020611d64833981519152604482015290519081900360640190fd5b6001600160a01b0381166112315760405162461bcd60e51b8152600401808060200182810382526026815260200180611c4d6026913960400191505060405180910390fd5b6004546040516001600160a01b03808416921690600080516020611d8483398151915290600090a3600480546001600160a01b0319166001600160a01b0392909216919091179055565b611283611329565b6004546001600160a01b039081169116146112d3576040805162461bcd60e51b81526020600482018190526024820152600080516020611d64833981519152604482015290519081900360640190fd5b60026005541415611319576040805162461bcd60e51b815260206004820152601f6024820152600080516020611bb1833981519152604482015290519081900360640190fd5b60026005556108dc83838361194d565b3390565b6001600160a01b0384166113725760405162461bcd60e51b8152600401808060200182810382526021815260200180611e1e6021913960400191505060405180910390fd5b600061137c611329565b905061138e816000876110a488611798565b60008481526001602090815260408083206001600160a01b03891684529091529020546113bb90846114ba565b60008581526001602090815260408083206001600160a01b03808b1680865291845282852095909555815189815292830188905281519094861692600080516020611bd183398151915292908290030190a461141c816000878787876117dc565b5050505050565b600081848411156114b25760405162461bcd60e51b81526004018080602001828103825283818151815260200191508051906020019080838360005b8381101561147757818101518382015260200161145f565b50505050905090810190601f1680156114a45780820380516001836020036101000a031916815260200191505b509250505060405180910390fd5b505050900390565b600082820183811015611512576040805162461bcd60e51b815260206004820152601b60248201527a536166654d6174683a206164646974696f6e206f766572666c6f7760281b604482015290519081900360640190fd5b9392505050565b61152b846001600160a01b0316611a6e565b15610bdc57836001600160a01b031663bc197c8187878686866040518663ffffffff1660e01b815260040180866001600160a01b03168152602001856001600160a01b03168152602001806020018060200180602001848103845287818151815260200191508051906020019060200280838360005b838110156115b95781810151838201526020016115a1565b50505050905001848103835286818151815260200191508051906020019060200280838360005b838110156115f85781810151838201526020016115e0565b50505050905001848103825285818151815260200191508051906020019080838360005b8381101561163457818101518382015260200161161c565b50505050905090810190601f1680156116615780820380516001836020036101000a031916815260200191505b5098505050505050505050602060405180830381600087803b15801561168657600080fd5b505af19250505080156116ab57506040513d60208110156116a657600080fd5b505160015b611740576116b7611ab0565b806116c25750611709565b60405162461bcd60e51b815260206004820181815283516024840152835184939192839260440191908501908083836000831561147757818101518382015260200161145f565b60405162461bcd60e51b8152600401808060200182810382526034815260200180611b556034913960400191505060405180910390fd5b6001600160e01b0319811663bc197c8160e01b1461178f5760405162461bcd60e51b8152600401808060200182810382526028815260200180611b896028913960400191505060405180910390fd5b50505050505050565b6040805160018082528183019092526060918291906020808301908036833701905050905082816000815181106117cb57fe5b602090810291909101015292915050565b6117ee846001600160a01b0316611a6e565b15610bdc57836001600160a01b031663f23a6e6187878686866040518663ffffffff1660e01b815260040180866001600160a01b03168152602001856001600160a01b0316815260200184815260200183815260200180602001828103825283818151815260200191508051906020019080838360005b8381101561187d578181015183820152602001611865565b50505050905090810190601f1680156118aa5780820380516001836020036101000a031916815260200191505b509650505050505050602060405180830381600087803b1580156118cd57600080fd5b505af19250505080156118f257506040513d60208110156118ed57600080fd5b505160015b6118fe576116b7611ab0565b6001600160e01b0319811663f23a6e6160e01b1461178f5760405162461bcd60e51b8152600401808060200182810382526028815260200180611b896028913960400191505060405180910390fd5b6001600160a01b0383166119925760405162461bcd60e51b8152600401808060200182810382526023815260200180611d176023913960400191505060405180910390fd5b600061199c611329565b90506119cc818560006119ae87611798565b6119b787611798565b60405180602001604052806000815250610bdc565b611a1382604051806060016040528060248152602001611c736024913960008681526001602090815260408083206001600160a01b038b1684529091529020549190611423565b60008481526001602090815260408083206001600160a01b03808a1680865291845282852095909555815188815292830187905281519394909390861692600080516020611bd183398151915292908290030190a450505050565b6000813f7fc5d2460186f7233c927e7db2dcc703c0e500b653ca82273b7bfad8045d85a470818114801590611aa257508115155b949350505050565b60e01c90565b600060443d1015611ac057610ebb565b600481823e6308c379a0611ad48251611aaa565b14611ade57610ebb565b6040513d600319016004823e80513d6001600160401b038083116024840183101715611b0d5750505050610ebb565b82840192508251915080821115611b275750505050610ebb565b503d83016020828401011115611b3f57505050610ebb565b601f01601f191681016020016040529150509056fe455243313135353a207472616e7366657220746f206e6f6e2045524331313535526563656976657220696d706c656d656e746572455243313135353a204552433131353552656365697665722072656a656374656420746f6b656e735265656e7472616e637947756172643a207265656e7472616e742063616c6c00c3d58168c5ae7397731d063d5bbf3d657854427343f4c083240f7aacaa2d0f62455243313135353a2062616c616e636520717565727920666f7220746865207a65726f2061646472657373455243313135353a2062617463682062616c616e636520717565727920666f7220746865207a65726f20616464726573734f776e61626c653a206e6577206f776e657220697320746865207a65726f2061646472657373455243313135353a206275726e20616d6f756e7420657863656564732062616c616e6365455243313135353a2063616c6c6572206973206e6f74206f776e6572206e6f7220617070726f766564455243313135353a207472616e7366657220746f20746865207a65726f2061646472657373455243313135353a207472616e736665722063616c6c6572206973206e6f74206f776e6572206e6f7220617070726f766564455243313135353a206275726e2066726f6d20746865207a65726f2061646472657373455243313135353a20696e73756666696369656e742062616c616e636520666f72207472616e736665724f776e61626c653a2063616c6c6572206973206e6f7420746865206f776e65728be0079c531659141344cd1fd0a4f28419497f9722a3daafe3b4186f6b6457e0455243313135353a2073657474696e6720617070726f76616c2073746174757320666f722073656c66455243313135353a206163636f756e747320616e6420696473206c656e677468206d69736d61746368455243313135353a2069647320616e6420616d6f756e7473206c656e677468206d69736d61746368455243313135353a206d696e7420746f20746865207a65726f2061646472657373a2646970667358221220e9e9d2cdcc64bc538230de63ea8dbc036c83484d901766728eeb422180a2181864736f6c634300060c0033",
  "compiler": {
    "name": "solc",
    "version": "0.6.12+commit.27d51765.Emscripten.clang",
    "optimizer": {
      "enabled": true,
      "runs": 1
    },
    "evmVersion": "petersburg"
  }
}