{
  "fileName": "ForesightVault.sol",
  "contractName": "ForesightVault",
  "source": "// SPDX-License-Identifier: Unlicense\n\npragma solidity 0.6.12;\n\nimport \"@openzeppelin/contracts/access/Ownable.sol\";\nimport \"./Foresight.sol\";\n\n\n/// @title ForesightVault\n/// @notice Holds data to mint complete sets of Foresight tokens.\n/// @dev Foresight Tokens are ERC777 for hooks usage if necessary.\n///      Contract can only be controlled by owning contract.\ncontract ForesightVault is Ownable {\n    /// @notice Address of the market connected to the Foresight Vault.\n    address public marketAddress;\n    /// @notice YesShort token pointer.\n    Foresight public yesShortToken;\n    /// @notice NoLong token pointer.\n    Foresight public noLongToken;\n    /// @notice Invalid token pointer.\n    Foresight public invalidToken;\n    /// @notice YesShort token address pointer.\n    address public yesShortTokenAddress;\n    /// @notice NoLong token address pointer.\n    address public noLongTokenAddress;\n    /// @notice Invalid token address pointer.\n    address public invalidTokenAddress;\n\n    /// @notice Create a minter and store market address data.\n    /// @param setMarketAddress Pointer to the market Address linking the Foresight token.\n    constructor(address setMarketAddress) public {\n        marketAddress = setMarketAddress;\n        yesShortToken = new Foresight(\"Foresight - Yes/Short\", \"FYS\", setMarketAddress);\n        noLongToken = new Foresight(\"Foresight - No/Long\", \"FNL\", setMarketAddress);\n        invalidToken = new Foresight(\"Foresight - Invalid\", \"FINV\", setMarketAddress);\n        yesShortTokenAddress = address(yesShortToken);\n        noLongTokenAddress = address(noLongToken);\n        invalidTokenAddress = address(invalidToken);\n    }\n\n    /// @notice Mints a complete set of Foresight Tokens.\n    /// @dev Only the owner of the contract can mint tokens.\n    /// @param amount Amount of each token to mint.\n    /// @param to Address to send tokens to.\n    function mintCompleteSets(address to, uint amount) public onlyOwner {\n        noLongToken.mint(to, amount);\n        yesShortToken.mint(to, amount);\n        invalidToken.mint(to, amount);\n    }\n\n    /// @notice Burn the YesShort Foresight Token for the given address.\n    /// @dev Only the owner of the contract can burn tokens.\n    /// @param amount Amount of each token to mint.\n    /// @param from Address to burn tokens from.\n    function burnYesShort(address from, uint amount) public onlyOwner {\n        yesShortToken.burn(from, amount);\n    }\n\n    /// @notice Burn the NoLong Foresight Token for the given address.\n    /// @dev Only the owner of the contract can burn tokens.\n    /// @param amount Amount of each token to mint.\n    /// @param from Address to burn tokens from.\n    function burnNoLong(address from, uint amount) public onlyOwner {\n        noLongToken.burn(from, amount);\n    }\n\n    /// @notice Burn the NoLong Foresight Token for the given address.\n    /// @dev Only the owner of the contract can burn tokens.\n    /// @param amount Amount of each token to mint.\n    /// @param from Address to burn tokens from.\n    function burnInvalid(address from, uint amount) public onlyOwner {\n        invalidToken.burn(from, amount);\n    }\n\n}\n",
  "sourcePath": "contracts/ForesightVault.sol",
  "abi": [
    {
      "inputs": [
        {
          "internalType": "address",
          "name": "setMarketAddress",
          "type": "address"
        }
      ],
      "stateMutability": "nonpayable",
      "type": "constructor"
    },
    {
      "anonymous": false,
      "inputs": [
        {
          "indexed": true,
          "internalType": "address",
          "name": "previousOwner",
          "type": "address"
        },
        {
          "indexed": true,
          "internalType": "address",
          "name": "newOwner",
          "type": "address"
        }
      ],
      "name": "OwnershipTransferred",
      "type": "event"
    },
    {
      "inputs": [
        {
          "internalType": "address",
          "name": "from",
          "type": "address"
        },
        {
          "internalType": "uint256",
          "name": "amount",
          "type": "uint256"
        }
      ],
      "name": "burnInvalid",
      "outputs": [],
      "stateMutability": "nonpayable",
      "type": "function"
    },
    {
      "inputs": [
        {
          "internalType": "address",
          "name": "from",
          "type": "address"
        },
        {
          "internalType": "uint256",
          "name": "amount",
          "type": "uint256"
        }
      ],
      "name": "burnNoLong",
      "outputs": [],
      "stateMutability": "nonpayable",
      "type": "function"
    },
    {
      "inputs": [
        {
          "internalType": "address",
          "name": "from",
          "type": "address"
        },
        {
          "internalType": "uint256",
          "name": "amount",
          "type": "uint256"
        }
      ],
      "name": "burnYesShort",
      "outputs": [],
      "stateMutability": "nonpayable",
      "type": "function"
    },
    {
      "inputs": [],
      "name": "invalidToken",
      "outputs": [
        {
          "internalType": "contract Foresight",
          "name": "",
          "type": "address"
        }
      ],
      "stateMutability": "view",
      "type": "function"
    },
    {
      "inputs": [],
      "name": "invalidTokenAddress",
      "outputs": [
        {
          "internalType": "address",
          "name": "",
          "type": "address"
        }
      ],
      "stateMutability": "view",
      "type": "function"
    },
    {
      "inputs": [],
      "name": "marketAddress",
      "outputs": [
        {
          "internalType": "address",
          "name": "",
          "type": "address"
        }
      ],
      "stateMutability": "view",
      "type": "function"
    },
    {
      "inputs": [
        {
          "internalType": "address",
          "name": "to",
          "type": "address"
        },
        {
          "internalType": "uint256",
          "name": "amount",
          "type": "uint256"
        }
      ],
      "name": "mintCompleteSets",
      "outputs": [],
      "stateMutability": "nonpayable",
      "type": "function"
    },
    {
      "inputs": [],
      "name": "noLongToken",
      "outputs": [
        {
          "internalType": "contract Foresight",
          "name": "",
          "type": "address"
        }
      ],
      "stateMutability": "view",
      "type": "function"
    },
    {
      "inputs": [],
      "name": "noLongTokenAddress",
      "outputs": [
        {
          "internalType": "address",
          "name": "",
          "type": "address"
        }
      ],
      "stateMutability": "view",
      "type": "function"
    },
    {
      "inputs": [],
      "name": "owner",
      "outputs": [
        {
          "internalType": "address",
          "name": "",
          "type": "address"
        }
      ],
      "stateMutability": "view",
      "type": "function"
    },
    {
      "inputs": [],
      "name": "renounceOwnership",
      "outputs": [],
      "stateMutability": "nonpayable",
      "type": "function"
    },
    {
      "inputs": [
        {
          "internalType": "address",
          "name": "newOwner",
          "type": "address"
        }
      ],
      "name": "transferOwnership",
      "outputs": [],
      "stateMutability": "nonpayable",
      "type": "function"
    },
    {
      "inputs": [],
      "name": "yesShortToken",
      "outputs": [
        {
          "internalType": "contract Foresight",
          "name": "",
          "type": "address"
        }
      ],
      "stateMutability": "view",
      "type": "function"
    },
    {
      "inputs": [],
      "name": "yesShortTokenAddress",
      "outputs": [
        {
          "internalType": "address",
          "name": "",
          "type": "address"
        }
      ],
      "stateMutability": "view",
      "type": "function"
    }
  ],
  "bytecode": "0x608060405234801561001057600080fd5b5060405161355e38038061355e8339818101604052602081101561003357600080fd5b5051600061003f610331565b600080546001600160a01b0319166001600160a01b0383169081178255604051929350917f8be0079c531659141344cd1fd0a4f28419497f9722a3daafe3b4186f6b6457e0908290a350600180546001600160a01b0319166001600160a01b03831617905560405181906100b290610335565b6001600160a01b0390911660408083019190915260608083526015908301527f466f72657369676874202d205965732f53686f72740000000000000000000000608083015260a0602083018190526003908301527f465953000000000000000000000000000000000000000000000000000000000060c0830152519081900360e001906000f08015801561014a573d6000803e3d6000fd5b50600280546001600160a01b0319166001600160a01b0392909216919091179055604051819061017990610335565b6001600160a01b0390911660408083019190915260608083526013908301527f466f72657369676874202d204e6f2f4c6f6e6700000000000000000000000000608083015260a0602083018190526003908301527f464e4c000000000000000000000000000000000000000000000000000000000060c0830152519081900360e001906000f080158015610211573d6000803e3d6000fd5b50600380546001600160a01b0319166001600160a01b0392909216919091179055604051819061024090610335565b6001600160a01b0390911660408083019190915260608083526013908301527f466f72657369676874202d20496e76616c696400000000000000000000000000608083015260a0602083018190526004908301527f46494e560000000000000000000000000000000000000000000000000000000060c0830152519081900360e001906000f0801580156102d8573d6000803e3d6000fd5b50600480546001600160a01b039283166001600160a01b03199182161791829055600254600580548316918516919091179055600354600680548316918516919091179055600780549091169190921617905550610342565b3390565b6129d280610b8c83390190565b61083b806103516000396000f3fe608060405234801561001057600080fd5b50600436106100ba5760003560e01c80630e49dd7e146100bf57806315edaf8b146100e35780631eb3dfcc146100eb57806338f4a5bf146100f357806365a2e2e8146100fb578063715018a6146101035780638da5cb5b1461010d5780638fb4eff4146101155780639562364114610141578063a108501a14610149578063f2fde38b14610175578063f319d4281461019b578063f3297347146101c7578063f352ad0a146101cf575b600080fd5b6100c76101fb565b604080516001600160a01b039092168252519081900360200190f35b6100c761020a565b6100c7610219565b6100c7610228565b6100c7610237565b61010b610246565b005b6100c76102d6565b61010b6004803603604081101561012b57600080fd5b506001600160a01b0381351690602001356102e5565b6100c76103ae565b61010b6004803603604081101561015f57600080fd5b506001600160a01b0381351690602001356103bd565b61010b6004803603602081101561018b57600080fd5b50356001600160a01b031661046e565b61010b600480360360408110156101b157600080fd5b506001600160a01b038135169060200135610554565b6100c76106df565b61010b600480360360408110156101e557600080fd5b506001600160a01b0381351690602001356106ee565b6005546001600160a01b031681565b6006546001600160a01b031681565b6007546001600160a01b031681565b6002546001600160a01b031681565b6004546001600160a01b031681565b61024e61079b565b6000546001600160a01b0390811691161461029e576040805162461bcd60e51b815260206004820181905260248201526000805160206107c6833981519152604482015290519081900360640190fd5b600080546040516001600160a01b03909116906000805160206107e6833981519152908390a3600080546001600160a01b0319169055565b6000546001600160a01b031690565b6102ed61079b565b6000546001600160a01b0390811691161461033d576040805162461bcd60e51b815260206004820181905260248201526000805160206107c6833981519152604482015290519081900360640190fd5b60025460408051632770a7eb60e21b81526001600160a01b0385811660048301526024820185905291519190921691639dc29fac91604480830192600092919082900301818387803b15801561039257600080fd5b505af11580156103a6573d6000803e3d6000fd5b505050505050565b6001546001600160a01b031681565b6103c561079b565b6000546001600160a01b03908116911614610415576040805162461bcd60e51b815260206004820181905260248201526000805160206107c6833981519152604482015290519081900360640190fd5b6004805460408051632770a7eb60e21b81526001600160a01b03868116948201949094526024810185905290519290911691639dc29fac9160448082019260009290919082900301818387803b15801561039257600080fd5b61047661079b565b6000546001600160a01b039081169116146104c6576040805162461bcd60e51b815260206004820181905260248201526000805160206107c6833981519152604482015290519081900360640190fd5b6001600160a01b03811661050b5760405162461bcd60e51b81526004018080602001828103825260268152602001806107a06026913960400191505060405180910390fd5b600080546040516001600160a01b03808516939216916000805160206107e683398151915291a3600080546001600160a01b0319166001600160a01b0392909216919091179055565b61055c61079b565b6000546001600160a01b039081169116146105ac576040805162461bcd60e51b815260206004820181905260248201526000805160206107c6833981519152604482015290519081900360640190fd5b600354604080516340c10f1960e01b81526001600160a01b03858116600483015260248201859052915191909216916340c10f1991604480830192600092919082900301818387803b15801561060157600080fd5b505af1158015610615573d6000803e3d6000fd5b5050600254604080516340c10f1960e01b81526001600160a01b0387811660048301526024820187905291519190921693506340c10f199250604480830192600092919082900301818387803b15801561066e57600080fd5b505af1158015610682573d6000803e3d6000fd5b505060048054604080516340c10f1960e01b81526001600160a01b03888116948201949094526024810187905290519290911693506340c10f19925060448082019260009290919082900301818387803b15801561039257600080fd5b6003546001600160a01b031681565b6106f661079b565b6000546001600160a01b03908116911614610746576040805162461bcd60e51b815260206004820181905260248201526000805160206107c6833981519152604482015290519081900360640190fd5b60035460408051632770a7eb60e21b81526001600160a01b0385811660048301526024820185905291519190921691639dc29fac91604480830192600092919082900301818387803b15801561039257600080fd5b339056fe4f776e61626c653a206e6577206f776e657220697320746865207a65726f20616464726573734f776e61626c653a2063616c6c6572206973206e6f7420746865206f776e65728be0079c531659141344cd1fd0a4f28419497f9722a3daafe3b4186f6b6457e0a2646970667358221220598cb88c267ee1cf293cad96b72d45f64dfa16e14918fe6a7980eec47d14992564736f6c634300060c003360806040523480156200001157600080fd5b50604051620029d2380380620029d2833981810160405260608110156200003757600080fd5b81019080805160405193929190846401000000008211156200005857600080fd5b9083019060208201858111156200006e57600080fd5b82516401000000008111828201881017156200008957600080fd5b82525081516020918201929091019080838360005b83811015620000b85781810151838201526020016200009e565b50505050905090810190601f168015620000e65780820380516001836020036101000a031916815260200191505b50604052602001805160405193929190846401000000008211156200010a57600080fd5b9083019060208201858111156200012057600080fd5b82516401000000008111828201881017156200013b57600080fd5b82525081516020918201929091019080838360005b838110156200016a57818101518382015260200162000150565b50505050905090810190601f168015620001985780820380516001836020036101000a031916815260200191505b5060408181526020928301516000835283830190915286519094508693508592620001c9916002918601906200044a565b508151620001df9060039060208501906200044a565b508051620001f5906004906020840190620004cf565b5060005b6004548110156200025557600160056000600484815481106200021857fe5b6000918252602080832091909101546001600160a01b031683528201929092526040019020805460ff1916911515919091179055600101620001f9565b50604080517f29965a1d00000000000000000000000000000000000000000000000000000000815230600482018190527fac7fbab5f54a3ca8194167523c6753bfeb96a445279294b6125b68cce2177054602483015260448201529051731820a4b7618bde71dce8cdc73aab6c95905fad24916329965a1d91606480830192600092919082900301818387803b158015620002ef57600080fd5b505af115801562000304573d6000803e3d6000fd5b5050604080517f29965a1d00000000000000000000000000000000000000000000000000000000815230600482018190527faea199e31a596269b42cdafd93407f14436db6e4cad65417994c2eb37381e05a602483015260448201529051731820a4b7618bde71dce8cdc73aab6c95905fad2493506329965a1d9250606480830192600092919082900301818387803b158015620003a157600080fd5b505af1158015620003b6573d6000803e3d6000fd5b505050505050506000620003cf6200044660201b60201c565b600980546001600160a01b0319166001600160a01b038316908117909155604051919250906000907f8be0079c531659141344cd1fd0a4f28419497f9722a3daafe3b4186f6b6457e0908290a350600a80546001600160a01b0319166001600160a01b0392909216919091179055506200056d9050565b3390565b828054600181600116156101000203166002900490600052602060002090601f016020900481019282601f106200048d57805160ff1916838001178555620004bd565b82800160010185558215620004bd579182015b82811115620004bd578251825591602001919060010190620004a0565b50620004cb92915062000535565b5090565b82805482825590600052602060002090810192821562000527579160200282015b828111156200052757825182546001600160a01b0319166001600160a01b03909116178255602090920191600190910190620004f0565b50620004cb9291506200054c565b5b80821115620004cb576000815560010162000536565b5b80821115620004cb5780546001600160a01b03191681556001016200054d565b612455806200057d6000396000f3fe608060405234801561001057600080fd5b50600436106101285760003560e01c806306e485381461012d57806306fdde0314610185578063095ea7b31461020257806318160ddd1461024257806323b872dd1461025c578063313ce5671461029257806340c10f19146102b0578063556f0dc7146102de57806362ad1b83146102e657806370a082311461042f578063715018a6146104555780638da5cb5b1461045d5780639562364114610481578063959b8c3f1461048957806395d89b41146104af5780639bd9bbc6146104b75780639dc29fac14610570578063a9059cbb1461059c578063d95b6371146105c8578063dd62ed3e146105f6578063f2fde38b14610624578063fad8b32a1461064a578063fc673c4f14610670578063fe9d9303146107ae575b600080fd5b610135610859565b60408051602080825283518183015283519192839290830191858101910280838360005b83811015610171578181015183820152602001610159565b505050509050019250505060405180910390f35b61018d6108bb565b6040805160208082528351818301528351919283929083019185019080838360005b838110156101c75781810151838201526020016101af565b50505050905090810190601f1680156101f45780820380516001836020036101000a031916815260200191505b509250505060405180910390f35b61022e6004803603604081101561021857600080fd5b506001600160a01b038135169060200135610945565b604080519115158252519081900360200190f35b61024a610967565b60408051918252519081900360200190f35b61022e6004803603606081101561027257600080fd5b506001600160a01b0381358116916020810135909116906040013561096d565b61029a610aea565b6040805160ff9092168252519081900360200190f35b6102dc600480360360408110156102c657600080fd5b506001600160a01b038135169060200135610aef565b005b61024a610b75565b6102dc600480360360a08110156102fc57600080fd5b6001600160a01b03823581169260208101359091169160408201359190810190608081016060820135600160201b81111561033657600080fd5b82018360208201111561034857600080fd5b803590602001918460018302840111600160201b8311171561036957600080fd5b91908080601f0160208091040260200160405190810160405280939291908181526020018383808284376000920191909152509295949360208101935035915050600160201b8111156103bb57600080fd5b8201836020820111156103cd57600080fd5b803590602001918460018302840111600160201b831117156103ee57600080fd5b91908080601f016020809104026020016040519081016040528093929190818152602001838380828437600092019190915250929550610b7a945050505050565b61024a6004803603602081101561044557600080fd5b50356001600160a01b0316610bdc565b6102dc610bf7565b610465610c87565b604080516001600160a01b039092168252519081900360200190f35b610465610c96565b6102dc6004803603602081101561049f57600080fd5b50356001600160a01b0316610ca5565b61018d610df1565b6102dc600480360360608110156104cd57600080fd5b6001600160a01b0382351691602081013591810190606081016040820135600160201b8111156104fc57600080fd5b82018360208201111561050e57600080fd5b803590602001918460018302840111600160201b8311171561052f57600080fd5b91908080601f016020809104026020016040519081016040528093929190818152602001838380828437600092019190915250929550610e52945050505050565b6102dc6004803603604081101561058657600080fd5b506001600160a01b038135169060200135610e7c565b61022e600480360360408110156105b257600080fd5b506001600160a01b038135169060200135610efe565b61022e600480360360408110156105de57600080fd5b506001600160a01b0381358116916020013516610fd7565b61024a6004803603604081101561060c57600080fd5b506001600160a01b0381358116916020013516611079565b6102dc6004803603602081101561063a57600080fd5b50356001600160a01b03166110a4565b6102dc6004803603602081101561066057600080fd5b50356001600160a01b031661118b565b6102dc6004803603608081101561068657600080fd5b6001600160a01b0382351691602081013591810190606081016040820135600160201b8111156106b557600080fd5b8201836020820111156106c757600080fd5b803590602001918460018302840111600160201b831117156106e857600080fd5b91908080601f0160208091040260200160405190810160405280939291908181526020018383808284376000920191909152509295949360208101935035915050600160201b81111561073a57600080fd5b82018360208201111561074c57600080fd5b803590602001918460018302840111600160201b8311171561076d57600080fd5b91908080601f0160208091040260200160405190810160405280939291908181526020018383808284376000920191909152509295506112d7945050505050565b6102dc600480360360408110156107c457600080fd5b81359190810190604081016020820135600160201b8111156107e557600080fd5b8201836020820111156107f757600080fd5b803590602001918460018302840111600160201b8311171561081857600080fd5b91908080601f016020809104026020016040519081016040528093929190818152602001838380828437600092019190915250929550611335945050505050565b606060048054806020026020016040519081016040528092919081815260200182805480156108b157602002820191906000526020600020905b81546001600160a01b03168152600190910190602001808311610893575b5050505050905090565b60028054604080516020601f60001961010060018716150201909416859004938401819004810282018101909252828152606093909290918301828280156108b15780601f10610919576101008083540402835291602001916108b1565b820191906000526020600020905b81548152906001019060200180831161092757509395945050505050565b600080610950611357565b905061095d81858561135b565b5060019392505050565b60015490565b60006001600160a01b0383166109b45760405162461bcd60e51b815260040180806020018281038252602481526020018061231b6024913960400191505060405180910390fd5b6001600160a01b0384166109f95760405162461bcd60e51b81526004018080602001828103825260268152602001806123b46026913960400191505060405180910390fd5b6000610a03611357565b9050610a31818686866040518060200160405280600081525060405180602001604052806000815250611447565b610a5d818686866040518060200160405280600081525060405180602001604052806000815250611674565b610ab18582610aac8660405180606001604052806029815260200161238b602991396001600160a01b03808c166000908152600860209081526040808320938b1683529290522054919061187b565b61135b565b610adf8186868660405180602001604052806000815250604051806020016040528060008152506000611912565b506001949350505050565b601290565b610af7611357565b6009546001600160a01b03908116911614610b47576040805162461bcd60e51b8152602060048201819052602482015260008051602061228e833981519152604482015290519081900360640190fd5b610b7182826040518060200160405280600081525060405180602001604052806000815250611b97565b5050565b600190565b610b8b610b85611357565b86610fd7565b610bc65760405162461bcd60e51b815260040180806020018281038252602c81526020018061235f602c913960400191505060405180910390fd5b610bd585858585856001611dbd565b5050505050565b6001600160a01b031660009081526020819052604090205490565b610bff611357565b6009546001600160a01b03908116911614610c4f576040805162461bcd60e51b8152602060048201819052602482015260008051602061228e833981519152604482015290519081900360640190fd5b6009546040516000916001600160a01b0316906000805160206122ae833981519152908390a3600980546001600160a01b0319169055565b6009546001600160a01b031690565b600a546001600160a01b031681565b806001600160a01b0316610cb7611357565b6001600160a01b03161415610cfd5760405162461bcd60e51b81526004018080602001828103825260248152602001806122496024913960400191505060405180910390fd5b6001600160a01b03811660009081526005602052604090205460ff1615610d605760076000610d2a611357565b6001600160a01b03908116825260208083019390935260409182016000908120918516815292529020805460ff19169055610da7565b600160066000610d6e611357565b6001600160a01b03908116825260208083019390935260409182016000908120918616815292529020805460ff19169115159190911790555b610daf611357565b6001600160a01b0316816001600160a01b03167ff4caeb2d6ca8932a215a353d0703c326ec2d81fc68170f320eb2ab49e9df61f960405160405180910390a350565b60038054604080516020601f60026000196101006001881615020190951694909404938401819004810282018101909252828152606093909290918301828280156108b15780601f10610919576101008083540402835291602001916108b1565b610e77610e5d611357565b848484604051806020016040528060008152506001611dbd565b505050565b610e84611357565b6009546001600160a01b03908116911614610ed4576040805162461bcd60e51b8152602060048201819052602482015260008051602061228e833981519152604482015290519081900360640190fd5b610b7182826040518060200160405280600081525060405180602001604052806000815250611e94565b60006001600160a01b038316610f455760405162461bcd60e51b815260040180806020018281038252602481526020018061231b6024913960400191505060405180910390fd5b6000610f4f611357565b9050610f7d818286866040518060200160405280600081525060405180602001604052806000815250611447565b610fa9818286866040518060200160405280600081525060405180602001604052806000815250611674565b61095d8182868660405180602001604052806000815250604051806020016040528060008152506000611912565b6000816001600160a01b0316836001600160a01b0316148061104257506001600160a01b03831660009081526005602052604090205460ff16801561104257506001600160a01b0380831660009081526007602090815260408083209387168352929052205460ff16155b8061107257506001600160a01b0380831660009081526006602090815260408083209387168352929052205460ff165b9392505050565b6001600160a01b03918216600090815260086020908152604080832093909416825291909152205490565b6110ac611357565b6009546001600160a01b039081169116146110fc576040805162461bcd60e51b8152602060048201819052602482015260008051602061228e833981519152604482015290519081900360640190fd5b6001600160a01b0381166111415760405162461bcd60e51b81526004018080602001828103825260268152602001806122016026913960400191505060405180910390fd5b6009546040516001600160a01b038084169216906000805160206122ae83398151915290600090a3600980546001600160a01b0319166001600160a01b0392909216919091179055565b611193611357565b6001600160a01b0316816001600160a01b031614156111e35760405162461bcd60e51b815260040180806020018281038252602181526020018061226d6021913960400191505060405180910390fd5b6001600160a01b03811660009081526005602052604090205460ff161561124f57600160076000611212611357565b6001600160a01b03908116825260208083019390935260409182016000908120918616815292529020805460ff191691151591909117905561128d565b6006600061125b611357565b6001600160a01b03908116825260208083019390935260409182016000908120918516815292529020805460ff191690555b611295611357565b6001600160a01b0316816001600160a01b03167f50546e66e5f44d728365dc3908c63bc5cfeeab470722c1677e3073a6ac294aa160405160405180910390a350565b6112e86112e2611357565b85610fd7565b6113235760405162461bcd60e51b815260040180806020018281038252602c81526020018061235f602c913960400191505060405180910390fd5b61132f84848484611e94565b50505050565b610b71611340611357565b838360405180602001604052806000815250611e94565b3390565b6001600160a01b0383166113a05760405162461bcd60e51b81526004018080602001828103825260258152602001806121936025913960400191505060405180910390fd5b6001600160a01b0382166113e55760405162461bcd60e51b81526004018080602001828103825260238152602001806123fd6023913960400191505060405180910390fd5b6001600160a01b03808416600081815260086020908152604080832094871680845294825291829020859055815185815291517f8c5be1e5ebec7d5bd14f71427d1e84f3dd0314c0f7b2291e5b200ac8c7c3b9259281900390910190a3505050565b6040805163555ddc6560e11b81526001600160a01b03871660048201527f29ddb589b1fb5fc7cf394961c1adf5f8c6454761adf795e67fe149f658abe89560248201529051600091731820a4b7618bde71dce8cdc73aab6c95905fad249163aabbb8ca91604480820192602092909190829003018186803b1580156114cb57600080fd5b505afa1580156114df573d6000803e3d6000fd5b505050506040513d60208110156114f557600080fd5b505190506001600160a01b0381161561166b57806001600160a01b03166375ab97828888888888886040518763ffffffff1660e01b815260040180876001600160a01b03168152602001866001600160a01b03168152602001856001600160a01b031681526020018481526020018060200180602001838103835285818151815260200191508051906020019080838360005b838110156115a0578181015183820152602001611588565b50505050905090810190601f1680156115cd5780820380516001836020036101000a031916815260200191505b50838103825284518152845160209182019186019080838360005b838110156116005781810151838201526020016115e8565b50505050905090810190601f16801561162d5780820380516001836020036101000a031916815260200191505b5098505050505050505050600060405180830381600087803b15801561165257600080fd5b505af1158015611666573d6000803e3d6000fd5b505050505b50505050505050565b6116808686868661132f565b6116bd836040518060600160405280602781526020016121da602791396001600160a01b038816600090815260208190526040902054919061187b565b6001600160a01b0380871660009081526020819052604080822093909355908616815220546116ec90846120bc565b600080866001600160a01b03166001600160a01b0316815260200190815260200160002081905550836001600160a01b0316856001600160a01b0316876001600160a01b03167f06b541ddaa720db2b10a4d0cdac39b8d360425fc073085fac19bc82614677987868686604051808481526020018060200180602001838103835285818151815260200191508051906020019080838360005b8381101561179d578181015183820152602001611785565b50505050905090810190601f1680156117ca5780820380516001836020036101000a031916815260200191505b50838103825284518152845160209182019186019080838360005b838110156117fd5781810151838201526020016117e5565b50505050905090810190601f16801561182a5780820380516001836020036101000a031916815260200191505b509550505050505060405180910390a4836001600160a01b0316856001600160a01b031660008051602061233f833981519152856040518082815260200191505060405180910390a3505050505050565b6000818484111561190a5760405162461bcd60e51b81526004018080602001828103825283818151815260200191508051906020019080838360005b838110156118cf5781810151838201526020016118b7565b50505050905090810190601f1680156118fc5780820380516001836020036101000a031916815260200191505b509250505060405180910390fd5b505050900390565b6040805163555ddc6560e11b81526001600160a01b03871660048201527fb281fc8c12954d22544db45de3159a39272895b169a852b314f9cc762e44c53b60248201529051600091731820a4b7618bde71dce8cdc73aab6c95905fad249163aabbb8ca91604480820192602092909190829003018186803b15801561199657600080fd5b505afa1580156119aa573d6000803e3d6000fd5b505050506040513d60208110156119c057600080fd5b505190506001600160a01b03811615611b3957806001600160a01b03166223de298989898989896040518763ffffffff1660e01b815260040180876001600160a01b03168152602001866001600160a01b03168152602001856001600160a01b031681526020018481526020018060200180602001838103835285818151815260200191508051906020019080838360005b83811015611a6a578181015183820152602001611a52565b50505050905090810190601f168015611a975780820380516001836020036101000a031916815260200191505b50838103825284518152845160209182019186019080838360005b83811015611aca578181015183820152602001611ab2565b50505050905090810190601f168015611af75780820380516001836020036101000a031916815260200191505b5098505050505050505050600060405180830381600087803b158015611b1c57600080fd5b505af1158015611b30573d6000803e3d6000fd5b50505050611b8d565b8115611b8d57611b51866001600160a01b0316612114565b15611b8d5760405162461bcd60e51b815260040180806020018281038252604d8152602001806122ce604d913960600191505060405180910390fd5b5050505050505050565b6001600160a01b038416611bf2576040805162461bcd60e51b815260206004820181905260248201527f4552433737373a206d696e7420746f20746865207a65726f2061646472657373604482015290519081900360640190fd5b6000611bfc611357565b9050611c0b816000878761132f565b600154611c1890856120bc565b6001556001600160a01b038516600090815260208190526040902054611c3e90856120bc565b6001600160a01b038616600090815260208190526040812091909155611c6b908290878787876001611912565b846001600160a01b0316816001600160a01b03167f2fe5be0146f74c5bce36c0b80911af6c7d86ff27e89d5cfa61fc681327954e5d868686604051808481526020018060200180602001838103835285818151815260200191508051906020019080838360005b83811015611cea578181015183820152602001611cd2565b50505050905090810190601f168015611d175780820380516001836020036101000a031916815260200191505b50838103825284518152845160209182019186019080838360005b83811015611d4a578181015183820152602001611d32565b50505050905090810190601f168015611d775780820380516001836020036101000a031916815260200191505b509550505050505060405180910390a36040805185815290516001600160a01b0387169160009160008051602061233f8339815191529181900360200190a35050505050565b6001600160a01b038616611e025760405162461bcd60e51b81526004018080602001828103825260228152602001806121b86022913960400191505060405180910390fd5b6001600160a01b038516611e5d576040805162461bcd60e51b815260206004820181905260248201527f4552433737373a2073656e6420746f20746865207a65726f2061646472657373604482015290519081900360640190fd5b6000611e67611357565b9050611e77818888888888611447565b611e85818888888888611674565b61166b81888888888888611912565b6001600160a01b038416611ed95760405162461bcd60e51b81526004018080602001828103825260228152602001806122276022913960400191505060405180910390fd5b6000611ee3611357565b9050611ef2818660008761132f565b611f0181866000878787611447565b611f3e846040518060600160405280602381526020016123da602391396001600160a01b038816600090815260208190526040902054919061187b565b6001600160a01b038616600090815260208190526040902055600154611f649085612150565b600181905550846001600160a01b0316816001600160a01b03167fa78a9be3a7b862d26933ad85fb11d80ef66b8f972d7cbba06621d583943a4098868686604051808481526020018060200180602001838103835285818151815260200191508051906020019080838360005b83811015611fe9578181015183820152602001611fd1565b50505050905090810190601f1680156120165780820380516001836020036101000a031916815260200191505b50838103825284518152845160209182019186019080838360005b83811015612049578181015183820152602001612031565b50505050905090810190601f1680156120765780820380516001836020036101000a031916815260200191505b509550505050505060405180910390a36040805185815290516000916001600160a01b0388169160008051602061233f8339815191529181900360200190a35050505050565b600082820183811015611072576040805162461bcd60e51b815260206004820152601b60248201527a536166654d6174683a206164646974696f6e206f766572666c6f7760281b604482015290519081900360640190fd5b6000813f7fc5d2460186f7233c927e7db2dcc703c0e500b653ca82273b7bfad8045d85a47081811480159061214857508115155b949350505050565b600061107283836040518060400160405280601e81526020017f536166654d6174683a207375627472616374696f6e206f766572666c6f77000081525061187b56fe4552433737373a20617070726f76652066726f6d20746865207a65726f20616464726573734552433737373a2073656e642066726f6d20746865207a65726f20616464726573734552433737373a207472616e7366657220616d6f756e7420657863656564732062616c616e63654f776e61626c653a206e6577206f776e657220697320746865207a65726f20616464726573734552433737373a206275726e2066726f6d20746865207a65726f20616464726573734552433737373a20617574686f72697a696e672073656c66206173206f70657261746f724552433737373a207265766f6b696e672073656c66206173206f70657261746f724f776e61626c653a2063616c6c6572206973206e6f7420746865206f776e65728be0079c531659141344cd1fd0a4f28419497f9722a3daafe3b4186f6b6457e04552433737373a20746f6b656e20726563697069656e7420636f6e747261637420686173206e6f20696d706c656d656e74657220666f7220455243373737546f6b656e73526563697069656e744552433737373a207472616e7366657220746f20746865207a65726f2061646472657373ddf252ad1be2c89b69c2b068fc378daa952ba7f163c4a11628f55a4df523b3ef4552433737373a2063616c6c6572206973206e6f7420616e206f70657261746f7220666f7220686f6c6465724552433737373a207472616e7366657220616d6f756e74206578636565647320616c6c6f77616e63654552433737373a207472616e736665722066726f6d20746865207a65726f20616464726573734552433737373a206275726e20616d6f756e7420657863656564732062616c616e63654552433737373a20617070726f766520746f20746865207a65726f2061646472657373a2646970667358221220267ca9c3b51275c2eab95fa95a1979cb6c6e42027ad750f60c6a365a2605b3d064736f6c634300060c0033",
  "compiler": {
    "name": "solc",
    "version": "0.6.12+commit.27d51765.Emscripten.clang",
    "optimizer": {
      "enabled": true,
      "runs": 1
    },
    "evmVersion": "petersburg"
  }
}