{
  "fileName": "MarketVoting.sol",
  "contractName": "MarketVoting",
  "source": "// SPDX-License-Identifier: Unlicense\n\npragma solidity 0.6.12;\n\nimport \"@openzeppelin/contracts/token/ERC20/IERC20.sol\";\nimport \"@openzeppelin/contracts/math/SafeMath.sol\";\nimport \"@openzeppelin/contracts/math/SignedSafeMath.sol\";\n\n\n/// @title MarketVoting\n/// @notice Defines a market where users may vote on int values between 1 and 0\n///         Ether, or -1 Ether, representing an invalid market. Voting requires\n///         sending an equivalent amount of real StakeTokens. Losers are penalized by burning\n///         their stake. User addresses may only vote for a single outcome.\n/// @dev Market voting for the Monitor platform has two possible types: binary and scalar.\n///      For binary markets, users may only vote for Outcomes 0, -1 or 1 Ether (Ether = 1e18).\n///      For scalar markets, users may vote for any Outcome value between 0 and 1 Ether inclusive,\n///      and -1.\ncontract MarketVoting {\n    using SafeMath for uint;\n    using SignedSafeMath for int;\n\n    /// @notice The boolean representing if a market is binary. If not, it is scalar.\n    bool public marketTypeBinary;\n\n    /// @notice Address of the stakeToken backing votes.\n    address public stakeAddress;\n    /// @notice StakeToken interface to call transactions on.\n    IERC20 public stakeToken;\n\n    /// @notice Time to total the votes and allow withdraws/burns.\n    uint public votingEndTime;\n\n    /// @notice Outcomes that were voted on\n    int[] public votedOutcomes;\n    /// @notice Total votes for Outcomes\n    mapping(int => uint) public totalvotesForOutcome;\n    /// @notice What outcome users voted on\n    mapping(address => int) public usersVotedOutcome;\n    /// @notice How much users voted on their Outcome\n    mapping(address => uint) public usersAmountOutcome;\n\n    /// @notice Boolean for whether the realizedOutcome was set.\n    bool public marketFinalized;\n    /// @notice The reified outcome that won the market voting.\n    int public realizedOutcome;\n\n    /// @notice Sets market data for given vote.\n    /// @dev\n    /// @param setMarketTypeBinary Whether the market type is binary or not (scalar)\n    /// @param setVotingEndTime Set the time when voting may stop.\n    /// @param setStakeAddress Set the address of the ERC20 token used for staking votes.\n    constructor(\n        bool setMarketTypeBinary,\n        uint setVotingEndTime,\n        address setStakeAddress\n    ) public {\n        marketTypeBinary = setMarketTypeBinary;\n        stakeAddress = setStakeAddress;\n        stakeToken = IERC20(stakeAddress);\n        votingEndTime = setVotingEndTime;\n    }\n\n    /// @notice Collects a users stakeToken and records a vote.\n    /// @dev Approve token amount before calling.\n    /// @param outcome Specific outcome to vote on\n    /// @param amount Amount of tokens to stake on the vote. (Requires approval)\n    function vote(int outcome, uint amount) public {\n        require(block.timestamp < votingEndTime, \"voting has ended\");\n        require(amount > 0, \"Cannot vote with 0 stake.\");\n        if (marketTypeBinary) {\n            voteBinary(outcome, amount);\n        } else {\n            voteScalar(outcome, amount);\n        }\n    }\n\n    /// @notice Returns the market's winning outcome.\n    function winningOutcome() public assertVotingCompleted returns (int) {\n        if (marketFinalized) {\n            return realizedOutcome;\n        }\n        int winning;\n        if (votedOutcomes.length == 0) {\n            return -1e18;\n        }\n        winning = votedOutcomes[0];\n        for (uint i = 1; i < votedOutcomes.length; i++) {\n            int curr = votedOutcomes[i];\n            uint votesCurr = totalvotesForOutcome[curr];\n            if (totalvotesForOutcome[winning] < votesCurr) {\n                winning = curr;\n            }\n        }\n        realizedOutcome = winning;\n        marketFinalized = true;\n        return winning;\n    }\n\n    /// @notice Safe withdraw stakeToken only if user voted on winning outcome and voting is over.\n    function withdraw() public assertVotingCompleted {\n        require(usersVotedOutcome[msg.sender] == winningOutcome(), \"User did not vote on winning outcome\");\n        uint amount = usersAmountOutcome[msg.sender];\n        usersAmountOutcome[msg.sender] = 0;\n        stakeToken.transfer(msg.sender, amount);\n    }\n\n    /// @notice Asserts voting is completed.\n    /// @dev Votes are completed when the timestamp is after the votingEndTime.\n    modifier assertVotingCompleted {\n        require(block.timestamp > votingEndTime, \"Vote is not yet completed\");\n        _;\n    }\n\n    /// @notice Asserts given outcome is a valid binary vote.\n    /// @dev Votes are binary if they are either 1e18 or 0 inclusive or -1e18.\n    /// @param outcome Specific outcome to check\n    modifier assertBinaryVote(int outcome) {\n        bool voteOk =\n            outcome == 1e18 ||\n            outcome == 0 ||\n            outcome == -1e18;\n        require(voteOk, \"Vote is not in correct Binary Vote Format.\");\n        _;\n    }\n\n    /// @notice Asserts given outcome is a valid scalar vote.\n    /// @dev Votes are scalar if they are either between 1e18 and 0 inclusive or -1e18.\n    /// @param outcome Specific outcome to check\n    modifier assertScalarVote(int outcome) {\n        bool voteOk =\n            outcome <= 1e18 ||\n            outcome >= 0 ||\n            outcome == -1e18;\n        require(voteOk, \"Vote is not in correct Scalar Vote Format.\");\n        _;\n    }\n\n    /// @notice Collects a users stakeToken and records a Scalar Market vote.\n    /// @dev Approve token amount before calling.\n    /// @param outcome Specific outcome to vote on.\n    /// @param amount Amount of tokens to stake on the vote. (Requires approval)\n    function voteScalar(int outcome, uint amount) private assertScalarVote(outcome) {\n        adjustVoteAccounting(outcome, amount);\n        stakeToken.transferFrom(msg.sender, address(this), amount);\n    }\n\n    /// @notice Collects a users stakeToken and records a Binary Market vote.\n    /// @dev Approve token amount before calling.\n    /// @param outcome Specific outcome to vote on\n    /// @param amount Amount of tokens to stake on the vote.\n    function voteBinary(int outcome, uint amount) private assertBinaryVote(outcome) {\n        adjustVoteAccounting(outcome, amount);\n        stakeToken.transferFrom(msg.sender, address(this), amount);\n    }\n\n    /// @notice Adjusts the market accounting of vote data for the given user and amount.\n    /// @param outcome Specific outcome to vote on\n    /// @param amount Amount of tokens to stake on the vote.\n    function adjustVoteAccounting(int outcome, uint amount) private {\n        if (totalvotesForOutcome[outcome] == 0) {\n            votedOutcomes.push(outcome);\n        }\n        totalvotesForOutcome[outcome] += amount;\n        usersVotedOutcome[msg.sender] += outcome;\n        usersAmountOutcome[msg.sender] += amount;\n    }\n}\n",
  "sourcePath": "contracts/MarketVoting.sol",
  "abi": [
    {
      "inputs": [
        {
          "internalType": "bool",
          "name": "setMarketTypeBinary",
          "type": "bool"
        },
        {
          "internalType": "uint256",
          "name": "setVotingEndTime",
          "type": "uint256"
        },
        {
          "internalType": "address",
          "name": "setStakeAddress",
          "type": "address"
        }
      ],
      "stateMutability": "nonpayable",
      "type": "constructor"
    },
    {
      "inputs": [],
      "name": "marketFinalized",
      "outputs": [
        {
          "internalType": "bool",
          "name": "",
          "type": "bool"
        }
      ],
      "stateMutability": "view",
      "type": "function"
    },
    {
      "inputs": [],
      "name": "marketTypeBinary",
      "outputs": [
        {
          "internalType": "bool",
          "name": "",
          "type": "bool"
        }
      ],
      "stateMutability": "view",
      "type": "function"
    },
    {
      "inputs": [],
      "name": "realizedOutcome",
      "outputs": [
        {
          "internalType": "int256",
          "name": "",
          "type": "int256"
        }
      ],
      "stateMutability": "view",
      "type": "function"
    },
    {
      "inputs": [],
      "name": "stakeAddress",
      "outputs": [
        {
          "internalType": "address",
          "name": "",
          "type": "address"
        }
      ],
      "stateMutability": "view",
      "type": "function"
    },
    {
      "inputs": [],
      "name": "stakeToken",
      "outputs": [
        {
          "internalType": "contract IERC20",
          "name": "",
          "type": "address"
        }
      ],
      "stateMutability": "view",
      "type": "function"
    },
    {
      "inputs": [
        {
          "internalType": "int256",
          "name": "",
          "type": "int256"
        }
      ],
      "name": "totalvotesForOutcome",
      "outputs": [
        {
          "internalType": "uint256",
          "name": "",
          "type": "uint256"
        }
      ],
      "stateMutability": "view",
      "type": "function"
    },
    {
      "inputs": [
        {
          "internalType": "address",
          "name": "",
          "type": "address"
        }
      ],
      "name": "usersAmountOutcome",
      "outputs": [
        {
          "internalType": "uint256",
          "name": "",
          "type": "uint256"
        }
      ],
      "stateMutability": "view",
      "type": "function"
    },
    {
      "inputs": [
        {
          "internalType": "address",
          "name": "",
          "type": "address"
        }
      ],
      "name": "usersVotedOutcome",
      "outputs": [
        {
          "internalType": "int256",
          "name": "",
          "type": "int256"
        }
      ],
      "stateMutability": "view",
      "type": "function"
    },
    {
      "inputs": [
        {
          "internalType": "int256",
          "name": "outcome",
          "type": "int256"
        },
        {
          "internalType": "uint256",
          "name": "amount",
          "type": "uint256"
        }
      ],
      "name": "vote",
      "outputs": [],
      "stateMutability": "nonpayable",
      "type": "function"
    },
    {
      "inputs": [
        {
          "internalType": "uint256",
          "name": "",
          "type": "uint256"
        }
      ],
      "name": "votedOutcomes",
      "outputs": [
        {
          "internalType": "int256",
          "name": "",
          "type": "int256"
        }
      ],
      "stateMutability": "view",
      "type": "function"
    },
    {
      "inputs": [],
      "name": "votingEndTime",
      "outputs": [
        {
          "internalType": "uint256",
          "name": "",
          "type": "uint256"
        }
      ],
      "stateMutability": "view",
      "type": "function"
    },
    {
      "inputs": [],
      "name": "winningOutcome",
      "outputs": [
        {
          "internalType": "int256",
          "name": "",
          "type": "int256"
        }
      ],
      "stateMutability": "nonpayable",
      "type": "function"
    },
    {
      "inputs": [],
      "name": "withdraw",
      "outputs": [],
      "stateMutability": "nonpayable",
      "type": "function"
    }
  ],
  "bytecode": "0x608060405234801561001057600080fd5b506040516108c63803806108c68339818101604052606081101561003357600080fd5b5080516020820151604090920151600080546001600160a01b03928316610100908102610100600160a81b031995151560ff1990931692909217949094161790819055600180546001600160a01b03191693909104909116919091179055600255610823806100a36000396000f3fe608060405234801561001057600080fd5b50600436106100af5760003560e01c80631425bf2e146100b45780631576dfc2146100ce5780631ea736e0146100f45780632f13835d146100fc57806333ad95e7146101185780633ccfd60b146101205780633d402f7e1461012a578063421d0a201461014d57806351ed6a301461016a5780636dd175711461018e5780637f0c75a0146101ab57806385107367146101d15780639b34ae03146101d9575b600080fd5b6100bc6101e1565b60408051918252519081900360200190f35b6100bc600480360360208110156100e457600080fd5b50356001600160a01b03166101e7565b6100bc6101f9565b6101046101ff565b604080519115158252519081900360200190f35b610104610208565b610128610211565b005b6101286004803603604081101561014057600080fd5b5080359060200135610352565b6100bc6004803603602081101561016357600080fd5b5035610414565b610172610432565b604080516001600160a01b039092168252519081900360200190f35b6100bc600480360360208110156101a457600080fd5b5035610441565b6100bc600480360360208110156101c157600080fd5b50356001600160a01b0316610453565b610172610465565b6100bc610479565b60085481565b60056020526000908152604090205481565b60025481565b60005460ff1681565b60075460ff1681565b6002544211610263576040805162461bcd60e51b8152602060048201526019602482015278159bdd19481a5cc81b9bdd081e595d0818dbdb5c1b195d1959603a1b604482015290519081900360640190fd5b61026b610479565b33600090815260056020526040902054146102b75760405162461bcd60e51b81526004018080602001828103825260248152602001806107766024913960400191505060405180910390fd5b336000818152600660209081526040808320805490849055600154825163a9059cbb60e01b8152600481019690965260248601829052915190946001600160a01b039092169363a9059cbb93604480850194919392918390030190829087803b15801561032357600080fd5b505af1158015610337573d6000803e3d6000fd5b505050506040513d602081101561034d57600080fd5b505050565b600254421061039b576040805162461bcd60e51b815260206004820152601060248201526f1d9bdd1a5b99c81a185cc8195b99195960821b604482015290519081900360640190fd5b600081116103ec576040805162461bcd60e51b815260206004820152601960248201527821b0b73737ba103b37ba32903bb4ba3410181039ba30b5b29760391b604482015290519081900360640190fd5b60005460ff1615610406576104018282610588565b610410565b6104108282610686565b5050565b6003818154811061042157fe5b600091825260209091200154905081565b6001546001600160a01b031681565b60046020526000908152604090205481565b60066020526000908152604090205481565b60005461010090046001600160a01b031681565b600060025442116104cd576040805162461bcd60e51b8152602060048201526019602482015278159bdd19481a5cc81b9bdd081e595d0818dbdb5c1b195d1959603a1b604482015290519081900360640190fd5b60075460ff16156104e15750600854610585565b6003546000906104fd57670de0b6b3a763ffff19915050610585565b600360008154811061050b57fe5b600091825260209091200154905060015b60035481101561056f5760006003828154811061053557fe5b60009182526020808320909101548083526004909152604080832054868452922054909250811115610565578193505b505060010161051c565b5060088190556007805460ff1916600117905590505b90565b81600081670de0b6b3a7640000148061059f575081155b806105b2575081670de0b6b3a763ffff19145b9050806105f05760405162461bcd60e51b815260040180806020018281038252602a8152602001806107c4602a913960400191505060405180910390fd5b6105fa84846106f2565b600154604080516323b872dd60e01b81523360048201523060248201526044810186905290516001600160a01b03909216916323b872dd916064808201926020929091908290030181600087803b15801561065457600080fd5b505af1158015610668573d6000803e3d6000fd5b505050506040513d602081101561067e57600080fd5b505050505050565b816000670de0b6b3a7640000821315806106a1575060008212155b806106b4575081670de0b6b3a763ffff19145b9050806105f05760405162461bcd60e51b815260040180806020018281038252602a81526020018061079a602a913960400191505060405180910390fd5b60008281526004602052604090205461073b57600380546001810182556000919091527fc2575a0e9e593c00f959f8c92f12db2869c3395a3b0502d05e2516446f71f85b018290555b600082815260046020908152604080832080548501905533835260058252808320805490950190945560069052919091208054909101905556fe5573657220646964206e6f7420766f7465206f6e2077696e6e696e67206f7574636f6d65566f7465206973206e6f7420696e20636f7272656374205363616c617220566f746520466f726d61742e566f7465206973206e6f7420696e20636f72726563742042696e61727920566f746520466f726d61742ea2646970667358221220c530f49922851c13dddeded843e23de8c8658506626f870459d5914d0c3c681664736f6c634300060c0033",
  "compiler": {
    "name": "solc",
    "version": "0.6.12+commit.27d51765.Emscripten.clang",
    "optimizer": {
      "enabled": true,
      "runs": 1
    },
    "evmVersion": "petersburg"
  }
}