{
  "fileName": "MarketVoting.sol",
  "contractName": "MarketVoting",
  "source": "// SPDX-License-Identifier: Unlicense\n\npragma solidity 0.6.12;\n\nimport \"@openzeppelin/contracts/token/ERC20/IERC20.sol\";\nimport \"@openzeppelin/contracts/math/SafeMath.sol\";\nimport \"@openzeppelin/contracts/math/SignedSafeMath.sol\";\nimport \"@openzeppelin/contracts/utils/ReentrancyGuard.sol\";\n\n\n/// @title MarketVoting\n/// @notice Defines a market where users may vote on int values. Voting requires\n///         sending an equivalent amount of real StakeTokens. Losers are penalized by burning\n///         their stake. User addresses may only vote for a single outcome.\n/// @dev Market voting for the Monitor platform has two possible outcomes. Users may only vote for Outcomes\n///      0, -1 or 1.\ncontract MarketVoting is ReentrancyGuard {\n    using SafeMath for uint;\n    using SignedSafeMath for int;\n\n    /// @notice Address of the stakeToken backing votes.\n    address public stakeAddress;\n    /// @notice StakeToken interface to call transactions on.\n    IERC20 public stakeToken;\n\n    /// @notice Time to total the votes and allow withdraws/burns.\n    uint public votingEndTime;\n\n    /// @notice Outcomes that were voted on\n    int[] public votedOutcomes;\n    /// @notice Total votes for Outcomes\n    mapping(int => uint) public totalVotesForOutcome;\n    /// @notice What outcome users voted on\n    mapping(address => int) public usersVotedOutcome;\n    /// @notice How much users voted on their Outcome\n    mapping(address => uint) public usersAmountOutcome;\n\n    /// @notice Boolean for whether the realizedOutcome was set.\n    bool public marketFinalized;\n    /// @notice The reified outcome that won the market voting.\n    int public realizedOutcome;\n\n    /// @notice Sets market data for given vote.\n    /// @param setVotingEndTime Set the time when voting may stop.\n    /// @param setStakeAddress Set the address of the ERC20 token used for staking votes.\n    constructor(\n        uint setVotingEndTime,\n        address setStakeAddress\n    ) public {\n        stakeAddress = setStakeAddress;\n        stakeToken = IERC20(stakeAddress);\n        votingEndTime = setVotingEndTime;\n    }\n\n    /// @notice Collects a users stakeToken and records a vote.\n    /// @dev Approve token amount before calling.\n    /// @param outcome Specific outcome to vote on\n    /// @param amount Amount of tokens to stake on the vote. (Requires approval)\n    function vote(int outcome, uint amount) public {\n        require(block.timestamp < votingEndTime, \"voting has ended\");\n        require(amount > 0, \"Cannot vote with 0 stake.\");\n        voteBinary(msg.sender, outcome, amount);\n    }\n\n    /// @param outcome Specific outcome to vote on\n    /// @notice Returns the total votes for outcome.\n    function getTotalVotesForOutcome(int outcome) public view returns (uint) {\n        return totalVotesForOutcome[outcome];\n    }\n\n    /// @notice Returns the market's winning outcome.\n    function winningOutcome() public assertVotingCompleted returns (int) {\n        if (marketFinalized) {\n            return realizedOutcome;\n        }\n        int winning;\n        if (votedOutcomes.length == 0) {\n            return -1e18;\n        }\n        winning = votedOutcomes[0];\n        for (uint i = 1; i < votedOutcomes.length; i++) {\n            int curr = votedOutcomes[i];\n            uint votesCurr = totalVotesForOutcome[curr];\n            if (totalVotesForOutcome[winning] < votesCurr) {\n                winning = curr;\n            }\n        }\n        realizedOutcome = winning;\n        marketFinalized = true;\n        return winning;\n    }\n\n    /// @notice Safe withdraw stakeToken only if user voted on winning outcome and voting is over.\n    /// @param _address address to return voting stake to\n    function withdraw(address _address) public assertVotingCompleted nonReentrant {\n        require(usersVotedOutcome[_address] == winningOutcome(), \"User did not vote on winning outcome\");\n        uint amount = usersAmountOutcome[_address];\n        usersAmountOutcome[_address] = 0;\n        stakeToken.transfer(_address, amount);\n    }\n\n    /// @notice Asserts voting is completed.\n    /// @dev Votes are completed when the timestamp is after the votingEndTime.\n    modifier assertVotingCompleted {\n        require(block.timestamp > votingEndTime, \"Vote is not yet completed\");\n        _;\n    }\n\n    /// @notice Asserts given outcome is a valid binary vote.\n    /// @dev Votes are binary if they are either 1e18 or 0 inclusive or -1e18.\n    /// @param outcome Specific outcome to check\n    modifier assertBinaryVote(int outcome) {\n        bool voteOk =\n            outcome == 1 ||\n            outcome == 0 ||\n            outcome == -1;\n        require(voteOk, \"Vote is not in correct Binary Vote Format.\");\n        _;\n    }\n\n    /// @notice Collects a users stakeToken and records a Binary Market vote.\n    /// @dev Approve token amount before calling.\n    /// @param _voter Transfering token from.\n    /// @param outcome Specific outcome to vote on.\n    /// @param amount Amount of tokens to stake on the vote.\n    function voteBinary(address _voter, int outcome, uint amount) private assertBinaryVote(outcome) {\n        adjustVoteAccounting(outcome, amount);\n        stakeToken.transferFrom(_voter, address(this), amount);\n    }\n\n    /// @notice Adjusts the market accounting of vote data for the given user and amount.\n    /// @param outcome Specific outcome to vote on\n    /// @param amount Amount of tokens to stake on the vote.\n    function adjustVoteAccounting(int outcome, uint amount) private {\n        if (totalVotesForOutcome[outcome] == 0) {\n            votedOutcomes.push(outcome);\n        }\n        totalVotesForOutcome[outcome] += amount;\n        usersVotedOutcome[msg.sender] += outcome;\n        usersAmountOutcome[msg.sender] += amount;\n    }\n}\n",
  "sourcePath": "contracts/MarketVoting.sol",
  "abi": [
    {
      "inputs": [
        {
          "internalType": "uint256",
          "name": "setVotingEndTime",
          "type": "uint256"
        },
        {
          "internalType": "address",
          "name": "setStakeAddress",
          "type": "address"
        }
      ],
      "stateMutability": "nonpayable",
      "type": "constructor"
    },
    {
      "inputs": [
        {
          "internalType": "int256",
          "name": "outcome",
          "type": "int256"
        }
      ],
      "name": "getTotalVotesForOutcome",
      "outputs": [
        {
          "internalType": "uint256",
          "name": "",
          "type": "uint256"
        }
      ],
      "stateMutability": "view",
      "type": "function"
    },
    {
      "inputs": [],
      "name": "marketFinalized",
      "outputs": [
        {
          "internalType": "bool",
          "name": "",
          "type": "bool"
        }
      ],
      "stateMutability": "view",
      "type": "function"
    },
    {
      "inputs": [],
      "name": "realizedOutcome",
      "outputs": [
        {
          "internalType": "int256",
          "name": "",
          "type": "int256"
        }
      ],
      "stateMutability": "view",
      "type": "function"
    },
    {
      "inputs": [],
      "name": "stakeAddress",
      "outputs": [
        {
          "internalType": "address",
          "name": "",
          "type": "address"
        }
      ],
      "stateMutability": "view",
      "type": "function"
    },
    {
      "inputs": [],
      "name": "stakeToken",
      "outputs": [
        {
          "internalType": "contract IERC20",
          "name": "",
          "type": "address"
        }
      ],
      "stateMutability": "view",
      "type": "function"
    },
    {
      "inputs": [
        {
          "internalType": "int256",
          "name": "",
          "type": "int256"
        }
      ],
      "name": "totalVotesForOutcome",
      "outputs": [
        {
          "internalType": "uint256",
          "name": "",
          "type": "uint256"
        }
      ],
      "stateMutability": "view",
      "type": "function"
    },
    {
      "inputs": [
        {
          "internalType": "address",
          "name": "",
          "type": "address"
        }
      ],
      "name": "usersAmountOutcome",
      "outputs": [
        {
          "internalType": "uint256",
          "name": "",
          "type": "uint256"
        }
      ],
      "stateMutability": "view",
      "type": "function"
    },
    {
      "inputs": [
        {
          "internalType": "address",
          "name": "",
          "type": "address"
        }
      ],
      "name": "usersVotedOutcome",
      "outputs": [
        {
          "internalType": "int256",
          "name": "",
          "type": "int256"
        }
      ],
      "stateMutability": "view",
      "type": "function"
    },
    {
      "inputs": [
        {
          "internalType": "int256",
          "name": "outcome",
          "type": "int256"
        },
        {
          "internalType": "uint256",
          "name": "amount",
          "type": "uint256"
        }
      ],
      "name": "vote",
      "outputs": [],
      "stateMutability": "nonpayable",
      "type": "function"
    },
    {
      "inputs": [
        {
          "internalType": "uint256",
          "name": "",
          "type": "uint256"
        }
      ],
      "name": "votedOutcomes",
      "outputs": [
        {
          "internalType": "int256",
          "name": "",
          "type": "int256"
        }
      ],
      "stateMutability": "view",
      "type": "function"
    },
    {
      "inputs": [],
      "name": "votingEndTime",
      "outputs": [
        {
          "internalType": "uint256",
          "name": "",
          "type": "uint256"
        }
      ],
      "stateMutability": "view",
      "type": "function"
    },
    {
      "inputs": [],
      "name": "winningOutcome",
      "outputs": [
        {
          "internalType": "int256",
          "name": "",
          "type": "int256"
        }
      ],
      "stateMutability": "nonpayable",
      "type": "function"
    },
    {
      "inputs": [
        {
          "internalType": "address",
          "name": "_address",
          "type": "address"
        }
      ],
      "name": "withdraw",
      "outputs": [],
      "stateMutability": "nonpayable",
      "type": "function"
    }
  ],
  "bytecode": "0x608060405234801561001057600080fd5b5060405161088e38038061088e8339818101604052604081101561003357600080fd5b5080516020909101516001600081905580546001600160a01b039283166001600160a01b03199182161791829055600280549091169190921617905560035561080d806100816000396000f3fe608060405234801561001057600080fd5b50600436106100af5760003560e01c80631425bf2e146100b45780631576dfc2146100ce5780631ea736e0146100f45780632f5e1874146100fc578063307991c71461011957806333ad95e7146101365780633d402f7e14610152578063421d0a201461017757806351cff8d91461019457806351ed6a30146101ba5780637f0c75a0146101de57806385107367146102045780639b34ae031461020c575b600080fd5b6100bc610214565b60408051918252519081900360200190f35b6100bc600480360360208110156100e457600080fd5b50356001600160a01b031661021a565b6100bc61022c565b6100bc6004803603602081101561011257600080fd5b5035610232565b6100bc6004803603602081101561012f57600080fd5b5035610244565b61013e610256565b604080519115158252519081900360200190f35b6101756004803603604081101561016857600080fd5b508035906020013561025f565b005b6100bc6004803603602081101561018d57600080fd5b5035610308565b610175600480360360208110156101aa57600080fd5b50356001600160a01b0316610326565b6101c26104d4565b604080516001600160a01b039092168252519081900360200190f35b6100bc600480360360208110156101f457600080fd5b50356001600160a01b03166104e3565b6101c26104f5565b6100bc610504565b60095481565b60066020526000908152604090205481565b60035481565b60009081526005602052604090205490565b60056020526000908152604090205481565b60085460ff1681565b60035442106102a8576040805162461bcd60e51b815260206004820152601060248201526f1d9bdd1a5b99c81a185cc8195b99195960821b604482015290519081900360640190fd5b600081116102f9576040805162461bcd60e51b815260206004820152601960248201527821b0b73737ba103b37ba32903bb4ba3410181039ba30b5b29760391b604482015290519081900360640190fd5b610304338383610613565b5050565b6004818154811061031557fe5b600091825260209091200154905081565b6003544211610378576040805162461bcd60e51b8152602060048201526019602482015278159bdd19481a5cc81b9bdd081e595d0818dbdb5c1b195d1959603a1b604482015290519081900360640190fd5b600260005414156103d0576040805162461bcd60e51b815260206004820152601f60248201527f5265656e7472616e637947756172643a207265656e7472616e742063616c6c00604482015290519081900360640190fd5b60026000556103dd610504565b6001600160a01b038216600090815260066020526040902054146104325760405162461bcd60e51b815260040180806020018281038252602481526020018061078a6024913960400191505060405180910390fd5b6001600160a01b038082166000818152600760209081526040808320805490849055600254825163a9059cbb60e01b815260048101969096526024860182905291519095919091169363a9059cbb9360448083019493928390030190829087803b15801561049f57600080fd5b505af11580156104b3573d6000803e3d6000fd5b505050506040513d60208110156104c957600080fd5b505060016000555050565b6002546001600160a01b031681565b60076020526000908152604090205481565b6001546001600160a01b031681565b60006003544211610558576040805162461bcd60e51b8152602060048201526019602482015278159bdd19481a5cc81b9bdd081e595d0818dbdb5c1b195d1959603a1b604482015290519081900360640190fd5b60085460ff161561056c5750600954610610565b60045460009061058857670de0b6b3a763ffff19915050610610565b600460008154811061059657fe5b600091825260209091200154905060015b6004548110156105fa576000600482815481106105c057fe5b600091825260208083209091015480835260059091526040808320548684529220549092508111156105f0578193505b50506001016105a7565b5060098190556008805460ff1916600117905590505b90565b8160008160011480610623575081155b8061062f575081600019145b90508061066d5760405162461bcd60e51b815260040180806020018281038252602a8152602001806107ae602a913960400191505060405180910390fd5b6106778484610706565b600254604080516323b872dd60e01b81526001600160a01b03888116600483015230602483015260448201879052915191909216916323b872dd9160648083019260209291908290030181600087803b1580156106d357600080fd5b505af11580156106e7573d6000803e3d6000fd5b505050506040513d60208110156106fd57600080fd5b50505050505050565b60008281526005602052604090205461074f57600480546001810182556000919091527f8a35acfbc15ff81a39ae7d344fd709f28e8600b4aa8c65c6b64bfe7fe36bd19b018290555b600082815260056020908152604080832080548501905533835260068252808320805490950190945560079052919091208054909101905556fe5573657220646964206e6f7420766f7465206f6e2077696e6e696e67206f7574636f6d65566f7465206973206e6f7420696e20636f72726563742042696e61727920566f746520466f726d61742ea26469706673582212204ff7122bac0017c8db375b83c1bec8199bb06bd82165643499bd828cc0bebd4464736f6c634300060c0033",
  "compiler": {
    "name": "solc",
    "version": "0.6.12+commit.27d51765.Emscripten.clang",
    "optimizer": {
      "enabled": true,
      "runs": 1
    },
    "evmVersion": "petersburg"
  }
}