{
  "fileName": "Monitor.sol",
  "contractName": "Monitor",
  "source": "// SPDX-License-Identifier: Unlicense\n\npragma solidity 0.6.12;\n\nimport \"@openzeppelin/contracts/utils/ReentrancyGuard.sol\";\nimport \"@openzeppelin/contracts/token/ERC20/IERC20.sol\";\nimport \"./ForesightTokens.sol\";\nimport \"./Vision.sol\";\nimport \"./BondingCurve.sol\";\n\n\n/// @title Monitor\n/// @notice Monitor Interface\ncontract Monitor is ReentrancyGuard, BondingCurve {\n    /// @notice Only allow initialization once.\n    bool public initialized = false;\n\n    /// @notice Vision ERC777 token contract.\n    Vision public vision;\n    /// @notice Total supply of Vision. Note this needs to start with 1 for minting.\n    uint public mintedVision = 1;\n    /// @notice Total StakeToken in Vision Pool. Note this needs to start with 1 for minting.\n    uint public totalStakeInVisionVault = 1;\n\n    /// @notice Stake token for Vision pool.\n    IERC20 public stakeToken;\n\n    /// @notice Foresight token ERC1155 contract that manages all Foresight.\n    ForesightTokens public foresightTokens;\n\n    // @notice Reality Market info\n    struct RealityMarket {\n        uint id;\n        bool finalized;\n        uint winningOutcome;\n        uint endTime;\n        string question;\n        uint tokenIndex;\n        mapping(uint => uint) totalMinted; // Maps outcomes to total amount minted.\n        mapping(uint => uint) totalStaked; // Maps outcomes to total amount staked.\n        mapping(uint => mapping(address => uint)) totalStakedByAddress; // Outcomes to total amount staked by address.\n        uint invalidStake;\n    }\n\n    // @notice Index of the current reality markets.\n    uint public realityMarketCounts  = 0;\n    // @notice Reality Market Data;\n    mapping(uint => RealityMarket) public realityMarketRegistry;\n\n    /// @notice Mint a new amount of Foresight Tokens for the given address.\n    /// @param _stakeToken Address of the allowed stakeToken for Vision.\n    constructor(address _stakeToken) public {\n        stakeToken = IERC20(_stakeToken);\n    }\n\n    /// @notice Deploys Vision vault, Foresight tokens, and RealityMarket.\n    function initialize() public {\n        require(!initialized, \"Contract can only be initialized once.\");\n        initialized = true;\n        vision = new Vision();\n        foresightTokens = new ForesightTokens();\n    }\n\n    /// @notice Event capturing minted vision, cost, and address.\n    event VisionMinted(uint minted, uint cost, address addr);\n\n    /// @notice Mints new Vision based on the current price, using the amount deposited.\n    /// @param amountDeposited Amount of stake to deposit.\n    /// @dev Note you must supply the amount of Stake Token to produce new Vision.\n    /// @dev Must approve stake token.\n    function mintVision(uint amountDeposited) public nonReentrant {\n        require(totalStakeInVisionVault != 0, \"totalStakeInVisionVault should not be 0.\");\n        uint visionRate = mintedVision / totalStakeInVisionVault;\n        uint visionToMint = visionRate * amountDeposited;\n        mintedVision += visionToMint;\n        totalStakeInVisionVault += amountDeposited;\n        vision.mint(msg.sender, visionToMint);\n        stakeToken.transferFrom(msg.sender, address(this), amountDeposited);\n        emit VisionMinted(visionToMint, amountDeposited, msg.sender);\n    }\n\n    /// @notice Event capturing burned vision, cost, and address.\n    event VisionBurned(uint burned, uint cost, address addr);\n\n    /// @notice Burns Vision based on the current price and returns allocated stake.\n    /// @param visionToBurn Amount of vision to burn.\n    /// @dev Invariant - totalStakeInVisionVault cannot be less than 1.\n    /// @dev Invariant - mintedVision cannot be less than 1.\n    function burnVision(uint visionToBurn) public nonReentrant {\n        uint stakeRate = totalStakeInVisionVault / mintedVision;\n        uint stakeToReturn = stakeRate * visionToBurn;\n        mintedVision -= visionToBurn;\n        totalStakeInVisionVault -= stakeToReturn;\n        require(totalStakeInVisionVault > 1, \"Total Stake In Vision Vault must be greater than 1.\");\n        require(mintedVision > 1, \"Minted Vision must be greater than 1.\");\n        vision.burn(msg.sender, visionToBurn);\n        stakeToken.transfer(msg.sender, stakeToReturn);\n        emit VisionBurned(visionToBurn, stakeToReturn, msg.sender);\n    }\n\n    /// @notice return details of the newly created reality market.\n    event RealityMarketCreated(uint index, uint yesIndex, uint noIndex, uint invalidIndex, uint stake);\n\n    /// @notice Creates a new RealityMarket instance.\n    /// @param question Market question.\n    /// @param endTime Time to end market.\n    /// @param invalidStake Vision stake to place on market\n    /// @dev Invariant - A Reality Market's endTime should not be before the current block.\n    /// @dev Event - Emits RealityMarketCreated with the market's index and Foresight set.\n    function createRealityMarket(\n        string memory question,\n        uint endTime,\n        uint invalidStake\n    ) public nonReentrant {\n        require(block.timestamp < endTime, \"Market end time cannot be in the past.\");\n        uint index = realityMarketCounts + 1;\n        realityMarketCounts += 1;\n        uint totalTokens = foresightTokens.totalTokensMinted();\n        uint invalidIndex = totalTokens + 1;\n        uint noIndex = totalTokens + 2;\n        uint yesIndex = totalTokens + 3;\n        realityMarketRegistry[index].id = index;\n        realityMarketRegistry[index].finalized = false;\n        realityMarketRegistry[index].endTime = endTime;\n        realityMarketRegistry[index].question = question;\n        realityMarketRegistry[index].tokenIndex = foresightTokens.registerNewSet();\n        vision.transferFrom(msg.sender, address(this), invalidStake);\n        RealityMarketCreated(index, yesIndex, noIndex, invalidIndex, invalidStake);\n    }\n\n    /// @notice Event capturing minted foresight, stake, and address.\n    event ForesightMinted(uint marketIndex, uint outcome, uint foresight, uint stake, address addr);\n\n    /// @notice Event capturing minted foresight, stake, and address.\n    event Info(uint data);\n\n    /// @notice Buys a position in a reality market.\n    /// @dev For a given starting token index n, n = Invalid, n+1 = No, n+2 = Yes.\n    /// @param index Market index to buy the position in.\n    /// @param outcome Token index of the outcome to buy into.\n    /// @param amount Amount of Vision to stake on the outcome.\n    function buyPosition(uint index, uint outcome, uint amount) public nonReentrant {\n        bool selected = false;\n        require(amount > 0, \"Amount to mint should be greater than 0.\");\n        if (outcome == realityMarketRegistry[index].tokenIndex) {\n            selected = true;\n        }\n        if (outcome == realityMarketRegistry[index].tokenIndex + 1) {\n            selected = true;\n        }\n        if (outcome == realityMarketRegistry[index].tokenIndex + 2) {\n            selected = true;\n        }\n        require(selected, \"Market outcome selection does not match market index outcomes.\");\n        uint currentAmount = realityMarketRegistry[index].totalMinted[outcome] + 1;\n        uint visionCost = computeCostForAmount(currentAmount, amount);\n        require(visionCost > 0, \"Vision cost should be greater than 0.\");\n        realityMarketRegistry[index].totalStaked[outcome] += visionCost;\n        realityMarketRegistry[index].totalStakedByAddress[outcome][msg.sender] += visionCost;\n        realityMarketRegistry[index].totalMinted[outcome] += amount;\n        foresightTokens.mint(msg.sender, outcome, amount);\n        vision.transferFrom(msg.sender, address(this), visionCost);\n        emit ForesightMinted(index, outcome, amount, visionCost, msg.sender);\n    }\n\n    /// @notice Event to finalize a market.\n    event RealityMarketFinalized(uint index, uint winningOutcome);\n\n    /// @notice Finalize a market and update the Vision vault with the correct losing stake.\n    /// @param index Market index to finalize.\n    /// @dev For a given starting token index n, n = Invalid, n+1 = No, n+2 = Yes.\n    /// @dev Invariant - Should not work if current block time is less than market end time.\n    /// @dev Invariant - Should not reduce the price of Vision.\n    /// @dev Invariant - Should not be able to finalize twice.\n    /// @dev Invariant - Should only be able to finalize if the market is not finalized.\n    /// @dev Event - Emits finalizedMarket event\n    function finalizeMarket(uint index) public nonReentrant {\n        RealityMarket storage market = realityMarketRegistry[index];\n        require(block.timestamp > market.endTime, \"Market has not reached End Time.\");\n        require(!market.finalized, \"Market already finalized.\");\n        uint yes = realityMarketRegistry[index].tokenIndex + 2;\n        uint no = realityMarketRegistry[index].tokenIndex + 1;\n        uint invalid = realityMarketRegistry[index].tokenIndex;\n        uint winningOutcome = realityMarketRegistry[index].tokenIndex;\n        if (market.totalMinted[yes] > market.totalMinted[no] && market.totalMinted[yes] > market.totalMinted[invalid]) {\n            winningOutcome = yes;\n        }\n        if (market.totalMinted[no] > market.totalMinted[yes] && market.totalMinted[no] > market.totalMinted[invalid]) {\n            winningOutcome = no;\n        }\n        market.finalized = true;\n        market.winningOutcome = winningOutcome;\n        RealityMarketFinalized(index, winningOutcome);\n    }\n\n    /// @notice Event to convert foresight into vision.\n    event ForesightBurned(uint marketIndex, uint foresightId, uint foresightAmount, uint visionOwed, address addr);\n\n    /// @notice Withdraw the senders user stake using the specified foresightToken id.\n    /// @param index Market index.\n    /// @param foresightId Id of the given foresight.\n    /// @dev Invariant - Users should not be able to withdraw from a market that is not finalized.\n    /// @dev Invariant - Users should not be able to withdraw using Foresight that is not reified.\n    /// @dev Invariant - User should have stake in the winning outcome to withdraw.\n    function withdrawWinningStake(uint index, uint foresightId) public nonReentrant {\n        RealityMarket storage market = realityMarketRegistry[index];\n        require(market.finalized, \"Market not finalized.\");\n        require(foresightId == market.winningOutcome, \"Selected token is not redeemable.\");\n        uint userStake = realityMarketRegistry[index].totalStakedByAddress[market.winningOutcome][msg.sender];\n        require(userStake > 0, \"User has no stake in the winning outcome.\");\n        /// @notice Total vision lost.\n        uint totalLost;\n        /// @notice User's total owned foresight.\n        uint tokensOwned = foresightTokens.balanceOf(msg.sender, foresightId);\n        uint yes = realityMarketRegistry[index].tokenIndex + 2;\n        uint no = realityMarketRegistry[index].tokenIndex + 1;\n        uint invalid = realityMarketRegistry[index].tokenIndex;\n        // Invalid\n        if (market.winningOutcome == invalid) {\n            totalLost = market.totalStaked[no] + market.totalStaked[yes];\n        }\n        // No\n        if (market.winningOutcome == no) {\n            totalLost = market.totalStaked[invalid] + market.totalStaked[yes];\n        }\n        // Yes\n        if (market.winningOutcome == yes) {\n            totalLost = market.totalStaked[no] + market.totalStaked[invalid];\n        }\n        /// @notice User's computed percent of total winning tokens.\n        uint percentWon = tokensOwned / market.totalMinted[market.winningOutcome];\n        /// @notice User wins back stake + computed percent of the prize pool.\n        uint owedVision = userStake + (percentWon * totalLost);\n        realityMarketRegistry[index].totalStakedByAddress[market.winningOutcome][msg.sender] = 0;\n        foresightTokens.burn(msg.sender, foresightId, tokensOwned);\n        vision.transfer(address(this), owedVision);\n        emit ForesightBurned(index, foresightId, tokensOwned, owedVision, msg.sender);\n    }\n}\n",
  "sourcePath": "contracts/Monitor.sol",
  "abi": [
    {
      "inputs": [
        {
          "internalType": "address",
          "name": "_stakeToken",
          "type": "address"
        }
      ],
      "stateMutability": "nonpayable",
      "type": "constructor"
    },
    {
      "anonymous": false,
      "inputs": [
        {
          "indexed": false,
          "internalType": "uint256",
          "name": "marketIndex",
          "type": "uint256"
        },
        {
          "indexed": false,
          "internalType": "uint256",
          "name": "foresightId",
          "type": "uint256"
        },
        {
          "indexed": false,
          "internalType": "uint256",
          "name": "foresightAmount",
          "type": "uint256"
        },
        {
          "indexed": false,
          "internalType": "uint256",
          "name": "visionOwed",
          "type": "uint256"
        },
        {
          "indexed": false,
          "internalType": "address",
          "name": "addr",
          "type": "address"
        }
      ],
      "name": "ForesightBurned",
      "type": "event"
    },
    {
      "anonymous": false,
      "inputs": [
        {
          "indexed": false,
          "internalType": "uint256",
          "name": "marketIndex",
          "type": "uint256"
        },
        {
          "indexed": false,
          "internalType": "uint256",
          "name": "outcome",
          "type": "uint256"
        },
        {
          "indexed": false,
          "internalType": "uint256",
          "name": "foresight",
          "type": "uint256"
        },
        {
          "indexed": false,
          "internalType": "uint256",
          "name": "stake",
          "type": "uint256"
        },
        {
          "indexed": false,
          "internalType": "address",
          "name": "addr",
          "type": "address"
        }
      ],
      "name": "ForesightMinted",
      "type": "event"
    },
    {
      "anonymous": false,
      "inputs": [
        {
          "indexed": false,
          "internalType": "uint256",
          "name": "data",
          "type": "uint256"
        }
      ],
      "name": "Info",
      "type": "event"
    },
    {
      "anonymous": false,
      "inputs": [
        {
          "indexed": false,
          "internalType": "uint256",
          "name": "index",
          "type": "uint256"
        },
        {
          "indexed": false,
          "internalType": "uint256",
          "name": "yesIndex",
          "type": "uint256"
        },
        {
          "indexed": false,
          "internalType": "uint256",
          "name": "noIndex",
          "type": "uint256"
        },
        {
          "indexed": false,
          "internalType": "uint256",
          "name": "invalidIndex",
          "type": "uint256"
        },
        {
          "indexed": false,
          "internalType": "uint256",
          "name": "stake",
          "type": "uint256"
        }
      ],
      "name": "RealityMarketCreated",
      "type": "event"
    },
    {
      "anonymous": false,
      "inputs": [
        {
          "indexed": false,
          "internalType": "uint256",
          "name": "index",
          "type": "uint256"
        },
        {
          "indexed": false,
          "internalType": "uint256",
          "name": "winningOutcome",
          "type": "uint256"
        }
      ],
      "name": "RealityMarketFinalized",
      "type": "event"
    },
    {
      "anonymous": false,
      "inputs": [
        {
          "indexed": false,
          "internalType": "uint256",
          "name": "burned",
          "type": "uint256"
        },
        {
          "indexed": false,
          "internalType": "uint256",
          "name": "cost",
          "type": "uint256"
        },
        {
          "indexed": false,
          "internalType": "address",
          "name": "addr",
          "type": "address"
        }
      ],
      "name": "VisionBurned",
      "type": "event"
    },
    {
      "anonymous": false,
      "inputs": [
        {
          "indexed": false,
          "internalType": "uint256",
          "name": "minted",
          "type": "uint256"
        },
        {
          "indexed": false,
          "internalType": "uint256",
          "name": "cost",
          "type": "uint256"
        },
        {
          "indexed": false,
          "internalType": "address",
          "name": "addr",
          "type": "address"
        }
      ],
      "name": "VisionMinted",
      "type": "event"
    },
    {
      "inputs": [
        {
          "internalType": "uint256",
          "name": "visionToBurn",
          "type": "uint256"
        }
      ],
      "name": "burnVision",
      "outputs": [],
      "stateMutability": "nonpayable",
      "type": "function"
    },
    {
      "inputs": [
        {
          "internalType": "uint256",
          "name": "index",
          "type": "uint256"
        },
        {
          "internalType": "uint256",
          "name": "outcome",
          "type": "uint256"
        },
        {
          "internalType": "uint256",
          "name": "amount",
          "type": "uint256"
        }
      ],
      "name": "buyPosition",
      "outputs": [],
      "stateMutability": "nonpayable",
      "type": "function"
    },
    {
      "inputs": [
        {
          "internalType": "uint256",
          "name": "currentAmount",
          "type": "uint256"
        },
        {
          "internalType": "uint256",
          "name": "deltaAmount",
          "type": "uint256"
        }
      ],
      "name": "computeCostForAmount",
      "outputs": [
        {
          "internalType": "uint256",
          "name": "cost",
          "type": "uint256"
        }
      ],
      "stateMutability": "view",
      "type": "function"
    },
    {
      "inputs": [
        {
          "internalType": "string",
          "name": "question",
          "type": "string"
        },
        {
          "internalType": "uint256",
          "name": "endTime",
          "type": "uint256"
        },
        {
          "internalType": "uint256",
          "name": "invalidStake",
          "type": "uint256"
        }
      ],
      "name": "createRealityMarket",
      "outputs": [],
      "stateMutability": "nonpayable",
      "type": "function"
    },
    {
      "inputs": [
        {
          "internalType": "uint256",
          "name": "index",
          "type": "uint256"
        }
      ],
      "name": "finalizeMarket",
      "outputs": [],
      "stateMutability": "nonpayable",
      "type": "function"
    },
    {
      "inputs": [],
      "name": "foresightTokens",
      "outputs": [
        {
          "internalType": "contract ForesightTokens",
          "name": "",
          "type": "address"
        }
      ],
      "stateMutability": "view",
      "type": "function"
    },
    {
      "inputs": [],
      "name": "initialize",
      "outputs": [],
      "stateMutability": "nonpayable",
      "type": "function"
    },
    {
      "inputs": [],
      "name": "initialized",
      "outputs": [
        {
          "internalType": "bool",
          "name": "",
          "type": "bool"
        }
      ],
      "stateMutability": "view",
      "type": "function"
    },
    {
      "inputs": [
        {
          "internalType": "uint256",
          "name": "amountDeposited",
          "type": "uint256"
        }
      ],
      "name": "mintVision",
      "outputs": [],
      "stateMutability": "nonpayable",
      "type": "function"
    },
    {
      "inputs": [],
      "name": "mintedVision",
      "outputs": [
        {
          "internalType": "uint256",
          "name": "",
          "type": "uint256"
        }
      ],
      "stateMutability": "view",
      "type": "function"
    },
    {
      "inputs": [],
      "name": "realityMarketCounts",
      "outputs": [
        {
          "internalType": "uint256",
          "name": "",
          "type": "uint256"
        }
      ],
      "stateMutability": "view",
      "type": "function"
    },
    {
      "inputs": [
        {
          "internalType": "uint256",
          "name": "",
          "type": "uint256"
        }
      ],
      "name": "realityMarketRegistry",
      "outputs": [
        {
          "internalType": "uint256",
          "name": "id",
          "type": "uint256"
        },
        {
          "internalType": "bool",
          "name": "finalized",
          "type": "bool"
        },
        {
          "internalType": "uint256",
          "name": "winningOutcome",
          "type": "uint256"
        },
        {
          "internalType": "uint256",
          "name": "endTime",
          "type": "uint256"
        },
        {
          "internalType": "string",
          "name": "question",
          "type": "string"
        },
        {
          "internalType": "uint256",
          "name": "tokenIndex",
          "type": "uint256"
        },
        {
          "internalType": "uint256",
          "name": "invalidStake",
          "type": "uint256"
        }
      ],
      "stateMutability": "view",
      "type": "function"
    },
    {
      "inputs": [
        {
          "internalType": "uint256",
          "name": "x",
          "type": "uint256"
        }
      ],
      "name": "sqrt",
      "outputs": [
        {
          "internalType": "uint256",
          "name": "y",
          "type": "uint256"
        }
      ],
      "stateMutability": "nonpayable",
      "type": "function"
    },
    {
      "inputs": [],
      "name": "stakeToken",
      "outputs": [
        {
          "internalType": "contract IERC20",
          "name": "",
          "type": "address"
        }
      ],
      "stateMutability": "view",
      "type": "function"
    },
    {
      "inputs": [],
      "name": "totalStakeInVisionVault",
      "outputs": [
        {
          "internalType": "uint256",
          "name": "",
          "type": "uint256"
        }
      ],
      "stateMutability": "view",
      "type": "function"
    },
    {
      "inputs": [],
      "name": "vision",
      "outputs": [
        {
          "internalType": "contract Vision",
          "name": "",
          "type": "address"
        }
      ],
      "stateMutability": "view",
      "type": "function"
    },
    {
      "inputs": [
        {
          "internalType": "uint256",
          "name": "index",
          "type": "uint256"
        },
        {
          "internalType": "uint256",
          "name": "foresightId",
          "type": "uint256"
        }
      ],
      "name": "withdrawWinningStake",
      "outputs": [],
      "stateMutability": "nonpayable",
      "type": "function"
    }
  ],
  "bytecode": "0x60806040526001805460ff191681556002819055600355600060065534801561002757600080fd5b506040516164623803806164628339818101604052602081101561004a57600080fd5b50516001600055600480546001600160a01b039092166001600160a01b03199092169190911790556163e1806100816000396000f3fe60806040523480156200001157600080fd5b5060043610620000ee5760003560e01c806307062cf214620000f357806307fac3ae14620001195780630fd6f0c81462000135578063158ef93e14620001575780632e3a875114620001755780633770592e14620001a157806340f30f4a14620001c757806349232b8514620001d157806351ed6a3014620001db578063677342ce14620001e557806373dd289d14620002055780638129fc1c14620002255780638570ce77146200022f5780639d6564b214620002de578063c9d2d5de1462000304578063d93da94f1462000324578063f3a2b4bc14620003eb575b600080fd5b620000fd620003f5565b604080516001600160a01b039092168252519081900360200190f35b6200012362000409565b60408051918252519081900360200190f35b62000155600480360360208110156200014d57600080fd5b50356200040f565b005b620001616200064a565b604080519115158252519081900360200190f35b62000155600480360360608110156200018d57600080fd5b508035906020810135906040013562000653565b6200015560048036036040811015620001b957600080fd5b508035906020013562000993565b6200012362000db7565b6200012362000dbd565b620000fd62000dc3565b6200012360048036036020811015620001fd57600080fd5b503562000dd2565b62000155600480360360208110156200021d57600080fd5b503562000e0d565b620001556200100a565b62000155600480360360608110156200024757600080fd5b810190602081018135600160201b8111156200026257600080fd5b8201836020820111156200027557600080fd5b803590602001918460018302840111600160201b831117156200029757600080fd5b91908080601f0160208091040260200160405190810160405280939291908181526020018383808284376000920191909152509295505082359350505060200135620010f9565b6200012360048036036040811015620002f657600080fd5b5080359060200135620013d1565b62000155600480360360208110156200031c57600080fd5b5035620013f8565b62000344600480360360208110156200033c57600080fd5b50356200160b565b60405180888152602001871515815260200186815260200185815260200180602001848152602001838152602001828103825285818151815260200191508051906020019080838360005b83811015620003a95781810151838201526020016200038f565b50505050905090810190601f168015620003d75780820380516001836020036101000a031916815260200191505b509850505050505050505060405180910390f35b620000fd620016d7565b60015461010090046001600160a01b031681565b60065481565b6002600054141562000457576040805162461bcd60e51b815260206004820152601f6024820152600080516020620061eb833981519152604482015290519081900360640190fd5b600260008181559054600354816200046b57fe5b600280548590039055600380549290910484810292839003918290559250600110620004c95760405162461bcd60e51b81526004018080602001828103825260338152602001806200632f6033913960400191505060405180910390fd5b6001600254116200050c5760405162461bcd60e51b8152600401808060200182810382526025815260200180620063876025913960400191505060405180910390fd5b60015460408051632770a7eb60e21b81523360048201526024810186905290516101009092046001600160a01b031691639dc29fac9160448082019260009290919082900301818387803b1580156200056457600080fd5b505af115801562000579573d6000803e3d6000fd5b5050600480546040805163a9059cbb60e01b8152339381019390935260248301869052516001600160a01b03909116935063a9059cbb925060448083019260209291908290030181600087803b158015620005d357600080fd5b505af1158015620005e8573d6000803e3d6000fd5b505050506040513d6020811015620005ff57600080fd5b50506040805184815260208101839052338183015290517fdb189cae9939ae9577cd7993487757e01fa75f03849f228d761de234fb5a9ed79181900360600190a15050600160005550565b60015460ff1681565b600260005414156200069b576040805162461bcd60e51b815260206004820152601f6024820152600080516020620061eb833981519152604482015290519081900360640190fd5b6002600090815581620006e05760405162461bcd60e51b8152600401808060200182810382526028815260200180620062976028913960400191505060405180910390fd5b600084815260076020526040902060050154831415620006fe575060015b6000848152600760205260409020600501546001018314156200071f575060015b60008481526007602052604090206005015460020183141562000740575060015b806200077e5760405162461bcd60e51b815260040180806020018281038252603e8152602001806200620b603e913960400191505060405180910390fd5b600084815260076020908152604080832086845260060190915281205460010190620007ab8285620013d1565b905060008111620007ee5760405162461bcd60e51b8152600401808060200182810382526025815260200180620063626025913960400191505060405180910390fd5b600086815260076020818152604080842089855292830182528084208054860190556008830182528084203380865290835281852080548701905589855260069093019091528083208054880190556005548151630ab714fb60e11b81526004810193909352602483018990526044830188905290516001600160a01b039091169263156e29f6926064808201939182900301818387803b1580156200089357600080fd5b505af1158015620008a8573d6000803e3d6000fd5b5050600154604080516323b872dd60e01b81523360048201523060248201526044810186905290516101009092046001600160a01b031693506323b872dd92506064808201926020929091908290030181600087803b1580156200090b57600080fd5b505af115801562000920573d6000803e3d6000fd5b505050506040513d60208110156200093757600080fd5b505060408051878152602081018790528082018690526060810183905233608082015290517f848dc3e6ee3c6e2b1648a7813a699a4753e74fa3a041f739816572d69a0c7ff09181900360a00190a15050600160005550505050565b60026000541415620009db576040805162461bcd60e51b815260206004820152601f6024820152600080516020620061eb833981519152604482015290519081900360640190fd5b60026000908155828152600760205260409020600181015460ff1662000a40576040805162461bcd60e51b815260206004820152601560248201527426b0b935b2ba103737ba103334b730b634bd32b21760591b604482015290519081900360640190fd5b8060020154821462000a845760405162461bcd60e51b8152600401808060200182810382526021815260200180620062e86021913960400191505060405180910390fd5b60008381526007602090815260408083206002850154845260080182528083203384529091529020548062000aeb5760405162461bcd60e51b8152600401808060200182810382526029815260200180620062bf6029913960400191505060405180910390fd5b60055460408051627eeac760e11b815233600482015260248101869052905160009283926001600160a01b039091169162fdd58e91604480820192602092909190829003018186803b15801562000b4157600080fd5b505afa15801562000b56573d6000803e3d6000fd5b505050506040513d602081101562000b6d57600080fd5b505160008781526007602052604090206005015460028681015492935081019160018201919081141562000bb7576000838152600788016020526040808220548483529120540194505b818760020154141562000be0576000838152600788016020526040808220548383529120540194505b828760020154141562000c09576000818152600788016020526040808220548483529120540194505b60028701546000908152600688016020526040812054858162000c2857fe5b60008c815260076020908152604080832060028e0154845260080182528083203380855292528083208390556005548151637a94c56560e11b81526004810193909352602483018f9052604483018b905290519490930494508985028b01936001600160a01b039093169263f5298aca9260648084019391929182900301818387803b15801562000cb857600080fd5b505af115801562000ccd573d6000803e3d6000fd5b50506001546040805163a9059cbb60e01b81523060048201526024810186905290516101009092046001600160a01b0316935063a9059cbb92506044808201926020929091908290030181600087803b15801562000d2a57600080fd5b505af115801562000d3f573d6000803e3d6000fd5b505050506040513d602081101562000d5657600080fd5b5050604080518c8152602081018c90528082018890526060810183905233608082015290517f4227c3cc576e8e2393409ebc1c956b9d14a76d89f319d3bc44ec269034170ad69181900360a00190a150506001600055505050505050505050565b60035481565b60025481565b6004546001600160a01b031681565b80600260018201045b8181101562000e075780915060028182858162000df457fe5b04018162000dfe57fe5b04905062000ddb565b50919050565b6002600054141562000e55576040805162461bcd60e51b815260206004820152601f6024820152600080516020620061eb833981519152604482015290519081900360640190fd5b600260005560035462000e9a5760405162461bcd60e51b8152600401808060200182810382526028815260200180620062496028913960400191505060405180910390fd5b60006003546002548162000eaa57fe5b60028054929091048481029283019091556003805485019055600154604080516340c10f1960e01b81523360048201526024810185905290519294506101009091046001600160a01b0316916340c10f199160448082019260009290919082900301818387803b15801562000f1e57600080fd5b505af115801562000f33573d6000803e3d6000fd5b505060048054604080516323b872dd60e01b8152339381019390935230602484015260448301889052516001600160a01b0390911693506323b872dd925060648083019260209291908290030181600087803b15801562000f9357600080fd5b505af115801562000fa8573d6000803e3d6000fd5b505050506040513d602081101562000fbf57600080fd5b50506040805182815260208101859052338183015290517fdab62f63027fc0b88347694d531be13a27ebf5a7fec53f8248e829e157f162ff9181900360600190a15050600160005550565b60015460ff16156200104e5760405162461bcd60e51b8152600401808060200182810382526026815260200180620062716026913960400191505060405180910390fd5b6001805460ff1916811790556040516200106890620016e6565b604051809103906000f08015801562001085573d6000803e3d6000fd5b506001806101000a8154816001600160a01b0302191690836001600160a01b03160217905550604051620010b990620016f4565b604051809103906000f080158015620010d6573d6000803e3d6000fd5b50600580546001600160a01b0319166001600160a01b0392909216919091179055565b6002600054141562001141576040805162461bcd60e51b815260206004820152601f6024820152600080516020620061eb833981519152604482015290519081900360640190fd5b6002600055428211620011865760405162461bcd60e51b8152600401808060200182810382526026815260200180620063096026913960400191505060405180910390fd5b600680546001019081905560055460408051637d549e9960e01b815290516000926001600160a01b031691637d549e99916004808301926020929190829003018186803b158015620011d757600080fd5b505afa158015620011ec573d6000803e3d6000fd5b505050506040513d60208110156200120357600080fd5b505160008381526007602090815260409091208481556001818101805460ff1916905560038281018990558951949550908501936002860193918601926200125592600490910191908b019062001702565b50600560009054906101000a90046001600160a01b03166001600160a01b0316635d2585a56040518163ffffffff1660e01b8152600401602060405180830381600087803b158015620012a757600080fd5b505af1158015620012bc573d6000803e3d6000fd5b505050506040513d6020811015620012d357600080fd5b505160008681526007602090815260408083206005019390935560015483516323b872dd60e01b8152336004820152306024820152604481018b905293516101009091046001600160a01b0316936323b872dd9360648083019493928390030190829087803b1580156200134657600080fd5b505af11580156200135b573d6000803e3d6000fd5b505050506040513d60208110156200137257600080fd5b50506040805186815260208101839052808201849052606081018590526080810188905290517f423e9dbd8fc6d26f32588abe207ec38eba1eb72c68d4f43f4e889d0e37250fe79181900360a00190a150506001600055505050505050565b60008181600380860a049050806003808488010a81620013ed57fe5b040395945050505050565b6002600054141562001440576040805162461bcd60e51b815260206004820152601f6024820152600080516020620061eb833981519152604482015290519081900360640190fd5b6002600090815581815260076020526040902060038101544211620014ac576040805162461bcd60e51b815260206004820181905260248201527f4d61726b657420686173206e6f74207265616368656420456e642054696d652e604482015290519081900360640190fd5b600181015460ff161562001503576040805162461bcd60e51b815260206004820152601960248201527826b0b935b2ba1030b63932b0b23c903334b730b634bd32b21760391b604482015290519081900360640190fd5b6000828152600760209081526040808320600501546001810180855260068601909352818420546002820180865292909420549193909182911080156200155f5750600082815260068601602052604080822054868352912054115b15620015685750825b600084815260068601602052604080822054858352912054118015620015a35750600082815260068601602052604080822054858352912054115b15620015ac5750815b6001858101805460ff1916909117905560028501819055604080518781526020810183905281517f7f4869f28d2939b68770f0c14e454022dfa3ae244b7ae0200b511f4e50ff91ba929181900390910190a15050600160005550505050565b600760209081526000918252604091829020805460018083015460028085015460038601546004870180548a516101009782161597909702600019011693909304601f8101899004890286018901909952888552949760ff909316969095939290830182828015620016c15780601f106200169557610100808354040283529160200191620016c1565b820191906000526020600020905b815481529060010190602001808311620016a357829003601f168201915b5050505050908060050154908060090154905087565b6005546001600160a01b031681565b612928806200179f83390190565b61212480620040c783390190565b828054600181600116156101000203166002900490600052602060002090601f016020900481019282601f106200174557805160ff191683800117855562001775565b8280016001018555821562001775579182015b828111156200177557825182559160200191906001019062001758565b506200178392915062001787565b5090565b5b808211156200178357600081556001016200178856fe60806040523480156200001157600080fd5b50604080518082018252600681527f566973696f6e0000000000000000000000000000000000000000000000000000602080830191825283518085018552600381527f564953000000000000000000000000000000000000000000000000000000000081830152845160008152918201909452825192939290916200009a9160029190620002fd565b508151620000b0906003906020850190620002fd565b508051620000c690600490602084019062000382565b5060005b600454811015620001265760016005600060048481548110620000e957fe5b6000918252602080832091909101546001600160a01b031683528201929092526040019020805460ff1916911515919091179055600101620000ca565b50604080517f29965a1d00000000000000000000000000000000000000000000000000000000815230600482018190527fac7fbab5f54a3ca8194167523c6753bfeb96a445279294b6125b68cce2177054602483015260448201529051731820a4b7618bde71dce8cdc73aab6c95905fad24916329965a1d91606480830192600092919082900301818387803b158015620001c057600080fd5b505af1158015620001d5573d6000803e3d6000fd5b5050604080517f29965a1d00000000000000000000000000000000000000000000000000000000815230600482018190527faea199e31a596269b42cdafd93407f14436db6e4cad65417994c2eb37381e05a602483015260448201529051731820a4b7618bde71dce8cdc73aab6c95905fad2493506329965a1d9250606480830192600092919082900301818387803b1580156200027257600080fd5b505af115801562000287573d6000803e3d6000fd5b505050505050506000620002a0620002f960201b60201c565b600980546001600160a01b0319166001600160a01b038316908117909155604051919250906000907f8be0079c531659141344cd1fd0a4f28419497f9722a3daafe3b4186f6b6457e0908290a3506001600a5562000420565b3390565b828054600181600116156101000203166002900490600052602060002090601f016020900481019282601f106200034057805160ff191683800117855562000370565b8280016001018555821562000370579182015b828111156200037057825182559160200191906001019062000353565b506200037e929150620003e8565b5090565b828054828255906000526020600020908101928215620003da579160200282015b82811115620003da57825182546001600160a01b0319166001600160a01b03909116178255602090920191600190910190620003a3565b506200037e929150620003ff565b5b808211156200037e5760008155600101620003e9565b5b808211156200037e5780546001600160a01b031916815560010162000400565b6124f880620004306000396000f3fe608060405234801561001057600080fd5b506004361061011d5760003560e01c806306e485381461012257806306fdde031461017a578063095ea7b3146101f757806318160ddd1461023757806323b872dd14610251578063313ce5671461028757806340c10f19146102a5578063556f0dc7146102d357806362ad1b83146102db57806370a0823114610424578063715018a61461044a5780638da5cb5b14610452578063959b8c3f1461047657806395d89b411461049c5780639bd9bbc6146104a45780639dc29fac1461055d578063a9059cbb14610589578063d95b6371146105b5578063dd62ed3e146105e3578063f2fde38b14610611578063fad8b32a14610637578063fc673c4f1461065d578063fe9d93031461079b575b600080fd5b61012a610846565b60408051602080825283518183015283519192839290830191858101910280838360005b8381101561016657818101518382015260200161014e565b505050509050019250505060405180910390f35b6101826108a8565b6040805160208082528351818301528351919283929083019185019080838360005b838110156101bc5781810151838201526020016101a4565b50505050905090810190601f1680156101e95780820380516001836020036101000a031916815260200191505b509250505060405180910390f35b6102236004803603604081101561020d57600080fd5b506001600160a01b038135169060200135610932565b604080519115158252519081900360200190f35b61023f610954565b60408051918252519081900360200190f35b6102236004803603606081101561026757600080fd5b506001600160a01b0381358116916020810135909116906040013561095a565b61028f610ad7565b6040805160ff9092168252519081900360200190f35b6102d1600480360360408110156102bb57600080fd5b506001600160a01b038135169060200135610adc565b005b61023f610bb5565b6102d1600480360360a08110156102f157600080fd5b6001600160a01b03823581169260208101359091169160408201359190810190608081016060820135600160201b81111561032b57600080fd5b82018360208201111561033d57600080fd5b803590602001918460018302840111600160201b8311171561035e57600080fd5b91908080601f0160208091040260200160405190810160405280939291908181526020018383808284376000920191909152509295949360208101935035915050600160201b8111156103b057600080fd5b8201836020820111156103c257600080fd5b803590602001918460018302840111600160201b831117156103e357600080fd5b91908080601f016020809104026020016040519081016040528093929190818152602001838380828437600092019190915250929550610bba945050505050565b61023f6004803603602081101561043a57600080fd5b50356001600160a01b0316610c1c565b6102d1610c37565b61045a610cc7565b604080516001600160a01b039092168252519081900360200190f35b6102d16004803603602081101561048c57600080fd5b50356001600160a01b0316610cd6565b610182610e22565b6102d1600480360360608110156104ba57600080fd5b6001600160a01b0382351691602081013591810190606081016040820135600160201b8111156104e957600080fd5b8201836020820111156104fb57600080fd5b803590602001918460018302840111600160201b8311171561051c57600080fd5b91908080601f016020809104026020016040519081016040528093929190818152602001838380828437600092019190915250929550610e83945050505050565b6102d16004803603604081101561057357600080fd5b506001600160a01b038135169060200135610ead565b6102236004803603604081101561059f57600080fd5b506001600160a01b038135169060200135610f7d565b610223600480360360408110156105cb57600080fd5b506001600160a01b0381358116916020013516611056565b61023f600480360360408110156105f957600080fd5b506001600160a01b03813581169160200135166110f8565b6102d16004803603602081101561062757600080fd5b50356001600160a01b0316611123565b6102d16004803603602081101561064d57600080fd5b50356001600160a01b031661120a565b6102d16004803603608081101561067357600080fd5b6001600160a01b0382351691602081013591810190606081016040820135600160201b8111156106a257600080fd5b8201836020820111156106b457600080fd5b803590602001918460018302840111600160201b831117156106d557600080fd5b91908080601f0160208091040260200160405190810160405280939291908181526020018383808284376000920191909152509295949360208101935035915050600160201b81111561072757600080fd5b82018360208201111561073957600080fd5b803590602001918460018302840111600160201b8311171561075a57600080fd5b91908080601f016020809104026020016040519081016040528093929190818152602001838380828437600092019190915250929550611356945050505050565b6102d1600480360360408110156107b157600080fd5b81359190810190604081016020820135600160201b8111156107d257600080fd5b8201836020820111156107e457600080fd5b803590602001918460018302840111600160201b8311171561080557600080fd5b91908080601f0160208091040260200160405190810160405280939291908181526020018383808284376000920191909152509295506113b4945050505050565b6060600480548060200260200160405190810160405280929190818152602001828054801561089e57602002820191906000526020600020905b81546001600160a01b03168152600190910190602001808311610880575b5050505050905090565b60028054604080516020601f600019610100600187161502019094168590049384018190048102820181019092528281526060939092909183018282801561089e5780601f106109065761010080835404028352916020019161089e565b820191906000526020600020905b81548152906001019060200180831161091457509395945050505050565b60008061093d6113da565b905061094a8185856113de565b5060019392505050565b60015490565b60006001600160a01b0383166109a15760405162461bcd60e51b81526004018080602001828103825260248152602001806123be6024913960400191505060405180910390fd5b6001600160a01b0384166109e65760405162461bcd60e51b81526004018080602001828103825260268152602001806124576026913960400191505060405180910390fd5b60006109f06113da565b9050610a1e8186868660405180602001604052806000815250604051806020016040528060008152506114ca565b610a4a8186868660405180602001604052806000815250604051806020016040528060008152506116f7565b610a9e8582610a998660405180606001604052806029815260200161242e602991396001600160a01b03808c166000908152600860209081526040808320938b168352929052205491906118fe565b6113de565b610acc8186868660405180602001604052806000815250604051806020016040528060008152506000611995565b506001949350505050565b601290565b610ae46113da565b6009546001600160a01b03908116911614610b34576040805162461bcd60e51b81526020600482018190526024820152600080516020612331833981519152604482015290519081900360640190fd5b6002600a541415610b7a576040805162461bcd60e51b815260206004820152601f6024820152600080516020612216833981519152604482015290519081900360640190fd5b6002600a81905550610bac82826040518060200160405280600081525060405180602001604052806000815250611c1a565b50506001600a55565b600190565b610bcb610bc56113da565b86611056565b610c065760405162461bcd60e51b815260040180806020018281038252602c815260200180612402602c913960400191505060405180910390fd5b610c1585858585856001611e40565b5050505050565b6001600160a01b031660009081526020819052604090205490565b610c3f6113da565b6009546001600160a01b03908116911614610c8f576040805162461bcd60e51b81526020600482018190526024820152600080516020612331833981519152604482015290519081900360640190fd5b6009546040516000916001600160a01b031690600080516020612351833981519152908390a3600980546001600160a01b0319169055565b6009546001600160a01b031690565b806001600160a01b0316610ce86113da565b6001600160a01b03161415610d2e5760405162461bcd60e51b81526004018080602001828103825260248152602001806122ec6024913960400191505060405180910390fd5b6001600160a01b03811660009081526005602052604090205460ff1615610d915760076000610d5b6113da565b6001600160a01b03908116825260208083019390935260409182016000908120918516815292529020805460ff19169055610dd8565b600160066000610d9f6113da565b6001600160a01b03908116825260208083019390935260409182016000908120918616815292529020805460ff19169115159190911790555b610de06113da565b6001600160a01b0316816001600160a01b03167ff4caeb2d6ca8932a215a353d0703c326ec2d81fc68170f320eb2ab49e9df61f960405160405180910390a350565b60038054604080516020601f600260001961010060018816150201909516949094049384018190048102820181019092528281526060939092909183018282801561089e5780601f106109065761010080835404028352916020019161089e565b610ea8610e8e6113da565b848484604051806020016040528060008152506001611e40565b505050565b610eb56113da565b6009546001600160a01b03908116911614610f05576040805162461bcd60e51b81526020600482018190526024820152600080516020612331833981519152604482015290519081900360640190fd5b6002600a541415610f4b576040805162461bcd60e51b815260206004820152601f6024820152600080516020612216833981519152604482015290519081900360640190fd5b6002600a81905550610bac82826040518060200160405280600081525060405180602001604052806000815250611f17565b60006001600160a01b038316610fc45760405162461bcd60e51b81526004018080602001828103825260248152602001806123be6024913960400191505060405180910390fd5b6000610fce6113da565b9050610ffc8182868660405180602001604052806000815250604051806020016040528060008152506114ca565b6110288182868660405180602001604052806000815250604051806020016040528060008152506116f7565b61094a8182868660405180602001604052806000815250604051806020016040528060008152506000611995565b6000816001600160a01b0316836001600160a01b031614806110c157506001600160a01b03831660009081526005602052604090205460ff1680156110c157506001600160a01b0380831660009081526007602090815260408083209387168352929052205460ff16155b806110f157506001600160a01b0380831660009081526006602090815260408083209387168352929052205460ff165b9392505050565b6001600160a01b03918216600090815260086020908152604080832093909416825291909152205490565b61112b6113da565b6009546001600160a01b0390811691161461117b576040805162461bcd60e51b81526020600482018190526024820152600080516020612331833981519152604482015290519081900360640190fd5b6001600160a01b0381166111c05760405162461bcd60e51b81526004018080602001828103825260268152602001806122a46026913960400191505060405180910390fd5b6009546040516001600160a01b0380841692169060008051602061235183398151915290600090a3600980546001600160a01b0319166001600160a01b0392909216919091179055565b6112126113da565b6001600160a01b0316816001600160a01b031614156112625760405162461bcd60e51b81526004018080602001828103825260218152602001806123106021913960400191505060405180910390fd5b6001600160a01b03811660009081526005602052604090205460ff16156112ce576001600760006112916113da565b6001600160a01b03908116825260208083019390935260409182016000908120918616815292529020805460ff191691151591909117905561130c565b600660006112da6113da565b6001600160a01b03908116825260208083019390935260409182016000908120918516815292529020805460ff191690555b6113146113da565b6001600160a01b0316816001600160a01b03167f50546e66e5f44d728365dc3908c63bc5cfeeab470722c1677e3073a6ac294aa160405160405180910390a350565b6113676113616113da565b85611056565b6113a25760405162461bcd60e51b815260040180806020018281038252602c815260200180612402602c913960400191505060405180910390fd5b6113ae84848484611f17565b50505050565b6113d66113bf6113da565b838360405180602001604052806000815250611f17565b5050565b3390565b6001600160a01b0383166114235760405162461bcd60e51b81526004018080602001828103825260258152602001806122366025913960400191505060405180910390fd5b6001600160a01b0382166114685760405162461bcd60e51b81526004018080602001828103825260238152602001806124a06023913960400191505060405180910390fd5b6001600160a01b03808416600081815260086020908152604080832094871680845294825291829020859055815185815291517f8c5be1e5ebec7d5bd14f71427d1e84f3dd0314c0f7b2291e5b200ac8c7c3b9259281900390910190a3505050565b6040805163555ddc6560e11b81526001600160a01b03871660048201527f29ddb589b1fb5fc7cf394961c1adf5f8c6454761adf795e67fe149f658abe89560248201529051600091731820a4b7618bde71dce8cdc73aab6c95905fad249163aabbb8ca91604480820192602092909190829003018186803b15801561154e57600080fd5b505afa158015611562573d6000803e3d6000fd5b505050506040513d602081101561157857600080fd5b505190506001600160a01b038116156116ee57806001600160a01b03166375ab97828888888888886040518763ffffffff1660e01b815260040180876001600160a01b03168152602001866001600160a01b03168152602001856001600160a01b031681526020018481526020018060200180602001838103835285818151815260200191508051906020019080838360005b8381101561162357818101518382015260200161160b565b50505050905090810190601f1680156116505780820380516001836020036101000a031916815260200191505b50838103825284518152845160209182019186019080838360005b8381101561168357818101518382015260200161166b565b50505050905090810190601f1680156116b05780820380516001836020036101000a031916815260200191505b5098505050505050505050600060405180830381600087803b1580156116d557600080fd5b505af11580156116e9573d6000803e3d6000fd5b505050505b50505050505050565b611703868686866113ae565b6117408360405180606001604052806027815260200161227d602791396001600160a01b03881660009081526020819052604090205491906118fe565b6001600160a01b03808716600090815260208190526040808220939093559086168152205461176f908461213f565b600080866001600160a01b03166001600160a01b0316815260200190815260200160002081905550836001600160a01b0316856001600160a01b0316876001600160a01b03167f06b541ddaa720db2b10a4d0cdac39b8d360425fc073085fac19bc82614677987868686604051808481526020018060200180602001838103835285818151815260200191508051906020019080838360005b83811015611820578181015183820152602001611808565b50505050905090810190601f16801561184d5780820380516001836020036101000a031916815260200191505b50838103825284518152845160209182019186019080838360005b83811015611880578181015183820152602001611868565b50505050905090810190601f1680156118ad5780820380516001836020036101000a031916815260200191505b509550505050505060405180910390a4836001600160a01b0316856001600160a01b03166000805160206123e2833981519152856040518082815260200191505060405180910390a3505050505050565b6000818484111561198d5760405162461bcd60e51b81526004018080602001828103825283818151815260200191508051906020019080838360005b8381101561195257818101518382015260200161193a565b50505050905090810190601f16801561197f5780820380516001836020036101000a031916815260200191505b509250505060405180910390fd5b505050900390565b6040805163555ddc6560e11b81526001600160a01b03871660048201527fb281fc8c12954d22544db45de3159a39272895b169a852b314f9cc762e44c53b60248201529051600091731820a4b7618bde71dce8cdc73aab6c95905fad249163aabbb8ca91604480820192602092909190829003018186803b158015611a1957600080fd5b505afa158015611a2d573d6000803e3d6000fd5b505050506040513d6020811015611a4357600080fd5b505190506001600160a01b03811615611bbc57806001600160a01b03166223de298989898989896040518763ffffffff1660e01b815260040180876001600160a01b03168152602001866001600160a01b03168152602001856001600160a01b031681526020018481526020018060200180602001838103835285818151815260200191508051906020019080838360005b83811015611aed578181015183820152602001611ad5565b50505050905090810190601f168015611b1a5780820380516001836020036101000a031916815260200191505b50838103825284518152845160209182019186019080838360005b83811015611b4d578181015183820152602001611b35565b50505050905090810190601f168015611b7a5780820380516001836020036101000a031916815260200191505b5098505050505050505050600060405180830381600087803b158015611b9f57600080fd5b505af1158015611bb3573d6000803e3d6000fd5b50505050611c10565b8115611c1057611bd4866001600160a01b0316612197565b15611c105760405162461bcd60e51b815260040180806020018281038252604d815260200180612371604d913960600191505060405180910390fd5b5050505050505050565b6001600160a01b038416611c75576040805162461bcd60e51b815260206004820181905260248201527f4552433737373a206d696e7420746f20746865207a65726f2061646472657373604482015290519081900360640190fd5b6000611c7f6113da565b9050611c8e81600087876113ae565b600154611c9b908561213f565b6001556001600160a01b038516600090815260208190526040902054611cc1908561213f565b6001600160a01b038616600090815260208190526040812091909155611cee908290878787876001611995565b846001600160a01b0316816001600160a01b03167f2fe5be0146f74c5bce36c0b80911af6c7d86ff27e89d5cfa61fc681327954e5d868686604051808481526020018060200180602001838103835285818151815260200191508051906020019080838360005b83811015611d6d578181015183820152602001611d55565b50505050905090810190601f168015611d9a5780820380516001836020036101000a031916815260200191505b50838103825284518152845160209182019186019080838360005b83811015611dcd578181015183820152602001611db5565b50505050905090810190601f168015611dfa5780820380516001836020036101000a031916815260200191505b509550505050505060405180910390a36040805185815290516001600160a01b038716916000916000805160206123e28339815191529181900360200190a35050505050565b6001600160a01b038616611e855760405162461bcd60e51b815260040180806020018281038252602281526020018061225b6022913960400191505060405180910390fd5b6001600160a01b038516611ee0576040805162461bcd60e51b815260206004820181905260248201527f4552433737373a2073656e6420746f20746865207a65726f2061646472657373604482015290519081900360640190fd5b6000611eea6113da565b9050611efa8188888888886114ca565b611f088188888888886116f7565b6116ee81888888888888611995565b6001600160a01b038416611f5c5760405162461bcd60e51b81526004018080602001828103825260228152602001806122ca6022913960400191505060405180910390fd5b6000611f666113da565b9050611f7581866000876113ae565b611f84818660008787876114ca565b611fc18460405180606001604052806023815260200161247d602391396001600160a01b03881660009081526020819052604090205491906118fe565b6001600160a01b038616600090815260208190526040902055600154611fe790856121d3565b600181905550846001600160a01b0316816001600160a01b03167fa78a9be3a7b862d26933ad85fb11d80ef66b8f972d7cbba06621d583943a4098868686604051808481526020018060200180602001838103835285818151815260200191508051906020019080838360005b8381101561206c578181015183820152602001612054565b50505050905090810190601f1680156120995780820380516001836020036101000a031916815260200191505b50838103825284518152845160209182019186019080838360005b838110156120cc5781810151838201526020016120b4565b50505050905090810190601f1680156120f95780820380516001836020036101000a031916815260200191505b509550505050505060405180910390a36040805185815290516000916001600160a01b038816916000805160206123e28339815191529181900360200190a35050505050565b6000828201838110156110f1576040805162461bcd60e51b815260206004820152601b60248201527a536166654d6174683a206164646974696f6e206f766572666c6f7760281b604482015290519081900360640190fd5b6000813f7fc5d2460186f7233c927e7db2dcc703c0e500b653ca82273b7bfad8045d85a4708181148015906121cb57508115155b949350505050565b60006110f183836040518060400160405280601e81526020017f536166654d6174683a207375627472616374696f6e206f766572666c6f7700008152506118fe56fe5265656e7472616e637947756172643a207265656e7472616e742063616c6c004552433737373a20617070726f76652066726f6d20746865207a65726f20616464726573734552433737373a2073656e642066726f6d20746865207a65726f20616464726573734552433737373a207472616e7366657220616d6f756e7420657863656564732062616c616e63654f776e61626c653a206e6577206f776e657220697320746865207a65726f20616464726573734552433737373a206275726e2066726f6d20746865207a65726f20616464726573734552433737373a20617574686f72697a696e672073656c66206173206f70657261746f724552433737373a207265766f6b696e672073656c66206173206f70657261746f724f776e61626c653a2063616c6c6572206973206e6f7420746865206f776e65728be0079c531659141344cd1fd0a4f28419497f9722a3daafe3b4186f6b6457e04552433737373a20746f6b656e20726563697069656e7420636f6e747261637420686173206e6f20696d706c656d656e74657220666f7220455243373737546f6b656e73526563697069656e744552433737373a207472616e7366657220746f20746865207a65726f2061646472657373ddf252ad1be2c89b69c2b068fc378daa952ba7f163c4a11628f55a4df523b3ef4552433737373a2063616c6c6572206973206e6f7420616e206f70657261746f7220666f7220686f6c6465724552433737373a207472616e7366657220616d6f756e74206578636565647320616c6c6f77616e63654552433737373a207472616e736665722066726f6d20746865207a65726f20616464726573734552433737373a206275726e20616d6f756e7420657863656564732062616c616e63654552433737373a20617070726f766520746f20746865207a65726f2061646472657373a2646970667358221220065ff65db091aa66fe8717333b409b9e29ea4db2aeb7d4e5c6cfd1fb05e53d5764736f6c634300060c0033608060405260006006553480156200001657600080fd5b50604080516020810190915260008152620000517f01ffc9a70000000000000000000000000000000000000000000000000000000062000118565b6200005c81620001e7565b620000877fd9b67a260000000000000000000000000000000000000000000000000000000062000118565b620000b27f0e89341c0000000000000000000000000000000000000000000000000000000062000118565b506000620000bf62000200565b600480546001600160a01b0319166001600160a01b038316908117909155604051919250906000907f8be0079c531659141344cd1fd0a4f28419497f9722a3daafe3b4186f6b6457e0908290a3506001600555620002a0565b7fffffffff000000000000000000000000000000000000000000000000000000008082161415620001aa57604080517f08c379a000000000000000000000000000000000000000000000000000000000815260206004820152601c60248201527f4552433136353a20696e76616c696420696e7465726661636520696400000000604482015290519081900360640190fd5b7fffffffff00000000000000000000000000000000000000000000000000000000166000908152602081905260409020805460ff19166001179055565b8051620001fc90600390602084019062000204565b5050565b3390565b828054600181600116156101000203166002900490600052602060002090601f016020900481019282601f106200024757805160ff191683800117855562000277565b8280016001018555821562000277579182015b82811115620002775782518255916020019190600101906200025a565b506200028592915062000289565b5090565b5b808211156200028557600081556001016200028a565b611e7480620002b06000396000f3fe608060405234801561001057600080fd5b50600436106100c45760003560e01c8062fdd58e146100c957806301ffc9a7146101075780630e89341c14610142578063156e29f6146101d45780632eb2c2d6146102085780634e1273f4146103c95780635d2585a51461053c578063715018a6146105445780637d549e991461054c5780638da5cb5b14610554578063a22cb46514610578578063e985e9c5146105a6578063f242432a146105d4578063f2fde38b1461069d578063f5298aca146106c3575b600080fd5b6100f5600480360360408110156100df57600080fd5b506001600160a01b0381351690602001356106f5565b60408051918252519081900360200190f35b61012e6004803603602081101561011d57600080fd5b50356001600160e01b031916610764565b604080519115158252519081900360200190f35b61015f6004803603602081101561015857600080fd5b5035610783565b6040805160208082528351818301528351919283929083019185019080838360005b83811015610199578181015183820152602001610181565b50505050905090810190601f1680156101c65780820380516001836020036101000a031916815260200191505b509250505060405180910390f35b610206600480360360608110156101ea57600080fd5b506001600160a01b03813516906020810135906040013561081b565b005b610206600480360360a081101561021e57600080fd5b6001600160a01b038235811692602081013590911691810190606081016040820135600160201b81111561025157600080fd5b82018360208201111561026357600080fd5b803590602001918460208302840111600160201b8311171561028457600080fd5b9190808060200260200160405190810160405280939291908181526020018383602002808284376000920191909152509295949360208101935035915050600160201b8111156102d357600080fd5b8201836020820111156102e557600080fd5b803590602001918460208302840111600160201b8311171561030657600080fd5b9190808060200260200160405190810160405280939291908181526020018383602002808284376000920191909152509295949360208101935035915050600160201b81111561035557600080fd5b82018360208201111561036757600080fd5b803590602001918460018302840111600160201b8311171561038857600080fd5b91908080601f0160208091040260200160405190810160405280939291908181526020018383808284376000920191909152509295506108e6945050505050565b6104ec600480360360408110156103df57600080fd5b810190602081018135600160201b8111156103f957600080fd5b82018360208201111561040b57600080fd5b803590602001918460208302840111600160201b8311171561042c57600080fd5b9190808060200260200160405190810160405280939291908181526020018383602002808284376000920191909152509295949360208101935035915050600160201b81111561047b57600080fd5b82018360208201111561048d57600080fd5b803590602001918460208302840111600160201b831117156104ae57600080fd5b919080806020026020016040519081016040528093929190818152602001838360200280828437600092019190915250929550610be4945050505050565b60408051602080825283518183015283519192839290830191858101910280838360005b83811015610528578181015183820152602001610510565b505050509050019250505060405180910390f35b6100f5610d61565b610206610e18565b6100f5610ea8565b61055c610eae565b604080516001600160a01b039092168252519081900360200190f35b6102066004803603604081101561058e57600080fd5b506001600160a01b0381351690602001351515610ebe565b61012e600480360360408110156105bc57600080fd5b506001600160a01b0381358116916020013516610fad565b610206600480360360a08110156105ea57600080fd5b6001600160a01b03823581169260208101359091169160408201359160608101359181019060a081016080820135600160201b81111561062957600080fd5b82018360208201111561063b57600080fd5b803590602001918460018302840111600160201b8311171561065c57600080fd5b91908080601f016020809104026020016040519081016040528093929190818152602001838380828437600092019190915250929550610fdb945050505050565b610206600480360360208110156106b357600080fd5b50356001600160a01b0316611194565b610206600480360360608110156106d957600080fd5b506001600160a01b03813516906020810135906040013561127b565b60006001600160a01b03831661073c5760405162461bcd60e51b815260040180806020018281038252602b815260200180611bf1602b913960400191505060405180910390fd5b5060009081526001602090815260408083206001600160a01b03949094168352929052205490565b6001600160e01b03191660009081526020819052604090205460ff1690565b60038054604080516020601f600260001961010060018816150201909516949094049384018190048102820181019092528281526060939092909183018282801561080f5780601f106107e45761010080835404028352916020019161080f565b820191906000526020600020905b8154815290600101906020018083116107f257829003601f168201915b50505050509050919050565b610823611329565b6004546001600160a01b03908116911614610873576040805162461bcd60e51b81526020600482018190526024820152600080516020611d64833981519152604482015290519081900360640190fd5b600260055414156108b9576040805162461bcd60e51b815260206004820152601f6024820152600080516020611bb1833981519152604482015290519081900360640190fd5b60026005819055506108dc8383836040518060200160405280600081525061132d565b5050600160055550565b81518351146109265760405162461bcd60e51b8152600401808060200182810382526028815260200180611df66028913960400191505060405180910390fd5b6001600160a01b03841661096b5760405162461bcd60e51b8152600401808060200182810382526025815260200180611cc06025913960400191505060405180910390fd5b610973611329565b6001600160a01b0316856001600160a01b0316148061099e575061099e85610999611329565b610fad565b6109d95760405162461bcd60e51b8152600401808060200182810382526032815260200180611ce56032913960400191505060405180910390fd5b60006109e3611329565b90506109f3818787878787610bdc565b60005b8451811015610af4576000858281518110610a0d57fe5b602002602001015190506000858381518110610a2557fe5b60200260200101519050610a92816040518060600160405280602a8152602001611d3a602a91396001600086815260200190815260200160002060008d6001600160a01b03166001600160a01b03168152602001908152602001600020546114239092919063ffffffff16565b60008381526001602090815260408083206001600160a01b038e811685529252808320939093558a1681522054610ac990826114ba565b60009283526001602081815260408086206001600160a01b038d1687529091529093205550016109f6565b50846001600160a01b0316866001600160a01b0316826001600160a01b03167f4a39dc06d4c0dbc64b70af90fd698a233a518aa5d07e595d983b8c0526c8f7fb8787604051808060200180602001838103835285818151815260200191508051906020019060200280838360005b83811015610b7a578181015183820152602001610b62565b50505050905001838103825284818151815260200191508051906020019060200280838360005b83811015610bb9578181015183820152602001610ba1565b5050505090500194505050505060405180910390a4610bdc818787878787611519565b505050505050565b60608151835114610c265760405162461bcd60e51b8152600401808060200182810382526029815260200180611dcd6029913960400191505060405180910390fd5b606083516001600160401b0381118015610c3f57600080fd5b50604051908082528060200260200182016040528015610c69578160200160208202803683370190505b50905060005b8451811015610d595760006001600160a01b0316858281518110610c8f57fe5b60200260200101516001600160a01b03161415610cdd5760405162461bcd60e51b8152600401808060200182810382526031815260200180611c1c6031913960400191505060405180910390fd5b60016000858381518110610ced57fe5b602002602001015181526020019081526020016000206000868381518110610d1157fe5b60200260200101516001600160a01b03166001600160a01b0316815260200190815260200160002054828281518110610d4657fe5b6020908102919091010152600101610c6f565b509392505050565b6000610d6b611329565b6004546001600160a01b03908116911614610dbb576040805162461bcd60e51b81526020600482018190526024820152600080516020611d64833981519152604482015290519081900360640190fd5b60026005541415610e01576040805162461bcd60e51b815260206004820152601f6024820152600080516020611bb1833981519152604482015290519081900360640190fd5b506006805460038101909155600160058190550190565b610e20611329565b6004546001600160a01b03908116911614610e70576040805162461bcd60e51b81526020600482018190526024820152600080516020611d64833981519152604482015290519081900360640190fd5b6004546040516000916001600160a01b031690600080516020611d84833981519152908390a3600480546001600160a01b0319169055565b60065481565b6004546001600160a01b03165b90565b816001600160a01b0316610ed0611329565b6001600160a01b03161415610f165760405162461bcd60e51b8152600401808060200182810382526029815260200180611da46029913960400191505060405180910390fd5b8060026000610f23611329565b6001600160a01b03908116825260208083019390935260409182016000908120918716808252919093529120805460ff191692151592909217909155610f67611329565b6001600160a01b03167f17307eab39ab6107e8899845ad3d59bd9653f200f220920489ca2b5937696c318360405180821515815260200191505060405180910390a35050565b6001600160a01b03918216600090815260026020908152604080832093909416825291909152205460ff1690565b6001600160a01b0384166110205760405162461bcd60e51b8152600401808060200182810382526025815260200180611cc06025913960400191505060405180910390fd5b611028611329565b6001600160a01b0316856001600160a01b0316148061104e575061104e85610999611329565b6110895760405162461bcd60e51b8152600401808060200182810382526029815260200180611c976029913960400191505060405180910390fd5b6000611093611329565b90506110b38187876110a488611798565b6110ad88611798565b87610bdc565b6110fa836040518060600160405280602a8152602001611d3a602a913960008781526001602090815260408083206001600160a01b038d1684529091529020549190611423565b60008581526001602090815260408083206001600160a01b038b8116855292528083209390935587168152205461113190846114ba565b60008581526001602090815260408083206001600160a01b03808b168086529184529382902094909455805188815291820187905280518a841693861692600080516020611bd183398151915292908290030190a4610bdc8187878787876117dc565b61119c611329565b6004546001600160a01b039081169116146111ec576040805162461bcd60e51b81526020600482018190526024820152600080516020611d64833981519152604482015290519081900360640190fd5b6001600160a01b0381166112315760405162461bcd60e51b8152600401808060200182810382526026815260200180611c4d6026913960400191505060405180910390fd5b6004546040516001600160a01b03808416921690600080516020611d8483398151915290600090a3600480546001600160a01b0319166001600160a01b0392909216919091179055565b611283611329565b6004546001600160a01b039081169116146112d3576040805162461bcd60e51b81526020600482018190526024820152600080516020611d64833981519152604482015290519081900360640190fd5b60026005541415611319576040805162461bcd60e51b815260206004820152601f6024820152600080516020611bb1833981519152604482015290519081900360640190fd5b60026005556108dc83838361194d565b3390565b6001600160a01b0384166113725760405162461bcd60e51b8152600401808060200182810382526021815260200180611e1e6021913960400191505060405180910390fd5b600061137c611329565b905061138e816000876110a488611798565b60008481526001602090815260408083206001600160a01b03891684529091529020546113bb90846114ba565b60008581526001602090815260408083206001600160a01b03808b1680865291845282852095909555815189815292830188905281519094861692600080516020611bd183398151915292908290030190a461141c816000878787876117dc565b5050505050565b600081848411156114b25760405162461bcd60e51b81526004018080602001828103825283818151815260200191508051906020019080838360005b8381101561147757818101518382015260200161145f565b50505050905090810190601f1680156114a45780820380516001836020036101000a031916815260200191505b509250505060405180910390fd5b505050900390565b600082820183811015611512576040805162461bcd60e51b815260206004820152601b60248201527a536166654d6174683a206164646974696f6e206f766572666c6f7760281b604482015290519081900360640190fd5b9392505050565b61152b846001600160a01b0316611a6e565b15610bdc57836001600160a01b031663bc197c8187878686866040518663ffffffff1660e01b815260040180866001600160a01b03168152602001856001600160a01b03168152602001806020018060200180602001848103845287818151815260200191508051906020019060200280838360005b838110156115b95781810151838201526020016115a1565b50505050905001848103835286818151815260200191508051906020019060200280838360005b838110156115f85781810151838201526020016115e0565b50505050905001848103825285818151815260200191508051906020019080838360005b8381101561163457818101518382015260200161161c565b50505050905090810190601f1680156116615780820380516001836020036101000a031916815260200191505b5098505050505050505050602060405180830381600087803b15801561168657600080fd5b505af19250505080156116ab57506040513d60208110156116a657600080fd5b505160015b611740576116b7611ab0565b806116c25750611709565b60405162461bcd60e51b815260206004820181815283516024840152835184939192839260440191908501908083836000831561147757818101518382015260200161145f565b60405162461bcd60e51b8152600401808060200182810382526034815260200180611b556034913960400191505060405180910390fd5b6001600160e01b0319811663bc197c8160e01b1461178f5760405162461bcd60e51b8152600401808060200182810382526028815260200180611b896028913960400191505060405180910390fd5b50505050505050565b6040805160018082528183019092526060918291906020808301908036833701905050905082816000815181106117cb57fe5b602090810291909101015292915050565b6117ee846001600160a01b0316611a6e565b15610bdc57836001600160a01b031663f23a6e6187878686866040518663ffffffff1660e01b815260040180866001600160a01b03168152602001856001600160a01b0316815260200184815260200183815260200180602001828103825283818151815260200191508051906020019080838360005b8381101561187d578181015183820152602001611865565b50505050905090810190601f1680156118aa5780820380516001836020036101000a031916815260200191505b509650505050505050602060405180830381600087803b1580156118cd57600080fd5b505af19250505080156118f257506040513d60208110156118ed57600080fd5b505160015b6118fe576116b7611ab0565b6001600160e01b0319811663f23a6e6160e01b1461178f5760405162461bcd60e51b8152600401808060200182810382526028815260200180611b896028913960400191505060405180910390fd5b6001600160a01b0383166119925760405162461bcd60e51b8152600401808060200182810382526023815260200180611d176023913960400191505060405180910390fd5b600061199c611329565b90506119cc818560006119ae87611798565b6119b787611798565b60405180602001604052806000815250610bdc565b611a1382604051806060016040528060248152602001611c736024913960008681526001602090815260408083206001600160a01b038b1684529091529020549190611423565b60008481526001602090815260408083206001600160a01b03808a1680865291845282852095909555815188815292830187905281519394909390861692600080516020611bd183398151915292908290030190a450505050565b6000813f7fc5d2460186f7233c927e7db2dcc703c0e500b653ca82273b7bfad8045d85a470818114801590611aa257508115155b949350505050565b60e01c90565b600060443d1015611ac057610ebb565b600481823e6308c379a0611ad48251611aaa565b14611ade57610ebb565b6040513d600319016004823e80513d6001600160401b038083116024840183101715611b0d5750505050610ebb565b82840192508251915080821115611b275750505050610ebb565b503d83016020828401011115611b3f57505050610ebb565b601f01601f191681016020016040529150509056fe455243313135353a207472616e7366657220746f206e6f6e2045524331313535526563656976657220696d706c656d656e746572455243313135353a204552433131353552656365697665722072656a656374656420746f6b656e735265656e7472616e637947756172643a207265656e7472616e742063616c6c00c3d58168c5ae7397731d063d5bbf3d657854427343f4c083240f7aacaa2d0f62455243313135353a2062616c616e636520717565727920666f7220746865207a65726f2061646472657373455243313135353a2062617463682062616c616e636520717565727920666f7220746865207a65726f20616464726573734f776e61626c653a206e6577206f776e657220697320746865207a65726f2061646472657373455243313135353a206275726e20616d6f756e7420657863656564732062616c616e6365455243313135353a2063616c6c6572206973206e6f74206f776e6572206e6f7220617070726f766564455243313135353a207472616e7366657220746f20746865207a65726f2061646472657373455243313135353a207472616e736665722063616c6c6572206973206e6f74206f776e6572206e6f7220617070726f766564455243313135353a206275726e2066726f6d20746865207a65726f2061646472657373455243313135353a20696e73756666696369656e742062616c616e636520666f72207472616e736665724f776e61626c653a2063616c6c6572206973206e6f7420746865206f776e65728be0079c531659141344cd1fd0a4f28419497f9722a3daafe3b4186f6b6457e0455243313135353a2073657474696e6720617070726f76616c2073746174757320666f722073656c66455243313135353a206163636f756e747320616e6420696473206c656e677468206d69736d61746368455243313135353a2069647320616e6420616d6f756e7473206c656e677468206d69736d61746368455243313135353a206d696e7420746f20746865207a65726f2061646472657373a2646970667358221220e9e9d2cdcc64bc538230de63ea8dbc036c83484d901766728eeb422180a2181864736f6c634300060c00335265656e7472616e637947756172643a207265656e7472616e742063616c6c004d61726b6574206f7574636f6d652073656c656374696f6e20646f6573206e6f74206d61746368206d61726b657420696e646578206f7574636f6d65732e746f74616c5374616b65496e566973696f6e5661756c742073686f756c64206e6f7420626520302e436f6e74726163742063616e206f6e6c7920626520696e697469616c697a6564206f6e63652e416d6f756e7420746f206d696e742073686f756c642062652067726561746572207468616e20302e5573657220686173206e6f207374616b6520696e207468652077696e6e696e67206f7574636f6d652e53656c656374656420746f6b656e206973206e6f742072656465656d61626c652e4d61726b657420656e642074696d652063616e6e6f7420626520696e2074686520706173742e546f74616c205374616b6520496e20566973696f6e205661756c74206d7573742062652067726561746572207468616e20312e566973696f6e20636f73742073686f756c642062652067726561746572207468616e20302e4d696e74656420566973696f6e206d7573742062652067726561746572207468616e20312ea26469706673582212208f8a8d46553a6be9b7187a89a3321d498bc16e822826e805c8c95d059af76b4b64736f6c634300060c0033",
  "compiler": {
    "name": "solc",
    "version": "0.6.12+commit.27d51765.Emscripten.clang",
    "optimizer": {
      "enabled": true,
      "runs": 1
    },
    "evmVersion": "petersburg"
  }
}