{
  "fileName": "Monitor.sol",
  "contractName": "Monitor",
  "source": "// SPDX-License-Identifier: Unlicense\n\npragma solidity 0.6.12;\n\nimport \"@openzeppelin/contracts/utils/ReentrancyGuard.sol\";\nimport \"@openzeppelin/contracts/token/ERC20/IERC20.sol\";\nimport \"./ForesightTokens.sol\";\nimport \"./Vision.sol\";\nimport \"./BancorBondingCurve.sol\";\n\n\n/// @title Monitor\n/// @notice Monitor Interface\ncontract Monitor is ReentrancyGuard, BancorBondingCurve {\n    /// @notice Foresight token reserve ratio.\n    uint32 constant public RESERVE_RATIO = 9000000;\n    /// @notice Only allow initialization once.\n    bool public initialized = false;\n\n    /// @notice Vision ERC777 token contract.\n    Vision public vision;\n    /// @notice Total supply of Vision. Note this needs to start with 1 for minting.\n    uint public mintedVision = 1;\n    /// @notice Total StakeToken in Vision Pool. Note this needs to start with 1 for minting.\n    uint public totalStakeInVisionVault = 1;\n\n    /// @notice Stake token for Vision pool.\n    IERC20 public stakeToken;\n\n    /// @notice Foresight token ERC1155 contract that manages all Foresight.\n    ForesightTokens public foresightTokens;\n\n    // @notice Reality Market info\n    struct RealityMarket {\n        uint id;\n        bool finalized;\n        uint winningOutcome;\n        uint endTime;\n        string question;\n        uint tokenIndex;\n        mapping(uint => uint) totalMinted; // Maps outcomes to total amount minted.\n        mapping(uint => uint) totalStaked; // Maps outcomes to total amount staked.\n        mapping(uint => mapping(address => uint)) totalStakedByAddress; // Outcomes to total amount staked by address.\n        uint invalidStake;\n    }\n\n    // @notice Index of the current reality markets.\n    uint public realityMarketCounts  = 0;\n    // @notice Reality Market Data;\n    mapping(uint => RealityMarket) public realityMarketRegistry;\n\n    /// @notice Mint a new amount of Foresight Tokens for the given address.\n    /// @param _stakeToken Address of the allowed stakeToken for Vision.\n    constructor(address _stakeToken) public {\n        stakeToken = IERC20(_stakeToken);\n    }\n\n    /// @notice Deploys Vision vault, Foresight tokens, and RealityMarket.\n    function initialize() public {\n        require(!initialized, \"Contract can only be initialized once.\");\n        initialized = true;\n        vision = new Vision();\n        foresightTokens = new ForesightTokens();\n    }\n\n    /// @notice Event capturing minted vision, cost, and address.\n    event VisionMinted(uint minted, uint cost, address addr);\n\n    /// @notice Mints new Vision based on the current price, using the amount deposited.\n    /// @param amountDeposited Amount of stake to deposit.\n    /// @dev Note you must supply the amount of Stake Token to produce new Vision.\n    /// @dev Must approve stake token.\n    function mintVision(uint amountDeposited) public nonReentrant {\n        require(totalStakeInVisionVault != 0, \"totalStakeInVisionVault should not be 0.\");\n        uint visionRate = mintedVision / totalStakeInVisionVault;\n        uint visionToMint = visionRate * amountDeposited;\n        mintedVision += visionToMint;\n        totalStakeInVisionVault += amountDeposited;\n        vision.mint(msg.sender, visionToMint);\n        stakeToken.transferFrom(msg.sender, address(this), amountDeposited);\n        emit VisionMinted(visionToMint, amountDeposited, msg.sender);\n    }\n\n    /// @notice Event capturing burned vision, cost, and address.\n    event VisionBurned(uint burned, uint cost, address addr);\n\n    /// @notice Burns Vision based on the current price and returns allocated stake.\n    /// @param visionToBurn Amount of vision to burn.\n    /// @dev Invariant - totalStakeInVisionVault cannot be less than 1.\n    /// @dev Invariant - mintedVision cannot be less than 1.\n    function burnVision(uint visionToBurn) public nonReentrant {\n        uint stakeRate = totalStakeInVisionVault / mintedVision;\n        uint stakeToReturn = stakeRate * visionToBurn;\n        mintedVision -= visionToBurn;\n        totalStakeInVisionVault -= stakeToReturn;\n        require(totalStakeInVisionVault > 1, \"Total Stake In Vision Vault must be greater than 1.\");\n        require(mintedVision > 1, \"Minted Vision must be greater than 1.\");\n        vision.burn(msg.sender, visionToBurn);\n        stakeToken.transfer(msg.sender, stakeToReturn);\n        emit VisionBurned(visionToBurn, stakeToReturn, msg.sender);\n    }\n\n    /// @notice return details of the newly created reality market.\n    event RealityMarketCreated(uint index, uint yesIndex, uint noIndex, uint invalidIndex, uint stake);\n\n    /// @notice Creates a new RealityMarket instance.\n    /// @param question Market question.\n    /// @param endTime Time to end market.\n    /// @param invalidStake Vision stake to place on market\n    /// @dev Invariant - A Reality Market's endTime should not be before the current block.\n    /// @dev Event - Emits RealityMarketCreated with the market's index and Foresight set.\n    function createRealityMarket(\n        string memory question,\n        uint endTime,\n        uint invalidStake\n    ) public nonReentrant {\n        require(block.timestamp < endTime, \"Market end time cannot be in the past.\");\n        uint index = realityMarketCounts + 1;\n        realityMarketCounts += 1;\n        uint totalTokens = foresightTokens.totalTokensMinted();\n        uint invalidIndex = totalTokens + 1;\n        uint noIndex = totalTokens + 2;\n        uint yesIndex = totalTokens + 3;\n        realityMarketRegistry[index].id = index;\n        realityMarketRegistry[index].finalized = false;\n        realityMarketRegistry[index].endTime = endTime;\n        realityMarketRegistry[index].question = question;\n        realityMarketRegistry[index].tokenIndex = foresightTokens.registerNewSet();\n        vision.transferFrom(msg.sender, address(this), invalidStake);\n        RealityMarketCreated(index, yesIndex, noIndex, invalidIndex, invalidStake);\n    }\n\n    /// @notice Event capturing minted foresight, stake, and address.\n    event ForesightMinted(uint marketIndex, uint outcome, uint foresight, uint stake, address addr);\n\n    /// @notice Event capturing minted foresight, stake, and address.\n    event Info(uint data);\n\n    /// @notice Buys a position in a reality market.\n    /// @dev For a given starting token index n, n = Invalid, n+1 = No, n+2 = Yes.\n    /// @param index Market index to buy the position in.\n    /// @param outcome Token index of the outcome to buy into.\n    /// @param amount Amount of Vision to stake on the outcome.\n    function buyPosition(uint index, uint outcome, uint amount) public nonReentrant {\n        bool selected = false;\n        require(amount > 0, \"Amount to mint should be greater than 0.\");\n        if (outcome == realityMarketRegistry[index].tokenIndex) {\n            selected = true;\n        }\n        if (outcome == realityMarketRegistry[index].tokenIndex + 1) {\n            selected = true;\n        }\n        if (outcome == realityMarketRegistry[index].tokenIndex + 2) {\n            selected = true;\n        }\n        require(selected, \"Market outcome selection does not match market index outcomes.\");\n        uint minted = realityMarketRegistry[index].totalMinted[outcome] + 1;\n        uint staked = realityMarketRegistry[index].totalStaked[outcome] + 1;\n        uint foresightAmount = calculatePurchaseReturn(minted, staked, RESERVE_RATIO, amount);\n        require(foresightAmount > 0, \"Returned foresight should be greater than 0.\");\n        realityMarketRegistry[index].totalStaked[outcome] += amount;\n        realityMarketRegistry[index].totalStakedByAddress[outcome][msg.sender] += amount;\n        realityMarketRegistry[index].totalMinted[outcome] += foresightAmount;\n        foresightTokens.mint(msg.sender, outcome, foresightAmount);\n        vision.transferFrom(msg.sender, address(this), amount);\n        emit ForesightMinted(index, outcome, foresightAmount, amount, msg.sender);\n    }\n\n    /// @notice Event to finalize a market.\n    event RealityMarketFinalized(uint index, uint winningOutcome);\n\n    /// @notice Finalize a market and update the Vision vault with the correct losing stake.\n    /// @param index Market index to finalize.\n    /// @dev For a given starting token index n, n = Invalid, n+1 = No, n+2 = Yes.\n    /// @dev Invariant - Should not work if current block time is less than market end time.\n    /// @dev Invariant - Should not reduce the price of Vision.\n    /// @dev Invariant - Should not be able to finalize twice.\n    /// @dev Invariant - Should only be able to finalize if the market is not finalized.\n    /// @dev Event - Emits finalizedMarket event\n    function finalizeMarket(uint index) public nonReentrant {\n        RealityMarket storage market = realityMarketRegistry[index];\n        require(block.timestamp > market.endTime, \"Market has not reached End Time.\");\n        require(!market.finalized, \"Market already finalized.\");\n        uint yes = realityMarketRegistry[index].tokenIndex + 2;\n        uint no = realityMarketRegistry[index].tokenIndex + 1;\n        uint invalid = realityMarketRegistry[index].tokenIndex;\n        uint winningOutcome = realityMarketRegistry[index].tokenIndex;\n        if (market.totalMinted[yes] > market.totalMinted[no] && market.totalMinted[yes] > market.totalMinted[invalid]) {\n            winningOutcome = yes;\n        }\n        if (market.totalMinted[no] > market.totalMinted[yes] && market.totalMinted[no] > market.totalMinted[invalid]) {\n            winningOutcome = no;\n        }\n        market.finalized = true;\n        market.winningOutcome = winningOutcome;\n        RealityMarketFinalized(index, winningOutcome);\n    }\n\n    /// @notice Event to convert foresight into vision.\n    event ForesightBurned(uint marketIndex, uint foresightId, uint foresightAmount, uint visionOwed, address addr);\n\n    /// @notice Withdraw the senders user stake using the specified foresightToken id.\n    /// @param index Market index.\n    /// @param foresightId Id of the given foresight.\n    /// @dev Invariant - Users should not be able to withdraw from a market that is not finalized.\n    /// @dev Invariant - Users should not be able to withdraw using Foresight that is not reified.\n    /// @dev Invariant - User should have stake in the winning outcome to withdraw.\n    function withdrawWinningStake(uint index, uint foresightId) public nonReentrant {\n        RealityMarket storage market = realityMarketRegistry[index];\n        require(market.finalized, \"Market not finalized.\");\n        require(foresightId == market.winningOutcome, \"Selected token is not redeemable.\");\n        uint userStake = realityMarketRegistry[index].totalStakedByAddress[market.winningOutcome][msg.sender];\n        require(userStake > 0, \"User has no stake in the winning outcome.\");\n        /// @notice Total vision lost.\n        uint totalLost;\n        /// @notice User's total owned foresight.\n        uint tokensOwned = foresightTokens.balanceOf(msg.sender, foresightId);\n        uint yes = realityMarketRegistry[index].tokenIndex + 2;\n        uint no = realityMarketRegistry[index].tokenIndex + 1;\n        uint invalid = realityMarketRegistry[index].tokenIndex;\n        // Invalid\n        if (market.winningOutcome == invalid) {\n            totalLost = market.totalStaked[no] + market.totalStaked[yes];\n        }\n        // No\n        if (market.winningOutcome == no) {\n            totalLost = market.totalStaked[invalid] + market.totalStaked[yes];\n        }\n        // Yes\n        if (market.winningOutcome == yes) {\n            totalLost = market.totalStaked[no] + market.totalStaked[invalid];\n        }\n        /// @notice User's computed percent of total winning tokens.\n        uint percentWon = tokensOwned / market.totalMinted[market.winningOutcome];\n        /// @notice User wins back stake + computed percent of the prize pool.\n        uint owedVision = userStake + (percentWon * totalLost);\n        realityMarketRegistry[index].totalStakedByAddress[market.winningOutcome][msg.sender] = 0;\n        foresightTokens.burn(msg.sender, foresightId, tokensOwned);\n        vision.transfer(address(this), owedVision);\n        emit ForesightBurned(index, foresightId, tokensOwned, owedVision, msg.sender);\n    }\n}\n",
  "sourcePath": "contracts/Monitor.sol",
  "abi": [
    {
      "inputs": [
        {
          "internalType": "address",
          "name": "_stakeToken",
          "type": "address"
        }
      ],
      "stateMutability": "nonpayable",
      "type": "constructor"
    },
    {
      "anonymous": false,
      "inputs": [
        {
          "indexed": false,
          "internalType": "uint256",
          "name": "marketIndex",
          "type": "uint256"
        },
        {
          "indexed": false,
          "internalType": "uint256",
          "name": "foresightId",
          "type": "uint256"
        },
        {
          "indexed": false,
          "internalType": "uint256",
          "name": "foresightAmount",
          "type": "uint256"
        },
        {
          "indexed": false,
          "internalType": "uint256",
          "name": "visionOwed",
          "type": "uint256"
        },
        {
          "indexed": false,
          "internalType": "address",
          "name": "addr",
          "type": "address"
        }
      ],
      "name": "ForesightBurned",
      "type": "event"
    },
    {
      "anonymous": false,
      "inputs": [
        {
          "indexed": false,
          "internalType": "uint256",
          "name": "marketIndex",
          "type": "uint256"
        },
        {
          "indexed": false,
          "internalType": "uint256",
          "name": "outcome",
          "type": "uint256"
        },
        {
          "indexed": false,
          "internalType": "uint256",
          "name": "foresight",
          "type": "uint256"
        },
        {
          "indexed": false,
          "internalType": "uint256",
          "name": "stake",
          "type": "uint256"
        },
        {
          "indexed": false,
          "internalType": "address",
          "name": "addr",
          "type": "address"
        }
      ],
      "name": "ForesightMinted",
      "type": "event"
    },
    {
      "anonymous": false,
      "inputs": [
        {
          "indexed": false,
          "internalType": "uint256",
          "name": "data",
          "type": "uint256"
        }
      ],
      "name": "Info",
      "type": "event"
    },
    {
      "anonymous": false,
      "inputs": [
        {
          "indexed": false,
          "internalType": "uint256",
          "name": "index",
          "type": "uint256"
        },
        {
          "indexed": false,
          "internalType": "uint256",
          "name": "yesIndex",
          "type": "uint256"
        },
        {
          "indexed": false,
          "internalType": "uint256",
          "name": "noIndex",
          "type": "uint256"
        },
        {
          "indexed": false,
          "internalType": "uint256",
          "name": "invalidIndex",
          "type": "uint256"
        },
        {
          "indexed": false,
          "internalType": "uint256",
          "name": "stake",
          "type": "uint256"
        }
      ],
      "name": "RealityMarketCreated",
      "type": "event"
    },
    {
      "anonymous": false,
      "inputs": [
        {
          "indexed": false,
          "internalType": "uint256",
          "name": "index",
          "type": "uint256"
        },
        {
          "indexed": false,
          "internalType": "uint256",
          "name": "winningOutcome",
          "type": "uint256"
        }
      ],
      "name": "RealityMarketFinalized",
      "type": "event"
    },
    {
      "anonymous": false,
      "inputs": [
        {
          "indexed": false,
          "internalType": "uint256",
          "name": "burned",
          "type": "uint256"
        },
        {
          "indexed": false,
          "internalType": "uint256",
          "name": "cost",
          "type": "uint256"
        },
        {
          "indexed": false,
          "internalType": "address",
          "name": "addr",
          "type": "address"
        }
      ],
      "name": "VisionBurned",
      "type": "event"
    },
    {
      "anonymous": false,
      "inputs": [
        {
          "indexed": false,
          "internalType": "uint256",
          "name": "minted",
          "type": "uint256"
        },
        {
          "indexed": false,
          "internalType": "uint256",
          "name": "cost",
          "type": "uint256"
        },
        {
          "indexed": false,
          "internalType": "address",
          "name": "addr",
          "type": "address"
        }
      ],
      "name": "VisionMinted",
      "type": "event"
    },
    {
      "inputs": [],
      "name": "RESERVE_RATIO",
      "outputs": [
        {
          "internalType": "uint32",
          "name": "",
          "type": "uint32"
        }
      ],
      "stateMutability": "view",
      "type": "function"
    },
    {
      "inputs": [
        {
          "internalType": "uint256",
          "name": "visionToBurn",
          "type": "uint256"
        }
      ],
      "name": "burnVision",
      "outputs": [],
      "stateMutability": "nonpayable",
      "type": "function"
    },
    {
      "inputs": [
        {
          "internalType": "uint256",
          "name": "index",
          "type": "uint256"
        },
        {
          "internalType": "uint256",
          "name": "outcome",
          "type": "uint256"
        },
        {
          "internalType": "uint256",
          "name": "amount",
          "type": "uint256"
        }
      ],
      "name": "buyPosition",
      "outputs": [],
      "stateMutability": "nonpayable",
      "type": "function"
    },
    {
      "inputs": [
        {
          "internalType": "uint256",
          "name": "_supply",
          "type": "uint256"
        },
        {
          "internalType": "uint256",
          "name": "_reserveBalance",
          "type": "uint256"
        },
        {
          "internalType": "uint32",
          "name": "_reserveRatio",
          "type": "uint32"
        },
        {
          "internalType": "uint256",
          "name": "_depositAmount",
          "type": "uint256"
        }
      ],
      "name": "calculatePurchaseReturn",
      "outputs": [
        {
          "internalType": "uint256",
          "name": "",
          "type": "uint256"
        }
      ],
      "stateMutability": "view",
      "type": "function"
    },
    {
      "inputs": [
        {
          "internalType": "uint256",
          "name": "_supply",
          "type": "uint256"
        },
        {
          "internalType": "uint256",
          "name": "_reserveBalance",
          "type": "uint256"
        },
        {
          "internalType": "uint32",
          "name": "_reserveRatio",
          "type": "uint32"
        },
        {
          "internalType": "uint256",
          "name": "_sellAmount",
          "type": "uint256"
        }
      ],
      "name": "calculateSaleReturn",
      "outputs": [
        {
          "internalType": "uint256",
          "name": "",
          "type": "uint256"
        }
      ],
      "stateMutability": "view",
      "type": "function"
    },
    {
      "inputs": [
        {
          "internalType": "string",
          "name": "question",
          "type": "string"
        },
        {
          "internalType": "uint256",
          "name": "endTime",
          "type": "uint256"
        },
        {
          "internalType": "uint256",
          "name": "invalidStake",
          "type": "uint256"
        }
      ],
      "name": "createRealityMarket",
      "outputs": [],
      "stateMutability": "nonpayable",
      "type": "function"
    },
    {
      "inputs": [
        {
          "internalType": "uint256",
          "name": "index",
          "type": "uint256"
        }
      ],
      "name": "finalizeMarket",
      "outputs": [],
      "stateMutability": "nonpayable",
      "type": "function"
    },
    {
      "inputs": [],
      "name": "foresightTokens",
      "outputs": [
        {
          "internalType": "contract ForesightTokens",
          "name": "",
          "type": "address"
        }
      ],
      "stateMutability": "view",
      "type": "function"
    },
    {
      "inputs": [],
      "name": "initialize",
      "outputs": [],
      "stateMutability": "nonpayable",
      "type": "function"
    },
    {
      "inputs": [],
      "name": "initialized",
      "outputs": [
        {
          "internalType": "bool",
          "name": "",
          "type": "bool"
        }
      ],
      "stateMutability": "view",
      "type": "function"
    },
    {
      "inputs": [
        {
          "internalType": "uint256",
          "name": "amountDeposited",
          "type": "uint256"
        }
      ],
      "name": "mintVision",
      "outputs": [],
      "stateMutability": "nonpayable",
      "type": "function"
    },
    {
      "inputs": [],
      "name": "mintedVision",
      "outputs": [
        {
          "internalType": "uint256",
          "name": "",
          "type": "uint256"
        }
      ],
      "stateMutability": "view",
      "type": "function"
    },
    {
      "inputs": [],
      "name": "realityMarketCounts",
      "outputs": [
        {
          "internalType": "uint256",
          "name": "",
          "type": "uint256"
        }
      ],
      "stateMutability": "view",
      "type": "function"
    },
    {
      "inputs": [
        {
          "internalType": "uint256",
          "name": "",
          "type": "uint256"
        }
      ],
      "name": "realityMarketRegistry",
      "outputs": [
        {
          "internalType": "uint256",
          "name": "id",
          "type": "uint256"
        },
        {
          "internalType": "bool",
          "name": "finalized",
          "type": "bool"
        },
        {
          "internalType": "uint256",
          "name": "winningOutcome",
          "type": "uint256"
        },
        {
          "internalType": "uint256",
          "name": "endTime",
          "type": "uint256"
        },
        {
          "internalType": "string",
          "name": "question",
          "type": "string"
        },
        {
          "internalType": "uint256",
          "name": "tokenIndex",
          "type": "uint256"
        },
        {
          "internalType": "uint256",
          "name": "invalidStake",
          "type": "uint256"
        }
      ],
      "stateMutability": "view",
      "type": "function"
    },
    {
      "inputs": [],
      "name": "stakeToken",
      "outputs": [
        {
          "internalType": "contract IERC20",
          "name": "",
          "type": "address"
        }
      ],
      "stateMutability": "view",
      "type": "function"
    },
    {
      "inputs": [],
      "name": "totalStakeInVisionVault",
      "outputs": [
        {
          "internalType": "uint256",
          "name": "",
          "type": "uint256"
        }
      ],
      "stateMutability": "view",
      "type": "function"
    },
    {
      "inputs": [],
      "name": "version",
      "outputs": [
        {
          "internalType": "string",
          "name": "",
          "type": "string"
        }
      ],
      "stateMutability": "view",
      "type": "function"
    },
    {
      "inputs": [],
      "name": "vision",
      "outputs": [
        {
          "internalType": "contract Vision",
          "name": "",
          "type": "address"
        }
      ],
      "stateMutability": "view",
      "type": "function"
    },
    {
      "inputs": [
        {
          "internalType": "uint256",
          "name": "index",
          "type": "uint256"
        },
        {
          "internalType": "uint256",
          "name": "foresightId",
          "type": "uint256"
        }
      ],
      "name": "withdrawWinningStake",
      "outputs": [],
      "stateMutability": "nonpayable",
      "type": "function"
    }
  ],
  "bytecode": "0x60c0604052600360808190527f302e33000000000000000000000000000000000000000000000000000000000060a0908152620000409160019190620007e2565b506082805460ff191690556001608381905560845560006087553480156200006757600080fd5b506040516200804c3803806200804c833981810160405260208110156200008d57600080fd5b505160016000556001641c35fedd1560601b036022556001646c3390ecc9605e1b036023556001640cf801476160611b0360245560016431bdb23e1d605f1b0360255560016502fb1d8fe083605b1b0360265560016505b771955b37605a1b036027556001650af67a93bb5160591b0360285560016515060c256cb360581b036029556001651428a2f98d7360581b03602a556001654d515663970960561b03602b55600165944620b0e70f60551b03602c55600166011c592761c66760541b03602d5560016602214d10d014eb60531b03602e55600166020ade36b7dbef60531b03602f5560016603eab73b3bbfe360521b036030556001660782ee3593f6d760511b036031556001661ccf4b44bb4821604f1b0360325560016606e7f88ad8a77760511b0360335560016669f3d1c921891d604d1b03603455600166cb2ff529eb71e5604c1b03603555600166c2d415c3db974b604c1b0360365560016702eb40f9f620fda7604a1b0360375560016705990681d961a1eb60491b03603855600167055e12902701414760491b0360395560016714962dee9dc9764160471b03603a5560016704ef57b9b560fab560491b03603b5560016712ed7b32a58f552b60471b03603c556001679131271922eaa60760441b03603d556001678b380f3558668c4760441b03603e556001680215f77c045fbe885760421b03603f556001600160831b036040556001670f577eded5773a1160471b036041556001680eb5ec597592befbf5603f1b036042556001681c35fedd14b861eb05603e1b036043556001683619c87664579bc94b603d1b0360445560016867c00a3b07ffc01fd7603c1b03604555600168c6f6c8f8739773a7a5603b1b03604655600168bec763f8209b7a72b1603b1b0360475560016902dbb8caad9b7097b91b60391b03604855600169057b3d49dda84556d6f760381b03604955600169054183095b2c8ececf3160381b03604a556001690a14517cc6b9457111ef60371b03604b5560016913545598e5c23276ccf160361b03604c556001692511882c39c3adea96ff60351b03604d55600169471649d87199aa99075760341b03604e557004429a21a029d4c1457cfbffffffffffff604f55700415bc6d6fb7dd71af2cb3ffffffffffff6050557003eab73b3bbfe282243ce1ffffffffffff6051557003c1771ac9fb6b4c18e229ffffffffffff605255700399e96897690418f785257fffffffffff605355700373fc456c53bb779bf0ea9fffffffffff60545570034f9e8e490c48e67e6ab8bfffffffffff60555570032cbfd4a7adc790560b3337ffffffffff60565570030b50570f6e5d2acca94613ffffffffff6057557002eb40f9f620fda6b56c2861ffffffffff6058557002cc8340ecb0d0f520a6af58ffffffffff6059557002af09481380a0a35cf1ba02ffffffffff605a55700292c5bdd3b92ec810287b1b3fffffffff605b55700277abdcdab07d5a77ac6d6b9fffffffff605c5570025daf6654b1eaa55fd64df5efffffffff605d55700244c49c648baa98192dce88b7ffffffff605e5570022ce03cd5619a311b2471268bffffffff605f55700215f77c045fbe885654a44a0fffffffff6060556001600160811b036061557001eaefdbdaaee7421fc4d3ede5ffffffff6062557001d6bd8b2eb257df7e8ca57b09bfffffff6063557001c35fedd14b861eb0443f7f133fffffff6064557001b0ce43b322bcde4a56e8ada5afffffff60655570019f0028ec1fff007f5a195a39dfffffff60665570018ded91f0e72ee74f49b15ba527ffffff60675570017d8ec7f04136f4e5615fd41a63ffffff60685570016ddc6556cdb84bdc8d12d22e6fffffff60695570015ecf52776a1155b5bd8395814f7fffff606a5570015060c256cb23b3b3cc3754cf40ffffff606b557001428a2f98d728ae223ddab715be3fffff606c5570013545598e5c23276ccf0ede68034fffff606d557001288c4161ce1d6f54b7f61081194fffff606e5570011c592761c666aa641d5a01a40f17ffff606f55700110a688680a7530515f3e6e6cfdcdffff6070557001056f1b5bedf75c6bcb2ce8aed428ffff6071556ffaadceceeff8a0890f3875f008277fff6072556ff05dc6b27edad306388a600f6ba0bfff6073556fe67a5a25da41063de1495d5b18cdbfff6074556fdcff115b14eedde6fc3aa5353f2e4fff6075556fd3e7a3924312399f9aae2e0f868f8fff6076556fcb2ff529eb71e41582cccd5a1ee26fff6077556fc2d415c3db974ab32a51840c0b67edff6078556fbad03e7d883f69ad5b0a186184e06bff6079556fb320d03b2c343d4829abd6075f0cc5ff607a556fabc25204e02828d73c6e80bcdb1a95bf607b556fa4b16f74ee4bb2040a1ec6c15fbbf2df607c556f9deaf736ac1f569deb1b5ae3f36c130f607d556f976bd9952c7aa957f5937d790ef65037607e556f9131271922eaa6064b73a22d0bd4f2bf607f556f8b380f3558668c46c91c49a2f8e967b96080556f857ddf0117efa215952912839f6473e6608155608580546001600160a01b0319166001600160a01b039092169190911790556200087e565b828054600181600116156101000203166002900490600052602060002090601f016020900481019282601f106200082557805160ff191683800117855562000855565b8280016001018555821562000855579182015b828111156200085557825182559160200191906001019062000838565b506200086392915062000867565b5090565b5b8082111562000863576000815560010162000868565b6177be806200088e6000396000f3fe60806040523480156200001157600080fd5b5060043610620001065760003560e01c806307062cf2146200010b57806307fac3ae14620001315780630fd6f0c8146200014d578063158ef93e146200016f57806329a00e7c146200018d5780632e3a875114620001c55780633770592e14620001f157806340f30f4a146200021757806349232b85146200022157806349f9b0f7146200022b57806351ed6a30146200026357806354fd4d50146200026d57806373dd289d14620002ef5780638129fc1c146200030f5780638570ce771462000319578063c9d2d5de14620003c8578063d93da94f14620003e8578063e37dbfd914620004af578063f3a2b4bc14620004d2575b600080fd5b62000115620004dc565b604080516001600160a01b039092168252519081900360200190f35b6200013b620004f0565b60408051918252519081900360200190f35b6200016d600480360360208110156200016557600080fd5b5035620004f6565b005b6200017962000731565b604080519115158252519081900360200190f35b6200013b60048036036080811015620001a557600080fd5b5080359060208101359063ffffffff60408201351690606001356200073a565b6200016d60048036036060811015620001dd57600080fd5b50803590602081013590604001356200080e565b6200016d600480360360408110156200020957600080fd5b508035906020013562000b66565b6200013b62000f8a565b6200013b62000f90565b6200013b600480360360808110156200024357600080fd5b5080359060208101359063ffffffff604082013516906060013562000f96565b620001156200107d565b620002776200108c565b6040805160208082528351818301528351919283929083019185019080838360005b83811015620002b357818101518382015260200162000299565b50505050905090810190601f168015620002e15780820380516001836020036101000a031916815260200191505b509250505060405180910390f35b6200016d600480360360208110156200030757600080fd5b50356200111d565b6200016d62001319565b6200016d600480360360608110156200033157600080fd5b810190602081018135600160201b8111156200034c57600080fd5b8201836020820111156200035f57600080fd5b803590602001918460018302840111600160201b831117156200038157600080fd5b91908080601f01602080910402602001604051908101604052809392919081815260200183838082843760009201919091525092955050823593505050602001356200140a565b6200016d60048036036020811015620003e057600080fd5b5035620016e2565b62000408600480360360208110156200040057600080fd5b5035620018f5565b60405180888152602001871515815260200186815260200185815260200180602001848152602001838152602001828103825285818151815260200191508051906020019080838360005b838110156200046d57818101518382015260200162000453565b50505050905090810190601f1680156200049b5780820380516001836020036101000a031916815260200191505b509850505050505050505060405180910390f35b620004b9620019c1565b6040805163ffffffff9092168252519081900360200190f35b62000115620019c8565b60825461010090046001600160a01b031681565b60875481565b600260005414156200053e576040805162461bcd60e51b815260206004820152601f6024820152600080516020620075a0833981519152604482015290519081900360640190fd5b60026000908155608354608454816200055357fe5b608380548590039055608480549290910484810292839003918290559250600110620005b15760405162461bcd60e51b8152600401808060200182810382526033815260200180620077316033913960400191505060405180910390fd5b600160835411620005f45760405162461bcd60e51b8152600401808060200182810382526025815260200180620077646025913960400191505060405180910390fd5b60825460408051632770a7eb60e21b81523360048201526024810186905290516101009092046001600160a01b031691639dc29fac9160448082019260009290919082900301818387803b1580156200064c57600080fd5b505af115801562000661573d6000803e3d6000fd5b50506085546040805163a9059cbb60e01b81523360048201526024810186905290516001600160a01b03909216935063a9059cbb92506044808201926020929091908290030181600087803b158015620006ba57600080fd5b505af1158015620006cf573d6000803e3d6000fd5b505050506040513d6020811015620006e657600080fd5b50506040805184815260208101839052338183015290517fdb189cae9939ae9577cd7993487757e01fa75f03849f228d761de234fb5a9ed79181900360600190a15050600160005550565b60825460ff1681565b600080851180156200074c5750600084115b80156200075f575060008363ffffffff16115b8015620007755750620f424063ffffffff841611155b6200077f57600080fd5b816200078e5750600062000806565b63ffffffff8316620f42401415620007c057620007b884620007b18785620019d7565b9062001a3e565b905062000806565b60008080620007d0858862001a7f565b9050620007e3818888620f424062001ad8565b9093509150600060ff8316620007fa8a86620019d7565b901c8990039450505050505b949350505050565b6002600054141562000856576040805162461bcd60e51b815260206004820152601f6024820152600080516020620075a0833981519152604482015290519081900360640190fd5b60026000908155816200089b5760405162461bcd60e51b8152600401808060200182810382526028815260200180620076786028913960400191505060405180910390fd5b600084815260886020526040902060050154831415620008b9575060015b600084815260886020526040902060050154600101831415620008da575060015b600084815260886020526040902060050154600201831415620008fb575060015b80620009395760405162461bcd60e51b815260040180806020018281038252603e815260200180620075ec603e913960400191505060405180910390fd5b60008481526088602090815260408083208684526006810183528184205460079091019092528220546001918201929101906200097c838362895440886200073a565b905060008111620009bf5760405162461bcd60e51b815260040180806020018281038252602c815260200180620075c0602c913960400191505060405180910390fd5b600087815260886020908152604080832089845260078101835281842080548a0190556008810183528184203380865290845282852080548b0190558a855260069091019092528083208054850190556086548151630ab714fb60e11b81526004810193909352602483018a90526044830185905290516001600160a01b039091169263156e29f6926064808201939182900301818387803b15801562000a6557600080fd5b505af115801562000a7a573d6000803e3d6000fd5b5050608254604080516323b872dd60e01b8152336004820152306024820152604481018a905290516101009092046001600160a01b031693506323b872dd92506064808201926020929091908290030181600087803b15801562000add57600080fd5b505af115801562000af2573d6000803e3d6000fd5b505050506040513d602081101562000b0957600080fd5b505060408051888152602081018890528082018390526060810187905233608082015290517f848dc3e6ee3c6e2b1648a7813a699a4753e74fa3a041f739816572d69a0c7ff09181900360a00190a1505060016000555050505050565b6002600054141562000bae576040805162461bcd60e51b815260206004820152601f6024820152600080516020620075a0833981519152604482015290519081900360640190fd5b60026000908155828152608860205260409020600181015460ff1662000c13576040805162461bcd60e51b815260206004820152601560248201527426b0b935b2ba103737ba103334b730b634bd32b21760591b604482015290519081900360640190fd5b8060020154821462000c575760405162461bcd60e51b8152600401808060200182810382526021815260200180620076ea6021913960400191505060405180910390fd5b60008381526088602090815260408083206002850154845260080182528083203384529091529020548062000cbe5760405162461bcd60e51b8152600401808060200182810382526029815260200180620076a06029913960400191505060405180910390fd5b60865460408051627eeac760e11b815233600482015260248101869052905160009283926001600160a01b039091169162fdd58e91604480820192602092909190829003018186803b15801562000d1457600080fd5b505afa15801562000d29573d6000803e3d6000fd5b505050506040513d602081101562000d4057600080fd5b505160008781526088602052604090206005015460028681015492935081019160018201919081141562000d8a576000838152600788016020526040808220548483529120540194505b818760020154141562000db3576000838152600788016020526040808220548383529120540194505b828760020154141562000ddc576000818152600788016020526040808220548483529120540194505b60028701546000908152600688016020526040812054858162000dfb57fe5b60008c815260886020908152604080832060028e0154845260080182528083203380855292528083208390556086548151637a94c56560e11b81526004810193909352602483018f9052604483018b905290519490930494508985028b01936001600160a01b039093169263f5298aca9260648084019391929182900301818387803b15801562000e8b57600080fd5b505af115801562000ea0573d6000803e3d6000fd5b50506082546040805163a9059cbb60e01b81523060048201526024810186905290516101009092046001600160a01b0316935063a9059cbb92506044808201926020929091908290030181600087803b15801562000efd57600080fd5b505af115801562000f12573d6000803e3d6000fd5b505050506040513d602081101562000f2957600080fd5b5050604080518c8152602081018c90528082018890526060810183905233608082015290517f4227c3cc576e8e2393409ebc1c956b9d14a76d89f319d3bc44ec269034170ad69181900360a00190a150506001600055505050505050505050565b60845481565b60835481565b6000808511801562000fa85750600084115b801562000fbb575060008363ffffffff16115b801562000fd15750620f424063ffffffff841611155b801562000fde5750848211155b62000fe857600080fd5b8162000ff75750600062000806565b848214156200100857508262000806565b63ffffffff8316620f424014156200102b57620007b885620007b18685620019d7565b600080838703620010428882620f42408962001ad8565b90935091506000620010558885620019d7565b905060ff831688901b6200106f85620007b1848462001c54565b9a9950505050505050505050565b6085546001600160a01b031681565b60018054604080516020600284861615610100026000190190941693909304601f81018490048402820184019092528181529291830182828015620011155780601f10620010e95761010080835404028352916020019162001115565b820191906000526020600020905b815481529060010190602001808311620010f757829003601f168201915b505050505081565b6002600054141562001165576040805162461bcd60e51b815260206004820152601f6024820152600080516020620075a0833981519152604482015290519081900360640190fd5b6002600055608454620011aa5760405162461bcd60e51b81526004018080602001828103825260288152602001806200762a6028913960400191505060405180910390fd5b600060845460835481620011ba57fe5b60838054929091048481029283019091556084805485019055608254604080516340c10f1960e01b81523360048201526024810185905290519294506101009091046001600160a01b0316916340c10f199160448082019260009290919082900301818387803b1580156200122e57600080fd5b505af115801562001243573d6000803e3d6000fd5b5050608554604080516323b872dd60e01b81523360048201523060248201526044810188905290516001600160a01b0390921693506323b872dd92506064808201926020929091908290030181600087803b158015620012a257600080fd5b505af1158015620012b7573d6000803e3d6000fd5b505050506040513d6020811015620012ce57600080fd5b50506040805182815260208101859052338183015290517fdab62f63027fc0b88347694d531be13a27ebf5a7fec53f8248e829e157f162ff9181900360600190a15050600160005550565b60825460ff16156200135d5760405162461bcd60e51b8152600401808060200182810382526026815260200180620076526026913960400191505060405180910390fd5b6082805460ff19166001179055604051620013789062002a9b565b604051809103906000f08015801562001395573d6000803e3d6000fd5b50608260016101000a8154816001600160a01b0302191690836001600160a01b03160217905550604051620013ca9062002aa9565b604051809103906000f080158015620013e7573d6000803e3d6000fd5b50608680546001600160a01b0319166001600160a01b0392909216919091179055565b6002600054141562001452576040805162461bcd60e51b815260206004820152601f6024820152600080516020620075a0833981519152604482015290519081900360640190fd5b6002600055428211620014975760405162461bcd60e51b81526004018080602001828103825260268152602001806200770b6026913960400191505060405180910390fd5b608780546001019081905560865460408051637d549e9960e01b815290516000926001600160a01b031691637d549e99916004808301926020929190829003018186803b158015620014e857600080fd5b505afa158015620014fd573d6000803e3d6000fd5b505050506040513d60208110156200151457600080fd5b505160008381526088602090815260409091208481556001818101805460ff1916905560038281018990558951949550908501936002860193918601926200156692600490910191908b019062002ab7565b50608660009054906101000a90046001600160a01b03166001600160a01b0316635d2585a56040518163ffffffff1660e01b8152600401602060405180830381600087803b158015620015b857600080fd5b505af1158015620015cd573d6000803e3d6000fd5b505050506040513d6020811015620015e457600080fd5b505160008681526088602090815260408083206005019390935560825483516323b872dd60e01b8152336004820152306024820152604481018b905293516101009091046001600160a01b0316936323b872dd9360648083019493928390030190829087803b1580156200165757600080fd5b505af11580156200166c573d6000803e3d6000fd5b505050506040513d60208110156200168357600080fd5b50506040805186815260208101839052808201849052606081018590526080810188905290517f423e9dbd8fc6d26f32588abe207ec38eba1eb72c68d4f43f4e889d0e37250fe79181900360a00190a150506001600055505050505050565b600260005414156200172a576040805162461bcd60e51b815260206004820152601f6024820152600080516020620075a0833981519152604482015290519081900360640190fd5b600260009081558181526088602052604090206003810154421162001796576040805162461bcd60e51b815260206004820181905260248201527f4d61726b657420686173206e6f74207265616368656420456e642054696d652e604482015290519081900360640190fd5b600181015460ff1615620017ed576040805162461bcd60e51b815260206004820152601960248201527826b0b935b2ba1030b63932b0b23c903334b730b634bd32b21760391b604482015290519081900360640190fd5b600082815260886020908152604080832060050154600181018085526006860190935281842054600282018086529290942054919390918291108015620018495750600082815260068601602052604080822054868352912054115b15620018525750825b6000848152600686016020526040808220548583529120541180156200188d5750600082815260068601602052604080822054858352912054115b15620018965750815b6001858101805460ff1916909117905560028501819055604080518781526020810183905281517f7f4869f28d2939b68770f0c14e454022dfa3ae244b7ae0200b511f4e50ff91ba929181900390910190a15050600160005550505050565b608860209081526000918252604091829020805460018083015460028085015460038601546004870180548a516101009782161597909702600019011693909304601f8101899004890286018901909952888552949760ff909316969095939290830182828015620019ab5780601f106200197f57610100808354040283529160200191620019ab565b820191906000526020600020905b8154815290600101906020018083116200198d57829003601f168201915b5050505050908060050154908060090154905087565b6289544081565b6086546001600160a01b031681565b600082620019e85750600062001a38565b82820282848281620019f657fe5b041462001a355760405162461bcd60e51b8152600401808060200182810382526021815260200180620076c96021913960400191505060405180910390fd5b90505b92915050565b600062001a3583836040518060400160405280601a815260200179536166654d6174683a206469766973696f6e206279207a65726f60301b81525062001c98565b60008282018381101562001a35576040805162461bcd60e51b815260206004820152601b60248201527a536166654d6174683a206164646974696f6e206f766572666c6f7760281b604482015290519081900360640190fd5b600080600160811b861062001b2f576040805162461bcd60e51b81526020600482015260186024820152773130b9b2a71032bc31b2b2b2399036b0bc103b30b63ab29760411b604482015290519081900360640190fd5b8486101562001b84576040805162461bcd60e51b815260206004820152601c60248201527b2130b9b2b9901e10189030b932903737ba1039bab83837b93a32b21760211b604482015290519081900360640190fd5b600080866001607f1b89028162001b9757fe5b04905070015bf0a8b1457695355fb8ac404e7a79e381101562001bc75762001bbf8162001d3f565b915062001bd5565b62001bd28162002138565b91505b60008563ffffffff168763ffffffff1684028162001bef57fe5b049050600160831b81101562001c195762001c0a81620021ef565b607f9450945050505062001c4b565b600062001c2682620025a0565b905062001c3d81607f0360ff1683901c826200263d565b9550935062001c4b92505050565b94509492505050565b600062001a3583836040518060400160405280601e81526020017f536166654d6174683a207375627472616374696f6e206f766572666c6f770000815250620029d3565b6000818362001d285760405162461bcd60e51b81526004018080602001828103825283818151815260200191508051906020019080838360005b8381101562001cec57818101518382015260200162001cd2565b50505050905090810190601f16801562001d1a5780820380516001836020036101000a031916815260200191505b509250505060405180910390fd5b50600083858162001d3557fe5b0495945050505050565b6000808080806fd3094c70f034de4b96ff7d5b6f99fcd8861062001d8a576001607e1b840193506fd3094c70f034de4b96ff7d5b6f99fcd86001607f1b87028162001d8657fe5b0495505b6fa45af1e1f40c333b3de1db4dd55f29a7861062001dcf576001607d1b840193506fa45af1e1f40c333b3de1db4dd55f29a76001607f1b87028162001dcb57fe5b0495505b6f910b022db7ae67ce76b441c27035c6a1861062001e14576001607c1b840193506f910b022db7ae67ce76b441c27035c6a16001607f1b87028162001e1057fe5b0495505b6f88415abbe9a76bead8d00cf112e4d4a8861062001e59576001607b1b840193506f88415abbe9a76bead8d00cf112e4d4a86001607f1b87028162001e5557fe5b0495505b6f84102b00893f64c705e841d5d4064bd3861062001e9e576001607a1b840193506f84102b00893f64c705e841d5d4064bd36001607f1b87028162001e9a57fe5b0495505b6f8204055aaef1c8bd5c3259f4822735a2861062001ee357600160791b840193506f8204055aaef1c8bd5c3259f4822735a26001607f1b87028162001edf57fe5b0495505b6f810100ab00222d861931c15e39b44e99861062001f2857600160781b840193506f810100ab00222d861931c15e39b44e996001607f1b87028162001f2457fe5b0495505b6f808040155aabbbe9451521693554f733861062001f6d57600160771b840193506f808040155aabbbe9451521693554f7336001607f1b87028162001f6957fe5b0495505b60016001607f1b0319860192508291506001607f1b828002049050600160801b838103830204840193506001607f1b8183028162001fa757fe5b049150600160811b836faaaaaaaaaaaaaaaaaaaaaaaaaaaaaaaa0383028162001fcc57fe5b04840193506001607f1b8183028162001fe157fe5b049150600360801b836f99999999999999999999999999999999038302816200200657fe5b04840193506001607f1b818302816200201b57fe5b049150600160821b836f92492492492492492492492492492492038302816200204057fe5b04840193506001607f1b818302816200205557fe5b049150600560801b836f8e38e38e38e38e38e38e38e38e38e38e038302816200207a57fe5b04840193506001607f1b818302816200208f57fe5b049150600360811b836f8ba2e8ba2e8ba2e8ba2e8ba2e8ba2e8b03830281620020b457fe5b04840193506001607f1b81830281620020c957fe5b049150600760801b836f89d89d89d89d89d89d89d89d89d89d8903830281620020ee57fe5b04840193506001607f1b818302816200210357fe5b049150600160831b836f88888888888888888888888888888888038302816200212857fe5b049390930193505050505b919050565b60008082600160801b81106200216e5760006200215b6001607f1b830462002a30565b60ff166001607f1b810293509190911c90505b6001607f1b811115620021c257607f5b60ff811615620021c0576001607f1b828002049150600160801b8210620021b657600182901c91506001810360ff166001901b830192505b600019016200217e565b505b6f05b9de1d10bf4103d647b0955897ba806f03f80fe03f80fe03f80fe03f80fe03f8830204949350505050565b6000670168244fdac780006001607f1b60016001607c1b0384168080028290048082028390048083028490049485026710e1b3be415a00009092026705a0913f6b1e000091909102010192909181830204905080664807432bc1800002830192506001607f1b828202816200226057fe5b04905080660c0135dca0400002830192506001607f1b828202816200228157fe5b049050806601b707b1cdc00002830192506001607f1b82820281620022a257fe5b049050806536e0f639b80002830192506001607f1b82820281620022c257fe5b04905080650618fee9f80002830192506001607f1b82820281620022e257fe5b04905080649c197dcc0002830192506001607f1b828202816200230157fe5b04905080640e30dce40002830192506001607f1b828202816200232057fe5b0490508064012ebd130002830192506001607f1b828202816200233f57fe5b049050806317499f0002830192506001607f1b828202816200235d57fe5b049050806301a9d48002830192506001607f1b828202816200237b57fe5b04905080621c638002830192506001607f1b828202816200239857fe5b049050806201c63802830192506001607f1b82820281620023b557fe5b04905080611ab802830192506001607f1b82820281620023d157fe5b0490508061017c02830192506001607f1b82820281620023ed57fe5b04905080601402830192506001607f1b828202816200240857fe5b6721c3677c82b400009190049384010482016001607f1b019290506001607c1b8516156200245a5770018ebef9eac820ae8682b9793ac6d1e7767001c3d6a24ed82218787d624d3e5eba95f984020492505b6001607d1b85161562002491577001368b2fc6f9609fe7aceb46aa619baed470018ebef9eac820ae8682b9793ac6d1e77884020492505b6001607e1b851615620024c7576fbc5ab1b16779be3575bd8f0520a9f21f7001368b2fc6f9609fe7aceb46aa619baed584020492505b6001607f1b851615620024fc576f454aaa8efe072e7f6ddbab84b40a55c96fbc5ab1b16779be3575bd8f0520a9f21e84020492505b600160801b85161562002531576f0960aadc109e7a3bf4578099615711ea6f454aaa8efe072e7f6ddbab84b40a55c584020492505b600160811b85161562002565576e2bf84208204f5977f9a8cf01fdce3d6f0960aadc109e7a3bf4578099615711d784020492505b600160821b85161562002597576d03c6ab775dd0b95b4cbee7e65d116e2bf84208204f5977f9a8cf01fdc30784020492505b50909392505050565b60006020607f5b8060ff168260010160ff161015620025f4576000600260ff848401160490508460028260ff1660808110620025d857fe5b015410620025e957809250620025ed565b8091505b50620025a7565b8360028260ff16608081106200260657fe5b01541062002618579150620021339050565b8360028360ff16608081106200262a57fe5b0154106200263b5750905062002133565bfe5b60008083905060008360ff16858302901c9150816b0d10b13981d2a0bc5e5fdcab601e1b02810190508360ff16858302901c9150816b045ae5bdd5f0e03eca1ff439601e1b02810190508360ff16858302901c9150816e45ae5bdd5f0e03eca1ff439000000002810190508360ff16858302901c9150816adefabf91302cd95b9ffda5601c1b02810190508360ff16858302901c9150816a4a53953065644873dfff37601b1b02810190508360ff16858302901c9150816d54f1cf12bd04e516b6da8800000002810190508360ff16858302901c9150816d0a9e39e257a09ca2d6db5100000002810190508360ff16858302901c9150816d012e066e7b839fa050c30900000002810190508360ff16858302901c9150816c1e33d7d926c329a1ad1a80000002810190508360ff16858302901c9150816c02bee513bdb4a6b19b5f80000002810190508360ff16858302901c9150816b3a9316fa79b88eccf2a0000002810190508360ff16858302901c9150816b048177ebe1fa81237520000002810190508360ff16858302901c9150816a5263fe90242dcbacf0000002810190508360ff16858302901c9150816a057e22099c030d9410000002810190508360ff16858302901c9150816957e22099c030d941000002810190508360ff16858302901c91508169052b6b5456997631000002810190508360ff16858302901c915081684985f67696bf74800002810190508360ff16858302901c9150816803dea12ea99e49800002810190508360ff16858302901c9150816731880f2214b6e00002810190508360ff16858302901c91508167025bcff56eb3600002810190508360ff16858302901c915081661b722e10ab100002810190508360ff16858302901c9150816601317c7007700002810190508360ff16858302901c915081650cba84aafa0002810190508360ff16858302901c9150816482573a0a0002810190508360ff16858302901c9150816405035ad90002810190508360ff16858302901c915081632f881b0002810190508360ff16858302901c9150816301b2934002810190508360ff16858302901c915081620efc4002810190508360ff16858302901c915081617fe002810190508360ff16858302901c91508161042002810190508360ff16858302901c915081602102810190508360ff16858302901c915081600102810190508360ff166001901b856b0d10b13981d2a0bc5e5fdcab601f1b8381620029c757fe5b04010195945050505050565b6000818484111562002a285760405162461bcd60e51b815260206004820181815283516024840152835190928392604490910191908501908083836000831562001cec57818101518382015260200162001cd2565b505050900390565b6000808261010081101562002a5d575b600181111562002a57576001918201911c62002a40565b62002a94565b60805b60ff81161562002a9257600160ff82161b821062002a86579182179160ff81169190911c905b60011c607f1662002a60565b505b5092915050565b6129288062002b5483390190565b612124806200547c83390190565b828054600181600116156101000203166002900490600052602060002090601f016020900481019282601f1062002afa57805160ff191683800117855562002b2a565b8280016001018555821562002b2a579182015b8281111562002b2a57825182559160200191906001019062002b0d565b5062002b3892915062002b3c565b5090565b5b8082111562002b38576000815560010162002b3d56fe60806040523480156200001157600080fd5b50604080518082018252600681527f566973696f6e0000000000000000000000000000000000000000000000000000602080830191825283518085018552600381527f564953000000000000000000000000000000000000000000000000000000000081830152845160008152918201909452825192939290916200009a9160029190620002fd565b508151620000b0906003906020850190620002fd565b508051620000c690600490602084019062000382565b5060005b600454811015620001265760016005600060048481548110620000e957fe5b6000918252602080832091909101546001600160a01b031683528201929092526040019020805460ff1916911515919091179055600101620000ca565b50604080517f29965a1d00000000000000000000000000000000000000000000000000000000815230600482018190527fac7fbab5f54a3ca8194167523c6753bfeb96a445279294b6125b68cce2177054602483015260448201529051731820a4b7618bde71dce8cdc73aab6c95905fad24916329965a1d91606480830192600092919082900301818387803b158015620001c057600080fd5b505af1158015620001d5573d6000803e3d6000fd5b5050604080517f29965a1d00000000000000000000000000000000000000000000000000000000815230600482018190527faea199e31a596269b42cdafd93407f14436db6e4cad65417994c2eb37381e05a602483015260448201529051731820a4b7618bde71dce8cdc73aab6c95905fad2493506329965a1d9250606480830192600092919082900301818387803b1580156200027257600080fd5b505af115801562000287573d6000803e3d6000fd5b505050505050506000620002a0620002f960201b60201c565b600980546001600160a01b0319166001600160a01b038316908117909155604051919250906000907f8be0079c531659141344cd1fd0a4f28419497f9722a3daafe3b4186f6b6457e0908290a3506001600a5562000420565b3390565b828054600181600116156101000203166002900490600052602060002090601f016020900481019282601f106200034057805160ff191683800117855562000370565b8280016001018555821562000370579182015b828111156200037057825182559160200191906001019062000353565b506200037e929150620003e8565b5090565b828054828255906000526020600020908101928215620003da579160200282015b82811115620003da57825182546001600160a01b0319166001600160a01b03909116178255602090920191600190910190620003a3565b506200037e929150620003ff565b5b808211156200037e5760008155600101620003e9565b5b808211156200037e5780546001600160a01b031916815560010162000400565b6124f880620004306000396000f3fe608060405234801561001057600080fd5b506004361061011d5760003560e01c806306e485381461012257806306fdde031461017a578063095ea7b3146101f757806318160ddd1461023757806323b872dd14610251578063313ce5671461028757806340c10f19146102a5578063556f0dc7146102d357806362ad1b83146102db57806370a0823114610424578063715018a61461044a5780638da5cb5b14610452578063959b8c3f1461047657806395d89b411461049c5780639bd9bbc6146104a45780639dc29fac1461055d578063a9059cbb14610589578063d95b6371146105b5578063dd62ed3e146105e3578063f2fde38b14610611578063fad8b32a14610637578063fc673c4f1461065d578063fe9d93031461079b575b600080fd5b61012a610846565b60408051602080825283518183015283519192839290830191858101910280838360005b8381101561016657818101518382015260200161014e565b505050509050019250505060405180910390f35b6101826108a8565b6040805160208082528351818301528351919283929083019185019080838360005b838110156101bc5781810151838201526020016101a4565b50505050905090810190601f1680156101e95780820380516001836020036101000a031916815260200191505b509250505060405180910390f35b6102236004803603604081101561020d57600080fd5b506001600160a01b038135169060200135610932565b604080519115158252519081900360200190f35b61023f610954565b60408051918252519081900360200190f35b6102236004803603606081101561026757600080fd5b506001600160a01b0381358116916020810135909116906040013561095a565b61028f610ad7565b6040805160ff9092168252519081900360200190f35b6102d1600480360360408110156102bb57600080fd5b506001600160a01b038135169060200135610adc565b005b61023f610bb5565b6102d1600480360360a08110156102f157600080fd5b6001600160a01b03823581169260208101359091169160408201359190810190608081016060820135600160201b81111561032b57600080fd5b82018360208201111561033d57600080fd5b803590602001918460018302840111600160201b8311171561035e57600080fd5b91908080601f0160208091040260200160405190810160405280939291908181526020018383808284376000920191909152509295949360208101935035915050600160201b8111156103b057600080fd5b8201836020820111156103c257600080fd5b803590602001918460018302840111600160201b831117156103e357600080fd5b91908080601f016020809104026020016040519081016040528093929190818152602001838380828437600092019190915250929550610bba945050505050565b61023f6004803603602081101561043a57600080fd5b50356001600160a01b0316610c1c565b6102d1610c37565b61045a610cc7565b604080516001600160a01b039092168252519081900360200190f35b6102d16004803603602081101561048c57600080fd5b50356001600160a01b0316610cd6565b610182610e22565b6102d1600480360360608110156104ba57600080fd5b6001600160a01b0382351691602081013591810190606081016040820135600160201b8111156104e957600080fd5b8201836020820111156104fb57600080fd5b803590602001918460018302840111600160201b8311171561051c57600080fd5b91908080601f016020809104026020016040519081016040528093929190818152602001838380828437600092019190915250929550610e83945050505050565b6102d16004803603604081101561057357600080fd5b506001600160a01b038135169060200135610ead565b6102236004803603604081101561059f57600080fd5b506001600160a01b038135169060200135610f7d565b610223600480360360408110156105cb57600080fd5b506001600160a01b0381358116916020013516611056565b61023f600480360360408110156105f957600080fd5b506001600160a01b03813581169160200135166110f8565b6102d16004803603602081101561062757600080fd5b50356001600160a01b0316611123565b6102d16004803603602081101561064d57600080fd5b50356001600160a01b031661120a565b6102d16004803603608081101561067357600080fd5b6001600160a01b0382351691602081013591810190606081016040820135600160201b8111156106a257600080fd5b8201836020820111156106b457600080fd5b803590602001918460018302840111600160201b831117156106d557600080fd5b91908080601f0160208091040260200160405190810160405280939291908181526020018383808284376000920191909152509295949360208101935035915050600160201b81111561072757600080fd5b82018360208201111561073957600080fd5b803590602001918460018302840111600160201b8311171561075a57600080fd5b91908080601f016020809104026020016040519081016040528093929190818152602001838380828437600092019190915250929550611356945050505050565b6102d1600480360360408110156107b157600080fd5b81359190810190604081016020820135600160201b8111156107d257600080fd5b8201836020820111156107e457600080fd5b803590602001918460018302840111600160201b8311171561080557600080fd5b91908080601f0160208091040260200160405190810160405280939291908181526020018383808284376000920191909152509295506113b4945050505050565b6060600480548060200260200160405190810160405280929190818152602001828054801561089e57602002820191906000526020600020905b81546001600160a01b03168152600190910190602001808311610880575b5050505050905090565b60028054604080516020601f600019610100600187161502019094168590049384018190048102820181019092528281526060939092909183018282801561089e5780601f106109065761010080835404028352916020019161089e565b820191906000526020600020905b81548152906001019060200180831161091457509395945050505050565b60008061093d6113da565b905061094a8185856113de565b5060019392505050565b60015490565b60006001600160a01b0383166109a15760405162461bcd60e51b81526004018080602001828103825260248152602001806123be6024913960400191505060405180910390fd5b6001600160a01b0384166109e65760405162461bcd60e51b81526004018080602001828103825260268152602001806124576026913960400191505060405180910390fd5b60006109f06113da565b9050610a1e8186868660405180602001604052806000815250604051806020016040528060008152506114ca565b610a4a8186868660405180602001604052806000815250604051806020016040528060008152506116f7565b610a9e8582610a998660405180606001604052806029815260200161242e602991396001600160a01b03808c166000908152600860209081526040808320938b168352929052205491906118fe565b6113de565b610acc8186868660405180602001604052806000815250604051806020016040528060008152506000611995565b506001949350505050565b601290565b610ae46113da565b6009546001600160a01b03908116911614610b34576040805162461bcd60e51b81526020600482018190526024820152600080516020612331833981519152604482015290519081900360640190fd5b6002600a541415610b7a576040805162461bcd60e51b815260206004820152601f6024820152600080516020612216833981519152604482015290519081900360640190fd5b6002600a81905550610bac82826040518060200160405280600081525060405180602001604052806000815250611c1a565b50506001600a55565b600190565b610bcb610bc56113da565b86611056565b610c065760405162461bcd60e51b815260040180806020018281038252602c815260200180612402602c913960400191505060405180910390fd5b610c1585858585856001611e40565b5050505050565b6001600160a01b031660009081526020819052604090205490565b610c3f6113da565b6009546001600160a01b03908116911614610c8f576040805162461bcd60e51b81526020600482018190526024820152600080516020612331833981519152604482015290519081900360640190fd5b6009546040516000916001600160a01b031690600080516020612351833981519152908390a3600980546001600160a01b0319169055565b6009546001600160a01b031690565b806001600160a01b0316610ce86113da565b6001600160a01b03161415610d2e5760405162461bcd60e51b81526004018080602001828103825260248152602001806122ec6024913960400191505060405180910390fd5b6001600160a01b03811660009081526005602052604090205460ff1615610d915760076000610d5b6113da565b6001600160a01b03908116825260208083019390935260409182016000908120918516815292529020805460ff19169055610dd8565b600160066000610d9f6113da565b6001600160a01b03908116825260208083019390935260409182016000908120918616815292529020805460ff19169115159190911790555b610de06113da565b6001600160a01b0316816001600160a01b03167ff4caeb2d6ca8932a215a353d0703c326ec2d81fc68170f320eb2ab49e9df61f960405160405180910390a350565b60038054604080516020601f600260001961010060018816150201909516949094049384018190048102820181019092528281526060939092909183018282801561089e5780601f106109065761010080835404028352916020019161089e565b610ea8610e8e6113da565b848484604051806020016040528060008152506001611e40565b505050565b610eb56113da565b6009546001600160a01b03908116911614610f05576040805162461bcd60e51b81526020600482018190526024820152600080516020612331833981519152604482015290519081900360640190fd5b6002600a541415610f4b576040805162461bcd60e51b815260206004820152601f6024820152600080516020612216833981519152604482015290519081900360640190fd5b6002600a81905550610bac82826040518060200160405280600081525060405180602001604052806000815250611f17565b60006001600160a01b038316610fc45760405162461bcd60e51b81526004018080602001828103825260248152602001806123be6024913960400191505060405180910390fd5b6000610fce6113da565b9050610ffc8182868660405180602001604052806000815250604051806020016040528060008152506114ca565b6110288182868660405180602001604052806000815250604051806020016040528060008152506116f7565b61094a8182868660405180602001604052806000815250604051806020016040528060008152506000611995565b6000816001600160a01b0316836001600160a01b031614806110c157506001600160a01b03831660009081526005602052604090205460ff1680156110c157506001600160a01b0380831660009081526007602090815260408083209387168352929052205460ff16155b806110f157506001600160a01b0380831660009081526006602090815260408083209387168352929052205460ff165b9392505050565b6001600160a01b03918216600090815260086020908152604080832093909416825291909152205490565b61112b6113da565b6009546001600160a01b0390811691161461117b576040805162461bcd60e51b81526020600482018190526024820152600080516020612331833981519152604482015290519081900360640190fd5b6001600160a01b0381166111c05760405162461bcd60e51b81526004018080602001828103825260268152602001806122a46026913960400191505060405180910390fd5b6009546040516001600160a01b0380841692169060008051602061235183398151915290600090a3600980546001600160a01b0319166001600160a01b0392909216919091179055565b6112126113da565b6001600160a01b0316816001600160a01b031614156112625760405162461bcd60e51b81526004018080602001828103825260218152602001806123106021913960400191505060405180910390fd5b6001600160a01b03811660009081526005602052604090205460ff16156112ce576001600760006112916113da565b6001600160a01b03908116825260208083019390935260409182016000908120918616815292529020805460ff191691151591909117905561130c565b600660006112da6113da565b6001600160a01b03908116825260208083019390935260409182016000908120918516815292529020805460ff191690555b6113146113da565b6001600160a01b0316816001600160a01b03167f50546e66e5f44d728365dc3908c63bc5cfeeab470722c1677e3073a6ac294aa160405160405180910390a350565b6113676113616113da565b85611056565b6113a25760405162461bcd60e51b815260040180806020018281038252602c815260200180612402602c913960400191505060405180910390fd5b6113ae84848484611f17565b50505050565b6113d66113bf6113da565b838360405180602001604052806000815250611f17565b5050565b3390565b6001600160a01b0383166114235760405162461bcd60e51b81526004018080602001828103825260258152602001806122366025913960400191505060405180910390fd5b6001600160a01b0382166114685760405162461bcd60e51b81526004018080602001828103825260238152602001806124a06023913960400191505060405180910390fd5b6001600160a01b03808416600081815260086020908152604080832094871680845294825291829020859055815185815291517f8c5be1e5ebec7d5bd14f71427d1e84f3dd0314c0f7b2291e5b200ac8c7c3b9259281900390910190a3505050565b6040805163555ddc6560e11b81526001600160a01b03871660048201527f29ddb589b1fb5fc7cf394961c1adf5f8c6454761adf795e67fe149f658abe89560248201529051600091731820a4b7618bde71dce8cdc73aab6c95905fad249163aabbb8ca91604480820192602092909190829003018186803b15801561154e57600080fd5b505afa158015611562573d6000803e3d6000fd5b505050506040513d602081101561157857600080fd5b505190506001600160a01b038116156116ee57806001600160a01b03166375ab97828888888888886040518763ffffffff1660e01b815260040180876001600160a01b03168152602001866001600160a01b03168152602001856001600160a01b031681526020018481526020018060200180602001838103835285818151815260200191508051906020019080838360005b8381101561162357818101518382015260200161160b565b50505050905090810190601f1680156116505780820380516001836020036101000a031916815260200191505b50838103825284518152845160209182019186019080838360005b8381101561168357818101518382015260200161166b565b50505050905090810190601f1680156116b05780820380516001836020036101000a031916815260200191505b5098505050505050505050600060405180830381600087803b1580156116d557600080fd5b505af11580156116e9573d6000803e3d6000fd5b505050505b50505050505050565b611703868686866113ae565b6117408360405180606001604052806027815260200161227d602791396001600160a01b03881660009081526020819052604090205491906118fe565b6001600160a01b03808716600090815260208190526040808220939093559086168152205461176f908461213f565b600080866001600160a01b03166001600160a01b0316815260200190815260200160002081905550836001600160a01b0316856001600160a01b0316876001600160a01b03167f06b541ddaa720db2b10a4d0cdac39b8d360425fc073085fac19bc82614677987868686604051808481526020018060200180602001838103835285818151815260200191508051906020019080838360005b83811015611820578181015183820152602001611808565b50505050905090810190601f16801561184d5780820380516001836020036101000a031916815260200191505b50838103825284518152845160209182019186019080838360005b83811015611880578181015183820152602001611868565b50505050905090810190601f1680156118ad5780820380516001836020036101000a031916815260200191505b509550505050505060405180910390a4836001600160a01b0316856001600160a01b03166000805160206123e2833981519152856040518082815260200191505060405180910390a3505050505050565b6000818484111561198d5760405162461bcd60e51b81526004018080602001828103825283818151815260200191508051906020019080838360005b8381101561195257818101518382015260200161193a565b50505050905090810190601f16801561197f5780820380516001836020036101000a031916815260200191505b509250505060405180910390fd5b505050900390565b6040805163555ddc6560e11b81526001600160a01b03871660048201527fb281fc8c12954d22544db45de3159a39272895b169a852b314f9cc762e44c53b60248201529051600091731820a4b7618bde71dce8cdc73aab6c95905fad249163aabbb8ca91604480820192602092909190829003018186803b158015611a1957600080fd5b505afa158015611a2d573d6000803e3d6000fd5b505050506040513d6020811015611a4357600080fd5b505190506001600160a01b03811615611bbc57806001600160a01b03166223de298989898989896040518763ffffffff1660e01b815260040180876001600160a01b03168152602001866001600160a01b03168152602001856001600160a01b031681526020018481526020018060200180602001838103835285818151815260200191508051906020019080838360005b83811015611aed578181015183820152602001611ad5565b50505050905090810190601f168015611b1a5780820380516001836020036101000a031916815260200191505b50838103825284518152845160209182019186019080838360005b83811015611b4d578181015183820152602001611b35565b50505050905090810190601f168015611b7a5780820380516001836020036101000a031916815260200191505b5098505050505050505050600060405180830381600087803b158015611b9f57600080fd5b505af1158015611bb3573d6000803e3d6000fd5b50505050611c10565b8115611c1057611bd4866001600160a01b0316612197565b15611c105760405162461bcd60e51b815260040180806020018281038252604d815260200180612371604d913960600191505060405180910390fd5b5050505050505050565b6001600160a01b038416611c75576040805162461bcd60e51b815260206004820181905260248201527f4552433737373a206d696e7420746f20746865207a65726f2061646472657373604482015290519081900360640190fd5b6000611c7f6113da565b9050611c8e81600087876113ae565b600154611c9b908561213f565b6001556001600160a01b038516600090815260208190526040902054611cc1908561213f565b6001600160a01b038616600090815260208190526040812091909155611cee908290878787876001611995565b846001600160a01b0316816001600160a01b03167f2fe5be0146f74c5bce36c0b80911af6c7d86ff27e89d5cfa61fc681327954e5d868686604051808481526020018060200180602001838103835285818151815260200191508051906020019080838360005b83811015611d6d578181015183820152602001611d55565b50505050905090810190601f168015611d9a5780820380516001836020036101000a031916815260200191505b50838103825284518152845160209182019186019080838360005b83811015611dcd578181015183820152602001611db5565b50505050905090810190601f168015611dfa5780820380516001836020036101000a031916815260200191505b509550505050505060405180910390a36040805185815290516001600160a01b038716916000916000805160206123e28339815191529181900360200190a35050505050565b6001600160a01b038616611e855760405162461bcd60e51b815260040180806020018281038252602281526020018061225b6022913960400191505060405180910390fd5b6001600160a01b038516611ee0576040805162461bcd60e51b815260206004820181905260248201527f4552433737373a2073656e6420746f20746865207a65726f2061646472657373604482015290519081900360640190fd5b6000611eea6113da565b9050611efa8188888888886114ca565b611f088188888888886116f7565b6116ee81888888888888611995565b6001600160a01b038416611f5c5760405162461bcd60e51b81526004018080602001828103825260228152602001806122ca6022913960400191505060405180910390fd5b6000611f666113da565b9050611f7581866000876113ae565b611f84818660008787876114ca565b611fc18460405180606001604052806023815260200161247d602391396001600160a01b03881660009081526020819052604090205491906118fe565b6001600160a01b038616600090815260208190526040902055600154611fe790856121d3565b600181905550846001600160a01b0316816001600160a01b03167fa78a9be3a7b862d26933ad85fb11d80ef66b8f972d7cbba06621d583943a4098868686604051808481526020018060200180602001838103835285818151815260200191508051906020019080838360005b8381101561206c578181015183820152602001612054565b50505050905090810190601f1680156120995780820380516001836020036101000a031916815260200191505b50838103825284518152845160209182019186019080838360005b838110156120cc5781810151838201526020016120b4565b50505050905090810190601f1680156120f95780820380516001836020036101000a031916815260200191505b509550505050505060405180910390a36040805185815290516000916001600160a01b038816916000805160206123e28339815191529181900360200190a35050505050565b6000828201838110156110f1576040805162461bcd60e51b815260206004820152601b60248201527a536166654d6174683a206164646974696f6e206f766572666c6f7760281b604482015290519081900360640190fd5b6000813f7fc5d2460186f7233c927e7db2dcc703c0e500b653ca82273b7bfad8045d85a4708181148015906121cb57508115155b949350505050565b60006110f183836040518060400160405280601e81526020017f536166654d6174683a207375627472616374696f6e206f766572666c6f7700008152506118fe56fe5265656e7472616e637947756172643a207265656e7472616e742063616c6c004552433737373a20617070726f76652066726f6d20746865207a65726f20616464726573734552433737373a2073656e642066726f6d20746865207a65726f20616464726573734552433737373a207472616e7366657220616d6f756e7420657863656564732062616c616e63654f776e61626c653a206e6577206f776e657220697320746865207a65726f20616464726573734552433737373a206275726e2066726f6d20746865207a65726f20616464726573734552433737373a20617574686f72697a696e672073656c66206173206f70657261746f724552433737373a207265766f6b696e672073656c66206173206f70657261746f724f776e61626c653a2063616c6c6572206973206e6f7420746865206f776e65728be0079c531659141344cd1fd0a4f28419497f9722a3daafe3b4186f6b6457e04552433737373a20746f6b656e20726563697069656e7420636f6e747261637420686173206e6f20696d706c656d656e74657220666f7220455243373737546f6b656e73526563697069656e744552433737373a207472616e7366657220746f20746865207a65726f2061646472657373ddf252ad1be2c89b69c2b068fc378daa952ba7f163c4a11628f55a4df523b3ef4552433737373a2063616c6c6572206973206e6f7420616e206f70657261746f7220666f7220686f6c6465724552433737373a207472616e7366657220616d6f756e74206578636565647320616c6c6f77616e63654552433737373a207472616e736665722066726f6d20746865207a65726f20616464726573734552433737373a206275726e20616d6f756e7420657863656564732062616c616e63654552433737373a20617070726f766520746f20746865207a65726f2061646472657373a2646970667358221220065ff65db091aa66fe8717333b409b9e29ea4db2aeb7d4e5c6cfd1fb05e53d5764736f6c634300060c0033608060405260006006553480156200001657600080fd5b50604080516020810190915260008152620000517f01ffc9a70000000000000000000000000000000000000000000000000000000062000118565b6200005c81620001e7565b620000877fd9b67a260000000000000000000000000000000000000000000000000000000062000118565b620000b27f0e89341c0000000000000000000000000000000000000000000000000000000062000118565b506000620000bf62000200565b600480546001600160a01b0319166001600160a01b038316908117909155604051919250906000907f8be0079c531659141344cd1fd0a4f28419497f9722a3daafe3b4186f6b6457e0908290a3506001600555620002a0565b7fffffffff000000000000000000000000000000000000000000000000000000008082161415620001aa57604080517f08c379a000000000000000000000000000000000000000000000000000000000815260206004820152601c60248201527f4552433136353a20696e76616c696420696e7465726661636520696400000000604482015290519081900360640190fd5b7fffffffff00000000000000000000000000000000000000000000000000000000166000908152602081905260409020805460ff19166001179055565b8051620001fc90600390602084019062000204565b5050565b3390565b828054600181600116156101000203166002900490600052602060002090601f016020900481019282601f106200024757805160ff191683800117855562000277565b8280016001018555821562000277579182015b82811115620002775782518255916020019190600101906200025a565b506200028592915062000289565b5090565b5b808211156200028557600081556001016200028a565b611e7480620002b06000396000f3fe608060405234801561001057600080fd5b50600436106100c45760003560e01c8062fdd58e146100c957806301ffc9a7146101075780630e89341c14610142578063156e29f6146101d45780632eb2c2d6146102085780634e1273f4146103c95780635d2585a51461053c578063715018a6146105445780637d549e991461054c5780638da5cb5b14610554578063a22cb46514610578578063e985e9c5146105a6578063f242432a146105d4578063f2fde38b1461069d578063f5298aca146106c3575b600080fd5b6100f5600480360360408110156100df57600080fd5b506001600160a01b0381351690602001356106f5565b60408051918252519081900360200190f35b61012e6004803603602081101561011d57600080fd5b50356001600160e01b031916610764565b604080519115158252519081900360200190f35b61015f6004803603602081101561015857600080fd5b5035610783565b6040805160208082528351818301528351919283929083019185019080838360005b83811015610199578181015183820152602001610181565b50505050905090810190601f1680156101c65780820380516001836020036101000a031916815260200191505b509250505060405180910390f35b610206600480360360608110156101ea57600080fd5b506001600160a01b03813516906020810135906040013561081b565b005b610206600480360360a081101561021e57600080fd5b6001600160a01b038235811692602081013590911691810190606081016040820135600160201b81111561025157600080fd5b82018360208201111561026357600080fd5b803590602001918460208302840111600160201b8311171561028457600080fd5b9190808060200260200160405190810160405280939291908181526020018383602002808284376000920191909152509295949360208101935035915050600160201b8111156102d357600080fd5b8201836020820111156102e557600080fd5b803590602001918460208302840111600160201b8311171561030657600080fd5b9190808060200260200160405190810160405280939291908181526020018383602002808284376000920191909152509295949360208101935035915050600160201b81111561035557600080fd5b82018360208201111561036757600080fd5b803590602001918460018302840111600160201b8311171561038857600080fd5b91908080601f0160208091040260200160405190810160405280939291908181526020018383808284376000920191909152509295506108e6945050505050565b6104ec600480360360408110156103df57600080fd5b810190602081018135600160201b8111156103f957600080fd5b82018360208201111561040b57600080fd5b803590602001918460208302840111600160201b8311171561042c57600080fd5b9190808060200260200160405190810160405280939291908181526020018383602002808284376000920191909152509295949360208101935035915050600160201b81111561047b57600080fd5b82018360208201111561048d57600080fd5b803590602001918460208302840111600160201b831117156104ae57600080fd5b919080806020026020016040519081016040528093929190818152602001838360200280828437600092019190915250929550610be4945050505050565b60408051602080825283518183015283519192839290830191858101910280838360005b83811015610528578181015183820152602001610510565b505050509050019250505060405180910390f35b6100f5610d61565b610206610e18565b6100f5610ea8565b61055c610eae565b604080516001600160a01b039092168252519081900360200190f35b6102066004803603604081101561058e57600080fd5b506001600160a01b0381351690602001351515610ebe565b61012e600480360360408110156105bc57600080fd5b506001600160a01b0381358116916020013516610fad565b610206600480360360a08110156105ea57600080fd5b6001600160a01b03823581169260208101359091169160408201359160608101359181019060a081016080820135600160201b81111561062957600080fd5b82018360208201111561063b57600080fd5b803590602001918460018302840111600160201b8311171561065c57600080fd5b91908080601f016020809104026020016040519081016040528093929190818152602001838380828437600092019190915250929550610fdb945050505050565b610206600480360360208110156106b357600080fd5b50356001600160a01b0316611194565b610206600480360360608110156106d957600080fd5b506001600160a01b03813516906020810135906040013561127b565b60006001600160a01b03831661073c5760405162461bcd60e51b815260040180806020018281038252602b815260200180611bf1602b913960400191505060405180910390fd5b5060009081526001602090815260408083206001600160a01b03949094168352929052205490565b6001600160e01b03191660009081526020819052604090205460ff1690565b60038054604080516020601f600260001961010060018816150201909516949094049384018190048102820181019092528281526060939092909183018282801561080f5780601f106107e45761010080835404028352916020019161080f565b820191906000526020600020905b8154815290600101906020018083116107f257829003601f168201915b50505050509050919050565b610823611329565b6004546001600160a01b03908116911614610873576040805162461bcd60e51b81526020600482018190526024820152600080516020611d64833981519152604482015290519081900360640190fd5b600260055414156108b9576040805162461bcd60e51b815260206004820152601f6024820152600080516020611bb1833981519152604482015290519081900360640190fd5b60026005819055506108dc8383836040518060200160405280600081525061132d565b5050600160055550565b81518351146109265760405162461bcd60e51b8152600401808060200182810382526028815260200180611df66028913960400191505060405180910390fd5b6001600160a01b03841661096b5760405162461bcd60e51b8152600401808060200182810382526025815260200180611cc06025913960400191505060405180910390fd5b610973611329565b6001600160a01b0316856001600160a01b0316148061099e575061099e85610999611329565b610fad565b6109d95760405162461bcd60e51b8152600401808060200182810382526032815260200180611ce56032913960400191505060405180910390fd5b60006109e3611329565b90506109f3818787878787610bdc565b60005b8451811015610af4576000858281518110610a0d57fe5b602002602001015190506000858381518110610a2557fe5b60200260200101519050610a92816040518060600160405280602a8152602001611d3a602a91396001600086815260200190815260200160002060008d6001600160a01b03166001600160a01b03168152602001908152602001600020546114239092919063ffffffff16565b60008381526001602090815260408083206001600160a01b038e811685529252808320939093558a1681522054610ac990826114ba565b60009283526001602081815260408086206001600160a01b038d1687529091529093205550016109f6565b50846001600160a01b0316866001600160a01b0316826001600160a01b03167f4a39dc06d4c0dbc64b70af90fd698a233a518aa5d07e595d983b8c0526c8f7fb8787604051808060200180602001838103835285818151815260200191508051906020019060200280838360005b83811015610b7a578181015183820152602001610b62565b50505050905001838103825284818151815260200191508051906020019060200280838360005b83811015610bb9578181015183820152602001610ba1565b5050505090500194505050505060405180910390a4610bdc818787878787611519565b505050505050565b60608151835114610c265760405162461bcd60e51b8152600401808060200182810382526029815260200180611dcd6029913960400191505060405180910390fd5b606083516001600160401b0381118015610c3f57600080fd5b50604051908082528060200260200182016040528015610c69578160200160208202803683370190505b50905060005b8451811015610d595760006001600160a01b0316858281518110610c8f57fe5b60200260200101516001600160a01b03161415610cdd5760405162461bcd60e51b8152600401808060200182810382526031815260200180611c1c6031913960400191505060405180910390fd5b60016000858381518110610ced57fe5b602002602001015181526020019081526020016000206000868381518110610d1157fe5b60200260200101516001600160a01b03166001600160a01b0316815260200190815260200160002054828281518110610d4657fe5b6020908102919091010152600101610c6f565b509392505050565b6000610d6b611329565b6004546001600160a01b03908116911614610dbb576040805162461bcd60e51b81526020600482018190526024820152600080516020611d64833981519152604482015290519081900360640190fd5b60026005541415610e01576040805162461bcd60e51b815260206004820152601f6024820152600080516020611bb1833981519152604482015290519081900360640190fd5b506006805460038101909155600160058190550190565b610e20611329565b6004546001600160a01b03908116911614610e70576040805162461bcd60e51b81526020600482018190526024820152600080516020611d64833981519152604482015290519081900360640190fd5b6004546040516000916001600160a01b031690600080516020611d84833981519152908390a3600480546001600160a01b0319169055565b60065481565b6004546001600160a01b03165b90565b816001600160a01b0316610ed0611329565b6001600160a01b03161415610f165760405162461bcd60e51b8152600401808060200182810382526029815260200180611da46029913960400191505060405180910390fd5b8060026000610f23611329565b6001600160a01b03908116825260208083019390935260409182016000908120918716808252919093529120805460ff191692151592909217909155610f67611329565b6001600160a01b03167f17307eab39ab6107e8899845ad3d59bd9653f200f220920489ca2b5937696c318360405180821515815260200191505060405180910390a35050565b6001600160a01b03918216600090815260026020908152604080832093909416825291909152205460ff1690565b6001600160a01b0384166110205760405162461bcd60e51b8152600401808060200182810382526025815260200180611cc06025913960400191505060405180910390fd5b611028611329565b6001600160a01b0316856001600160a01b0316148061104e575061104e85610999611329565b6110895760405162461bcd60e51b8152600401808060200182810382526029815260200180611c976029913960400191505060405180910390fd5b6000611093611329565b90506110b38187876110a488611798565b6110ad88611798565b87610bdc565b6110fa836040518060600160405280602a8152602001611d3a602a913960008781526001602090815260408083206001600160a01b038d1684529091529020549190611423565b60008581526001602090815260408083206001600160a01b038b8116855292528083209390935587168152205461113190846114ba565b60008581526001602090815260408083206001600160a01b03808b168086529184529382902094909455805188815291820187905280518a841693861692600080516020611bd183398151915292908290030190a4610bdc8187878787876117dc565b61119c611329565b6004546001600160a01b039081169116146111ec576040805162461bcd60e51b81526020600482018190526024820152600080516020611d64833981519152604482015290519081900360640190fd5b6001600160a01b0381166112315760405162461bcd60e51b8152600401808060200182810382526026815260200180611c4d6026913960400191505060405180910390fd5b6004546040516001600160a01b03808416921690600080516020611d8483398151915290600090a3600480546001600160a01b0319166001600160a01b0392909216919091179055565b611283611329565b6004546001600160a01b039081169116146112d3576040805162461bcd60e51b81526020600482018190526024820152600080516020611d64833981519152604482015290519081900360640190fd5b60026005541415611319576040805162461bcd60e51b815260206004820152601f6024820152600080516020611bb1833981519152604482015290519081900360640190fd5b60026005556108dc83838361194d565b3390565b6001600160a01b0384166113725760405162461bcd60e51b8152600401808060200182810382526021815260200180611e1e6021913960400191505060405180910390fd5b600061137c611329565b905061138e816000876110a488611798565b60008481526001602090815260408083206001600160a01b03891684529091529020546113bb90846114ba565b60008581526001602090815260408083206001600160a01b03808b1680865291845282852095909555815189815292830188905281519094861692600080516020611bd183398151915292908290030190a461141c816000878787876117dc565b5050505050565b600081848411156114b25760405162461bcd60e51b81526004018080602001828103825283818151815260200191508051906020019080838360005b8381101561147757818101518382015260200161145f565b50505050905090810190601f1680156114a45780820380516001836020036101000a031916815260200191505b509250505060405180910390fd5b505050900390565b600082820183811015611512576040805162461bcd60e51b815260206004820152601b60248201527a536166654d6174683a206164646974696f6e206f766572666c6f7760281b604482015290519081900360640190fd5b9392505050565b61152b846001600160a01b0316611a6e565b15610bdc57836001600160a01b031663bc197c8187878686866040518663ffffffff1660e01b815260040180866001600160a01b03168152602001856001600160a01b03168152602001806020018060200180602001848103845287818151815260200191508051906020019060200280838360005b838110156115b95781810151838201526020016115a1565b50505050905001848103835286818151815260200191508051906020019060200280838360005b838110156115f85781810151838201526020016115e0565b50505050905001848103825285818151815260200191508051906020019080838360005b8381101561163457818101518382015260200161161c565b50505050905090810190601f1680156116615780820380516001836020036101000a031916815260200191505b5098505050505050505050602060405180830381600087803b15801561168657600080fd5b505af19250505080156116ab57506040513d60208110156116a657600080fd5b505160015b611740576116b7611ab0565b806116c25750611709565b60405162461bcd60e51b815260206004820181815283516024840152835184939192839260440191908501908083836000831561147757818101518382015260200161145f565b60405162461bcd60e51b8152600401808060200182810382526034815260200180611b556034913960400191505060405180910390fd5b6001600160e01b0319811663bc197c8160e01b1461178f5760405162461bcd60e51b8152600401808060200182810382526028815260200180611b896028913960400191505060405180910390fd5b50505050505050565b6040805160018082528183019092526060918291906020808301908036833701905050905082816000815181106117cb57fe5b602090810291909101015292915050565b6117ee846001600160a01b0316611a6e565b15610bdc57836001600160a01b031663f23a6e6187878686866040518663ffffffff1660e01b815260040180866001600160a01b03168152602001856001600160a01b0316815260200184815260200183815260200180602001828103825283818151815260200191508051906020019080838360005b8381101561187d578181015183820152602001611865565b50505050905090810190601f1680156118aa5780820380516001836020036101000a031916815260200191505b509650505050505050602060405180830381600087803b1580156118cd57600080fd5b505af19250505080156118f257506040513d60208110156118ed57600080fd5b505160015b6118fe576116b7611ab0565b6001600160e01b0319811663f23a6e6160e01b1461178f5760405162461bcd60e51b8152600401808060200182810382526028815260200180611b896028913960400191505060405180910390fd5b6001600160a01b0383166119925760405162461bcd60e51b8152600401808060200182810382526023815260200180611d176023913960400191505060405180910390fd5b600061199c611329565b90506119cc818560006119ae87611798565b6119b787611798565b60405180602001604052806000815250610bdc565b611a1382604051806060016040528060248152602001611c736024913960008681526001602090815260408083206001600160a01b038b1684529091529020549190611423565b60008481526001602090815260408083206001600160a01b03808a1680865291845282852095909555815188815292830187905281519394909390861692600080516020611bd183398151915292908290030190a450505050565b6000813f7fc5d2460186f7233c927e7db2dcc703c0e500b653ca82273b7bfad8045d85a470818114801590611aa257508115155b949350505050565b60e01c90565b600060443d1015611ac057610ebb565b600481823e6308c379a0611ad48251611aaa565b14611ade57610ebb565b6040513d600319016004823e80513d6001600160401b038083116024840183101715611b0d5750505050610ebb565b82840192508251915080821115611b275750505050610ebb565b503d83016020828401011115611b3f57505050610ebb565b601f01601f191681016020016040529150509056fe455243313135353a207472616e7366657220746f206e6f6e2045524331313535526563656976657220696d706c656d656e746572455243313135353a204552433131353552656365697665722072656a656374656420746f6b656e735265656e7472616e637947756172643a207265656e7472616e742063616c6c00c3d58168c5ae7397731d063d5bbf3d657854427343f4c083240f7aacaa2d0f62455243313135353a2062616c616e636520717565727920666f7220746865207a65726f2061646472657373455243313135353a2062617463682062616c616e636520717565727920666f7220746865207a65726f20616464726573734f776e61626c653a206e6577206f776e657220697320746865207a65726f2061646472657373455243313135353a206275726e20616d6f756e7420657863656564732062616c616e6365455243313135353a2063616c6c6572206973206e6f74206f776e6572206e6f7220617070726f766564455243313135353a207472616e7366657220746f20746865207a65726f2061646472657373455243313135353a207472616e736665722063616c6c6572206973206e6f74206f776e6572206e6f7220617070726f766564455243313135353a206275726e2066726f6d20746865207a65726f2061646472657373455243313135353a20696e73756666696369656e742062616c616e636520666f72207472616e736665724f776e61626c653a2063616c6c6572206973206e6f7420746865206f776e65728be0079c531659141344cd1fd0a4f28419497f9722a3daafe3b4186f6b6457e0455243313135353a2073657474696e6720617070726f76616c2073746174757320666f722073656c66455243313135353a206163636f756e747320616e6420696473206c656e677468206d69736d61746368455243313135353a2069647320616e6420616d6f756e7473206c656e677468206d69736d61746368455243313135353a206d696e7420746f20746865207a65726f2061646472657373a2646970667358221220e9e9d2cdcc64bc538230de63ea8dbc036c83484d901766728eeb422180a2181864736f6c634300060c00335265656e7472616e637947756172643a207265656e7472616e742063616c6c0052657475726e656420666f726573696768742073686f756c642062652067726561746572207468616e20302e4d61726b6574206f7574636f6d652073656c656374696f6e20646f6573206e6f74206d61746368206d61726b657420696e646578206f7574636f6d65732e746f74616c5374616b65496e566973696f6e5661756c742073686f756c64206e6f7420626520302e436f6e74726163742063616e206f6e6c7920626520696e697469616c697a6564206f6e63652e416d6f756e7420746f206d696e742073686f756c642062652067726561746572207468616e20302e5573657220686173206e6f207374616b6520696e207468652077696e6e696e67206f7574636f6d652e536166654d6174683a206d756c7469706c69636174696f6e206f766572666c6f7753656c656374656420746f6b656e206973206e6f742072656465656d61626c652e4d61726b657420656e642074696d652063616e6e6f7420626520696e2074686520706173742e546f74616c205374616b6520496e20566973696f6e205661756c74206d7573742062652067726561746572207468616e20312e4d696e74656420566973696f6e206d7573742062652067726561746572207468616e20312ea2646970667358221220a13f9554b8fec672aa38b1a598860975254e2c486a1da557452929c3cd6f562464736f6c634300060c0033",
  "compiler": {
    "name": "solc",
    "version": "0.6.12+commit.27d51765.Emscripten.clang",
    "optimizer": {
      "enabled": true,
      "runs": 1
    },
    "evmVersion": "petersburg"
  }
}