{
  "fileName": "Monitor.sol",
  "contractName": "Monitor",
  "source": "// SPDX-License-Identifier: Unlicense\n\npragma solidity 0.6.12;\n\nimport \"@openzeppelin/contracts/utils/ReentrancyGuard.sol\";\nimport \"@openzeppelin/contracts/token/ERC20/IERC20.sol\";\nimport \"./ForesightTokens.sol\";\nimport \"@openzeppelin/contracts/math/SafeMath.sol\";\nimport \"@openzeppelin/contracts/access/Ownable.sol\";\nimport \"./BancorBondingCurve.sol\";\n\n\n/// @title Monitor\n/// @notice Monitor Interface\ncontract Monitor is ReentrancyGuard, Ownable {\n    using SafeMath for uint;\n\n    /// @notice Foresight token reserve ratio.\n    uint32 constant public RESERVE_RATIO = 900000;\n\n    /// @notice Initalizer\n    address public initializer;\n\n    /// @notice Only allow initialization once.\n    bool public initialized = false;\n\n    /// @notice Vision ERC777 token contract.\n    IERC20 public vision;\n\n    /// @notice Foresight token ERC1155 contract that manages all Foresight.\n    ForesightTokens public foresightTokens;\n\n    /// @notice Bancor bonding curve contract.\n    IBancorBondingCurve public bondingCurve;\n    address public bondingCurveAddress;\n\n    /// @notice Reality Market info\n    struct RealityMarket {\n        uint id;\n        bool finalized;\n        uint winningOutcome;\n        uint endTime;\n        string question;\n        uint tokenIndex;\n        mapping(uint => uint) totalMinted; // Maps outcomes to total amount minted.\n        mapping(uint => uint) totalStaked; // Maps outcomes to total amount staked.\n        mapping(uint => mapping(address => uint)) totalStakedByAddress; // Outcomes to total amount staked by address.\n        uint invalidStake;\n    }\n\n    // @notice Index of the current reality markets.\n    uint public realityMarketCounts  = 0;\n    // @notice Reality Market Data;\n    mapping(uint => RealityMarket) public realityMarketRegistry;\n\n    /// @notice Deploys Vision vault, Foresight tokens, and RealityMarket.\n    /// @param _bondingCurveAddress Address of the bonding curve functions.\n    function initialize(address _visionAddress, address _bondingCurveAddress) public onlyOwner {\n        require(!initialized, \"Contract can only be initialized once.\");\n        initialized = true;\n        foresightTokens = new ForesightTokens();\n        bondingCurve = IBancorBondingCurve(_bondingCurveAddress);\n        vision = IERC20(_visionAddress);\n    }\n\n    modifier isInitialized { require(initialized, \"Monitor is not initialized\"); _; }\n\n    /// @notice return details of the newly created reality market.\n    event RealityMarketCreated(uint index, uint yesIndex, uint noIndex, uint invalidIndex, uint stake);\n\n    /// @notice Creates a new RealityMarket instance.\n    /// @param question Market question.\n    /// @param endTime Time to end market.\n    /// @param invalidStake Vision stake to place on market\n    /// @dev Invariant - A Reality Market's endTime should not be before the current block.\n    /// @dev Event - Emits RealityMarketCreated with the market's index and Foresight set.\n    function createRealityMarket(\n        string memory question,\n        uint endTime,\n        uint invalidStake\n    ) public nonReentrant isInitialized {\n        require(block.timestamp < endTime, \"Market end time cannot be in the past.\");\n        uint index = realityMarketCounts.add(1);\n        realityMarketCounts = index;\n        uint totalTokens = foresightTokens.totalTokensMinted();\n        uint invalidIndex = totalTokens.add(1);\n        uint noIndex = totalTokens.add(2);\n        uint yesIndex = totalTokens.add(3);\n        realityMarketRegistry[index].id = index;\n        realityMarketRegistry[index].finalized = false;\n        realityMarketRegistry[index].endTime = endTime;\n        realityMarketRegistry[index].question = question;\n        realityMarketRegistry[index].tokenIndex = foresightTokens.registerNewSet();\n        vision.transferFrom(msg.sender, address(this), invalidStake);\n        RealityMarketCreated(index, yesIndex, noIndex, invalidIndex, invalidStake);\n    }\n\n    /// @notice Event capturing minted foresight, stake, and address.\n    event ForesightMinted(uint marketIndex, uint outcome, uint foresight, uint stake, address addr);\n\n    /// @notice Returns the amount of foresight for a given amount of staked Vision.\n    function getPurchaseReturn(uint index, uint outcome, uint amount) public view returns (uint foresightAmount) {\n        uint minted = realityMarketRegistry[index].totalMinted[outcome].add(1);\n        uint staked = realityMarketRegistry[index].totalStaked[outcome].add(1);\n        foresightAmount = bondingCurve.calculatePurchaseReturn(minted, staked, RESERVE_RATIO, amount);\n    }\n\n    /// @notice Buys a position in a reality market.\n    /// @dev For a given starting token index n, n = Invalid, n+1 = No, n+2 = Yes.\n    /// @param index Market index to buy the position in.\n    /// @param outcome Token index of the outcome to buy into.\n    /// @param amount Amount of Vision to stake on the outcome.\n    function buyPosition(uint index, uint outcome, uint amount) public nonReentrant isInitialized {\n        bool selected = false;\n        require(amount > 0, \"Amount to mint should be greater than 0.\");\n        if (outcome == realityMarketRegistry[index].tokenIndex.add(2)) {\n            selected = true;\n        }\n        if (outcome == realityMarketRegistry[index].tokenIndex.add(1)) {\n            selected = true;\n        }\n        if (outcome == realityMarketRegistry[index].tokenIndex) {\n            selected = true;\n        }\n        require(selected, \"Market outcome selection does not match market index outcomes.\");\n        uint foresightAmount = getPurchaseReturn(index, outcome, amount);\n        require(foresightAmount > 0, \"Returned foresight should be greater than 0.\");\n        realityMarketRegistry[index].totalStaked[outcome] = realityMarketRegistry[index].totalStaked[outcome].add(amount);\n        realityMarketRegistry[index].totalStakedByAddress[outcome][msg.sender] = realityMarketRegistry[index].totalStakedByAddress[outcome][msg.sender].add(amount);\n        realityMarketRegistry[index].totalMinted[outcome] = realityMarketRegistry[index].totalMinted[outcome].add(foresightAmount);\n        foresightTokens.mint(msg.sender, outcome, foresightAmount);\n        vision.transferFrom(msg.sender, address(this), amount);\n        emit ForesightMinted(index, outcome, foresightAmount, amount, msg.sender);\n    }\n\n    /// @notice Event to finalize a market.\n    event RealityMarketFinalized(uint index, uint winningOutcome);\n\n    /// @notice Finalize a market and update the Vision vault with the correct losing stake.\n    /// @param index Market index to finalize.\n    /// @dev For a given starting token index n, n = Invalid, n+1 = No, n+2 = Yes.\n    /// @dev Invariant - Should not work if current block time is less than market end time.\n    /// @dev Invariant - Should not reduce the price of Vision.\n    /// @dev Invariant - Should not be able to finalize twice.\n    /// @dev Invariant - Should only be able to finalize if the market is not finalized.\n    /// @dev Event - Emits finalizedMarket event\n    function finalizeMarket(uint index) public nonReentrant isInitialized {\n        RealityMarket storage market = realityMarketRegistry[index];\n        require(block.timestamp > market.endTime, \"Market has not reached End Time.\");\n        require(!market.finalized, \"Market already finalized.\");\n        uint invalid = realityMarketRegistry[index].tokenIndex;\n        uint no = realityMarketRegistry[index].tokenIndex.add(1);\n        uint yes = realityMarketRegistry[index].tokenIndex.add(2);\n        uint winningOutcome = realityMarketRegistry[index].tokenIndex;\n        if (market.totalMinted[yes] > market.totalMinted[no] && market.totalMinted[yes] > market.totalMinted[invalid]) {\n            winningOutcome = yes;\n        }\n        if (market.totalMinted[no] > market.totalMinted[yes] && market.totalMinted[no] > market.totalMinted[invalid]) {\n            winningOutcome = no;\n        }\n        market.finalized = true;\n        market.winningOutcome = winningOutcome;\n        RealityMarketFinalized(index, winningOutcome);\n    }\n\n    /// @notice Event to convert foresight into vision.\n    event ForesightBurned(uint marketIndex, uint foresightId, uint foresightAmount, uint visionOwed, address addr);\n\n    /// @notice Withdraw the senders user stake using the specified foresightToken id.\n    /// @param index Market index.\n    /// @param foresightId Id of the given foresight.\n    /// @dev Invariant - Users should not be able to withdraw from a market that is not finalized.\n    /// @dev Invariant - Users should not be able to withdraw using Foresight that is not reified.\n    /// @dev Invariant - User should have stake in the winning outcome to withdraw.\n    function withdrawWinningStake(uint index, uint foresightId) public nonReentrant isInitialized {\n        RealityMarket storage market = realityMarketRegistry[index];\n        require(market.finalized, \"Market not finalized.\");\n        require(foresightId == market.winningOutcome, \"Selected token is not redeemable.\");\n        uint userStake = realityMarketRegistry[index].totalStakedByAddress[market.winningOutcome][msg.sender];\n        require(userStake > 0, \"User has no stake in the winning outcome.\");\n        /// @notice Total vision lost.\n        uint totalLost;\n        /// @notice User's total owned foresight.\n        uint tokensOwned = foresightTokens.balanceOf(msg.sender, foresightId);\n        require(market.totalStakedByAddress[market.winningOutcome][msg.sender] > 0, \"Hit\");\n        require(tokensOwned > 0, \"Hit 2\");\n        uint invalid = market.tokenIndex;\n        uint no = market.tokenIndex.add(1);\n        uint yes = market.tokenIndex.add(2);\n        // Invalid\n        if (market.winningOutcome == invalid) {\n            totalLost = market.totalStaked[no].add(market.totalStaked[yes]);\n        }\n        // No\n        if (market.winningOutcome == no) {\n            totalLost = market.totalStaked[invalid].add(market.totalStaked[yes]);\n        }\n        // Yes\n        if (market.winningOutcome == yes) {\n            totalLost = market.totalStaked[no].add(market.totalStaked[invalid]);\n        }\n        /// @notice User's computed earnings based on percent of total winning tokens.\n        uint earnings = bondingCurve.mulDiv(totalLost, tokensOwned, market.totalMinted[market.winningOutcome]);\n        require(earnings > 0, \"Earnings is zero.\");\n        /// @notice User wins back stake + computed percent of the prize pool.\n        uint owedVision = userStake + earnings;\n        market.totalStakedByAddress[market.winningOutcome][msg.sender] = 0;\n        foresightTokens.burn(msg.sender, foresightId, tokensOwned);\n        vision.transfer(address(this), owedVision);\n        emit ForesightBurned(index, foresightId, tokensOwned, owedVision, msg.sender);\n    }\n}\n",
  "sourcePath": "contracts/Monitor.sol",
  "abi": [
    {
      "anonymous": false,
      "inputs": [
        {
          "indexed": false,
          "internalType": "uint256",
          "name": "marketIndex",
          "type": "uint256"
        },
        {
          "indexed": false,
          "internalType": "uint256",
          "name": "foresightId",
          "type": "uint256"
        },
        {
          "indexed": false,
          "internalType": "uint256",
          "name": "foresightAmount",
          "type": "uint256"
        },
        {
          "indexed": false,
          "internalType": "uint256",
          "name": "visionOwed",
          "type": "uint256"
        },
        {
          "indexed": false,
          "internalType": "address",
          "name": "addr",
          "type": "address"
        }
      ],
      "name": "ForesightBurned",
      "type": "event"
    },
    {
      "anonymous": false,
      "inputs": [
        {
          "indexed": false,
          "internalType": "uint256",
          "name": "marketIndex",
          "type": "uint256"
        },
        {
          "indexed": false,
          "internalType": "uint256",
          "name": "outcome",
          "type": "uint256"
        },
        {
          "indexed": false,
          "internalType": "uint256",
          "name": "foresight",
          "type": "uint256"
        },
        {
          "indexed": false,
          "internalType": "uint256",
          "name": "stake",
          "type": "uint256"
        },
        {
          "indexed": false,
          "internalType": "address",
          "name": "addr",
          "type": "address"
        }
      ],
      "name": "ForesightMinted",
      "type": "event"
    },
    {
      "anonymous": false,
      "inputs": [
        {
          "indexed": true,
          "internalType": "address",
          "name": "previousOwner",
          "type": "address"
        },
        {
          "indexed": true,
          "internalType": "address",
          "name": "newOwner",
          "type": "address"
        }
      ],
      "name": "OwnershipTransferred",
      "type": "event"
    },
    {
      "anonymous": false,
      "inputs": [
        {
          "indexed": false,
          "internalType": "uint256",
          "name": "index",
          "type": "uint256"
        },
        {
          "indexed": false,
          "internalType": "uint256",
          "name": "yesIndex",
          "type": "uint256"
        },
        {
          "indexed": false,
          "internalType": "uint256",
          "name": "noIndex",
          "type": "uint256"
        },
        {
          "indexed": false,
          "internalType": "uint256",
          "name": "invalidIndex",
          "type": "uint256"
        },
        {
          "indexed": false,
          "internalType": "uint256",
          "name": "stake",
          "type": "uint256"
        }
      ],
      "name": "RealityMarketCreated",
      "type": "event"
    },
    {
      "anonymous": false,
      "inputs": [
        {
          "indexed": false,
          "internalType": "uint256",
          "name": "index",
          "type": "uint256"
        },
        {
          "indexed": false,
          "internalType": "uint256",
          "name": "winningOutcome",
          "type": "uint256"
        }
      ],
      "name": "RealityMarketFinalized",
      "type": "event"
    },
    {
      "inputs": [],
      "name": "RESERVE_RATIO",
      "outputs": [
        {
          "internalType": "uint32",
          "name": "",
          "type": "uint32"
        }
      ],
      "stateMutability": "view",
      "type": "function"
    },
    {
      "inputs": [],
      "name": "bondingCurve",
      "outputs": [
        {
          "internalType": "contract IBancorBondingCurve",
          "name": "",
          "type": "address"
        }
      ],
      "stateMutability": "view",
      "type": "function"
    },
    {
      "inputs": [],
      "name": "bondingCurveAddress",
      "outputs": [
        {
          "internalType": "address",
          "name": "",
          "type": "address"
        }
      ],
      "stateMutability": "view",
      "type": "function"
    },
    {
      "inputs": [
        {
          "internalType": "uint256",
          "name": "index",
          "type": "uint256"
        },
        {
          "internalType": "uint256",
          "name": "outcome",
          "type": "uint256"
        },
        {
          "internalType": "uint256",
          "name": "amount",
          "type": "uint256"
        }
      ],
      "name": "buyPosition",
      "outputs": [],
      "stateMutability": "nonpayable",
      "type": "function"
    },
    {
      "inputs": [
        {
          "internalType": "string",
          "name": "question",
          "type": "string"
        },
        {
          "internalType": "uint256",
          "name": "endTime",
          "type": "uint256"
        },
        {
          "internalType": "uint256",
          "name": "invalidStake",
          "type": "uint256"
        }
      ],
      "name": "createRealityMarket",
      "outputs": [],
      "stateMutability": "nonpayable",
      "type": "function"
    },
    {
      "inputs": [
        {
          "internalType": "uint256",
          "name": "index",
          "type": "uint256"
        }
      ],
      "name": "finalizeMarket",
      "outputs": [],
      "stateMutability": "nonpayable",
      "type": "function"
    },
    {
      "inputs": [],
      "name": "foresightTokens",
      "outputs": [
        {
          "internalType": "contract ForesightTokens",
          "name": "",
          "type": "address"
        }
      ],
      "stateMutability": "view",
      "type": "function"
    },
    {
      "inputs": [
        {
          "internalType": "uint256",
          "name": "index",
          "type": "uint256"
        },
        {
          "internalType": "uint256",
          "name": "outcome",
          "type": "uint256"
        },
        {
          "internalType": "uint256",
          "name": "amount",
          "type": "uint256"
        }
      ],
      "name": "getPurchaseReturn",
      "outputs": [
        {
          "internalType": "uint256",
          "name": "foresightAmount",
          "type": "uint256"
        }
      ],
      "stateMutability": "view",
      "type": "function"
    },
    {
      "inputs": [
        {
          "internalType": "address",
          "name": "_visionAddress",
          "type": "address"
        },
        {
          "internalType": "address",
          "name": "_bondingCurveAddress",
          "type": "address"
        }
      ],
      "name": "initialize",
      "outputs": [],
      "stateMutability": "nonpayable",
      "type": "function"
    },
    {
      "inputs": [],
      "name": "initialized",
      "outputs": [
        {
          "internalType": "bool",
          "name": "",
          "type": "bool"
        }
      ],
      "stateMutability": "view",
      "type": "function"
    },
    {
      "inputs": [],
      "name": "initializer",
      "outputs": [
        {
          "internalType": "address",
          "name": "",
          "type": "address"
        }
      ],
      "stateMutability": "view",
      "type": "function"
    },
    {
      "inputs": [],
      "name": "owner",
      "outputs": [
        {
          "internalType": "address",
          "name": "",
          "type": "address"
        }
      ],
      "stateMutability": "view",
      "type": "function"
    },
    {
      "inputs": [],
      "name": "realityMarketCounts",
      "outputs": [
        {
          "internalType": "uint256",
          "name": "",
          "type": "uint256"
        }
      ],
      "stateMutability": "view",
      "type": "function"
    },
    {
      "inputs": [
        {
          "internalType": "uint256",
          "name": "",
          "type": "uint256"
        }
      ],
      "name": "realityMarketRegistry",
      "outputs": [
        {
          "internalType": "uint256",
          "name": "id",
          "type": "uint256"
        },
        {
          "internalType": "bool",
          "name": "finalized",
          "type": "bool"
        },
        {
          "internalType": "uint256",
          "name": "winningOutcome",
          "type": "uint256"
        },
        {
          "internalType": "uint256",
          "name": "endTime",
          "type": "uint256"
        },
        {
          "internalType": "string",
          "name": "question",
          "type": "string"
        },
        {
          "internalType": "uint256",
          "name": "tokenIndex",
          "type": "uint256"
        },
        {
          "internalType": "uint256",
          "name": "invalidStake",
          "type": "uint256"
        }
      ],
      "stateMutability": "view",
      "type": "function"
    },
    {
      "inputs": [],
      "name": "renounceOwnership",
      "outputs": [],
      "stateMutability": "nonpayable",
      "type": "function"
    },
    {
      "inputs": [
        {
          "internalType": "address",
          "name": "newOwner",
          "type": "address"
        }
      ],
      "name": "transferOwnership",
      "outputs": [],
      "stateMutability": "nonpayable",
      "type": "function"
    },
    {
      "inputs": [],
      "name": "vision",
      "outputs": [
        {
          "internalType": "contract IERC20",
          "name": "",
          "type": "address"
        }
      ],
      "stateMutability": "view",
      "type": "function"
    },
    {
      "inputs": [
        {
          "internalType": "uint256",
          "name": "index",
          "type": "uint256"
        },
        {
          "internalType": "uint256",
          "name": "foresightId",
          "type": "uint256"
        }
      ],
      "name": "withdrawWinningStake",
      "outputs": [],
      "stateMutability": "nonpayable",
      "type": "function"
    }
  ],
  "bytecode": "0x60806040526002805460ff60a01b19169055600060075534801561002257600080fd5b5060016000908155610032610085565b600180546001600160a01b0319166001600160a01b038316908117909155604051919250906000907f8be0079c531659141344cd1fd0a4f28419497f9722a3daafe3b4186f6b6457e0908290a350610089565b3390565b613d16806100986000396000f3fe60806040523480156200001157600080fd5b5060043610620000fa5760003560e01c806307062cf214620000ff57806307fac3ae1462000125578063158ef93e14620001415780632e3a8751146200015f5780633770592e146200018d578063421e108c14620001b3578063485cc95514620001bd578063715018a614620001ee5780637806091c14620001f85780638570ce7714620002245780638da5cb5b14620002d35780639ce110d714620002dd578063c9d2d5de14620002e7578063d93da94f1462000307578063e37dbfd914620003ce578063eff1d50e14620003f1578063f2fde38b14620003fb578063f3a2b4bc1462000424575b600080fd5b620001096200042e565b604080516001600160a01b039092168252519081900360200190f35b6200012f6200043d565b60408051918252519081900360200190f35b6200014b62000443565b604080519115158252519081900360200190f35b6200018b600480360360608110156200017757600080fd5b508035906020810135906040013562000453565b005b6200018b60048036036040811015620001a557600080fd5b50803590602001356200084f565b6200010962000e3f565b6200018b60048036036040811015620001d557600080fd5b506001600160a01b038135811691602001351662000e4e565b6200018b62000f74565b6200012f600480360360608110156200021057600080fd5b508035906020810135906040013562001009565b6200018b600480360360608110156200023c57600080fd5b810190602081018135600160201b8111156200025757600080fd5b8201836020820111156200026a57600080fd5b803590602001918460018302840111600160201b831117156200028c57600080fd5b91908080601f016020809104026020016040519081016040528093929190818152602001838380828437600092019190915250929550508235935050506020013562001102565b620001096200144b565b620001096200145a565b6200018b60048036036020811015620002ff57600080fd5b503562001469565b62000327600480360360208110156200031f57600080fd5b503562001701565b60405180888152602001871515815260200186815260200185815260200180602001848152602001838152602001828103825285818151815260200191508051906020019080838360005b838110156200038c57818101518382015260200162000372565b50505050905090810190601f168015620003ba5780820380516001836020036101000a031916815260200191505b509850505050505050505060405180910390f35b620003d8620017cd565b6040805163ffffffff9092168252519081900360200190f35b62000109620017d4565b6200018b600480360360208110156200041357600080fd5b50356001600160a01b0316620017e3565b62000109620018d1565b6003546001600160a01b031681565b60075481565b600254600160a01b900460ff1681565b600260005414156200049b576040805162461bcd60e51b815260206004820152601f602482015260008051602062003b13833981519152604482015290519081900360640190fd5b6002600081905554600160a01b900460ff16620004ee576040805162461bcd60e51b815260206004820152601a602482015260008051602062003c7a833981519152604482015290519081900360640190fd5b6000808211620005305760405162461bcd60e51b815260040180806020018281038252602881526020018062003be96028913960400191505060405180910390fd5b6000848152600860205260409020600501546200054f906002620018e0565b8314156200055b575060015b6000848152600860205260409020600501546200057a906001620018e0565b83141562000586575060015b600084815260086020526040902060050154831415620005a4575060015b80620005e25760405162461bcd60e51b815260040180806020018281038252603e81526020018062003b85603e913960400191505060405180910390fd5b6000620005f185858562001009565b905060008111620006345760405162461bcd60e51b815260040180806020018281038252602c81526020018062003b33602c913960400191505060405180910390fd5b60008581526008602090815260408083208784526007019091529020546200065d9084620018e0565b600086815260086020818152604080842089855260078101835281852095909555939091018152828220338352905220546200069a9084620018e0565b60008681526008602081815260408084208985529283018252808420338552825280842094909455878352600690910190522054620006da9082620018e0565b600086815260086020908152604080832088845260060190915280822092909255600480548351630ab714fb60e11b81523392810192909252602482018890526044820185905292516001600160a01b039093169263156e29f69260648084019391929182900301818387803b1580156200075457600080fd5b505af115801562000769573d6000803e3d6000fd5b5050600354604080516323b872dd60e01b81523360048201523060248201526044810188905290516001600160a01b0390921693506323b872dd92506064808201926020929091908290030181600087803b158015620007c857600080fd5b505af1158015620007dd573d6000803e3d6000fd5b505050506040513d6020811015620007f457600080fd5b505060408051868152602081018690528082018390526060810185905233608082015290517f848dc3e6ee3c6e2b1648a7813a699a4753e74fa3a041f739816572d69a0c7ff09181900360a00190a150506001600055505050565b6002600054141562000897576040805162461bcd60e51b815260206004820152601f602482015260008051602062003b13833981519152604482015290519081900360640190fd5b6002600081905554600160a01b900460ff16620008ea576040805162461bcd60e51b815260206004820152601a602482015260008051602062003c7a833981519152604482015290519081900360640190fd5b6000828152600860205260409020600181015460ff166200094a576040805162461bcd60e51b815260206004820152601560248201527426b0b935b2ba103737ba103334b730b634bd32b21760591b604482015290519081900360640190fd5b806002015482146200098e5760405162461bcd60e51b815260040180806020018281038252602181526020018062003c9a6021913960400191505060405180910390fd5b6000838152600860208181526040808420600286015485529092018152818320338452905290205480620009f45760405162461bcd60e51b815260040180806020018281038252602981526020018062003c116029913960400191505060405180910390fd5b6004805460408051627eeac760e11b81523393810193909352602483018690525160009283926001600160a01b03169162fdd58e91604480820192602092909190829003018186803b15801562000a4a57600080fd5b505afa15801562000a5f573d6000803e3d6000fd5b505050506040513d602081101562000a7657600080fd5b505160028501546000908152600886016020908152604080832033845290915290205490915062000ad4576040805162461bcd60e51b8152602060048201526003602482015262121a5d60ea1b604482015290519081900360640190fd5b6000811162000b12576040805162461bcd60e51b81526020600482015260056024820152642434ba101960d91b604482015290519081900360640190fd5b6005840154600062000b26826001620018e0565b9050600062000b4460028860050154620018e090919063ffffffff16565b9050828760020154141562000b795760008181526007880160205260408082205484835291205462000b7691620018e0565b94505b818760020154141562000bac5760008181526007880160205260408082205485835291205462000ba991620018e0565b94505b808760020154141562000bdf5760008381526007880160205260408082205484835291205462000bdc91620018e0565b94505b60055460028801546000908152600689016020908152604080832054815163554d048960e11b8152600481018b9052602481018a90526044810191909152905192936001600160a01b03169263aa9a091292606480840193919291829003018186803b15801562000c4f57600080fd5b505afa15801562000c64573d6000803e3d6000fd5b505050506040513d602081101562000c7b57600080fd5b505190508062000cc6576040805162461bcd60e51b815260206004820152601160248201527022b0b93734b733b99034b9903d32b9379760791b604482015290519081900360640190fd5b600288015460009081526008890160209081526040808320338085529252808320839055600480548251637a94c56560e11b815291820193909352602481018d9052604481018990529051848b01936001600160a01b039093169263f5298aca926064808201939182900301818387803b15801562000d4457600080fd5b505af115801562000d59573d6000803e3d6000fd5b50506003546040805163a9059cbb60e01b81523060048201526024810186905290516001600160a01b03909216935063a9059cbb92506044808201926020929091908290030181600087803b15801562000db257600080fd5b505af115801562000dc7573d6000803e3d6000fd5b505050506040513d602081101562000dde57600080fd5b5050604080518c8152602081018c90528082018890526060810183905233608082015290517f4227c3cc576e8e2393409ebc1c956b9d14a76d89f319d3bc44ec269034170ad69181900360a00190a150506001600055505050505050505050565b6006546001600160a01b031681565b62000e5862001940565b6001546001600160a01b0390811691161462000eaa576040805162461bcd60e51b8152602060048201819052602482015260008051602062003c3a833981519152604482015290519081900360640190fd5b600254600160a01b900460ff161562000ef55760405162461bcd60e51b815260040180806020018281038252602681526020018062003bc36026913960400191505060405180910390fd5b6002805460ff60a01b1916600160a01b17905560405162000f169062001944565b604051809103906000f08015801562000f33573d6000803e3d6000fd5b50600480546001600160a01b03199081166001600160a01b039384161790915560058054821693831693909317909255600380549092169216919091179055565b62000f7e62001940565b6001546001600160a01b0390811691161462000fd0576040805162461bcd60e51b8152602060048201819052602482015260008051602062003c3a833981519152604482015290519081900360640190fd5b6001546040516000916001600160a01b03169060008051602062003c5a833981519152908390a3600180546001600160a01b0319169055565b6000838152600860209081526040808320858452600601909152812054819062001035906001620018e0565b60008681526008602090815260408083208884526007019091528120549192509062001063906001620018e0565b60055460408051630a68039f60e21b81526004810186905260248101849052620dbba060448201526064810188905290519293506001600160a01b03909116916329a00e7c91608480820192602092909190829003018186803b158015620010ca57600080fd5b505afa158015620010df573d6000803e3d6000fd5b505050506040513d6020811015620010f657600080fd5b50519695505050505050565b600260005414156200114a576040805162461bcd60e51b815260206004820152601f602482015260008051602062003b13833981519152604482015290519081900360640190fd5b6002600081905554600160a01b900460ff166200119d576040805162461bcd60e51b815260206004820152601a602482015260008051602062003c7a833981519152604482015290519081900360640190fd5b814210620011dd5760405162461bcd60e51b815260040180806020018281038252602681526020018062003cbb6026913960400191505060405180910390fd5b600754600090620011f0906001620018e0565b60078190556004805460408051637d549e9960e01b815290519394506000936001600160a01b0390921692637d549e99928282019260209290829003018186803b1580156200123e57600080fd5b505afa15801562001253573d6000803e3d6000fd5b505050506040513d60208110156200126a57600080fd5b5051905060006200127d826001620018e0565b905060006200128e836002620018e0565b905060006200129f846003620018e0565b600086815260086020908152604090912087815560018101805460ff19169055600381018a90558a51929350620012df926004909101918b019062001952565b506004805460408051635d2585a560e01b815290516001600160a01b0390921692635d2585a59282820192602092908290030181600087803b1580156200132557600080fd5b505af11580156200133a573d6000803e3d6000fd5b505050506040513d60208110156200135157600080fd5b505160008681526008602090815260408083206005019390935560035483516323b872dd60e01b8152336004820152306024820152604481018b905293516001600160a01b03909116936323b872dd9360648083019493928390030190829087803b158015620013c057600080fd5b505af1158015620013d5573d6000803e3d6000fd5b505050506040513d6020811015620013ec57600080fd5b50506040805186815260208101839052808201849052606081018590526080810188905290517f423e9dbd8fc6d26f32588abe207ec38eba1eb72c68d4f43f4e889d0e37250fe79181900360a00190a150506001600055505050505050565b6001546001600160a01b031690565b6002546001600160a01b031681565b60026000541415620014b1576040805162461bcd60e51b815260206004820152601f602482015260008051602062003b13833981519152604482015290519081900360640190fd5b6002600081905554600160a01b900460ff1662001504576040805162461bcd60e51b815260206004820152601a602482015260008051602062003c7a833981519152604482015290519081900360640190fd5b6000818152600860205260409020600381015442116200156b576040805162461bcd60e51b815260206004820181905260248201527f4d61726b657420686173206e6f74207265616368656420456e642054696d652e604482015290519081900360640190fd5b600181015460ff1615620015c2576040805162461bcd60e51b815260206004820152601960248201527826b0b935b2ba1030b63932b0b23c903334b730b634bd32b21760391b604482015290519081900360640190fd5b60008281526008602052604081206005015490620015e2826001620018e0565b6000858152600860205260408120600501549192509062001605906002620018e0565b600086815260086020908152604080832060050154868452600689019092528083205484845292205492935091118015620016555750600084815260068601602052604080822054848352912054115b156200165e5750805b600082815260068601602052604080822054858352912054118015620016995750600084815260068601602052604080822054858352912054115b15620016a25750815b6001858101805460ff1916909117905560028501819055604080518781526020810183905281517f7f4869f28d2939b68770f0c14e454022dfa3ae244b7ae0200b511f4e50ff91ba929181900390910190a15050600160005550505050565b600860209081526000918252604091829020805460018083015460028085015460038601546004870180548a516101009782161597909702600019011693909304601f8101899004890286018901909952888552949760ff909316969095939290830182828015620017b75780601f106200178b57610100808354040283529160200191620017b7565b820191906000526020600020905b8154815290600101906020018083116200179957829003601f168201915b5050505050908060050154908060090154905087565b620dbba081565b6005546001600160a01b031681565b620017ed62001940565b6001546001600160a01b039081169116146200183f576040805162461bcd60e51b8152602060048201819052602482015260008051602062003c3a833981519152604482015290519081900360640190fd5b6001600160a01b038116620018865760405162461bcd60e51b815260040180806020018281038252602681526020018062003b5f6026913960400191505060405180910390fd5b6001546040516001600160a01b0380841692169060008051602062003c5a83398151915290600090a3600180546001600160a01b0319166001600160a01b0392909216919091179055565b6004546001600160a01b031681565b60008282018381101562001939576040805162461bcd60e51b815260206004820152601b60248201527a536166654d6174683a206164646974696f6e206f766572666c6f7760281b604482015290519081900360640190fd5b9392505050565b3390565b61212480620019ef83390190565b828054600181600116156101000203166002900490600052602060002090601f016020900481019282601f106200199557805160ff1916838001178555620019c5565b82800160010185558215620019c5579182015b82811115620019c5578251825591602001919060010190620019a8565b50620019d3929150620019d7565b5090565b5b80821115620019d35760008155600101620019d856fe608060405260006006553480156200001657600080fd5b50604080516020810190915260008152620000517f01ffc9a70000000000000000000000000000000000000000000000000000000062000118565b6200005c81620001e7565b620000877fd9b67a260000000000000000000000000000000000000000000000000000000062000118565b620000b27f0e89341c0000000000000000000000000000000000000000000000000000000062000118565b506000620000bf62000200565b600480546001600160a01b0319166001600160a01b038316908117909155604051919250906000907f8be0079c531659141344cd1fd0a4f28419497f9722a3daafe3b4186f6b6457e0908290a3506001600555620002a0565b7fffffffff000000000000000000000000000000000000000000000000000000008082161415620001aa57604080517f08c379a000000000000000000000000000000000000000000000000000000000815260206004820152601c60248201527f4552433136353a20696e76616c696420696e7465726661636520696400000000604482015290519081900360640190fd5b7fffffffff00000000000000000000000000000000000000000000000000000000166000908152602081905260409020805460ff19166001179055565b8051620001fc90600390602084019062000204565b5050565b3390565b828054600181600116156101000203166002900490600052602060002090601f016020900481019282601f106200024757805160ff191683800117855562000277565b8280016001018555821562000277579182015b82811115620002775782518255916020019190600101906200025a565b506200028592915062000289565b5090565b5b808211156200028557600081556001016200028a565b611e7480620002b06000396000f3fe608060405234801561001057600080fd5b50600436106100c45760003560e01c8062fdd58e146100c957806301ffc9a7146101075780630e89341c14610142578063156e29f6146101d45780632eb2c2d6146102085780634e1273f4146103c95780635d2585a51461053c578063715018a6146105445780637d549e991461054c5780638da5cb5b14610554578063a22cb46514610578578063e985e9c5146105a6578063f242432a146105d4578063f2fde38b1461069d578063f5298aca146106c3575b600080fd5b6100f5600480360360408110156100df57600080fd5b506001600160a01b0381351690602001356106f5565b60408051918252519081900360200190f35b61012e6004803603602081101561011d57600080fd5b50356001600160e01b031916610764565b604080519115158252519081900360200190f35b61015f6004803603602081101561015857600080fd5b5035610783565b6040805160208082528351818301528351919283929083019185019080838360005b83811015610199578181015183820152602001610181565b50505050905090810190601f1680156101c65780820380516001836020036101000a031916815260200191505b509250505060405180910390f35b610206600480360360608110156101ea57600080fd5b506001600160a01b03813516906020810135906040013561081b565b005b610206600480360360a081101561021e57600080fd5b6001600160a01b038235811692602081013590911691810190606081016040820135600160201b81111561025157600080fd5b82018360208201111561026357600080fd5b803590602001918460208302840111600160201b8311171561028457600080fd5b9190808060200260200160405190810160405280939291908181526020018383602002808284376000920191909152509295949360208101935035915050600160201b8111156102d357600080fd5b8201836020820111156102e557600080fd5b803590602001918460208302840111600160201b8311171561030657600080fd5b9190808060200260200160405190810160405280939291908181526020018383602002808284376000920191909152509295949360208101935035915050600160201b81111561035557600080fd5b82018360208201111561036757600080fd5b803590602001918460018302840111600160201b8311171561038857600080fd5b91908080601f0160208091040260200160405190810160405280939291908181526020018383808284376000920191909152509295506108e6945050505050565b6104ec600480360360408110156103df57600080fd5b810190602081018135600160201b8111156103f957600080fd5b82018360208201111561040b57600080fd5b803590602001918460208302840111600160201b8311171561042c57600080fd5b9190808060200260200160405190810160405280939291908181526020018383602002808284376000920191909152509295949360208101935035915050600160201b81111561047b57600080fd5b82018360208201111561048d57600080fd5b803590602001918460208302840111600160201b831117156104ae57600080fd5b919080806020026020016040519081016040528093929190818152602001838360200280828437600092019190915250929550610be4945050505050565b60408051602080825283518183015283519192839290830191858101910280838360005b83811015610528578181015183820152602001610510565b505050509050019250505060405180910390f35b6100f5610d61565b610206610e18565b6100f5610ea8565b61055c610eae565b604080516001600160a01b039092168252519081900360200190f35b6102066004803603604081101561058e57600080fd5b506001600160a01b0381351690602001351515610ebe565b61012e600480360360408110156105bc57600080fd5b506001600160a01b0381358116916020013516610fad565b610206600480360360a08110156105ea57600080fd5b6001600160a01b03823581169260208101359091169160408201359160608101359181019060a081016080820135600160201b81111561062957600080fd5b82018360208201111561063b57600080fd5b803590602001918460018302840111600160201b8311171561065c57600080fd5b91908080601f016020809104026020016040519081016040528093929190818152602001838380828437600092019190915250929550610fdb945050505050565b610206600480360360208110156106b357600080fd5b50356001600160a01b0316611194565b610206600480360360608110156106d957600080fd5b506001600160a01b03813516906020810135906040013561127b565b60006001600160a01b03831661073c5760405162461bcd60e51b815260040180806020018281038252602b815260200180611bf1602b913960400191505060405180910390fd5b5060009081526001602090815260408083206001600160a01b03949094168352929052205490565b6001600160e01b03191660009081526020819052604090205460ff1690565b60038054604080516020601f600260001961010060018816150201909516949094049384018190048102820181019092528281526060939092909183018282801561080f5780601f106107e45761010080835404028352916020019161080f565b820191906000526020600020905b8154815290600101906020018083116107f257829003601f168201915b50505050509050919050565b610823611329565b6004546001600160a01b03908116911614610873576040805162461bcd60e51b81526020600482018190526024820152600080516020611d64833981519152604482015290519081900360640190fd5b600260055414156108b9576040805162461bcd60e51b815260206004820152601f6024820152600080516020611bb1833981519152604482015290519081900360640190fd5b60026005819055506108dc8383836040518060200160405280600081525061132d565b5050600160055550565b81518351146109265760405162461bcd60e51b8152600401808060200182810382526028815260200180611df66028913960400191505060405180910390fd5b6001600160a01b03841661096b5760405162461bcd60e51b8152600401808060200182810382526025815260200180611cc06025913960400191505060405180910390fd5b610973611329565b6001600160a01b0316856001600160a01b0316148061099e575061099e85610999611329565b610fad565b6109d95760405162461bcd60e51b8152600401808060200182810382526032815260200180611ce56032913960400191505060405180910390fd5b60006109e3611329565b90506109f3818787878787610bdc565b60005b8451811015610af4576000858281518110610a0d57fe5b602002602001015190506000858381518110610a2557fe5b60200260200101519050610a92816040518060600160405280602a8152602001611d3a602a91396001600086815260200190815260200160002060008d6001600160a01b03166001600160a01b03168152602001908152602001600020546114239092919063ffffffff16565b60008381526001602090815260408083206001600160a01b038e811685529252808320939093558a1681522054610ac990826114ba565b60009283526001602081815260408086206001600160a01b038d1687529091529093205550016109f6565b50846001600160a01b0316866001600160a01b0316826001600160a01b03167f4a39dc06d4c0dbc64b70af90fd698a233a518aa5d07e595d983b8c0526c8f7fb8787604051808060200180602001838103835285818151815260200191508051906020019060200280838360005b83811015610b7a578181015183820152602001610b62565b50505050905001838103825284818151815260200191508051906020019060200280838360005b83811015610bb9578181015183820152602001610ba1565b5050505090500194505050505060405180910390a4610bdc818787878787611519565b505050505050565b60608151835114610c265760405162461bcd60e51b8152600401808060200182810382526029815260200180611dcd6029913960400191505060405180910390fd5b606083516001600160401b0381118015610c3f57600080fd5b50604051908082528060200260200182016040528015610c69578160200160208202803683370190505b50905060005b8451811015610d595760006001600160a01b0316858281518110610c8f57fe5b60200260200101516001600160a01b03161415610cdd5760405162461bcd60e51b8152600401808060200182810382526031815260200180611c1c6031913960400191505060405180910390fd5b60016000858381518110610ced57fe5b602002602001015181526020019081526020016000206000868381518110610d1157fe5b60200260200101516001600160a01b03166001600160a01b0316815260200190815260200160002054828281518110610d4657fe5b6020908102919091010152600101610c6f565b509392505050565b6000610d6b611329565b6004546001600160a01b03908116911614610dbb576040805162461bcd60e51b81526020600482018190526024820152600080516020611d64833981519152604482015290519081900360640190fd5b60026005541415610e01576040805162461bcd60e51b815260206004820152601f6024820152600080516020611bb1833981519152604482015290519081900360640190fd5b506006805460038101909155600160058190550190565b610e20611329565b6004546001600160a01b03908116911614610e70576040805162461bcd60e51b81526020600482018190526024820152600080516020611d64833981519152604482015290519081900360640190fd5b6004546040516000916001600160a01b031690600080516020611d84833981519152908390a3600480546001600160a01b0319169055565b60065481565b6004546001600160a01b03165b90565b816001600160a01b0316610ed0611329565b6001600160a01b03161415610f165760405162461bcd60e51b8152600401808060200182810382526029815260200180611da46029913960400191505060405180910390fd5b8060026000610f23611329565b6001600160a01b03908116825260208083019390935260409182016000908120918716808252919093529120805460ff191692151592909217909155610f67611329565b6001600160a01b03167f17307eab39ab6107e8899845ad3d59bd9653f200f220920489ca2b5937696c318360405180821515815260200191505060405180910390a35050565b6001600160a01b03918216600090815260026020908152604080832093909416825291909152205460ff1690565b6001600160a01b0384166110205760405162461bcd60e51b8152600401808060200182810382526025815260200180611cc06025913960400191505060405180910390fd5b611028611329565b6001600160a01b0316856001600160a01b0316148061104e575061104e85610999611329565b6110895760405162461bcd60e51b8152600401808060200182810382526029815260200180611c976029913960400191505060405180910390fd5b6000611093611329565b90506110b38187876110a488611798565b6110ad88611798565b87610bdc565b6110fa836040518060600160405280602a8152602001611d3a602a913960008781526001602090815260408083206001600160a01b038d1684529091529020549190611423565b60008581526001602090815260408083206001600160a01b038b8116855292528083209390935587168152205461113190846114ba565b60008581526001602090815260408083206001600160a01b03808b168086529184529382902094909455805188815291820187905280518a841693861692600080516020611bd183398151915292908290030190a4610bdc8187878787876117dc565b61119c611329565b6004546001600160a01b039081169116146111ec576040805162461bcd60e51b81526020600482018190526024820152600080516020611d64833981519152604482015290519081900360640190fd5b6001600160a01b0381166112315760405162461bcd60e51b8152600401808060200182810382526026815260200180611c4d6026913960400191505060405180910390fd5b6004546040516001600160a01b03808416921690600080516020611d8483398151915290600090a3600480546001600160a01b0319166001600160a01b0392909216919091179055565b611283611329565b6004546001600160a01b039081169116146112d3576040805162461bcd60e51b81526020600482018190526024820152600080516020611d64833981519152604482015290519081900360640190fd5b60026005541415611319576040805162461bcd60e51b815260206004820152601f6024820152600080516020611bb1833981519152604482015290519081900360640190fd5b60026005556108dc83838361194d565b3390565b6001600160a01b0384166113725760405162461bcd60e51b8152600401808060200182810382526021815260200180611e1e6021913960400191505060405180910390fd5b600061137c611329565b905061138e816000876110a488611798565b60008481526001602090815260408083206001600160a01b03891684529091529020546113bb90846114ba565b60008581526001602090815260408083206001600160a01b03808b1680865291845282852095909555815189815292830188905281519094861692600080516020611bd183398151915292908290030190a461141c816000878787876117dc565b5050505050565b600081848411156114b25760405162461bcd60e51b81526004018080602001828103825283818151815260200191508051906020019080838360005b8381101561147757818101518382015260200161145f565b50505050905090810190601f1680156114a45780820380516001836020036101000a031916815260200191505b509250505060405180910390fd5b505050900390565b600082820183811015611512576040805162461bcd60e51b815260206004820152601b60248201527a536166654d6174683a206164646974696f6e206f766572666c6f7760281b604482015290519081900360640190fd5b9392505050565b61152b846001600160a01b0316611a6e565b15610bdc57836001600160a01b031663bc197c8187878686866040518663ffffffff1660e01b815260040180866001600160a01b03168152602001856001600160a01b03168152602001806020018060200180602001848103845287818151815260200191508051906020019060200280838360005b838110156115b95781810151838201526020016115a1565b50505050905001848103835286818151815260200191508051906020019060200280838360005b838110156115f85781810151838201526020016115e0565b50505050905001848103825285818151815260200191508051906020019080838360005b8381101561163457818101518382015260200161161c565b50505050905090810190601f1680156116615780820380516001836020036101000a031916815260200191505b5098505050505050505050602060405180830381600087803b15801561168657600080fd5b505af19250505080156116ab57506040513d60208110156116a657600080fd5b505160015b611740576116b7611ab0565b806116c25750611709565b60405162461bcd60e51b815260206004820181815283516024840152835184939192839260440191908501908083836000831561147757818101518382015260200161145f565b60405162461bcd60e51b8152600401808060200182810382526034815260200180611b556034913960400191505060405180910390fd5b6001600160e01b0319811663bc197c8160e01b1461178f5760405162461bcd60e51b8152600401808060200182810382526028815260200180611b896028913960400191505060405180910390fd5b50505050505050565b6040805160018082528183019092526060918291906020808301908036833701905050905082816000815181106117cb57fe5b602090810291909101015292915050565b6117ee846001600160a01b0316611a6e565b15610bdc57836001600160a01b031663f23a6e6187878686866040518663ffffffff1660e01b815260040180866001600160a01b03168152602001856001600160a01b0316815260200184815260200183815260200180602001828103825283818151815260200191508051906020019080838360005b8381101561187d578181015183820152602001611865565b50505050905090810190601f1680156118aa5780820380516001836020036101000a031916815260200191505b509650505050505050602060405180830381600087803b1580156118cd57600080fd5b505af19250505080156118f257506040513d60208110156118ed57600080fd5b505160015b6118fe576116b7611ab0565b6001600160e01b0319811663f23a6e6160e01b1461178f5760405162461bcd60e51b8152600401808060200182810382526028815260200180611b896028913960400191505060405180910390fd5b6001600160a01b0383166119925760405162461bcd60e51b8152600401808060200182810382526023815260200180611d176023913960400191505060405180910390fd5b600061199c611329565b90506119cc818560006119ae87611798565b6119b787611798565b60405180602001604052806000815250610bdc565b611a1382604051806060016040528060248152602001611c736024913960008681526001602090815260408083206001600160a01b038b1684529091529020549190611423565b60008481526001602090815260408083206001600160a01b03808a1680865291845282852095909555815188815292830187905281519394909390861692600080516020611bd183398151915292908290030190a450505050565b6000813f7fc5d2460186f7233c927e7db2dcc703c0e500b653ca82273b7bfad8045d85a470818114801590611aa257508115155b949350505050565b60e01c90565b600060443d1015611ac057610ebb565b600481823e6308c379a0611ad48251611aaa565b14611ade57610ebb565b6040513d600319016004823e80513d6001600160401b038083116024840183101715611b0d5750505050610ebb565b82840192508251915080821115611b275750505050610ebb565b503d83016020828401011115611b3f57505050610ebb565b601f01601f191681016020016040529150509056fe455243313135353a207472616e7366657220746f206e6f6e2045524331313535526563656976657220696d706c656d656e746572455243313135353a204552433131353552656365697665722072656a656374656420746f6b656e735265656e7472616e637947756172643a207265656e7472616e742063616c6c00c3d58168c5ae7397731d063d5bbf3d657854427343f4c083240f7aacaa2d0f62455243313135353a2062616c616e636520717565727920666f7220746865207a65726f2061646472657373455243313135353a2062617463682062616c616e636520717565727920666f7220746865207a65726f20616464726573734f776e61626c653a206e6577206f776e657220697320746865207a65726f2061646472657373455243313135353a206275726e20616d6f756e7420657863656564732062616c616e6365455243313135353a2063616c6c6572206973206e6f74206f776e6572206e6f7220617070726f766564455243313135353a207472616e7366657220746f20746865207a65726f2061646472657373455243313135353a207472616e736665722063616c6c6572206973206e6f74206f776e6572206e6f7220617070726f766564455243313135353a206275726e2066726f6d20746865207a65726f2061646472657373455243313135353a20696e73756666696369656e742062616c616e636520666f72207472616e736665724f776e61626c653a2063616c6c6572206973206e6f7420746865206f776e65728be0079c531659141344cd1fd0a4f28419497f9722a3daafe3b4186f6b6457e0455243313135353a2073657474696e6720617070726f76616c2073746174757320666f722073656c66455243313135353a206163636f756e747320616e6420696473206c656e677468206d69736d61746368455243313135353a2069647320616e6420616d6f756e7473206c656e677468206d69736d61746368455243313135353a206d696e7420746f20746865207a65726f2061646472657373a2646970667358221220e9e9d2cdcc64bc538230de63ea8dbc036c83484d901766728eeb422180a2181864736f6c634300060c00335265656e7472616e637947756172643a207265656e7472616e742063616c6c0052657475726e656420666f726573696768742073686f756c642062652067726561746572207468616e20302e4f776e61626c653a206e6577206f776e657220697320746865207a65726f20616464726573734d61726b6574206f7574636f6d652073656c656374696f6e20646f6573206e6f74206d61746368206d61726b657420696e646578206f7574636f6d65732e436f6e74726163742063616e206f6e6c7920626520696e697469616c697a6564206f6e63652e416d6f756e7420746f206d696e742073686f756c642062652067726561746572207468616e20302e5573657220686173206e6f207374616b6520696e207468652077696e6e696e67206f7574636f6d652e4f776e61626c653a2063616c6c6572206973206e6f7420746865206f776e65728be0079c531659141344cd1fd0a4f28419497f9722a3daafe3b4186f6b6457e04d6f6e69746f72206973206e6f7420696e697469616c697a656400000000000053656c656374656420746f6b656e206973206e6f742072656465656d61626c652e4d61726b657420656e642074696d652063616e6e6f7420626520696e2074686520706173742ea2646970667358221220b27d4b6c3cab197ea8c1d841bf0e1d1bcfd137e5be0d0528119a628d880b3d0e64736f6c634300060c0033",
  "compiler": {
    "name": "solc",
    "version": "0.6.12+commit.27d51765.Emscripten.clang",
    "optimizer": {
      "enabled": true,
      "runs": 1
    },
    "evmVersion": "petersburg"
  }
}