{
  "fileName": "Monitor.sol",
  "contractName": "Monitor",
  "source": "// SPDX-License-Identifier: Unlicense\n\npragma solidity 0.6.12;\n\nimport \"@openzeppelin/contracts/utils/ReentrancyGuard.sol\";\nimport \"@openzeppelin/contracts/token/ERC20/IERC20.sol\";\nimport \"./MarketVoting.sol\";\nimport \"./RealityMarketRegistry.sol\";\nimport \"./IRealityMarket.sol\";\n\n\n/// @title Monitor\n/// @notice Code to create and stake for information markets.\ncontract Monitor is ReentrancyGuard {\n    /// @notice Amount of Vision staked on the market.\n    mapping(address => uint) public stakeForMarket;\n    /// @notice Owner for the given market.\n    mapping(address => address) public ownerForMarket;\n    /// @notice Token used to generate Foresight in given markets.\n    address public currencyAddress;\n    /// @notice Address for the Vision token.\n    address public visionAddress;\n    /// @notice Vision token instance.\n    IERC20 public visionToken;\n\n    /// @notice Market creation envent\n    event MarketCreatedEvent(address created);\n\n    /// @notice instance of the Market Registry.\n    RealityMarketRegistry public markets;\n\n    /// @notice address of the Market Registry.\n    address public marketRegistry;\n\n    /// @notice Initializes the Monitor.\n    /// @param setVisionAddress Address for the vision token.\n    /// @param setCurrencyAddress Address for the currency used to create Foresight.\n    constructor(\n        address setVisionAddress,\n        address setCurrencyAddress\n    ) public {\n        visionAddress = setVisionAddress;\n        visionToken = IERC20(visionAddress);\n        currencyAddress = setCurrencyAddress;\n        markets = new RealityMarketRegistry();\n        marketRegistry = address(markets);\n    }\n\n    /// @notice getter for the market registry.\n    function getMarketRegistry() public view returns (address) {\n        return marketRegistry;\n    }\n\n    /// @notice Create a market and stake the set amount of vision token.\n    /// @dev Added non-reentrant but likely don't need it since the stake is added for a\n    ///      new market each time.\n    /// @param setQuestion Question to set for the reality market.\n    /// @param setEndTime End time for the reality market.\n    /// @param stake Amount of Vision to stake on the market.\n    function createMarket(\n        string memory setQuestion,\n        uint setEndTime,\n        uint stake\n    ) public nonReentrant {\n        address marketAddress = markets.createMarket(\n            setQuestion,\n            setEndTime,\n            msg.sender,\n            visionAddress,\n            currencyAddress\n        );\n        stakeForMarket[marketAddress] = stake;\n        ownerForMarket[marketAddress] = address(msg.sender);\n        visionToken.transferFrom(msg.sender, address(this), stake);\n        emit MarketCreatedEvent(marketAddress);\n    }\n\n    /// @notice Withdraws stake from a given market.\n    /// @param marketAddress Market to withdraw stake from.\n    function withdrawStake(address marketAddress) public nonReentrant {\n        require(stakeForMarket[marketAddress] > 0, \"No stake to withdraw\");\n        IRealityMarket market = IRealityMarket(marketAddress);\n        require(market.winningOutcome() != -1, \"Market was deemed invalid. Stake lost\");\n        uint owedStake = stakeForMarket[marketAddress];\n        stakeForMarket[marketAddress] = 0;\n        visionToken.transfer(ownerForMarket[marketAddress], owedStake);\n    }\n}\n",
  "sourcePath": "contracts/Monitor.sol",
  "abi": [
    {
      "inputs": [
        {
          "internalType": "address",
          "name": "setVisionAddress",
          "type": "address"
        },
        {
          "internalType": "address",
          "name": "setCurrencyAddress",
          "type": "address"
        }
      ],
      "stateMutability": "nonpayable",
      "type": "constructor"
    },
    {
      "anonymous": false,
      "inputs": [
        {
          "indexed": false,
          "internalType": "address",
          "name": "created",
          "type": "address"
        }
      ],
      "name": "MarketCreatedEvent",
      "type": "event"
    },
    {
      "inputs": [
        {
          "internalType": "string",
          "name": "setQuestion",
          "type": "string"
        },
        {
          "internalType": "uint256",
          "name": "setEndTime",
          "type": "uint256"
        },
        {
          "internalType": "uint256",
          "name": "stake",
          "type": "uint256"
        }
      ],
      "name": "createMarket",
      "outputs": [],
      "stateMutability": "nonpayable",
      "type": "function"
    },
    {
      "inputs": [],
      "name": "currencyAddress",
      "outputs": [
        {
          "internalType": "address",
          "name": "",
          "type": "address"
        }
      ],
      "stateMutability": "view",
      "type": "function"
    },
    {
      "inputs": [],
      "name": "getMarketRegistry",
      "outputs": [
        {
          "internalType": "address",
          "name": "",
          "type": "address"
        }
      ],
      "stateMutability": "view",
      "type": "function"
    },
    {
      "inputs": [],
      "name": "marketRegistry",
      "outputs": [
        {
          "internalType": "address",
          "name": "",
          "type": "address"
        }
      ],
      "stateMutability": "view",
      "type": "function"
    },
    {
      "inputs": [],
      "name": "markets",
      "outputs": [
        {
          "internalType": "contract RealityMarketRegistry",
          "name": "",
          "type": "address"
        }
      ],
      "stateMutability": "view",
      "type": "function"
    },
    {
      "inputs": [
        {
          "internalType": "address",
          "name": "",
          "type": "address"
        }
      ],
      "name": "ownerForMarket",
      "outputs": [
        {
          "internalType": "address",
          "name": "",
          "type": "address"
        }
      ],
      "stateMutability": "view",
      "type": "function"
    },
    {
      "inputs": [
        {
          "internalType": "address",
          "name": "",
          "type": "address"
        }
      ],
      "name": "stakeForMarket",
      "outputs": [
        {
          "internalType": "uint256",
          "name": "",
          "type": "uint256"
        }
      ],
      "stateMutability": "view",
      "type": "function"
    },
    {
      "inputs": [],
      "name": "visionAddress",
      "outputs": [
        {
          "internalType": "address",
          "name": "",
          "type": "address"
        }
      ],
      "stateMutability": "view",
      "type": "function"
    },
    {
      "inputs": [],
      "name": "visionToken",
      "outputs": [
        {
          "internalType": "contract IERC20",
          "name": "",
          "type": "address"
        }
      ],
      "stateMutability": "view",
      "type": "function"
    },
    {
      "inputs": [
        {
          "internalType": "address",
          "name": "marketAddress",
          "type": "address"
        }
      ],
      "name": "withdrawStake",
      "outputs": [],
      "stateMutability": "nonpayable",
      "type": "function"
    }
  ],
  "bytecode": "0x608060405234801561001057600080fd5b50604051615f13380380615f138339818101604052604081101561003357600080fd5b5080516020909101516001600055600480546001600160a01b038085166001600160a01b0319928316179283905560058054831693821693909317909255600380549284169290911691909117905560405161008e906100e0565b604051809103906000f0801580156100aa573d6000803e3d6000fd5b50600680546001600160a01b03199081166001600160a01b03938416179182905560078054929093169116179055506100ed9050565b6156b48061085f83390190565b610763806100fc6000396000f3fe608060405234801561001057600080fd5b506004361061008e5760003560e01c80631c1cb323146100935780633ac2a032146100b75780636279cb27146100bf578063a3dd595d146100c7578063a877d745146100ed578063c23a5cea14610125578063c66b8ed21461014d578063cfa51b1614610155578063ecb96fe6146101fe578063f2fd83e014610206575b600080fd5b61009b61020e565b604080516001600160a01b039092168252519081900360200190f35b61009b61021d565b61009b61022c565b61009b600480360360208110156100dd57600080fd5b50356001600160a01b031661023b565b6101136004803603602081101561010357600080fd5b50356001600160a01b0316610256565b60408051918252519081900360200190f35b61014b6004803603602081101561013b57600080fd5b50356001600160a01b0316610268565b005b61009b610469565b61014b6004803603606081101561016b57600080fd5b810190602081018135600160201b81111561018557600080fd5b82018360208201111561019757600080fd5b803590602001918460018302840111600160201b831117156101b857600080fd5b91908080601f0160208091040260200160405190810160405280939291908181526020018383808284376000920191909152509295505082359350505060200135610478565b61009b6106ca565b61009b6106d9565b6003546001600160a01b031681565b6006546001600160a01b031681565b6004546001600160a01b031681565b6002602052600090815260409020546001600160a01b031681565b60016020526000908152604090205481565b600260005414156102ae576040805162461bcd60e51b815260206004820152601f60248201526000805160206106e9833981519152604482015290519081900360640190fd5b600260009081556001600160a01b038216815260016020526040902054610313576040805162461bcd60e51b81526020600482015260146024820152734e6f207374616b6520746f20776974686472617760601b604482015290519081900360640190fd5b6000819050806001600160a01b0316639b34ae036040518163ffffffff1660e01b8152600401602060405180830381600087803b15801561035357600080fd5b505af1158015610367573d6000803e3d6000fd5b505050506040513d602081101561037d57600080fd5b505160001914156103bf5760405162461bcd60e51b81526004018080602001828103825260258152602001806107096025913960400191505060405180910390fd5b6001600160a01b0380831660009081526001602090815260408083208054908490556005546002845282852054835163a9059cbb60e01b815290871660048201526024810183905292519195169363a9059cbb93604480850194919392918390030190829087803b15801561043357600080fd5b505af1158015610447573d6000803e3d6000fd5b505050506040513d602081101561045d57600080fd5b50506001600055505050565b6007546001600160a01b031690565b600260005414156104be576040805162461bcd60e51b815260206004820152601f60248201526000805160206106e9833981519152604482015290519081900360640190fd5b600260009081556006546004805460035460405163bc7bbcf160e01b81526024810188905233604482018190526001600160a01b03938416606483018190529284166084830181905260a09583019586528a5160a48401528a51949096169563bc7bbcf1958b958b959394829160c49091019060208901908083838f5b8381101561055357818101518382015260200161053b565b50505050905090810190601f1680156105805780820380516001836020036101000a031916815260200191505b509650505050505050602060405180830381600087803b1580156105a357600080fd5b505af11580156105b7573d6000803e3d6000fd5b505050506040513d60208110156105cd57600080fd5b50516001600160a01b0380821660009081526001602090815260408083208790556002825280832080546001600160a01b0319163390811790915560055482516323b872dd60e01b815260048101929092523060248301526044820189905291519596509316936323b872dd93606480820194918390030190829087803b15801561065757600080fd5b505af115801561066b573d6000803e3d6000fd5b505050506040513d602081101561068157600080fd5b5050604080516001600160a01b038316815290517f236f4d652c1a38be43fdf85007b680ffa117922dee75290935adaf7ff12a358e9181900360200190a1505060016000555050565b6007546001600160a01b031681565b6005546001600160a01b03168156fe5265656e7472616e637947756172643a207265656e7472616e742063616c6c004d61726b657420776173206465656d656420696e76616c69642e205374616b65206c6f7374a26469706673582212204acd5bcef8a4510f701dd679ce19ea691030d824414fc9d042ab23dcf445827c64736f6c634300060c0033608060405234801561001057600080fd5b50600061001b61006a565b600080546001600160a01b0319166001600160a01b0383169081178255604051929350917f8be0079c531659141344cd1fd0a4f28419497f9722a3daafe3b4186f6b6457e0908290a35061006e565b3390565b6156378061007d6000396000f3fe608060405234801561001057600080fd5b50600436106100625760003560e01c8063715018a6146100675780638da5cb5b14610071578063a3dd595d14610095578063bc7bbcf1146100bb578063f2fde38b1461017d578063fa544161146101a3575b600080fd5b61006f6101c9565b005b610079610259565b604080516001600160a01b039092168252519081900360200190f35b610079600480360360208110156100ab57600080fd5b50356001600160a01b0316610268565b610079600480360360a08110156100d157600080fd5b810190602081018135600160201b8111156100eb57600080fd5b8201836020820111156100fd57600080fd5b803590602001918460018302840111600160201b8311171561011e57600080fd5b91908080601f0160208091040260200160405190810160405280939291908181526020018383808284376000920191909152509295505082359350506001600160a01b0360208301358116926040810135821692506060013516610283565b61006f6004803603602081101561019357600080fd5b50356001600160a01b03166103d1565b610079600480360360208110156101b957600080fd5b50356001600160a01b03166104b7565b6101d16104d5565b6000546001600160a01b03908116911614610221576040805162461bcd60e51b815260206004820181905260248201526000805160206155c2833981519152604482015290519081900360640190fd5b600080546040516001600160a01b03909116906000805160206155e2833981519152908390a3600080546001600160a01b0319169055565b6000546001600160a01b031690565b6001602052600090815260409020546001600160a01b031681565b600061028d6104d5565b6000546001600160a01b039081169116146102dd576040805162461bcd60e51b815260206004820181905260248201526000805160206155c2833981519152604482015290519081900360640190fd5b6000868684866040516102ef906104d9565b60208082018590526001600160a01b0380851660408401528316606083015260808083528651908301528551829160a08301919088019080838360005b8381101561034457818101518382015260200161032c565b50505050905090810190601f1680156103715780820380516001836020036101000a031916815260200191505b5095505050505050604051809103906000f080158015610395573d6000803e3d6000fd5b506001600160a01b03818116600090815260016020526040902080546001600160a01b0319169790911696909617909555509295945050505050565b6103d96104d5565b6000546001600160a01b03908116911614610429576040805162461bcd60e51b815260206004820181905260248201526000805160206155c2833981519152604482015290519081900360640190fd5b6001600160a01b03811661046e5760405162461bcd60e51b815260040180806020018281038252602681526020018061559c6026913960400191505060405180910390fd5b600080546040516001600160a01b03808516939216916000805160206155e283398151915291a3600080546001600160a01b0319166001600160a01b0392909216919091179055565b6001600160a01b039081166000908152600160205260409020541690565b3390565b6150b5806104e78339019056fe608060405260006007553480156200001657600080fd5b50604051620050b5380380620050b5833981810160405260808110156200003c57600080fd5b81019080805160405193929190846401000000008211156200005d57600080fd5b9083019060208201858111156200007357600080fd5b82516401000000008111828201881017156200008e57600080fd5b82525081516020918201929091019080838360005b83811015620000bd578181015183820152602001620000a3565b50505050905090810190601f168015620000eb5780820380516001836020036101000a031916815260200191505b50604090815260208201519082015160609092015160016000559093509091504283116200017a57604080517f08c379a000000000000000000000000000000000000000000000000000000000815260206004820152601c60248201527f656e642074696d65206d75737420626520616674657220737461727400000000604482015290519081900360640190fd5b6006839055835162000194906005906020870190620001e9565b50600280546001600160a01b039384166001600160a01b031991821681179092556001805482169092178255600480549390941692811683179093556003805490931690911790915560075550620002859050565b828054600181600116156101000203166002900490600052602060002090601f016020900481019282601f106200022c57805160ff19168380011785556200025c565b828001600101855582156200025c579182015b828111156200025c5782518255916020019190600101906200023f565b506200026a9291506200026e565b5090565b5b808211156200026a57600081556001016200026f565b614e2080620002956000396000f3fe608060405234801561001057600080fd5b50600436106100db5760003560e01c80630b8a5c46146100e05780631831db59146100ff5780631a973c84146101235780631c1cb3231461012b5780631ea736e0146101335780633fad9ae01461014d5780636279cb27146101ca5780636b2fa374146101d25780636d04aae2146101da5780639b34ae03146101e2578063a85195b6146101ea578063ba0bba40146101f2578063d2fa7170146101fa578063ebb01e6514610202578063f2fd83e01461021f578063f3a8a23214610227578063fce1ccca14610244575b600080fd5b6100fd600480360360208110156100f657600080fd5b503561024c565b005b610107610752565b604080516001600160a01b039092168252519081900360200190f35b610107610761565b610107610770565b61013b61077f565b60408051918252519081900360200190f35b610155610785565b6040805160208082528351818301528351919283929083019185019080838360005b8381101561018f578181015183820152602001610177565b50505050905090810190601f1680156101bc5780820380516001836020036101000a031916815260200191505b509250505060405180910390f35b610107610813565b610107610822565b6100fd610831565b61013b61090b565b6100fd610982565b61013b610a48565b610107610a4e565b6100fd6004803603602081101561021857600080fd5b5035610a5d565b610107610bdf565b6100fd6004803603602081101561023d57600080fd5b5035610bee565b610107610dd0565b600654421161029e576040805162461bcd60e51b8152602060048201526019602482015278159bdd19481a5cc81b9bdd081e595d0818dbdb5c1b195d1959603a1b604482015290519081900360640190fd5b600260005414156102e4576040805162461bcd60e51b815260206004820152601f6024820152600080516020614dcb833981519152604482015290519081900360640190fd5b6002600081905550600860009054906101000a90046001600160a01b03166001600160a01b0316639b34ae036040518163ffffffff1660e01b8152600401602060405180830381600087803b15801561033c57600080fd5b505af1158015610350573d6000803e3d6000fd5b505050506040513d602081101561036657600080fd5b5051600019141561046457600a5460408051635084280d60e11b81523360048201526024810184905290516001600160a01b039092169163a108501a9160448082019260009290919082900301818387803b1580156103c457600080fd5b505af11580156103d8573d6000803e3d6000fd5b50506002546040805163a9059cbb60e01b8152336004820152670de0b6b3a7640000602482015290516001600160a01b03909216935063a9059cbb92506044808201926020929091908290030181600087803b15801561043757600080fd5b505af115801561044b573d6000803e3d6000fd5b505050506040513d602081101561046157600080fd5b50505b600860009054906101000a90046001600160a01b03166001600160a01b0316639b34ae036040518163ffffffff1660e01b8152600401602060405180830381600087803b1580156104b457600080fd5b505af11580156104c8573d6000803e3d6000fd5b505050506040513d60208110156104de57600080fd5b5051600114156105db57600a54604080516323ed3bfd60e21b81523360048201526024810184905290516001600160a01b0390921691638fb4eff49160448082019260009290919082900301818387803b15801561053b57600080fd5b505af115801561054f573d6000803e3d6000fd5b50506002546040805163a9059cbb60e01b8152336004820152670de0b6b3a7640000602482015290516001600160a01b03909216935063a9059cbb92506044808201926020929091908290030181600087803b1580156105ae57600080fd5b505af11580156105c2573d6000803e3d6000fd5b505050506040513d60208110156105d857600080fd5b50505b600860009054906101000a90046001600160a01b03166001600160a01b0316639b34ae036040518163ffffffff1660e01b8152600401602060405180830381600087803b15801561062b57600080fd5b505af115801561063f573d6000803e3d6000fd5b505050506040513d602081101561065557600080fd5b505161074a57600a54604080516379a9568560e11b81523360048201526024810184905290516001600160a01b039092169163f352ad0a9160448082019260009290919082900301818387803b1580156106ae57600080fd5b505af11580156106c2573d6000803e3d6000fd5b50506002546040805163a9059cbb60e01b815233600482015260006024820181905291516001600160a01b03909316945063a9059cbb9350604480820193602093909283900390910190829087803b15801561071d57600080fd5b505af1158015610731573d6000803e3d6000fd5b505050506040513d602081101561074757600080fd5b50505b506001600055565b600b546001600160a01b031681565b600a546001600160a01b031681565b6001546001600160a01b031681565b60065481565b6005805460408051602060026001851615610100026000190190941693909304601f8101849004840282018401909252818152929183018282801561080b5780601f106107e05761010080835404028352916020019161080b565b820191906000526020600020905b8154815290600101906020018083116107ee57829003601f168201915b505050505081565b6003546001600160a01b031681565b6002546001600160a01b031681565b600754600214610888576040805162461bcd60e51b815260206004820152601e60248201527f4d61726b6574206e6f7420696e20666f726573696768742073746174652e0000604482015290519081900360640190fd5b6006546003546040516001600160a01b03909116906108a690610ddf565b9182526001600160a01b03166020820152604080519182900301906000f0801580156108d6573d6000803e3d6000fd5b50600880546001600160a01b03199081166001600160a01b039384161791829055600980549290931691161790556003600755565b60085460408051639b34ae0360e01b815290516000926001600160a01b031691639b34ae0391600480830192602092919082900301818787803b15801561095157600080fd5b505af1158015610965573d6000803e3d6000fd5b505050506040513d602081101561097b57600080fd5b5051905090565b6007546001146109d9576040805162461bcd60e51b815260206004820181905260248201527f4d61726b6574206e6f7420696e20636f6e73747275637465642073746174652e604482015290519081900360640190fd5b306040516109e690610dec565b6001600160a01b03909116815260405190819003602001906000f080158015610a13573d6000803e3d6000fd5b50600a80546001600160a01b03199081166001600160a01b039384161791829055600b80549290931691161790556002600755565b60075481565b6009546001600160a01b031681565b600754600314610ab0576040805162461bcd60e51b81526020600482015260196024820152784d61726b6574207365747570206e6f7420636f6d706c65746560381b604482015290519081900360640190fd5b600254604080516323b872dd60e01b81523360048201523060248201526044810184905290516001600160a01b03909216916323b872dd916064808201926020929091908290030181600087803b158015610b0a57600080fd5b505af1158015610b1e573d6000803e3d6000fd5b505050506040513d6020811015610b3457600080fd5b5050600a5460408051631e633a8560e31b81523360048201526024810184905290516001600160a01b039092169163f319d4289160448082019260009290919082900301818387803b158015610b8957600080fd5b505af1158015610b9d573d6000803e3d6000fd5b5050604080513381526020810185905281517fc16c806cd3990113d670eb4e62d7aecce802e4d2201e8c10b538247167b940829450908190039091019150a150565b6004546001600160a01b031681565b60026000541415610c34576040805162461bcd60e51b815260206004820152601f6024820152600080516020614dcb833981519152604482015290519081900360640190fd5b60026000908155600a54604080516323ed3bfd60e21b81523360048201526024810185905290516001600160a01b0390921692638fb4eff49260448084019382900301818387803b158015610c8857600080fd5b505af1158015610c9c573d6000803e3d6000fd5b5050600a54604080516379a9568560e11b81523360048201526024810186905290516001600160a01b03909216935063f352ad0a925060448082019260009290919082900301818387803b158015610cf357600080fd5b505af1158015610d07573d6000803e3d6000fd5b5050600a5460408051635084280d60e11b81523360048201526024810186905290516001600160a01b03909216935063a108501a925060448082019260009290919082900301818387803b158015610d5e57600080fd5b505af1158015610d72573d6000803e3d6000fd5b5050600254604080516323b872dd60e01b81523060048201523360248201526044810186905290516001600160a01b0390921693506323b872dd92506064808201926020929091908290030181600087803b15801561071d57600080fd5b6008546001600160a01b031681565b61088e80610dfa83390190565b613743806116888339019056fe608060405234801561001057600080fd5b5060405161088e38038061088e8339818101604052604081101561003357600080fd5b5080516020909101516001600081905580546001600160a01b039283166001600160a01b03199182161791829055600280549091169190921617905560035561080d806100816000396000f3fe608060405234801561001057600080fd5b50600436106100af5760003560e01c80631425bf2e146100b45780631576dfc2146100ce5780631ea736e0146100f45780632f5e1874146100fc578063307991c71461011957806333ad95e7146101365780633d402f7e14610152578063421d0a201461017757806351cff8d91461019457806351ed6a30146101ba5780637f0c75a0146101de57806385107367146102045780639b34ae031461020c575b600080fd5b6100bc610214565b60408051918252519081900360200190f35b6100bc600480360360208110156100e457600080fd5b50356001600160a01b031661021a565b6100bc61022c565b6100bc6004803603602081101561011257600080fd5b5035610232565b6100bc6004803603602081101561012f57600080fd5b5035610244565b61013e610256565b604080519115158252519081900360200190f35b6101756004803603604081101561016857600080fd5b508035906020013561025f565b005b6100bc6004803603602081101561018d57600080fd5b5035610308565b610175600480360360208110156101aa57600080fd5b50356001600160a01b0316610326565b6101c26104d4565b604080516001600160a01b039092168252519081900360200190f35b6100bc600480360360208110156101f457600080fd5b50356001600160a01b03166104e3565b6101c26104f5565b6100bc610504565b60095481565b60066020526000908152604090205481565b60035481565b60009081526005602052604090205490565b60056020526000908152604090205481565b60085460ff1681565b60035442106102a8576040805162461bcd60e51b815260206004820152601060248201526f1d9bdd1a5b99c81a185cc8195b99195960821b604482015290519081900360640190fd5b600081116102f9576040805162461bcd60e51b815260206004820152601960248201527821b0b73737ba103b37ba32903bb4ba3410181039ba30b5b29760391b604482015290519081900360640190fd5b610304338383610613565b5050565b6004818154811061031557fe5b600091825260209091200154905081565b6003544211610378576040805162461bcd60e51b8152602060048201526019602482015278159bdd19481a5cc81b9bdd081e595d0818dbdb5c1b195d1959603a1b604482015290519081900360640190fd5b600260005414156103d0576040805162461bcd60e51b815260206004820152601f60248201527f5265656e7472616e637947756172643a207265656e7472616e742063616c6c00604482015290519081900360640190fd5b60026000556103dd610504565b6001600160a01b038216600090815260066020526040902054146104325760405162461bcd60e51b815260040180806020018281038252602481526020018061078a6024913960400191505060405180910390fd5b6001600160a01b038082166000818152600760209081526040808320805490849055600254825163a9059cbb60e01b815260048101969096526024860182905291519095919091169363a9059cbb9360448083019493928390030190829087803b15801561049f57600080fd5b505af11580156104b3573d6000803e3d6000fd5b505050506040513d60208110156104c957600080fd5b505060016000555050565b6002546001600160a01b031681565b60076020526000908152604090205481565b6001546001600160a01b031681565b60006003544211610558576040805162461bcd60e51b8152602060048201526019602482015278159bdd19481a5cc81b9bdd081e595d0818dbdb5c1b195d1959603a1b604482015290519081900360640190fd5b60085460ff161561056c5750600954610610565b60045460009061058857670de0b6b3a763ffff19915050610610565b600460008154811061059657fe5b600091825260209091200154905060015b6004548110156105fa576000600482815481106105c057fe5b600091825260208083209091015480835260059091526040808320548684529220549092508111156105f0578193505b50506001016105a7565b5060098190556008805460ff1916600117905590505b90565b8160008160011480610623575081155b8061062f575081600019145b90508061066d5760405162461bcd60e51b815260040180806020018281038252602a8152602001806107ae602a913960400191505060405180910390fd5b6106778484610706565b600254604080516323b872dd60e01b81526001600160a01b03888116600483015230602483015260448201879052915191909216916323b872dd9160648083019260209291908290030181600087803b1580156106d357600080fd5b505af11580156106e7573d6000803e3d6000fd5b505050506040513d60208110156106fd57600080fd5b50505050505050565b60008281526005602052604090205461074f57600480546001810182556000919091527f8a35acfbc15ff81a39ae7d344fd709f28e8600b4aa8c65c6b64bfe7fe36bd19b018290555b600082815260056020908152604080832080548501905533835260068252808320805490950190945560079052919091208054909101905556fe5573657220646964206e6f7420766f7465206f6e2077696e6e696e67206f7574636f6d65566f7465206973206e6f7420696e20636f72726563742042696e61727920566f746520466f726d61742ea26469706673582212204ff7122bac0017c8db375b83c1bec8199bb06bd82165643499bd828cc0bebd4464736f6c634300060c00336080604052600060085534801561001557600080fd5b506040516137433803806137438339818101604052602081101561003857600080fd5b505160006100446100b6565b600080546001600160a01b0319166001600160a01b0383169081178255604051929350917f8be0079c531659141344cd1fd0a4f28419497f9722a3daafe3b4186f6b6457e0908290a350600180546001600160a01b0319166001600160a01b03929092169190911781556008556100ba565b3390565b61367a806100c96000396000f3fe60806040523480156200001157600080fd5b5060043610620000fa5760003560e01c80630e49dd7e14620000ff57806315edaf8b14620001255780631eb3dfcc146200012f57806338f4a5bf14620001395780633ea0a0ac146200014357806365a2e2e8146200014f578063715018a614620001595780638da5cb5b14620001635780638fb4eff4146200016d57806395623641146200019c578063a108501a14620001a6578063c040e6b814620001d5578063e386474c14620001f1578063ebf6535014620001fb578063f2fde38b1462000205578063f319d428146200022e578063f3297347146200025d578063f352ad0a1462000267575b600080fd5b6200010962000296565b604080516001600160a01b039092168252519081900360200190f35b62000109620002a5565b62000109620002b4565b62000109620002c3565b6200014d620002d2565b005b62000109620003e7565b6200014d620003f6565b620001096200048b565b6200014d600480360360408110156200018557600080fd5b506001600160a01b0381351690602001356200049a565b6200010962000569565b6200014d60048036036040811015620001be57600080fd5b506001600160a01b03813516906020013562000578565b620001df6200062e565b60408051918252519081900360200190f35b6200014d62000634565b6200014d62000752565b6200014d600480360360208110156200021d57600080fd5b50356001600160a01b031662000868565b6200014d600480360360408110156200024657600080fd5b506001600160a01b03813516906020013562000955565b6200010962000b39565b6200014d600480360360408110156200027f57600080fd5b506001600160a01b03813516906020013562000b48565b6005546001600160a01b031681565b6006546001600160a01b031681565b6007546001600160a01b031681565b6002546001600160a01b031681565b60085460031462000320576040805162461bcd60e51b81526020600482015260136024820152724d75737420626520696e204e4f20737461676560681b604482015290519081900360640190fd5b6001546040516001600160a01b03909116906200033d9062000bfe565b6001600160a01b03909116604080830191909152606080835260159083015274119bdc995cda59da1d080b4816595ccbd4da1bdc9d605a1b608083015260a0602083018190526003908301526246595360e81b60c0830152519081900360e001906000f080158015620003b4573d6000803e3d6000fd5b50600480546001600160a01b03199081166001600160a01b03938416178083556007805491909416911617909155600855565b6004546001600160a01b031681565b6200040062000bfa565b6000546001600160a01b0390811691161462000452576040805162461bcd60e51b8152602060048201819052602482015260008051602062003605833981519152604482015290519081900360640190fd5b600080546040516001600160a01b039091169060008051602062003625833981519152908390a3600080546001600160a01b0319169055565b6000546001600160a01b031690565b620004a462000bfa565b6000546001600160a01b03908116911614620004f6576040805162461bcd60e51b8152602060048201819052602482015260008051602062003605833981519152604482015290519081900360640190fd5b60025460408051632770a7eb60e21b81526001600160a01b0385811660048301526024820185905291519190921691639dc29fac91604480830192600092919082900301818387803b1580156200054c57600080fd5b505af115801562000561573d6000803e3d6000fd5b505050505050565b6001546001600160a01b031681565b6200058262000bfa565b6000546001600160a01b03908116911614620005d4576040805162461bcd60e51b8152602060048201819052602482015260008051602062003605833981519152604482015290519081900360640190fd5b6004805460408051632770a7eb60e21b81526001600160a01b03868116948201949094526024810185905290519290911691639dc29fac9160448082019260009290919082900301818387803b1580156200054c57600080fd5b60085481565b6008546001146200068b576040805162461bcd60e51b815260206004820152601c60248201527b4d75737420626520696e20636f6e7374727563746f7220737461676560201b604482015290519081900360640190fd5b6001546040516001600160a01b0390911690620006a89062000bfe565b6001600160a01b03909116604080830191909152606080835260159083015274119bdc995cda59da1d080b4816595ccbd4da1bdc9d605a1b608083015260a0602083018190526003908301526246595360e81b60c0830152519081900360e001906000f0801580156200071f573d6000803e3d6000fd5b50600280546001600160a01b03199081166001600160a01b03938416178083556005805491909416911617909155600855565b600854600214620007a1576040805162461bcd60e51b81526020600482015260146024820152734d75737420626520696e2059455320737461676560601b604482015290519081900360640190fd5b6001546040516001600160a01b0390911690620007be9062000bfe565b6001600160a01b03909116604080830191909152606080835260159083015274119bdc995cda59da1d080b4816595ccbd4da1bdc9d605a1b608083015260a0602083018190526003908301526246595360e81b60c0830152519081900360e001906000f08015801562000835573d6000803e3d6000fd5b50600380546001600160a01b03199081166001600160a01b03938416178083556006805491909416911617909155600855565b6200087262000bfa565b6000546001600160a01b03908116911614620008c4576040805162461bcd60e51b8152602060048201819052602482015260008051602062003605833981519152604482015290519081900360640190fd5b6001600160a01b0381166200090b5760405162461bcd60e51b8152600401808060200182810382526026815260200180620035df6026913960400191505060405180910390fd5b600080546040516001600160a01b03808516939216916000805160206200362583398151915291a3600080546001600160a01b0319166001600160a01b0392909216919091179055565b6200095f62000bfa565b6000546001600160a01b03908116911614620009b1576040805162461bcd60e51b8152602060048201819052602482015260008051602062003605833981519152604482015290519081900360640190fd5b60085460041462000a01576040805162461bcd60e51b81526020600482015260156024820152740506c6561736520636f6d706c65746520736574757605c1b604482015290519081900360640190fd5b600354604080516340c10f1960e01b81526001600160a01b03858116600483015260248201859052915191909216916340c10f1991604480830192600092919082900301818387803b15801562000a5757600080fd5b505af115801562000a6c573d6000803e3d6000fd5b5050600254604080516340c10f1960e01b81526001600160a01b0387811660048301526024820187905291519190921693506340c10f199250604480830192600092919082900301818387803b15801562000ac657600080fd5b505af115801562000adb573d6000803e3d6000fd5b505060048054604080516340c10f1960e01b81526001600160a01b03888116948201949094526024810187905290519290911693506340c10f19925060448082019260009290919082900301818387803b1580156200054c57600080fd5b6003546001600160a01b031681565b62000b5262000bfa565b6000546001600160a01b0390811691161462000ba4576040805162461bcd60e51b8152602060048201819052602482015260008051602062003605833981519152604482015290519081900360640190fd5b60035460408051632770a7eb60e21b81526001600160a01b0385811660048301526024820185905291519190921691639dc29fac91604480830192600092919082900301818387803b1580156200054c57600080fd5b3390565b6129d28062000c0d8339019056fe60806040523480156200001157600080fd5b50604051620029d2380380620029d2833981810160405260608110156200003757600080fd5b81019080805160405193929190846401000000008211156200005857600080fd5b9083019060208201858111156200006e57600080fd5b82516401000000008111828201881017156200008957600080fd5b82525081516020918201929091019080838360005b83811015620000b85781810151838201526020016200009e565b50505050905090810190601f168015620000e65780820380516001836020036101000a031916815260200191505b50604052602001805160405193929190846401000000008211156200010a57600080fd5b9083019060208201858111156200012057600080fd5b82516401000000008111828201881017156200013b57600080fd5b82525081516020918201929091019080838360005b838110156200016a57818101518382015260200162000150565b50505050905090810190601f168015620001985780820380516001836020036101000a031916815260200191505b5060408181526020928301516000835283830190915286519094508693508592620001c9916002918601906200044a565b508151620001df9060039060208501906200044a565b508051620001f5906004906020840190620004cf565b5060005b6004548110156200025557600160056000600484815481106200021857fe5b6000918252602080832091909101546001600160a01b031683528201929092526040019020805460ff1916911515919091179055600101620001f9565b50604080517f29965a1d00000000000000000000000000000000000000000000000000000000815230600482018190527fac7fbab5f54a3ca8194167523c6753bfeb96a445279294b6125b68cce2177054602483015260448201529051731820a4b7618bde71dce8cdc73aab6c95905fad24916329965a1d91606480830192600092919082900301818387803b158015620002ef57600080fd5b505af115801562000304573d6000803e3d6000fd5b5050604080517f29965a1d00000000000000000000000000000000000000000000000000000000815230600482018190527faea199e31a596269b42cdafd93407f14436db6e4cad65417994c2eb37381e05a602483015260448201529051731820a4b7618bde71dce8cdc73aab6c95905fad2493506329965a1d9250606480830192600092919082900301818387803b158015620003a157600080fd5b505af1158015620003b6573d6000803e3d6000fd5b505050505050506000620003cf6200044660201b60201c565b600980546001600160a01b0319166001600160a01b038316908117909155604051919250906000907f8be0079c531659141344cd1fd0a4f28419497f9722a3daafe3b4186f6b6457e0908290a350600a80546001600160a01b0319166001600160a01b0392909216919091179055506200056d9050565b3390565b828054600181600116156101000203166002900490600052602060002090601f016020900481019282601f106200048d57805160ff1916838001178555620004bd565b82800160010185558215620004bd579182015b82811115620004bd578251825591602001919060010190620004a0565b50620004cb92915062000535565b5090565b82805482825590600052602060002090810192821562000527579160200282015b828111156200052757825182546001600160a01b0319166001600160a01b03909116178255602090920191600190910190620004f0565b50620004cb9291506200054c565b5b80821115620004cb576000815560010162000536565b5b80821115620004cb5780546001600160a01b03191681556001016200054d565b612455806200057d6000396000f3fe608060405234801561001057600080fd5b50600436106101285760003560e01c806306e485381461012d57806306fdde0314610185578063095ea7b31461020257806318160ddd1461024257806323b872dd1461025c578063313ce5671461029257806340c10f19146102b0578063556f0dc7146102de57806362ad1b83146102e657806370a082311461042f578063715018a6146104555780638da5cb5b1461045d5780639562364114610481578063959b8c3f1461048957806395d89b41146104af5780639bd9bbc6146104b75780639dc29fac14610570578063a9059cbb1461059c578063d95b6371146105c8578063dd62ed3e146105f6578063f2fde38b14610624578063fad8b32a1461064a578063fc673c4f14610670578063fe9d9303146107ae575b600080fd5b610135610859565b60408051602080825283518183015283519192839290830191858101910280838360005b83811015610171578181015183820152602001610159565b505050509050019250505060405180910390f35b61018d6108bb565b6040805160208082528351818301528351919283929083019185019080838360005b838110156101c75781810151838201526020016101af565b50505050905090810190601f1680156101f45780820380516001836020036101000a031916815260200191505b509250505060405180910390f35b61022e6004803603604081101561021857600080fd5b506001600160a01b038135169060200135610945565b604080519115158252519081900360200190f35b61024a610967565b60408051918252519081900360200190f35b61022e6004803603606081101561027257600080fd5b506001600160a01b0381358116916020810135909116906040013561096d565b61029a610aea565b6040805160ff9092168252519081900360200190f35b6102dc600480360360408110156102c657600080fd5b506001600160a01b038135169060200135610aef565b005b61024a610b75565b6102dc600480360360a08110156102fc57600080fd5b6001600160a01b03823581169260208101359091169160408201359190810190608081016060820135600160201b81111561033657600080fd5b82018360208201111561034857600080fd5b803590602001918460018302840111600160201b8311171561036957600080fd5b91908080601f0160208091040260200160405190810160405280939291908181526020018383808284376000920191909152509295949360208101935035915050600160201b8111156103bb57600080fd5b8201836020820111156103cd57600080fd5b803590602001918460018302840111600160201b831117156103ee57600080fd5b91908080601f016020809104026020016040519081016040528093929190818152602001838380828437600092019190915250929550610b7a945050505050565b61024a6004803603602081101561044557600080fd5b50356001600160a01b0316610bdc565b6102dc610bf7565b610465610c87565b604080516001600160a01b039092168252519081900360200190f35b610465610c96565b6102dc6004803603602081101561049f57600080fd5b50356001600160a01b0316610ca5565b61018d610df1565b6102dc600480360360608110156104cd57600080fd5b6001600160a01b0382351691602081013591810190606081016040820135600160201b8111156104fc57600080fd5b82018360208201111561050e57600080fd5b803590602001918460018302840111600160201b8311171561052f57600080fd5b91908080601f016020809104026020016040519081016040528093929190818152602001838380828437600092019190915250929550610e52945050505050565b6102dc6004803603604081101561058657600080fd5b506001600160a01b038135169060200135610e7c565b61022e600480360360408110156105b257600080fd5b506001600160a01b038135169060200135610efe565b61022e600480360360408110156105de57600080fd5b506001600160a01b0381358116916020013516610fd7565b61024a6004803603604081101561060c57600080fd5b506001600160a01b0381358116916020013516611079565b6102dc6004803603602081101561063a57600080fd5b50356001600160a01b03166110a4565b6102dc6004803603602081101561066057600080fd5b50356001600160a01b031661118b565b6102dc6004803603608081101561068657600080fd5b6001600160a01b0382351691602081013591810190606081016040820135600160201b8111156106b557600080fd5b8201836020820111156106c757600080fd5b803590602001918460018302840111600160201b831117156106e857600080fd5b91908080601f0160208091040260200160405190810160405280939291908181526020018383808284376000920191909152509295949360208101935035915050600160201b81111561073a57600080fd5b82018360208201111561074c57600080fd5b803590602001918460018302840111600160201b8311171561076d57600080fd5b91908080601f0160208091040260200160405190810160405280939291908181526020018383808284376000920191909152509295506112d7945050505050565b6102dc600480360360408110156107c457600080fd5b81359190810190604081016020820135600160201b8111156107e557600080fd5b8201836020820111156107f757600080fd5b803590602001918460018302840111600160201b8311171561081857600080fd5b91908080601f016020809104026020016040519081016040528093929190818152602001838380828437600092019190915250929550611335945050505050565b606060048054806020026020016040519081016040528092919081815260200182805480156108b157602002820191906000526020600020905b81546001600160a01b03168152600190910190602001808311610893575b5050505050905090565b60028054604080516020601f60001961010060018716150201909416859004938401819004810282018101909252828152606093909290918301828280156108b15780601f10610919576101008083540402835291602001916108b1565b820191906000526020600020905b81548152906001019060200180831161092757509395945050505050565b600080610950611357565b905061095d81858561135b565b5060019392505050565b60015490565b60006001600160a01b0383166109b45760405162461bcd60e51b815260040180806020018281038252602481526020018061231b6024913960400191505060405180910390fd5b6001600160a01b0384166109f95760405162461bcd60e51b81526004018080602001828103825260268152602001806123b46026913960400191505060405180910390fd5b6000610a03611357565b9050610a31818686866040518060200160405280600081525060405180602001604052806000815250611447565b610a5d818686866040518060200160405280600081525060405180602001604052806000815250611674565b610ab18582610aac8660405180606001604052806029815260200161238b602991396001600160a01b03808c166000908152600860209081526040808320938b1683529290522054919061187b565b61135b565b610adf8186868660405180602001604052806000815250604051806020016040528060008152506000611912565b506001949350505050565b601290565b610af7611357565b6009546001600160a01b03908116911614610b47576040805162461bcd60e51b8152602060048201819052602482015260008051602061228e833981519152604482015290519081900360640190fd5b610b7182826040518060200160405280600081525060405180602001604052806000815250611b97565b5050565b600190565b610b8b610b85611357565b86610fd7565b610bc65760405162461bcd60e51b815260040180806020018281038252602c81526020018061235f602c913960400191505060405180910390fd5b610bd585858585856001611dbd565b5050505050565b6001600160a01b031660009081526020819052604090205490565b610bff611357565b6009546001600160a01b03908116911614610c4f576040805162461bcd60e51b8152602060048201819052602482015260008051602061228e833981519152604482015290519081900360640190fd5b6009546040516000916001600160a01b0316906000805160206122ae833981519152908390a3600980546001600160a01b0319169055565b6009546001600160a01b031690565b600a546001600160a01b031681565b806001600160a01b0316610cb7611357565b6001600160a01b03161415610cfd5760405162461bcd60e51b81526004018080602001828103825260248152602001806122496024913960400191505060405180910390fd5b6001600160a01b03811660009081526005602052604090205460ff1615610d605760076000610d2a611357565b6001600160a01b03908116825260208083019390935260409182016000908120918516815292529020805460ff19169055610da7565b600160066000610d6e611357565b6001600160a01b03908116825260208083019390935260409182016000908120918616815292529020805460ff19169115159190911790555b610daf611357565b6001600160a01b0316816001600160a01b03167ff4caeb2d6ca8932a215a353d0703c326ec2d81fc68170f320eb2ab49e9df61f960405160405180910390a350565b60038054604080516020601f60026000196101006001881615020190951694909404938401819004810282018101909252828152606093909290918301828280156108b15780601f10610919576101008083540402835291602001916108b1565b610e77610e5d611357565b848484604051806020016040528060008152506001611dbd565b505050565b610e84611357565b6009546001600160a01b03908116911614610ed4576040805162461bcd60e51b8152602060048201819052602482015260008051602061228e833981519152604482015290519081900360640190fd5b610b7182826040518060200160405280600081525060405180602001604052806000815250611e94565b60006001600160a01b038316610f455760405162461bcd60e51b815260040180806020018281038252602481526020018061231b6024913960400191505060405180910390fd5b6000610f4f611357565b9050610f7d818286866040518060200160405280600081525060405180602001604052806000815250611447565b610fa9818286866040518060200160405280600081525060405180602001604052806000815250611674565b61095d8182868660405180602001604052806000815250604051806020016040528060008152506000611912565b6000816001600160a01b0316836001600160a01b0316148061104257506001600160a01b03831660009081526005602052604090205460ff16801561104257506001600160a01b0380831660009081526007602090815260408083209387168352929052205460ff16155b8061107257506001600160a01b0380831660009081526006602090815260408083209387168352929052205460ff165b9392505050565b6001600160a01b03918216600090815260086020908152604080832093909416825291909152205490565b6110ac611357565b6009546001600160a01b039081169116146110fc576040805162461bcd60e51b8152602060048201819052602482015260008051602061228e833981519152604482015290519081900360640190fd5b6001600160a01b0381166111415760405162461bcd60e51b81526004018080602001828103825260268152602001806122016026913960400191505060405180910390fd5b6009546040516001600160a01b038084169216906000805160206122ae83398151915290600090a3600980546001600160a01b0319166001600160a01b0392909216919091179055565b611193611357565b6001600160a01b0316816001600160a01b031614156111e35760405162461bcd60e51b815260040180806020018281038252602181526020018061226d6021913960400191505060405180910390fd5b6001600160a01b03811660009081526005602052604090205460ff161561124f57600160076000611212611357565b6001600160a01b03908116825260208083019390935260409182016000908120918616815292529020805460ff191691151591909117905561128d565b6006600061125b611357565b6001600160a01b03908116825260208083019390935260409182016000908120918516815292529020805460ff191690555b611295611357565b6001600160a01b0316816001600160a01b03167f50546e66e5f44d728365dc3908c63bc5cfeeab470722c1677e3073a6ac294aa160405160405180910390a350565b6112e86112e2611357565b85610fd7565b6113235760405162461bcd60e51b815260040180806020018281038252602c81526020018061235f602c913960400191505060405180910390fd5b61132f84848484611e94565b50505050565b610b71611340611357565b838360405180602001604052806000815250611e94565b3390565b6001600160a01b0383166113a05760405162461bcd60e51b81526004018080602001828103825260258152602001806121936025913960400191505060405180910390fd5b6001600160a01b0382166113e55760405162461bcd60e51b81526004018080602001828103825260238152602001806123fd6023913960400191505060405180910390fd5b6001600160a01b03808416600081815260086020908152604080832094871680845294825291829020859055815185815291517f8c5be1e5ebec7d5bd14f71427d1e84f3dd0314c0f7b2291e5b200ac8c7c3b9259281900390910190a3505050565b6040805163555ddc6560e11b81526001600160a01b03871660048201527f29ddb589b1fb5fc7cf394961c1adf5f8c6454761adf795e67fe149f658abe89560248201529051600091731820a4b7618bde71dce8cdc73aab6c95905fad249163aabbb8ca91604480820192602092909190829003018186803b1580156114cb57600080fd5b505afa1580156114df573d6000803e3d6000fd5b505050506040513d60208110156114f557600080fd5b505190506001600160a01b0381161561166b57806001600160a01b03166375ab97828888888888886040518763ffffffff1660e01b815260040180876001600160a01b03168152602001866001600160a01b03168152602001856001600160a01b031681526020018481526020018060200180602001838103835285818151815260200191508051906020019080838360005b838110156115a0578181015183820152602001611588565b50505050905090810190601f1680156115cd5780820380516001836020036101000a031916815260200191505b50838103825284518152845160209182019186019080838360005b838110156116005781810151838201526020016115e8565b50505050905090810190601f16801561162d5780820380516001836020036101000a031916815260200191505b5098505050505050505050600060405180830381600087803b15801561165257600080fd5b505af1158015611666573d6000803e3d6000fd5b505050505b50505050505050565b6116808686868661132f565b6116bd836040518060600160405280602781526020016121da602791396001600160a01b038816600090815260208190526040902054919061187b565b6001600160a01b0380871660009081526020819052604080822093909355908616815220546116ec90846120bc565b600080866001600160a01b03166001600160a01b0316815260200190815260200160002081905550836001600160a01b0316856001600160a01b0316876001600160a01b03167f06b541ddaa720db2b10a4d0cdac39b8d360425fc073085fac19bc82614677987868686604051808481526020018060200180602001838103835285818151815260200191508051906020019080838360005b8381101561179d578181015183820152602001611785565b50505050905090810190601f1680156117ca5780820380516001836020036101000a031916815260200191505b50838103825284518152845160209182019186019080838360005b838110156117fd5781810151838201526020016117e5565b50505050905090810190601f16801561182a5780820380516001836020036101000a031916815260200191505b509550505050505060405180910390a4836001600160a01b0316856001600160a01b031660008051602061233f833981519152856040518082815260200191505060405180910390a3505050505050565b6000818484111561190a5760405162461bcd60e51b81526004018080602001828103825283818151815260200191508051906020019080838360005b838110156118cf5781810151838201526020016118b7565b50505050905090810190601f1680156118fc5780820380516001836020036101000a031916815260200191505b509250505060405180910390fd5b505050900390565b6040805163555ddc6560e11b81526001600160a01b03871660048201527fb281fc8c12954d22544db45de3159a39272895b169a852b314f9cc762e44c53b60248201529051600091731820a4b7618bde71dce8cdc73aab6c95905fad249163aabbb8ca91604480820192602092909190829003018186803b15801561199657600080fd5b505afa1580156119aa573d6000803e3d6000fd5b505050506040513d60208110156119c057600080fd5b505190506001600160a01b03811615611b3957806001600160a01b03166223de298989898989896040518763ffffffff1660e01b815260040180876001600160a01b03168152602001866001600160a01b03168152602001856001600160a01b031681526020018481526020018060200180602001838103835285818151815260200191508051906020019080838360005b83811015611a6a578181015183820152602001611a52565b50505050905090810190601f168015611a975780820380516001836020036101000a031916815260200191505b50838103825284518152845160209182019186019080838360005b83811015611aca578181015183820152602001611ab2565b50505050905090810190601f168015611af75780820380516001836020036101000a031916815260200191505b5098505050505050505050600060405180830381600087803b158015611b1c57600080fd5b505af1158015611b30573d6000803e3d6000fd5b50505050611b8d565b8115611b8d57611b51866001600160a01b0316612114565b15611b8d5760405162461bcd60e51b815260040180806020018281038252604d8152602001806122ce604d913960600191505060405180910390fd5b5050505050505050565b6001600160a01b038416611bf2576040805162461bcd60e51b815260206004820181905260248201527f4552433737373a206d696e7420746f20746865207a65726f2061646472657373604482015290519081900360640190fd5b6000611bfc611357565b9050611c0b816000878761132f565b600154611c1890856120bc565b6001556001600160a01b038516600090815260208190526040902054611c3e90856120bc565b6001600160a01b038616600090815260208190526040812091909155611c6b908290878787876001611912565b846001600160a01b0316816001600160a01b03167f2fe5be0146f74c5bce36c0b80911af6c7d86ff27e89d5cfa61fc681327954e5d868686604051808481526020018060200180602001838103835285818151815260200191508051906020019080838360005b83811015611cea578181015183820152602001611cd2565b50505050905090810190601f168015611d175780820380516001836020036101000a031916815260200191505b50838103825284518152845160209182019186019080838360005b83811015611d4a578181015183820152602001611d32565b50505050905090810190601f168015611d775780820380516001836020036101000a031916815260200191505b509550505050505060405180910390a36040805185815290516001600160a01b0387169160009160008051602061233f8339815191529181900360200190a35050505050565b6001600160a01b038616611e025760405162461bcd60e51b81526004018080602001828103825260228152602001806121b86022913960400191505060405180910390fd5b6001600160a01b038516611e5d576040805162461bcd60e51b815260206004820181905260248201527f4552433737373a2073656e6420746f20746865207a65726f2061646472657373604482015290519081900360640190fd5b6000611e67611357565b9050611e77818888888888611447565b611e85818888888888611674565b61166b81888888888888611912565b6001600160a01b038416611ed95760405162461bcd60e51b81526004018080602001828103825260228152602001806122276022913960400191505060405180910390fd5b6000611ee3611357565b9050611ef2818660008761132f565b611f0181866000878787611447565b611f3e846040518060600160405280602381526020016123da602391396001600160a01b038816600090815260208190526040902054919061187b565b6001600160a01b038616600090815260208190526040902055600154611f649085612150565b600181905550846001600160a01b0316816001600160a01b03167fa78a9be3a7b862d26933ad85fb11d80ef66b8f972d7cbba06621d583943a4098868686604051808481526020018060200180602001838103835285818151815260200191508051906020019080838360005b83811015611fe9578181015183820152602001611fd1565b50505050905090810190601f1680156120165780820380516001836020036101000a031916815260200191505b50838103825284518152845160209182019186019080838360005b83811015612049578181015183820152602001612031565b50505050905090810190601f1680156120765780820380516001836020036101000a031916815260200191505b509550505050505060405180910390a36040805185815290516000916001600160a01b0388169160008051602061233f8339815191529181900360200190a35050505050565b600082820183811015611072576040805162461bcd60e51b815260206004820152601b60248201527a536166654d6174683a206164646974696f6e206f766572666c6f7760281b604482015290519081900360640190fd5b6000813f7fc5d2460186f7233c927e7db2dcc703c0e500b653ca82273b7bfad8045d85a47081811480159061214857508115155b949350505050565b600061107283836040518060400160405280601e81526020017f536166654d6174683a207375627472616374696f6e206f766572666c6f77000081525061187b56fe4552433737373a20617070726f76652066726f6d20746865207a65726f20616464726573734552433737373a2073656e642066726f6d20746865207a65726f20616464726573734552433737373a207472616e7366657220616d6f756e7420657863656564732062616c616e63654f776e61626c653a206e6577206f776e657220697320746865207a65726f20616464726573734552433737373a206275726e2066726f6d20746865207a65726f20616464726573734552433737373a20617574686f72697a696e672073656c66206173206f70657261746f724552433737373a207265766f6b696e672073656c66206173206f70657261746f724f776e61626c653a2063616c6c6572206973206e6f7420746865206f776e65728be0079c531659141344cd1fd0a4f28419497f9722a3daafe3b4186f6b6457e04552433737373a20746f6b656e20726563697069656e7420636f6e747261637420686173206e6f20696d706c656d656e74657220666f7220455243373737546f6b656e73526563697069656e744552433737373a207472616e7366657220746f20746865207a65726f2061646472657373ddf252ad1be2c89b69c2b068fc378daa952ba7f163c4a11628f55a4df523b3ef4552433737373a2063616c6c6572206973206e6f7420616e206f70657261746f7220666f7220686f6c6465724552433737373a207472616e7366657220616d6f756e74206578636565647320616c6c6f77616e63654552433737373a207472616e736665722066726f6d20746865207a65726f20616464726573734552433737373a206275726e20616d6f756e7420657863656564732062616c616e63654552433737373a20617070726f766520746f20746865207a65726f2061646472657373a2646970667358221220267ca9c3b51275c2eab95fa95a1979cb6c6e42027ad750f60c6a365a2605b3d064736f6c634300060c00334f776e61626c653a206e6577206f776e657220697320746865207a65726f20616464726573734f776e61626c653a2063616c6c6572206973206e6f7420746865206f776e65728be0079c531659141344cd1fd0a4f28419497f9722a3daafe3b4186f6b6457e0a2646970667358221220e15adb88558c569a0682ca969b2e2e6b729ae60811791710c3d0e8850bd34ad764736f6c634300060c00335265656e7472616e637947756172643a207265656e7472616e742063616c6c00a26469706673582212207af36fb68dba7f998394743f29ce7d52167e4baeb29ef3507365aaad28944a2764736f6c634300060c00334f776e61626c653a206e6577206f776e657220697320746865207a65726f20616464726573734f776e61626c653a2063616c6c6572206973206e6f7420746865206f776e65728be0079c531659141344cd1fd0a4f28419497f9722a3daafe3b4186f6b6457e0a2646970667358221220de03b3b4f48f66935e2072eabe93dcba0c044fd804474bc2ef7c502fc3c6689964736f6c634300060c0033",
  "compiler": {
    "name": "solc",
    "version": "0.6.12+commit.27d51765.Emscripten.clang",
    "optimizer": {
      "enabled": true,
      "runs": 1
    },
    "evmVersion": "petersburg"
  }
}