{
  "fileName": "RealityMarketRegistry.sol",
  "contractName": "RealityMarketRegistry",
  "source": "// SPDX-License-Identifier: Unlicense\n\npragma solidity 0.6.12;\n\nimport \"@openzeppelin/contracts/access/Ownable.sol\";\nimport \"./RealityMarket.sol\";\n\n\n/// @title Monitor\n/// @notice Code to create and stake for information markets.\ncontract RealityMarketRegistry is Ownable {\n\n    /// @notice Map from market address to it's owner;\n    mapping(address => address) public ownerForMarket;\n\n    /// @notice Create a market registry.\n    constructor() public {}\n\n    /// @notice Create a market and register the given owner.\n    /// @param setQuestion Question to set for the reality market.\n    /// @param setEndTime End time for the reality market.\n    /// @param ownerAddress Address of the market owner.\n    /// @param stakeAddress Address of the stake token used to vote.\n    /// @param currencyAddress Address of the token used to create complete sets.\n    /// @return Created market address.\n    function createMarket(\n        string memory setQuestion,\n        uint setEndTime,\n        address ownerAddress,\n        address stakeAddress,\n        address currencyAddress\n    ) public onlyOwner returns (address) {\n        RealityMarket market = new RealityMarket(\n            setQuestion,\n            setEndTime,\n            currencyAddress,\n            stakeAddress\n        );\n        ownerForMarket[address(market)] = ownerAddress;\n        return address(market);\n    }\n\n    /// @notice Gets the owner of the reality market.\n    /// @param marketAddress MarketAddress to check who is the owner for.\n    function getOwner(address marketAddress) public view returns (address) {\n        return ownerForMarket[marketAddress];\n    }\n\n}\n",
  "sourcePath": "contracts/RealityMarketRegistry.sol",
  "abi": [
    {
      "inputs": [],
      "stateMutability": "nonpayable",
      "type": "constructor"
    },
    {
      "anonymous": false,
      "inputs": [
        {
          "indexed": true,
          "internalType": "address",
          "name": "previousOwner",
          "type": "address"
        },
        {
          "indexed": true,
          "internalType": "address",
          "name": "newOwner",
          "type": "address"
        }
      ],
      "name": "OwnershipTransferred",
      "type": "event"
    },
    {
      "inputs": [
        {
          "internalType": "string",
          "name": "setQuestion",
          "type": "string"
        },
        {
          "internalType": "uint256",
          "name": "setEndTime",
          "type": "uint256"
        },
        {
          "internalType": "address",
          "name": "ownerAddress",
          "type": "address"
        },
        {
          "internalType": "address",
          "name": "stakeAddress",
          "type": "address"
        },
        {
          "internalType": "address",
          "name": "currencyAddress",
          "type": "address"
        }
      ],
      "name": "createMarket",
      "outputs": [
        {
          "internalType": "address",
          "name": "",
          "type": "address"
        }
      ],
      "stateMutability": "nonpayable",
      "type": "function"
    },
    {
      "inputs": [
        {
          "internalType": "address",
          "name": "marketAddress",
          "type": "address"
        }
      ],
      "name": "getOwner",
      "outputs": [
        {
          "internalType": "address",
          "name": "",
          "type": "address"
        }
      ],
      "stateMutability": "view",
      "type": "function"
    },
    {
      "inputs": [],
      "name": "owner",
      "outputs": [
        {
          "internalType": "address",
          "name": "",
          "type": "address"
        }
      ],
      "stateMutability": "view",
      "type": "function"
    },
    {
      "inputs": [
        {
          "internalType": "address",
          "name": "",
          "type": "address"
        }
      ],
      "name": "ownerForMarket",
      "outputs": [
        {
          "internalType": "address",
          "name": "",
          "type": "address"
        }
      ],
      "stateMutability": "view",
      "type": "function"
    },
    {
      "inputs": [],
      "name": "renounceOwnership",
      "outputs": [],
      "stateMutability": "nonpayable",
      "type": "function"
    },
    {
      "inputs": [
        {
          "internalType": "address",
          "name": "newOwner",
          "type": "address"
        }
      ],
      "name": "transferOwnership",
      "outputs": [],
      "stateMutability": "nonpayable",
      "type": "function"
    }
  ],
  "bytecode": "0x608060405234801561001057600080fd5b50600061001b61006a565b600080546001600160a01b0319166001600160a01b0383169081178255604051929350917f8be0079c531659141344cd1fd0a4f28419497f9722a3daafe3b4186f6b6457e0908290a35061006e565b3390565b6155ba8061007d6000396000f3fe608060405234801561001057600080fd5b50600436106100625760003560e01c8063715018a6146100675780638da5cb5b14610071578063a3dd595d14610095578063bc7bbcf1146100bb578063f2fde38b1461017d578063fa544161146101a3575b600080fd5b61006f6101c9565b005b610079610259565b604080516001600160a01b039092168252519081900360200190f35b610079600480360360208110156100ab57600080fd5b50356001600160a01b0316610268565b610079600480360360a08110156100d157600080fd5b810190602081018135600160201b8111156100eb57600080fd5b8201836020820111156100fd57600080fd5b803590602001918460018302840111600160201b8311171561011e57600080fd5b91908080601f0160208091040260200160405190810160405280939291908181526020018383808284376000920191909152509295505082359350506001600160a01b0360208301358116926040810135821692506060013516610283565b61006f6004803603602081101561019357600080fd5b50356001600160a01b03166103d1565b610079600480360360208110156101b957600080fd5b50356001600160a01b03166104b7565b6101d16104d5565b6000546001600160a01b03908116911614610221576040805162461bcd60e51b81526020600482018190526024820152600080516020615545833981519152604482015290519081900360640190fd5b600080546040516001600160a01b0390911690600080516020615565833981519152908390a3600080546001600160a01b0319169055565b6000546001600160a01b031690565b6001602052600090815260409020546001600160a01b031681565b600061028d6104d5565b6000546001600160a01b039081169116146102dd576040805162461bcd60e51b81526020600482018190526024820152600080516020615545833981519152604482015290519081900360640190fd5b6000868684866040516102ef906104d9565b60208082018590526001600160a01b0380851660408401528316606083015260808083528651908301528551829160a08301919088019080838360005b8381101561034457818101518382015260200161032c565b50505050905090810190601f1680156103715780820380516001836020036101000a031916815260200191505b5095505050505050604051809103906000f080158015610395573d6000803e3d6000fd5b506001600160a01b03818116600090815260016020526040902080546001600160a01b0319169790911696909617909555509295945050505050565b6103d96104d5565b6000546001600160a01b03908116911614610429576040805162461bcd60e51b81526020600482018190526024820152600080516020615545833981519152604482015290519081900360640190fd5b6001600160a01b03811661046e5760405162461bcd60e51b815260040180806020018281038252602681526020018061551f6026913960400191505060405180910390fd5b600080546040516001600160a01b038085169392169160008051602061556583398151915291a3600080546001600160a01b0319166001600160a01b0392909216919091179055565b6001600160a01b039081166000908152600160205260409020541690565b3390565b615038806104e78339019056fe608060405260006007553480156200001657600080fd5b506040516200503838038062005038833981810160405260808110156200003c57600080fd5b81019080805160405193929190846401000000008211156200005d57600080fd5b9083019060208201858111156200007357600080fd5b82516401000000008111828201881017156200008e57600080fd5b82525081516020918201929091019080838360005b83811015620000bd578181015183820152602001620000a3565b50505050905090810190601f168015620000eb5780820380516001836020036101000a031916815260200191505b50604090815260208201519082015160609092015160016000559093509091504283116200017a57604080517f08c379a000000000000000000000000000000000000000000000000000000000815260206004820152601c60248201527f656e642074696d65206d75737420626520616674657220737461727400000000604482015290519081900360640190fd5b6006839055835162000194906005906020870190620001e9565b50600280546001600160a01b039384166001600160a01b031991821681179092556001805482169092178255600480549390941692811683179093556003805490931690911790915560075550620002859050565b828054600181600116156101000203166002900490600052602060002090601f016020900481019282601f106200022c57805160ff19168380011785556200025c565b828001600101855582156200025c579182015b828111156200025c5782518255916020019190600101906200023f565b506200026a9291506200026e565b5090565b5b808211156200026a57600081556001016200026f565b614da380620002956000396000f3fe608060405234801561001057600080fd5b50600436106100e65760003560e01c80630b8a5c46146100eb5780631831db591461010a5780631a973c841461012e5780631c1cb323146101365780631ea736e01461013e5780633d402f7e146101585780633fad9ae01461017b5780636279cb27146101f85780636b2fa374146102005780636d04aae2146102085780639b34ae0314610210578063a85195b614610218578063ba0bba4014610220578063d2fa717014610228578063ebb01e6514610230578063f2fd83e01461024d578063f3a8a23214610255578063fce1ccca14610272575b600080fd5b6101086004803603602081101561010157600080fd5b503561027a565b005b61011261078e565b604080516001600160a01b039092168252519081900360200190f35b61011261079d565b6101126107ac565b6101466107bb565b60408051918252519081900360200190f35b6101086004803603604081101561016e57600080fd5b50803590602001356107c1565b610183610831565b6040805160208082528351818301528351919283929083019185019080838360005b838110156101bd5781810151838201526020016101a5565b50505050905090810190601f1680156101ea5780820380516001836020036101000a031916815260200191505b509250505060405180910390f35b6101126108bf565b6101126108ce565b6101086108dd565b6101466109b7565b610108610a2e565b610146610af4565b610112610afa565b6101086004803603602081101561024657600080fd5b5035610b09565b610112610c50565b6101086004803603602081101561026b57600080fd5b5035610c5f565b610112610e41565b60065442116102cc576040805162461bcd60e51b8152602060048201526019602482015278159bdd19481a5cc81b9bdd081e595d0818dbdb5c1b195d1959603a1b604482015290519081900360640190fd5b60026000541415610312576040805162461bcd60e51b815260206004820152601f6024820152600080516020614d4e833981519152604482015290519081900360640190fd5b6002600081905550600860009054906101000a90046001600160a01b03166001600160a01b0316639b34ae036040518163ffffffff1660e01b8152600401602060405180830381600087803b15801561036a57600080fd5b505af115801561037e573d6000803e3d6000fd5b505050506040513d602081101561039457600080fd5b5051670de0b6b3a763ffff19141561049957600a5460408051635084280d60e11b81523360048201526024810184905290516001600160a01b039092169163a108501a9160448082019260009290919082900301818387803b1580156103f957600080fd5b505af115801561040d573d6000803e3d6000fd5b50506002546040805163a9059cbb60e01b8152336004820152670de0b6b3a7640000602482015290516001600160a01b03909216935063a9059cbb92506044808201926020929091908290030181600087803b15801561046c57600080fd5b505af1158015610480573d6000803e3d6000fd5b505050506040513d602081101561049657600080fd5b50505b600860009054906101000a90046001600160a01b03166001600160a01b0316639b34ae036040518163ffffffff1660e01b8152600401602060405180830381600087803b1580156104e957600080fd5b505af11580156104fd573d6000803e3d6000fd5b505050506040513d602081101561051357600080fd5b5051670de0b6b3a7640000141561061757600a54604080516323ed3bfd60e21b81523360048201526024810184905290516001600160a01b0390921691638fb4eff49160448082019260009290919082900301818387803b15801561057757600080fd5b505af115801561058b573d6000803e3d6000fd5b50506002546040805163a9059cbb60e01b8152336004820152670de0b6b3a7640000602482015290516001600160a01b03909216935063a9059cbb92506044808201926020929091908290030181600087803b1580156105ea57600080fd5b505af11580156105fe573d6000803e3d6000fd5b505050506040513d602081101561061457600080fd5b50505b600860009054906101000a90046001600160a01b03166001600160a01b0316639b34ae036040518163ffffffff1660e01b8152600401602060405180830381600087803b15801561066757600080fd5b505af115801561067b573d6000803e3d6000fd5b505050506040513d602081101561069157600080fd5b505161078657600a54604080516379a9568560e11b81523360048201526024810184905290516001600160a01b039092169163f352ad0a9160448082019260009290919082900301818387803b1580156106ea57600080fd5b505af11580156106fe573d6000803e3d6000fd5b50506002546040805163a9059cbb60e01b815233600482015260006024820181905291516001600160a01b03909316945063a9059cbb9350604480820193602093909283900390910190829087803b15801561075957600080fd5b505af115801561076d573d6000803e3d6000fd5b505050506040513d602081101561078357600080fd5b50505b506001600055565b600b546001600160a01b031681565b600a546001600160a01b031681565b6001546001600160a01b031681565b60065481565b60085460408051631ea017bf60e11b8152600481018590526024810184905290516001600160a01b0390921691633d402f7e9160448082019260009290919082900301818387803b15801561081557600080fd5b505af1158015610829573d6000803e3d6000fd5b505050505050565b6005805460408051602060026001851615610100026000190190941693909304601f810184900484028201840190925281815292918301828280156108b75780601f1061088c576101008083540402835291602001916108b7565b820191906000526020600020905b81548152906001019060200180831161089a57829003601f168201915b505050505081565b6003546001600160a01b031681565b6002546001600160a01b031681565b600754600214610934576040805162461bcd60e51b815260206004820152601e60248201527f4d61726b6574206e6f7420696e20666f726573696768742073746174652e0000604482015290519081900360640190fd5b6006546003546040516001600160a01b039091169061095290610e50565b9182526001600160a01b03166020820152604080519182900301906000f080158015610982573d6000803e3d6000fd5b50600880546001600160a01b03199081166001600160a01b039384161791829055600980549290931691161790556003600755565b60085460408051639b34ae0360e01b815290516000926001600160a01b031691639b34ae0391600480830192602092919082900301818787803b1580156109fd57600080fd5b505af1158015610a11573d6000803e3d6000fd5b505050506040513d6020811015610a2757600080fd5b5051905090565b600754600114610a85576040805162461bcd60e51b815260206004820181905260248201527f4d61726b6574206e6f7420696e20636f6e73747275637465642073746174652e604482015290519081900360640190fd5b30604051610a9290610e5d565b6001600160a01b03909116815260405190819003602001906000f080158015610abf573d6000803e3d6000fd5b50600a80546001600160a01b03199081166001600160a01b039384161791829055600b80549290931691161790556002600755565b60075481565b6009546001600160a01b031681565b600754600314610b5c576040805162461bcd60e51b81526020600482015260196024820152784d61726b6574207365747570206e6f7420636f6d706c65746560381b604482015290519081900360640190fd5b600254604080516323b872dd60e01b81523360048201523060248201526044810184905290516001600160a01b03909216916323b872dd916064808201926020929091908290030181600087803b158015610bb657600080fd5b505af1158015610bca573d6000803e3d6000fd5b505050506040513d6020811015610be057600080fd5b5050600a5460408051631e633a8560e31b81523360048201526024810184905290516001600160a01b039092169163f319d4289160448082019260009290919082900301818387803b158015610c3557600080fd5b505af1158015610c49573d6000803e3d6000fd5b5050505050565b6004546001600160a01b031681565b60026000541415610ca5576040805162461bcd60e51b815260206004820152601f6024820152600080516020614d4e833981519152604482015290519081900360640190fd5b60026000908155600a54604080516323ed3bfd60e21b81523360048201526024810185905290516001600160a01b0390921692638fb4eff49260448084019382900301818387803b158015610cf957600080fd5b505af1158015610d0d573d6000803e3d6000fd5b5050600a54604080516379a9568560e11b81523360048201526024810186905290516001600160a01b03909216935063f352ad0a925060448082019260009290919082900301818387803b158015610d6457600080fd5b505af1158015610d78573d6000803e3d6000fd5b5050600a5460408051635084280d60e11b81523360048201526024810186905290516001600160a01b03909216935063a108501a925060448082019260009290919082900301818387803b158015610dcf57600080fd5b505af1158015610de3573d6000803e3d6000fd5b5050600254604080516323b872dd60e01b81523060048201523360248201526044810186905290516001600160a01b0390921693506323b872dd92506064808201926020929091908290030181600087803b15801561075957600080fd5b6008546001600160a01b031681565b6107ce80610e6b83390190565b613715806116398339019056fe608060405234801561001057600080fd5b506040516107ce3803806107ce8339818101604052604081101561003357600080fd5b508051602090910151600080546001600160a01b039283166001600160a01b0319918216179182905560018054909116919092161790556002556107528061007c6000396000f3fe608060405234801561001057600080fd5b50600436106100a45760003560e01c80631425bf2e146100a95780631576dfc2146100c35780631ea736e0146100e957806333ad95e7146100f15780633ccfd60b1461010d5780633d402f7e14610117578063421d0a201461013a57806351ed6a30146101575780636dd175711461017b5780637f0c75a01461019857806385107367146101be5780639b34ae03146101c6575b600080fd5b6100b16101ce565b60408051918252519081900360200190f35b6100b1600480360360208110156100d957600080fd5b50356001600160a01b03166101d4565b6100b16101e6565b6100f96101ec565b604080519115158252519081900360200190f35b6101156101f5565b005b6101156004803603604081101561012d57600080fd5b5080359060200135610336565b6100b16004803603602081101561015057600080fd5b50356103de565b61015f6103fc565b604080516001600160a01b039092168252519081900360200190f35b6100b16004803603602081101561019157600080fd5b503561040b565b6100b1600480360360208110156101ae57600080fd5b50356001600160a01b031661041d565b61015f61042f565b6100b161043e565b60085481565b60056020526000908152604090205481565b60025481565b60075460ff1681565b6002544211610247576040805162461bcd60e51b8152602060048201526019602482015278159bdd19481a5cc81b9bdd081e595d0818dbdb5c1b195d1959603a1b604482015290519081900360640190fd5b61024f61043e565b336000908152600560205260409020541461029b5760405162461bcd60e51b81526004018080602001828103825260248152602001806106cf6024913960400191505060405180910390fd5b336000818152600660209081526040808320805490849055600154825163a9059cbb60e01b8152600481019690965260248601829052915190946001600160a01b039092169363a9059cbb93604480850194919392918390030190829087803b15801561030757600080fd5b505af115801561031b573d6000803e3d6000fd5b505050506040513d602081101561033157600080fd5b505050565b600254421061037f576040805162461bcd60e51b815260206004820152601060248201526f1d9bdd1a5b99c81a185cc8195b99195960821b604482015290519081900360640190fd5b600081116103d0576040805162461bcd60e51b815260206004820152601960248201527821b0b73737ba103b37ba32903bb4ba3410181039ba30b5b29760391b604482015290519081900360640190fd5b6103da828261054d565b5050565b600381815481106103eb57fe5b600091825260209091200154905081565b6001546001600160a01b031681565b60046020526000908152604090205481565b60066020526000908152604090205481565b6000546001600160a01b031681565b60006002544211610492576040805162461bcd60e51b8152602060048201526019602482015278159bdd19481a5cc81b9bdd081e595d0818dbdb5c1b195d1959603a1b604482015290519081900360640190fd5b60075460ff16156104a6575060085461054a565b6003546000906104c257670de0b6b3a763ffff1991505061054a565b60036000815481106104d057fe5b600091825260209091200154905060015b600354811015610534576000600382815481106104fa57fe5b6000918252602080832090910154808352600490915260408083205486845292205490925081111561052a578193505b50506001016104e1565b5060088190556007805460ff1916600117905590505b90565b81600081670de0b6b3a76400001480610564575081155b80610577575081670de0b6b3a763ffff19145b9050806105b55760405162461bcd60e51b815260040180806020018281038252602a8152602001806106f3602a913960400191505060405180910390fd5b6105bf848461064b565b600154604080516323b872dd60e01b81523360048201523060248201526044810186905290516001600160a01b03909216916323b872dd916064808201926020929091908290030181600087803b15801561061957600080fd5b505af115801561062d573d6000803e3d6000fd5b505050506040513d602081101561064357600080fd5b505050505050565b60008281526004602052604090205461069457600380546001810182556000919091527fc2575a0e9e593c00f959f8c92f12db2869c3395a3b0502d05e2516446f71f85b018290555b600082815260046020908152604080832080548501905533835260058252808320805490950190945560069052919091208054909101905556fe5573657220646964206e6f7420766f7465206f6e2077696e6e696e67206f7574636f6d65566f7465206973206e6f7420696e20636f72726563742042696e61727920566f746520466f726d61742ea26469706673582212207f261b078ab7fe75127041fc43d5f04378eea7ac207ea9b948837b76c7962a8264736f6c634300060c00336080604052600060085534801561001557600080fd5b506040516137153803806137158339818101604052602081101561003857600080fd5b505160006100446100b6565b600080546001600160a01b0319166001600160a01b0383169081178255604051929350917f8be0079c531659141344cd1fd0a4f28419497f9722a3daafe3b4186f6b6457e0908290a350600180546001600160a01b0319166001600160a01b03929092169190911781556008556100ba565b3390565b61364c806100c96000396000f3fe60806040523480156200001157600080fd5b5060043610620000ee5760003560e01c80630e49dd7e14620000f357806315edaf8b14620001195780631eb3dfcc146200012357806338f4a5bf146200012d5780633ea0a0ac146200013757806365a2e2e81462000143578063715018a6146200014d5780638da5cb5b14620001575780638fb4eff41462000161578063956236411462000190578063a108501a146200019a578063e386474c14620001c9578063ebf6535014620001d3578063f2fde38b14620001dd578063f319d4281462000206578063f32973471462000235578063f352ad0a146200023f575b600080fd5b620000fd6200026e565b604080516001600160a01b039092168252519081900360200190f35b620000fd6200027d565b620000fd6200028c565b620000fd6200029b565b62000141620002aa565b005b620000fd620003bf565b62000141620003ce565b620000fd62000463565b62000141600480360360408110156200017957600080fd5b506001600160a01b03813516906020013562000472565b620000fd62000541565b6200014160048036036040811015620001b257600080fd5b506001600160a01b03813516906020013562000550565b6200014162000606565b6200014162000724565b6200014160048036036020811015620001f557600080fd5b50356001600160a01b03166200083a565b62000141600480360360408110156200021e57600080fd5b506001600160a01b03813516906020013562000927565b620000fd62000b0b565b62000141600480360360408110156200025757600080fd5b506001600160a01b03813516906020013562000b1a565b6005546001600160a01b031681565b6006546001600160a01b031681565b6007546001600160a01b031681565b6002546001600160a01b031681565b600854600314620002f8576040805162461bcd60e51b81526020600482015260136024820152724d75737420626520696e204e4f20737461676560681b604482015290519081900360640190fd5b6001546040516001600160a01b0390911690620003159062000bd0565b6001600160a01b03909116604080830191909152606080835260159083015274119bdc995cda59da1d080b4816595ccbd4da1bdc9d605a1b608083015260a0602083018190526003908301526246595360e81b60c0830152519081900360e001906000f0801580156200038c573d6000803e3d6000fd5b50600480546001600160a01b03199081166001600160a01b03938416178083556007805491909416911617909155600855565b6004546001600160a01b031681565b620003d862000bcc565b6000546001600160a01b039081169116146200042a576040805162461bcd60e51b81526020600482018190526024820152600080516020620035d7833981519152604482015290519081900360640190fd5b600080546040516001600160a01b0390911690600080516020620035f7833981519152908390a3600080546001600160a01b0319169055565b6000546001600160a01b031690565b6200047c62000bcc565b6000546001600160a01b03908116911614620004ce576040805162461bcd60e51b81526020600482018190526024820152600080516020620035d7833981519152604482015290519081900360640190fd5b60025460408051632770a7eb60e21b81526001600160a01b0385811660048301526024820185905291519190921691639dc29fac91604480830192600092919082900301818387803b1580156200052457600080fd5b505af115801562000539573d6000803e3d6000fd5b505050505050565b6001546001600160a01b031681565b6200055a62000bcc565b6000546001600160a01b03908116911614620005ac576040805162461bcd60e51b81526020600482018190526024820152600080516020620035d7833981519152604482015290519081900360640190fd5b6004805460408051632770a7eb60e21b81526001600160a01b03868116948201949094526024810185905290519290911691639dc29fac9160448082019260009290919082900301818387803b1580156200052457600080fd5b6008546001146200065d576040805162461bcd60e51b815260206004820152601c60248201527b4d75737420626520696e20636f6e7374727563746f7220737461676560201b604482015290519081900360640190fd5b6001546040516001600160a01b03909116906200067a9062000bd0565b6001600160a01b03909116604080830191909152606080835260159083015274119bdc995cda59da1d080b4816595ccbd4da1bdc9d605a1b608083015260a0602083018190526003908301526246595360e81b60c0830152519081900360e001906000f080158015620006f1573d6000803e3d6000fd5b50600280546001600160a01b03199081166001600160a01b03938416178083556005805491909416911617909155600855565b60085460021462000773576040805162461bcd60e51b81526020600482015260146024820152734d75737420626520696e2059455320737461676560601b604482015290519081900360640190fd5b6001546040516001600160a01b0390911690620007909062000bd0565b6001600160a01b03909116604080830191909152606080835260159083015274119bdc995cda59da1d080b4816595ccbd4da1bdc9d605a1b608083015260a0602083018190526003908301526246595360e81b60c0830152519081900360e001906000f08015801562000807573d6000803e3d6000fd5b50600380546001600160a01b03199081166001600160a01b03938416178083556006805491909416911617909155600855565b6200084462000bcc565b6000546001600160a01b0390811691161462000896576040805162461bcd60e51b81526020600482018190526024820152600080516020620035d7833981519152604482015290519081900360640190fd5b6001600160a01b038116620008dd5760405162461bcd60e51b8152600401808060200182810382526026815260200180620035b16026913960400191505060405180910390fd5b600080546040516001600160a01b0380851693921691600080516020620035f783398151915291a3600080546001600160a01b0319166001600160a01b0392909216919091179055565b6200093162000bcc565b6000546001600160a01b0390811691161462000983576040805162461bcd60e51b81526020600482018190526024820152600080516020620035d7833981519152604482015290519081900360640190fd5b600854600414620009d3576040805162461bcd60e51b81526020600482015260156024820152740506c6561736520636f6d706c65746520736574757605c1b604482015290519081900360640190fd5b600354604080516340c10f1960e01b81526001600160a01b03858116600483015260248201859052915191909216916340c10f1991604480830192600092919082900301818387803b15801562000a2957600080fd5b505af115801562000a3e573d6000803e3d6000fd5b5050600254604080516340c10f1960e01b81526001600160a01b0387811660048301526024820187905291519190921693506340c10f199250604480830192600092919082900301818387803b15801562000a9857600080fd5b505af115801562000aad573d6000803e3d6000fd5b505060048054604080516340c10f1960e01b81526001600160a01b03888116948201949094526024810187905290519290911693506340c10f19925060448082019260009290919082900301818387803b1580156200052457600080fd5b6003546001600160a01b031681565b62000b2462000bcc565b6000546001600160a01b0390811691161462000b76576040805162461bcd60e51b81526020600482018190526024820152600080516020620035d7833981519152604482015290519081900360640190fd5b60035460408051632770a7eb60e21b81526001600160a01b0385811660048301526024820185905291519190921691639dc29fac91604480830192600092919082900301818387803b1580156200052457600080fd5b3390565b6129d28062000bdf8339019056fe60806040523480156200001157600080fd5b50604051620029d2380380620029d2833981810160405260608110156200003757600080fd5b81019080805160405193929190846401000000008211156200005857600080fd5b9083019060208201858111156200006e57600080fd5b82516401000000008111828201881017156200008957600080fd5b82525081516020918201929091019080838360005b83811015620000b85781810151838201526020016200009e565b50505050905090810190601f168015620000e65780820380516001836020036101000a031916815260200191505b50604052602001805160405193929190846401000000008211156200010a57600080fd5b9083019060208201858111156200012057600080fd5b82516401000000008111828201881017156200013b57600080fd5b82525081516020918201929091019080838360005b838110156200016a57818101518382015260200162000150565b50505050905090810190601f168015620001985780820380516001836020036101000a031916815260200191505b5060408181526020928301516000835283830190915286519094508693508592620001c9916002918601906200044a565b508151620001df9060039060208501906200044a565b508051620001f5906004906020840190620004cf565b5060005b6004548110156200025557600160056000600484815481106200021857fe5b6000918252602080832091909101546001600160a01b031683528201929092526040019020805460ff1916911515919091179055600101620001f9565b50604080517f29965a1d00000000000000000000000000000000000000000000000000000000815230600482018190527fac7fbab5f54a3ca8194167523c6753bfeb96a445279294b6125b68cce2177054602483015260448201529051731820a4b7618bde71dce8cdc73aab6c95905fad24916329965a1d91606480830192600092919082900301818387803b158015620002ef57600080fd5b505af115801562000304573d6000803e3d6000fd5b5050604080517f29965a1d00000000000000000000000000000000000000000000000000000000815230600482018190527faea199e31a596269b42cdafd93407f14436db6e4cad65417994c2eb37381e05a602483015260448201529051731820a4b7618bde71dce8cdc73aab6c95905fad2493506329965a1d9250606480830192600092919082900301818387803b158015620003a157600080fd5b505af1158015620003b6573d6000803e3d6000fd5b505050505050506000620003cf6200044660201b60201c565b600980546001600160a01b0319166001600160a01b038316908117909155604051919250906000907f8be0079c531659141344cd1fd0a4f28419497f9722a3daafe3b4186f6b6457e0908290a350600a80546001600160a01b0319166001600160a01b0392909216919091179055506200056d9050565b3390565b828054600181600116156101000203166002900490600052602060002090601f016020900481019282601f106200048d57805160ff1916838001178555620004bd565b82800160010185558215620004bd579182015b82811115620004bd578251825591602001919060010190620004a0565b50620004cb92915062000535565b5090565b82805482825590600052602060002090810192821562000527579160200282015b828111156200052757825182546001600160a01b0319166001600160a01b03909116178255602090920191600190910190620004f0565b50620004cb9291506200054c565b5b80821115620004cb576000815560010162000536565b5b80821115620004cb5780546001600160a01b03191681556001016200054d565b612455806200057d6000396000f3fe608060405234801561001057600080fd5b50600436106101285760003560e01c806306e485381461012d57806306fdde0314610185578063095ea7b31461020257806318160ddd1461024257806323b872dd1461025c578063313ce5671461029257806340c10f19146102b0578063556f0dc7146102de57806362ad1b83146102e657806370a082311461042f578063715018a6146104555780638da5cb5b1461045d5780639562364114610481578063959b8c3f1461048957806395d89b41146104af5780639bd9bbc6146104b75780639dc29fac14610570578063a9059cbb1461059c578063d95b6371146105c8578063dd62ed3e146105f6578063f2fde38b14610624578063fad8b32a1461064a578063fc673c4f14610670578063fe9d9303146107ae575b600080fd5b610135610859565b60408051602080825283518183015283519192839290830191858101910280838360005b83811015610171578181015183820152602001610159565b505050509050019250505060405180910390f35b61018d6108bb565b6040805160208082528351818301528351919283929083019185019080838360005b838110156101c75781810151838201526020016101af565b50505050905090810190601f1680156101f45780820380516001836020036101000a031916815260200191505b509250505060405180910390f35b61022e6004803603604081101561021857600080fd5b506001600160a01b038135169060200135610945565b604080519115158252519081900360200190f35b61024a610967565b60408051918252519081900360200190f35b61022e6004803603606081101561027257600080fd5b506001600160a01b0381358116916020810135909116906040013561096d565b61029a610aea565b6040805160ff9092168252519081900360200190f35b6102dc600480360360408110156102c657600080fd5b506001600160a01b038135169060200135610aef565b005b61024a610b75565b6102dc600480360360a08110156102fc57600080fd5b6001600160a01b03823581169260208101359091169160408201359190810190608081016060820135600160201b81111561033657600080fd5b82018360208201111561034857600080fd5b803590602001918460018302840111600160201b8311171561036957600080fd5b91908080601f0160208091040260200160405190810160405280939291908181526020018383808284376000920191909152509295949360208101935035915050600160201b8111156103bb57600080fd5b8201836020820111156103cd57600080fd5b803590602001918460018302840111600160201b831117156103ee57600080fd5b91908080601f016020809104026020016040519081016040528093929190818152602001838380828437600092019190915250929550610b7a945050505050565b61024a6004803603602081101561044557600080fd5b50356001600160a01b0316610bdc565b6102dc610bf7565b610465610c87565b604080516001600160a01b039092168252519081900360200190f35b610465610c96565b6102dc6004803603602081101561049f57600080fd5b50356001600160a01b0316610ca5565b61018d610df1565b6102dc600480360360608110156104cd57600080fd5b6001600160a01b0382351691602081013591810190606081016040820135600160201b8111156104fc57600080fd5b82018360208201111561050e57600080fd5b803590602001918460018302840111600160201b8311171561052f57600080fd5b91908080601f016020809104026020016040519081016040528093929190818152602001838380828437600092019190915250929550610e52945050505050565b6102dc6004803603604081101561058657600080fd5b506001600160a01b038135169060200135610e7c565b61022e600480360360408110156105b257600080fd5b506001600160a01b038135169060200135610efe565b61022e600480360360408110156105de57600080fd5b506001600160a01b0381358116916020013516610fd7565b61024a6004803603604081101561060c57600080fd5b506001600160a01b0381358116916020013516611079565b6102dc6004803603602081101561063a57600080fd5b50356001600160a01b03166110a4565b6102dc6004803603602081101561066057600080fd5b50356001600160a01b031661118b565b6102dc6004803603608081101561068657600080fd5b6001600160a01b0382351691602081013591810190606081016040820135600160201b8111156106b557600080fd5b8201836020820111156106c757600080fd5b803590602001918460018302840111600160201b831117156106e857600080fd5b91908080601f0160208091040260200160405190810160405280939291908181526020018383808284376000920191909152509295949360208101935035915050600160201b81111561073a57600080fd5b82018360208201111561074c57600080fd5b803590602001918460018302840111600160201b8311171561076d57600080fd5b91908080601f0160208091040260200160405190810160405280939291908181526020018383808284376000920191909152509295506112d7945050505050565b6102dc600480360360408110156107c457600080fd5b81359190810190604081016020820135600160201b8111156107e557600080fd5b8201836020820111156107f757600080fd5b803590602001918460018302840111600160201b8311171561081857600080fd5b91908080601f016020809104026020016040519081016040528093929190818152602001838380828437600092019190915250929550611335945050505050565b606060048054806020026020016040519081016040528092919081815260200182805480156108b157602002820191906000526020600020905b81546001600160a01b03168152600190910190602001808311610893575b5050505050905090565b60028054604080516020601f60001961010060018716150201909416859004938401819004810282018101909252828152606093909290918301828280156108b15780601f10610919576101008083540402835291602001916108b1565b820191906000526020600020905b81548152906001019060200180831161092757509395945050505050565b600080610950611357565b905061095d81858561135b565b5060019392505050565b60015490565b60006001600160a01b0383166109b45760405162461bcd60e51b815260040180806020018281038252602481526020018061231b6024913960400191505060405180910390fd5b6001600160a01b0384166109f95760405162461bcd60e51b81526004018080602001828103825260268152602001806123b46026913960400191505060405180910390fd5b6000610a03611357565b9050610a31818686866040518060200160405280600081525060405180602001604052806000815250611447565b610a5d818686866040518060200160405280600081525060405180602001604052806000815250611674565b610ab18582610aac8660405180606001604052806029815260200161238b602991396001600160a01b03808c166000908152600860209081526040808320938b1683529290522054919061187b565b61135b565b610adf8186868660405180602001604052806000815250604051806020016040528060008152506000611912565b506001949350505050565b601290565b610af7611357565b6009546001600160a01b03908116911614610b47576040805162461bcd60e51b8152602060048201819052602482015260008051602061228e833981519152604482015290519081900360640190fd5b610b7182826040518060200160405280600081525060405180602001604052806000815250611b97565b5050565b600190565b610b8b610b85611357565b86610fd7565b610bc65760405162461bcd60e51b815260040180806020018281038252602c81526020018061235f602c913960400191505060405180910390fd5b610bd585858585856001611dbd565b5050505050565b6001600160a01b031660009081526020819052604090205490565b610bff611357565b6009546001600160a01b03908116911614610c4f576040805162461bcd60e51b8152602060048201819052602482015260008051602061228e833981519152604482015290519081900360640190fd5b6009546040516000916001600160a01b0316906000805160206122ae833981519152908390a3600980546001600160a01b0319169055565b6009546001600160a01b031690565b600a546001600160a01b031681565b806001600160a01b0316610cb7611357565b6001600160a01b03161415610cfd5760405162461bcd60e51b81526004018080602001828103825260248152602001806122496024913960400191505060405180910390fd5b6001600160a01b03811660009081526005602052604090205460ff1615610d605760076000610d2a611357565b6001600160a01b03908116825260208083019390935260409182016000908120918516815292529020805460ff19169055610da7565b600160066000610d6e611357565b6001600160a01b03908116825260208083019390935260409182016000908120918616815292529020805460ff19169115159190911790555b610daf611357565b6001600160a01b0316816001600160a01b03167ff4caeb2d6ca8932a215a353d0703c326ec2d81fc68170f320eb2ab49e9df61f960405160405180910390a350565b60038054604080516020601f60026000196101006001881615020190951694909404938401819004810282018101909252828152606093909290918301828280156108b15780601f10610919576101008083540402835291602001916108b1565b610e77610e5d611357565b848484604051806020016040528060008152506001611dbd565b505050565b610e84611357565b6009546001600160a01b03908116911614610ed4576040805162461bcd60e51b8152602060048201819052602482015260008051602061228e833981519152604482015290519081900360640190fd5b610b7182826040518060200160405280600081525060405180602001604052806000815250611e94565b60006001600160a01b038316610f455760405162461bcd60e51b815260040180806020018281038252602481526020018061231b6024913960400191505060405180910390fd5b6000610f4f611357565b9050610f7d818286866040518060200160405280600081525060405180602001604052806000815250611447565b610fa9818286866040518060200160405280600081525060405180602001604052806000815250611674565b61095d8182868660405180602001604052806000815250604051806020016040528060008152506000611912565b6000816001600160a01b0316836001600160a01b0316148061104257506001600160a01b03831660009081526005602052604090205460ff16801561104257506001600160a01b0380831660009081526007602090815260408083209387168352929052205460ff16155b8061107257506001600160a01b0380831660009081526006602090815260408083209387168352929052205460ff165b9392505050565b6001600160a01b03918216600090815260086020908152604080832093909416825291909152205490565b6110ac611357565b6009546001600160a01b039081169116146110fc576040805162461bcd60e51b8152602060048201819052602482015260008051602061228e833981519152604482015290519081900360640190fd5b6001600160a01b0381166111415760405162461bcd60e51b81526004018080602001828103825260268152602001806122016026913960400191505060405180910390fd5b6009546040516001600160a01b038084169216906000805160206122ae83398151915290600090a3600980546001600160a01b0319166001600160a01b0392909216919091179055565b611193611357565b6001600160a01b0316816001600160a01b031614156111e35760405162461bcd60e51b815260040180806020018281038252602181526020018061226d6021913960400191505060405180910390fd5b6001600160a01b03811660009081526005602052604090205460ff161561124f57600160076000611212611357565b6001600160a01b03908116825260208083019390935260409182016000908120918616815292529020805460ff191691151591909117905561128d565b6006600061125b611357565b6001600160a01b03908116825260208083019390935260409182016000908120918516815292529020805460ff191690555b611295611357565b6001600160a01b0316816001600160a01b03167f50546e66e5f44d728365dc3908c63bc5cfeeab470722c1677e3073a6ac294aa160405160405180910390a350565b6112e86112e2611357565b85610fd7565b6113235760405162461bcd60e51b815260040180806020018281038252602c81526020018061235f602c913960400191505060405180910390fd5b61132f84848484611e94565b50505050565b610b71611340611357565b838360405180602001604052806000815250611e94565b3390565b6001600160a01b0383166113a05760405162461bcd60e51b81526004018080602001828103825260258152602001806121936025913960400191505060405180910390fd5b6001600160a01b0382166113e55760405162461bcd60e51b81526004018080602001828103825260238152602001806123fd6023913960400191505060405180910390fd5b6001600160a01b03808416600081815260086020908152604080832094871680845294825291829020859055815185815291517f8c5be1e5ebec7d5bd14f71427d1e84f3dd0314c0f7b2291e5b200ac8c7c3b9259281900390910190a3505050565b6040805163555ddc6560e11b81526001600160a01b03871660048201527f29ddb589b1fb5fc7cf394961c1adf5f8c6454761adf795e67fe149f658abe89560248201529051600091731820a4b7618bde71dce8cdc73aab6c95905fad249163aabbb8ca91604480820192602092909190829003018186803b1580156114cb57600080fd5b505afa1580156114df573d6000803e3d6000fd5b505050506040513d60208110156114f557600080fd5b505190506001600160a01b0381161561166b57806001600160a01b03166375ab97828888888888886040518763ffffffff1660e01b815260040180876001600160a01b03168152602001866001600160a01b03168152602001856001600160a01b031681526020018481526020018060200180602001838103835285818151815260200191508051906020019080838360005b838110156115a0578181015183820152602001611588565b50505050905090810190601f1680156115cd5780820380516001836020036101000a031916815260200191505b50838103825284518152845160209182019186019080838360005b838110156116005781810151838201526020016115e8565b50505050905090810190601f16801561162d5780820380516001836020036101000a031916815260200191505b5098505050505050505050600060405180830381600087803b15801561165257600080fd5b505af1158015611666573d6000803e3d6000fd5b505050505b50505050505050565b6116808686868661132f565b6116bd836040518060600160405280602781526020016121da602791396001600160a01b038816600090815260208190526040902054919061187b565b6001600160a01b0380871660009081526020819052604080822093909355908616815220546116ec90846120bc565b600080866001600160a01b03166001600160a01b0316815260200190815260200160002081905550836001600160a01b0316856001600160a01b0316876001600160a01b03167f06b541ddaa720db2b10a4d0cdac39b8d360425fc073085fac19bc82614677987868686604051808481526020018060200180602001838103835285818151815260200191508051906020019080838360005b8381101561179d578181015183820152602001611785565b50505050905090810190601f1680156117ca5780820380516001836020036101000a031916815260200191505b50838103825284518152845160209182019186019080838360005b838110156117fd5781810151838201526020016117e5565b50505050905090810190601f16801561182a5780820380516001836020036101000a031916815260200191505b509550505050505060405180910390a4836001600160a01b0316856001600160a01b031660008051602061233f833981519152856040518082815260200191505060405180910390a3505050505050565b6000818484111561190a5760405162461bcd60e51b81526004018080602001828103825283818151815260200191508051906020019080838360005b838110156118cf5781810151838201526020016118b7565b50505050905090810190601f1680156118fc5780820380516001836020036101000a031916815260200191505b509250505060405180910390fd5b505050900390565b6040805163555ddc6560e11b81526001600160a01b03871660048201527fb281fc8c12954d22544db45de3159a39272895b169a852b314f9cc762e44c53b60248201529051600091731820a4b7618bde71dce8cdc73aab6c95905fad249163aabbb8ca91604480820192602092909190829003018186803b15801561199657600080fd5b505afa1580156119aa573d6000803e3d6000fd5b505050506040513d60208110156119c057600080fd5b505190506001600160a01b03811615611b3957806001600160a01b03166223de298989898989896040518763ffffffff1660e01b815260040180876001600160a01b03168152602001866001600160a01b03168152602001856001600160a01b031681526020018481526020018060200180602001838103835285818151815260200191508051906020019080838360005b83811015611a6a578181015183820152602001611a52565b50505050905090810190601f168015611a975780820380516001836020036101000a031916815260200191505b50838103825284518152845160209182019186019080838360005b83811015611aca578181015183820152602001611ab2565b50505050905090810190601f168015611af75780820380516001836020036101000a031916815260200191505b5098505050505050505050600060405180830381600087803b158015611b1c57600080fd5b505af1158015611b30573d6000803e3d6000fd5b50505050611b8d565b8115611b8d57611b51866001600160a01b0316612114565b15611b8d5760405162461bcd60e51b815260040180806020018281038252604d8152602001806122ce604d913960600191505060405180910390fd5b5050505050505050565b6001600160a01b038416611bf2576040805162461bcd60e51b815260206004820181905260248201527f4552433737373a206d696e7420746f20746865207a65726f2061646472657373604482015290519081900360640190fd5b6000611bfc611357565b9050611c0b816000878761132f565b600154611c1890856120bc565b6001556001600160a01b038516600090815260208190526040902054611c3e90856120bc565b6001600160a01b038616600090815260208190526040812091909155611c6b908290878787876001611912565b846001600160a01b0316816001600160a01b03167f2fe5be0146f74c5bce36c0b80911af6c7d86ff27e89d5cfa61fc681327954e5d868686604051808481526020018060200180602001838103835285818151815260200191508051906020019080838360005b83811015611cea578181015183820152602001611cd2565b50505050905090810190601f168015611d175780820380516001836020036101000a031916815260200191505b50838103825284518152845160209182019186019080838360005b83811015611d4a578181015183820152602001611d32565b50505050905090810190601f168015611d775780820380516001836020036101000a031916815260200191505b509550505050505060405180910390a36040805185815290516001600160a01b0387169160009160008051602061233f8339815191529181900360200190a35050505050565b6001600160a01b038616611e025760405162461bcd60e51b81526004018080602001828103825260228152602001806121b86022913960400191505060405180910390fd5b6001600160a01b038516611e5d576040805162461bcd60e51b815260206004820181905260248201527f4552433737373a2073656e6420746f20746865207a65726f2061646472657373604482015290519081900360640190fd5b6000611e67611357565b9050611e77818888888888611447565b611e85818888888888611674565b61166b81888888888888611912565b6001600160a01b038416611ed95760405162461bcd60e51b81526004018080602001828103825260228152602001806122276022913960400191505060405180910390fd5b6000611ee3611357565b9050611ef2818660008761132f565b611f0181866000878787611447565b611f3e846040518060600160405280602381526020016123da602391396001600160a01b038816600090815260208190526040902054919061187b565b6001600160a01b038616600090815260208190526040902055600154611f649085612150565b600181905550846001600160a01b0316816001600160a01b03167fa78a9be3a7b862d26933ad85fb11d80ef66b8f972d7cbba06621d583943a4098868686604051808481526020018060200180602001838103835285818151815260200191508051906020019080838360005b83811015611fe9578181015183820152602001611fd1565b50505050905090810190601f1680156120165780820380516001836020036101000a031916815260200191505b50838103825284518152845160209182019186019080838360005b83811015612049578181015183820152602001612031565b50505050905090810190601f1680156120765780820380516001836020036101000a031916815260200191505b509550505050505060405180910390a36040805185815290516000916001600160a01b0388169160008051602061233f8339815191529181900360200190a35050505050565b600082820183811015611072576040805162461bcd60e51b815260206004820152601b60248201527a536166654d6174683a206164646974696f6e206f766572666c6f7760281b604482015290519081900360640190fd5b6000813f7fc5d2460186f7233c927e7db2dcc703c0e500b653ca82273b7bfad8045d85a47081811480159061214857508115155b949350505050565b600061107283836040518060400160405280601e81526020017f536166654d6174683a207375627472616374696f6e206f766572666c6f77000081525061187b56fe4552433737373a20617070726f76652066726f6d20746865207a65726f20616464726573734552433737373a2073656e642066726f6d20746865207a65726f20616464726573734552433737373a207472616e7366657220616d6f756e7420657863656564732062616c616e63654f776e61626c653a206e6577206f776e657220697320746865207a65726f20616464726573734552433737373a206275726e2066726f6d20746865207a65726f20616464726573734552433737373a20617574686f72697a696e672073656c66206173206f70657261746f724552433737373a207265766f6b696e672073656c66206173206f70657261746f724f776e61626c653a2063616c6c6572206973206e6f7420746865206f776e65728be0079c531659141344cd1fd0a4f28419497f9722a3daafe3b4186f6b6457e04552433737373a20746f6b656e20726563697069656e7420636f6e747261637420686173206e6f20696d706c656d656e74657220666f7220455243373737546f6b656e73526563697069656e744552433737373a207472616e7366657220746f20746865207a65726f2061646472657373ddf252ad1be2c89b69c2b068fc378daa952ba7f163c4a11628f55a4df523b3ef4552433737373a2063616c6c6572206973206e6f7420616e206f70657261746f7220666f7220686f6c6465724552433737373a207472616e7366657220616d6f756e74206578636565647320616c6c6f77616e63654552433737373a207472616e736665722066726f6d20746865207a65726f20616464726573734552433737373a206275726e20616d6f756e7420657863656564732062616c616e63654552433737373a20617070726f766520746f20746865207a65726f2061646472657373a2646970667358221220267ca9c3b51275c2eab95fa95a1979cb6c6e42027ad750f60c6a365a2605b3d064736f6c634300060c00334f776e61626c653a206e6577206f776e657220697320746865207a65726f20616464726573734f776e61626c653a2063616c6c6572206973206e6f7420746865206f776e65728be0079c531659141344cd1fd0a4f28419497f9722a3daafe3b4186f6b6457e0a2646970667358221220dad40ab901f16f9a924bf55a720c76a602702530d5689991b6c483cf0086de5464736f6c634300060c00335265656e7472616e637947756172643a207265656e7472616e742063616c6c00a2646970667358221220fc3fe571a182b04724e18e7bf9a69c3fd7a4406242bcf8a384013ef407c711c364736f6c634300060c00334f776e61626c653a206e6577206f776e657220697320746865207a65726f20616464726573734f776e61626c653a2063616c6c6572206973206e6f7420746865206f776e65728be0079c531659141344cd1fd0a4f28419497f9722a3daafe3b4186f6b6457e0a26469706673582212205161c29086df2c5f887f3b2b0bdf1ea8eb07967d0aa975f0f349896e7319301164736f6c634300060c0033",
  "compiler": {
    "name": "solc",
    "version": "0.6.12+commit.27d51765.Emscripten.clang",
    "optimizer": {
      "enabled": true,
      "runs": 1
    },
    "evmVersion": "petersburg"
  }
}