{
  "fileName": "RealityMarket.sol",
  "contractName": "RealityMarket",
  "source": "// SPDX-License-Identifier: Unlicense\n\npragma solidity 0.6.12;\n\nimport \"@openzeppelin/contracts/token/ERC20/IERC20.sol\";\nimport \"@openzeppelin/contracts/math/SafeMath.sol\";\nimport \"@openzeppelin/contracts/math/SignedSafeMath.sol\";\nimport \"@openzeppelin/contracts/utils/ReentrancyGuard.sol\";\nimport \"@openzeppelin/contracts/utils/SafeCast.sol\";\nimport \"./ForesightVault.sol\";\nimport \"./MarketVoting.sol\";\n\n/// @title RealityMarket\n/// @notice Generate a reality market and appropriate mint/burn tokens.\n/// @dev\ncontract RealityMarket is ReentrancyGuard {\n    using SafeMath for uint;\n    using SignedSafeMath for int;\n    /// @notice Base currency token address used to mint Foresight.\n    address public currencyAddress;\n    /// @notice Base currency token used to mint Foresight.\n    IERC20 public currencyToken;\n    /// @notice Address for the Vision token.\n    address public visionAddress;\n    /// @notice Vision token Instance.\n    IERC20 public visionToken;\n    /// @notice The boolean representing if a market is binary. If not, it is scalar.\n    bool public marketTypeBinary;\n    /// @notice Market Question.\n    string public question;\n    /// @dev Constant representing the YESSHORT option.\n    string private constant YESSHORT = \"YESSHORT\";\n    /// @dev Constant representing the NOLONG option.\n    string private constant NOLONG = \"NOLONG\";\n    /// @dev Constant representing the INVALID option.\n    string private constant INVALID = \"INVALID\";\n\n    /// @notice Least range endpoint. Necessary for reification of markets and UIs.\n    string public rangeStart;\n    /// @notice Maximum range endpoint. Necessary for reification of markets and UIs.\n    string public rangeEnd;\n    /// @notice Winning outcome after voting.\n    /// @notice Close of public voting on market outcomes.\n    uint public votingEndTime;\n\n    /// @notice Instance of the voting contract.\n    MarketVoting public voting;\n    /// @notice Address for the Voting contract.\n    address public votingAddress;\n    /// @notice Instance of the Foresight Vault contract.\n    ForesightVault public foresightVault;\n\n    /// @notice Sets all base values for the market and sets up Voting and Token Vault.\n    /// @param setMarketTypeBinary Signals if market is Binary or Scalar.\n    /// @param setQuestion Determines market question.\n    /// @param setVotingEndTime Sets the end of public voting on market outcomes.\n    /// @param setCurrencyAddress Location of the currency used to mint Foresight.\n    /// @param setVisionAddress Location of the Voting currency used to determine market reification.\n    /// @param setRangeStart Least range endpoint. Necessary for reification of markets and UIs.\n    /// @param setRangeEnd Maximum range endpoint. Necessary for reification of markets and UIs.\n    constructor(\n        bool setMarketTypeBinary,\n        string memory setQuestion,\n        uint setVotingEndTime,\n        address setCurrencyAddress,\n        address setVisionAddress,\n        string memory setRangeStart,\n        string memory setRangeEnd\n    ) public {\n        require(block.timestamp < setVotingEndTime, \"end time must be after start\");\n        marketTypeBinary = setMarketTypeBinary;\n        votingEndTime = setVotingEndTime;\n        question = setQuestion;\n        currencyToken = IERC20(setCurrencyAddress);\n        currencyAddress = setCurrencyAddress;\n        visionToken = IERC20(setVisionAddress);\n        visionAddress = setVisionAddress;\n        rangeStart = setRangeStart;\n        rangeEnd = setRangeEnd;\n        foresightVault = new ForesightVault(address(this));\n        voting = new MarketVoting(setMarketTypeBinary, setVotingEndTime, visionAddress);\n        votingAddress = address(voting);\n    }\n\n    /// @notice Create a complete set of tokens using the currencyToken 1 to 1 and store it.\n    /// @dev Requires currency token approval.\n    /// @param amount Amount of currency to take and number of shares to mint.\n    function mintCompleteSets(uint amount) public {\n        currencyToken.transferFrom(msg.sender, address(this), amount);\n        foresightVault.mintCompleteSets(msg.sender, amount);\n    }\n\n    /// @notice Burns a complete set of Foresight tokens for the given amount and returns currency.\n    /// @param amount Amount of Foresight of each token to burn.\n    function burnCompleteSets(uint amount) public nonReentrant {\n        foresightVault.burnYesShort(msg.sender, amount);\n        foresightVault.burnNoLong(msg.sender, amount);\n        foresightVault.burnInvalid(msg.sender, amount);\n        currencyToken.transferFrom(address(this), msg.sender, amount);\n    }\n\n    /// @notice Passes vote to the voting construct.\n    /// @param outcome Outcome to vote on.\n    /// @param amount Amount of Vision token to stake on a vote.\n    function vote(int outcome, uint amount) public {\n        voting.vote(outcome, amount);\n    }\n\n    /// @notice returns voting winning outcome.\n    function winningOutcome() public returns (int) {\n        return voting.winningOutcome();\n    }\n\n    /// @notice Asserts voting is completed.\n    /// @dev Votes are completed when the timestamp is after the votingEndTime.\n    modifier assertVotingCompleted {\n        require(block.timestamp > votingEndTime, \"Vote is not yet completed\");\n        _;\n    }\n\n    /// @notice Withdraws winning token currency based on voting outcomes for binary market.\n    /// @param amount Amount of currency to swap.\n    function withdrawPayoutBinary(uint amount) public assertVotingCompleted nonReentrant {\n        require(marketTypeBinary, \"wrong payout for binary market\");\n        // Case if voting was deemed invalid.\n        if (voting.winningOutcome() == -1e18) {\n            foresightVault.burnInvalid(msg.sender, amount);\n            currencyToken.transfer(msg.sender, 1e18);\n        }\n        //Case if\n        if (voting.winningOutcome() == 1e18) {\n            foresightVault.burnYesShort(msg.sender, amount);\n            currencyToken.transfer(msg.sender, 1e18);\n        }\n        if (voting.winningOutcome() == 0) {\n            foresightVault.burnNoLong(msg.sender, amount);\n            currencyToken.transfer(msg.sender, 0);\n        }\n    }\n\n    /// @notice Computes the linear payout for Invalid tokens for the market.\n    /// @param amount Amount of currency to swap.\n    function withdrawPayoutLinearInvalid(uint amount) public assertVotingCompleted nonReentrant {\n        if (voting.winningOutcome() == -1e18) {\n            foresightVault.burnInvalid(msg.sender, amount);\n            currencyToken.transfer(msg.sender, 1e18);\n        }\n    }\n\n    /// @notice Computes the linear payout for YesShort tokens for the market.\n    /// @param amount Amount of currency to swap.\n    function withdrawPayoutLinearYesShort(uint amount) public assertVotingCompleted nonReentrant {\n        foresightVault.burnYesShort(msg.sender, amount);\n        uint res = SafeCast.toUint256(voting.winningOutcome());\n        currencyToken.transfer(msg.sender, 1e18 - res);\n    }\n\n    /// @notice Computes the linear payout for NoLong tokens for the market.\n    /// @param amount Amount of currency to swap.\n    function withdrawPayoutLinearNoLong(uint amount) public assertVotingCompleted nonReentrant {\n        foresightVault.burnNoLong(msg.sender, amount);\n        uint res = SafeCast.toUint256(voting.winningOutcome());\n        currencyToken.transfer(msg.sender, res);\n    }\n}\n",
  "sourcePath": "contracts/RealityMarket.sol",
  "abi": [
    {
      "inputs": [
        {
          "internalType": "bool",
          "name": "setMarketTypeBinary",
          "type": "bool"
        },
        {
          "internalType": "string",
          "name": "setQuestion",
          "type": "string"
        },
        {
          "internalType": "uint256",
          "name": "setVotingEndTime",
          "type": "uint256"
        },
        {
          "internalType": "address",
          "name": "setCurrencyAddress",
          "type": "address"
        },
        {
          "internalType": "address",
          "name": "setVisionAddress",
          "type": "address"
        },
        {
          "internalType": "string",
          "name": "setRangeStart",
          "type": "string"
        },
        {
          "internalType": "string",
          "name": "setRangeEnd",
          "type": "string"
        }
      ],
      "stateMutability": "nonpayable",
      "type": "constructor"
    },
    {
      "inputs": [
        {
          "internalType": "uint256",
          "name": "amount",
          "type": "uint256"
        }
      ],
      "name": "burnCompleteSets",
      "outputs": [],
      "stateMutability": "nonpayable",
      "type": "function"
    },
    {
      "inputs": [],
      "name": "currencyAddress",
      "outputs": [
        {
          "internalType": "address",
          "name": "",
          "type": "address"
        }
      ],
      "stateMutability": "view",
      "type": "function"
    },
    {
      "inputs": [],
      "name": "currencyToken",
      "outputs": [
        {
          "internalType": "contract IERC20",
          "name": "",
          "type": "address"
        }
      ],
      "stateMutability": "view",
      "type": "function"
    },
    {
      "inputs": [],
      "name": "foresightVault",
      "outputs": [
        {
          "internalType": "contract ForesightVault",
          "name": "",
          "type": "address"
        }
      ],
      "stateMutability": "view",
      "type": "function"
    },
    {
      "inputs": [],
      "name": "marketTypeBinary",
      "outputs": [
        {
          "internalType": "bool",
          "name": "",
          "type": "bool"
        }
      ],
      "stateMutability": "view",
      "type": "function"
    },
    {
      "inputs": [
        {
          "internalType": "uint256",
          "name": "amount",
          "type": "uint256"
        }
      ],
      "name": "mintCompleteSets",
      "outputs": [],
      "stateMutability": "nonpayable",
      "type": "function"
    },
    {
      "inputs": [],
      "name": "question",
      "outputs": [
        {
          "internalType": "string",
          "name": "",
          "type": "string"
        }
      ],
      "stateMutability": "view",
      "type": "function"
    },
    {
      "inputs": [],
      "name": "rangeEnd",
      "outputs": [
        {
          "internalType": "string",
          "name": "",
          "type": "string"
        }
      ],
      "stateMutability": "view",
      "type": "function"
    },
    {
      "inputs": [],
      "name": "rangeStart",
      "outputs": [
        {
          "internalType": "string",
          "name": "",
          "type": "string"
        }
      ],
      "stateMutability": "view",
      "type": "function"
    },
    {
      "inputs": [],
      "name": "visionAddress",
      "outputs": [
        {
          "internalType": "address",
          "name": "",
          "type": "address"
        }
      ],
      "stateMutability": "view",
      "type": "function"
    },
    {
      "inputs": [],
      "name": "visionToken",
      "outputs": [
        {
          "internalType": "contract IERC20",
          "name": "",
          "type": "address"
        }
      ],
      "stateMutability": "view",
      "type": "function"
    },
    {
      "inputs": [
        {
          "internalType": "int256",
          "name": "outcome",
          "type": "int256"
        },
        {
          "internalType": "uint256",
          "name": "amount",
          "type": "uint256"
        }
      ],
      "name": "vote",
      "outputs": [],
      "stateMutability": "nonpayable",
      "type": "function"
    },
    {
      "inputs": [],
      "name": "voting",
      "outputs": [
        {
          "internalType": "contract MarketVoting",
          "name": "",
          "type": "address"
        }
      ],
      "stateMutability": "view",
      "type": "function"
    },
    {
      "inputs": [],
      "name": "votingAddress",
      "outputs": [
        {
          "internalType": "address",
          "name": "",
          "type": "address"
        }
      ],
      "stateMutability": "view",
      "type": "function"
    },
    {
      "inputs": [],
      "name": "votingEndTime",
      "outputs": [
        {
          "internalType": "uint256",
          "name": "",
          "type": "uint256"
        }
      ],
      "stateMutability": "view",
      "type": "function"
    },
    {
      "inputs": [],
      "name": "winningOutcome",
      "outputs": [
        {
          "internalType": "int256",
          "name": "",
          "type": "int256"
        }
      ],
      "stateMutability": "nonpayable",
      "type": "function"
    },
    {
      "inputs": [
        {
          "internalType": "uint256",
          "name": "amount",
          "type": "uint256"
        }
      ],
      "name": "withdrawPayoutBinary",
      "outputs": [],
      "stateMutability": "nonpayable",
      "type": "function"
    },
    {
      "inputs": [
        {
          "internalType": "uint256",
          "name": "amount",
          "type": "uint256"
        }
      ],
      "name": "withdrawPayoutLinearInvalid",
      "outputs": [],
      "stateMutability": "nonpayable",
      "type": "function"
    },
    {
      "inputs": [
        {
          "internalType": "uint256",
          "name": "amount",
          "type": "uint256"
        }
      ],
      "name": "withdrawPayoutLinearNoLong",
      "outputs": [],
      "stateMutability": "nonpayable",
      "type": "function"
    },
    {
      "inputs": [
        {
          "internalType": "uint256",
          "name": "amount",
          "type": "uint256"
        }
      ],
      "name": "withdrawPayoutLinearYesShort",
      "outputs": [],
      "stateMutability": "nonpayable",
      "type": "function"
    }
  ],
  "bytecode": "0x60806040523480156200001157600080fd5b50604051620057a6380380620057a6833981810160405260e08110156200003757600080fd5b8151602083018051604051929492938301929190846401000000008211156200005f57600080fd5b9083019060208201858111156200007557600080fd5b82516401000000008111828201881017156200009057600080fd5b82525081516020918201929091019080838360005b83811015620000bf578181015183820152602001620000a5565b50505050905090810190601f168015620000ed5780820380516001836020036101000a031916815260200191505b506040818152602083015190830151606084015160809094018051929691959192846401000000008211156200012257600080fd5b9083019060208201858111156200013857600080fd5b82516401000000008111828201881017156200015357600080fd5b82525081516020918201929091019080838360005b838110156200018257818101518382015260200162000168565b50505050905090810190601f168015620001b05780820380516001836020036101000a031916815260200191505b5060405260200180516040519392919084640100000000821115620001d457600080fd5b908301906020820185811115620001ea57600080fd5b82516401000000008111828201881017156200020557600080fd5b82525081516020918201929091019080838360005b83811015620002345781810151838201526020016200021a565b50505050905090810190601f168015620002625780820380516001836020036101000a031916815260200191505b506040525050600160005550428511620002dd57604080517f08c379a000000000000000000000000000000000000000000000000000000000815260206004820152601c60248201527f656e642074696d65206d75737420626520616674657220737461727400000000604482015290519081900360640190fd5b6004805460ff60a01b19167401000000000000000000000000000000000000000089151502179055600885905585516200031f9060059060208901906200047d565b50600280546001600160a01b038087166001600160a01b03199283168117909355600180548316909317909255600480549286169282168317905560038054909116909117905581516200037b9060069060208501906200047d565b508051620003919060079060208401906200047d565b5030604051620003a19062000502565b6001600160a01b03909116815260405190819003602001906000f080158015620003cf573d6000803e3d6000fd5b50600b80546001600160a01b0319166001600160a01b03928316179055600354604051899288921690620004039062000510565b921515835260208301919091526001600160a01b03166040808301919091525190819003606001906000f08015801562000441573d6000803e3d6000fd5b50600980546001600160a01b03199081166001600160a01b039384161791829055600a8054929093169116179055506200053595505050505050565b828054600181600116156101000203166002900490600052602060002090601f016020900481019282601f10620004c057805160ff1916838001178555620004f0565b82800160010185558215620004f0579182015b82811115620004f0578251825591602001919060010190620004d3565b50620004fe9291506200051e565b5090565b61355e806200198283390190565b6108c68062004ee083390190565b5b80821115620004fe57600081556001016200051f565b61143d80620005456000396000f3fe608060405234801561001057600080fd5b50600436106100fc5760003560e01c80630b8a5c4614610101578063160f3b61146101205780631a973c841461013d5780631c1cb323146101615780631ea736e0146101695780632f13835d146101835780633d402f7e1461019f5780633fad9ae0146101c25780635c99ee011461023f5780636279cb27146102475780636b2fa3741461024f5780637920c127146102575780639b34ae031461025f578063ac1e35ef14610267578063d2fa717014610284578063dc106dc21461028c578063ebb01e65146102a9578063f2fd83e0146102c6578063f3a8a232146102ce578063fce1ccca146102eb575b600080fd5b61011e6004803603602081101561011757600080fd5b50356102f3565b005b61011e6004803603602081101561013657600080fd5b5035610854565b610145610a66565b604080516001600160a01b039092168252519081900360200190f35b610145610a75565b610171610a84565b60408051918252519081900360200190f35b61018b610a8a565b604080519115158252519081900360200190f35b61011e600480360360408110156101b557600080fd5b5080359060200135610a9a565b6101ca610b0a565b6040805160208082528351818301528351919283929083019185019080838360005b838110156102045781810151838201526020016101ec565b50505050905090810190601f1680156102315780820380516001836020036101000a031916815260200191505b509250505060405180910390f35b6101ca610b98565b610145610bf3565b610145610c02565b6101ca610c11565b610171610c6c565b61011e6004803603602081101561027d57600080fd5b5035610ce3565b610145610e85565b61011e600480360360208110156102a257600080fd5b5035610e94565b61011e600480360360208110156102bf57600080fd5b5035611078565b61014561116c565b61011e600480360360208110156102e457600080fd5b503561117b565b61014561135d565b6008544211610337576040805162461bcd60e51b815260206004820152601960248201526000805160206113e8833981519152604482015290519081900360640190fd5b6002600054141561037d576040805162461bcd60e51b815260206004820152601f60248201526000805160206113c8833981519152604482015290519081900360640190fd5b6002600055600454600160a01b900460ff166103e0576040805162461bcd60e51b815260206004820152601e60248201527f77726f6e67207061796f757420666f722062696e617279206d61726b65740000604482015290519081900360640190fd5b600960009054906101000a90046001600160a01b03166001600160a01b0316639b34ae036040518163ffffffff1660e01b8152600401602060405180830381600087803b15801561043057600080fd5b505af1158015610444573d6000803e3d6000fd5b505050506040513d602081101561045a57600080fd5b5051670de0b6b3a763ffff19141561055f57600b5460408051635084280d60e11b81523360048201526024810184905290516001600160a01b039092169163a108501a9160448082019260009290919082900301818387803b1580156104bf57600080fd5b505af11580156104d3573d6000803e3d6000fd5b50506002546040805163a9059cbb60e01b8152336004820152670de0b6b3a7640000602482015290516001600160a01b03909216935063a9059cbb92506044808201926020929091908290030181600087803b15801561053257600080fd5b505af1158015610546573d6000803e3d6000fd5b505050506040513d602081101561055c57600080fd5b50505b600960009054906101000a90046001600160a01b03166001600160a01b0316639b34ae036040518163ffffffff1660e01b8152600401602060405180830381600087803b1580156105af57600080fd5b505af11580156105c3573d6000803e3d6000fd5b505050506040513d60208110156105d957600080fd5b5051670de0b6b3a764000014156106dd57600b54604080516323ed3bfd60e21b81523360048201526024810184905290516001600160a01b0390921691638fb4eff49160448082019260009290919082900301818387803b15801561063d57600080fd5b505af1158015610651573d6000803e3d6000fd5b50506002546040805163a9059cbb60e01b8152336004820152670de0b6b3a7640000602482015290516001600160a01b03909216935063a9059cbb92506044808201926020929091908290030181600087803b1580156106b057600080fd5b505af11580156106c4573d6000803e3d6000fd5b505050506040513d60208110156106da57600080fd5b50505b600960009054906101000a90046001600160a01b03166001600160a01b0316639b34ae036040518163ffffffff1660e01b8152600401602060405180830381600087803b15801561072d57600080fd5b505af1158015610741573d6000803e3d6000fd5b505050506040513d602081101561075757600080fd5b505161084c57600b54604080516379a9568560e11b81523360048201526024810184905290516001600160a01b039092169163f352ad0a9160448082019260009290919082900301818387803b1580156107b057600080fd5b505af11580156107c4573d6000803e3d6000fd5b50506002546040805163a9059cbb60e01b815233600482015260006024820181905291516001600160a01b03909316945063a9059cbb9350604480820193602093909283900390910190829087803b15801561081f57600080fd5b505af1158015610833573d6000803e3d6000fd5b505050506040513d602081101561084957600080fd5b50505b506001600055565b6008544211610898576040805162461bcd60e51b815260206004820152601960248201526000805160206113e8833981519152604482015290519081900360640190fd5b600260005414156108de576040805162461bcd60e51b815260206004820152601f60248201526000805160206113c8833981519152604482015290519081900360640190fd5b60026000908155600b54604080516323ed3bfd60e21b81523360048201526024810185905290516001600160a01b0390921692638fb4eff49260448084019382900301818387803b15801561093257600080fd5b505af1158015610946573d6000803e3d6000fd5b5050505060006109d0600960009054906101000a90046001600160a01b03166001600160a01b0316639b34ae036040518163ffffffff1660e01b8152600401602060405180830381600087803b15801561099f57600080fd5b505af11580156109b3573d6000803e3d6000fd5b505050506040513d60208110156109c957600080fd5b505161136c565b6002546040805163a9059cbb60e01b8152336004820152670de0b6b3a7640000849003602482015290519293506001600160a01b039091169163a9059cbb916044808201926020929091908290030181600087803b158015610a3157600080fd5b505af1158015610a45573d6000803e3d6000fd5b505050506040513d6020811015610a5b57600080fd5b505060016000555050565b600b546001600160a01b031681565b6001546001600160a01b031681565b60085481565b600454600160a01b900460ff1681565b60095460408051631ea017bf60e11b8152600481018590526024810184905290516001600160a01b0390921691633d402f7e9160448082019260009290919082900301818387803b158015610aee57600080fd5b505af1158015610b02573d6000803e3d6000fd5b505050505050565b6005805460408051602060026001851615610100026000190190941693909304601f81018490048402820184019092528181529291830182828015610b905780601f10610b6557610100808354040283529160200191610b90565b820191906000526020600020905b815481529060010190602001808311610b7357829003601f168201915b505050505081565b6007805460408051602060026001851615610100026000190190941693909304601f81018490048402820184019092528181529291830182828015610b905780601f10610b6557610100808354040283529160200191610b90565b6003546001600160a01b031681565b6002546001600160a01b031681565b6006805460408051602060026001851615610100026000190190941693909304601f81018490048402820184019092528181529291830182828015610b905780601f10610b6557610100808354040283529160200191610b90565b60095460408051639b34ae0360e01b815290516000926001600160a01b031691639b34ae0391600480830192602092919082900301818787803b158015610cb257600080fd5b505af1158015610cc6573d6000803e3d6000fd5b505050506040513d6020811015610cdc57600080fd5b5051905090565b6008544211610d27576040805162461bcd60e51b815260206004820152601960248201526000805160206113e8833981519152604482015290519081900360640190fd5b60026000541415610d6d576040805162461bcd60e51b815260206004820152601f60248201526000805160206113c8833981519152604482015290519081900360640190fd5b60026000908155600b54604080516379a9568560e11b81523360048201526024810185905290516001600160a01b039092169263f352ad0a9260448084019382900301818387803b158015610dc157600080fd5b505af1158015610dd5573d6000803e3d6000fd5b505050506000610e2e600960009054906101000a90046001600160a01b03166001600160a01b0316639b34ae036040518163ffffffff1660e01b8152600401602060405180830381600087803b15801561099f57600080fd5b6002546040805163a9059cbb60e01b81523360048201526024810184905290519293506001600160a01b039091169163a9059cbb916044808201926020929091908290030181600087803b158015610a3157600080fd5b600a546001600160a01b031681565b6008544211610ed8576040805162461bcd60e51b815260206004820152601960248201526000805160206113e8833981519152604482015290519081900360640190fd5b60026000541415610f1e576040805162461bcd60e51b815260206004820152601f60248201526000805160206113c8833981519152604482015290519081900360640190fd5b6002600081905550600960009054906101000a90046001600160a01b03166001600160a01b0316639b34ae036040518163ffffffff1660e01b8152600401602060405180830381600087803b158015610f7657600080fd5b505af1158015610f8a573d6000803e3d6000fd5b505050506040513d6020811015610fa057600080fd5b5051670de0b6b3a763ffff19141561084c57600b5460408051635084280d60e11b81523360048201526024810184905290516001600160a01b039092169163a108501a9160448082019260009290919082900301818387803b15801561100557600080fd5b505af1158015611019573d6000803e3d6000fd5b50506002546040805163a9059cbb60e01b8152336004820152670de0b6b3a7640000602482015290516001600160a01b03909216935063a9059cbb92506044808201926020929091908290030181600087803b15801561081f57600080fd5b600254604080516323b872dd60e01b81523360048201523060248201526044810184905290516001600160a01b03909216916323b872dd916064808201926020929091908290030181600087803b1580156110d257600080fd5b505af11580156110e6573d6000803e3d6000fd5b505050506040513d60208110156110fc57600080fd5b5050600b5460408051631e633a8560e31b81523360048201526024810184905290516001600160a01b039092169163f319d4289160448082019260009290919082900301818387803b15801561115157600080fd5b505af1158015611165573d6000803e3d6000fd5b5050505050565b6004546001600160a01b031681565b600260005414156111c1576040805162461bcd60e51b815260206004820152601f60248201526000805160206113c8833981519152604482015290519081900360640190fd5b60026000908155600b54604080516323ed3bfd60e21b81523360048201526024810185905290516001600160a01b0390921692638fb4eff49260448084019382900301818387803b15801561121557600080fd5b505af1158015611229573d6000803e3d6000fd5b5050600b54604080516379a9568560e11b81523360048201526024810186905290516001600160a01b03909216935063f352ad0a925060448082019260009290919082900301818387803b15801561128057600080fd5b505af1158015611294573d6000803e3d6000fd5b5050600b5460408051635084280d60e11b81523360048201526024810186905290516001600160a01b03909216935063a108501a925060448082019260009290919082900301818387803b1580156112eb57600080fd5b505af11580156112ff573d6000803e3d6000fd5b5050600254604080516323b872dd60e01b81523060048201523360248201526044810186905290516001600160a01b0390921693506323b872dd92506064808201926020929091908290030181600087803b15801561081f57600080fd5b6009546001600160a01b031681565b6000808212156113c3576040805162461bcd60e51b815260206004820181905260248201527f53616665436173743a2076616c7565206d75737420626520706f736974697665604482015290519081900360640190fd5b509056fe5265656e7472616e637947756172643a207265656e7472616e742063616c6c00566f7465206973206e6f742079657420636f6d706c6574656400000000000000a2646970667358221220b33c13dacc5d5192ce41884ad6e76856a8ba99421f93e52f589722585ea07ec364736f6c634300060c0033608060405234801561001057600080fd5b5060405161355e38038061355e8339818101604052602081101561003357600080fd5b5051600061003f610331565b600080546001600160a01b0319166001600160a01b0383169081178255604051929350917f8be0079c531659141344cd1fd0a4f28419497f9722a3daafe3b4186f6b6457e0908290a350600180546001600160a01b0319166001600160a01b03831617905560405181906100b290610335565b6001600160a01b0390911660408083019190915260608083526015908301527f466f72657369676874202d205965732f53686f72740000000000000000000000608083015260a0602083018190526003908301527f465953000000000000000000000000000000000000000000000000000000000060c0830152519081900360e001906000f08015801561014a573d6000803e3d6000fd5b50600280546001600160a01b0319166001600160a01b0392909216919091179055604051819061017990610335565b6001600160a01b0390911660408083019190915260608083526013908301527f466f72657369676874202d204e6f2f4c6f6e6700000000000000000000000000608083015260a0602083018190526003908301527f464e4c000000000000000000000000000000000000000000000000000000000060c0830152519081900360e001906000f080158015610211573d6000803e3d6000fd5b50600380546001600160a01b0319166001600160a01b0392909216919091179055604051819061024090610335565b6001600160a01b0390911660408083019190915260608083526013908301527f466f72657369676874202d20496e76616c696400000000000000000000000000608083015260a0602083018190526004908301527f46494e560000000000000000000000000000000000000000000000000000000060c0830152519081900360e001906000f0801580156102d8573d6000803e3d6000fd5b50600480546001600160a01b039283166001600160a01b03199182161791829055600254600580548316918516919091179055600354600680548316918516919091179055600780549091169190921617905550610342565b3390565b6129d280610b8c83390190565b61083b806103516000396000f3fe608060405234801561001057600080fd5b50600436106100ba5760003560e01c80630e49dd7e146100bf57806315edaf8b146100e35780631eb3dfcc146100eb57806338f4a5bf146100f357806365a2e2e8146100fb578063715018a6146101035780638da5cb5b1461010d5780638fb4eff4146101155780639562364114610141578063a108501a14610149578063f2fde38b14610175578063f319d4281461019b578063f3297347146101c7578063f352ad0a146101cf575b600080fd5b6100c76101fb565b604080516001600160a01b039092168252519081900360200190f35b6100c761020a565b6100c7610219565b6100c7610228565b6100c7610237565b61010b610246565b005b6100c76102d6565b61010b6004803603604081101561012b57600080fd5b506001600160a01b0381351690602001356102e5565b6100c76103ae565b61010b6004803603604081101561015f57600080fd5b506001600160a01b0381351690602001356103bd565b61010b6004803603602081101561018b57600080fd5b50356001600160a01b031661046e565b61010b600480360360408110156101b157600080fd5b506001600160a01b038135169060200135610554565b6100c76106df565b61010b600480360360408110156101e557600080fd5b506001600160a01b0381351690602001356106ee565b6005546001600160a01b031681565b6006546001600160a01b031681565b6007546001600160a01b031681565b6002546001600160a01b031681565b6004546001600160a01b031681565b61024e61079b565b6000546001600160a01b0390811691161461029e576040805162461bcd60e51b815260206004820181905260248201526000805160206107c6833981519152604482015290519081900360640190fd5b600080546040516001600160a01b03909116906000805160206107e6833981519152908390a3600080546001600160a01b0319169055565b6000546001600160a01b031690565b6102ed61079b565b6000546001600160a01b0390811691161461033d576040805162461bcd60e51b815260206004820181905260248201526000805160206107c6833981519152604482015290519081900360640190fd5b60025460408051632770a7eb60e21b81526001600160a01b0385811660048301526024820185905291519190921691639dc29fac91604480830192600092919082900301818387803b15801561039257600080fd5b505af11580156103a6573d6000803e3d6000fd5b505050505050565b6001546001600160a01b031681565b6103c561079b565b6000546001600160a01b03908116911614610415576040805162461bcd60e51b815260206004820181905260248201526000805160206107c6833981519152604482015290519081900360640190fd5b6004805460408051632770a7eb60e21b81526001600160a01b03868116948201949094526024810185905290519290911691639dc29fac9160448082019260009290919082900301818387803b15801561039257600080fd5b61047661079b565b6000546001600160a01b039081169116146104c6576040805162461bcd60e51b815260206004820181905260248201526000805160206107c6833981519152604482015290519081900360640190fd5b6001600160a01b03811661050b5760405162461bcd60e51b81526004018080602001828103825260268152602001806107a06026913960400191505060405180910390fd5b600080546040516001600160a01b03808516939216916000805160206107e683398151915291a3600080546001600160a01b0319166001600160a01b0392909216919091179055565b61055c61079b565b6000546001600160a01b039081169116146105ac576040805162461bcd60e51b815260206004820181905260248201526000805160206107c6833981519152604482015290519081900360640190fd5b600354604080516340c10f1960e01b81526001600160a01b03858116600483015260248201859052915191909216916340c10f1991604480830192600092919082900301818387803b15801561060157600080fd5b505af1158015610615573d6000803e3d6000fd5b5050600254604080516340c10f1960e01b81526001600160a01b0387811660048301526024820187905291519190921693506340c10f199250604480830192600092919082900301818387803b15801561066e57600080fd5b505af1158015610682573d6000803e3d6000fd5b505060048054604080516340c10f1960e01b81526001600160a01b03888116948201949094526024810187905290519290911693506340c10f19925060448082019260009290919082900301818387803b15801561039257600080fd5b6003546001600160a01b031681565b6106f661079b565b6000546001600160a01b03908116911614610746576040805162461bcd60e51b815260206004820181905260248201526000805160206107c6833981519152604482015290519081900360640190fd5b60035460408051632770a7eb60e21b81526001600160a01b0385811660048301526024820185905291519190921691639dc29fac91604480830192600092919082900301818387803b15801561039257600080fd5b339056fe4f776e61626c653a206e6577206f776e657220697320746865207a65726f20616464726573734f776e61626c653a2063616c6c6572206973206e6f7420746865206f776e65728be0079c531659141344cd1fd0a4f28419497f9722a3daafe3b4186f6b6457e0a2646970667358221220598cb88c267ee1cf293cad96b72d45f64dfa16e14918fe6a7980eec47d14992564736f6c634300060c003360806040523480156200001157600080fd5b50604051620029d2380380620029d2833981810160405260608110156200003757600080fd5b81019080805160405193929190846401000000008211156200005857600080fd5b9083019060208201858111156200006e57600080fd5b82516401000000008111828201881017156200008957600080fd5b82525081516020918201929091019080838360005b83811015620000b85781810151838201526020016200009e565b50505050905090810190601f168015620000e65780820380516001836020036101000a031916815260200191505b50604052602001805160405193929190846401000000008211156200010a57600080fd5b9083019060208201858111156200012057600080fd5b82516401000000008111828201881017156200013b57600080fd5b82525081516020918201929091019080838360005b838110156200016a57818101518382015260200162000150565b50505050905090810190601f168015620001985780820380516001836020036101000a031916815260200191505b5060408181526020928301516000835283830190915286519094508693508592620001c9916002918601906200044a565b508151620001df9060039060208501906200044a565b508051620001f5906004906020840190620004cf565b5060005b6004548110156200025557600160056000600484815481106200021857fe5b6000918252602080832091909101546001600160a01b031683528201929092526040019020805460ff1916911515919091179055600101620001f9565b50604080517f29965a1d00000000000000000000000000000000000000000000000000000000815230600482018190527fac7fbab5f54a3ca8194167523c6753bfeb96a445279294b6125b68cce2177054602483015260448201529051731820a4b7618bde71dce8cdc73aab6c95905fad24916329965a1d91606480830192600092919082900301818387803b158015620002ef57600080fd5b505af115801562000304573d6000803e3d6000fd5b5050604080517f29965a1d00000000000000000000000000000000000000000000000000000000815230600482018190527faea199e31a596269b42cdafd93407f14436db6e4cad65417994c2eb37381e05a602483015260448201529051731820a4b7618bde71dce8cdc73aab6c95905fad2493506329965a1d9250606480830192600092919082900301818387803b158015620003a157600080fd5b505af1158015620003b6573d6000803e3d6000fd5b505050505050506000620003cf6200044660201b60201c565b600980546001600160a01b0319166001600160a01b038316908117909155604051919250906000907f8be0079c531659141344cd1fd0a4f28419497f9722a3daafe3b4186f6b6457e0908290a350600a80546001600160a01b0319166001600160a01b0392909216919091179055506200056d9050565b3390565b828054600181600116156101000203166002900490600052602060002090601f016020900481019282601f106200048d57805160ff1916838001178555620004bd565b82800160010185558215620004bd579182015b82811115620004bd578251825591602001919060010190620004a0565b50620004cb92915062000535565b5090565b82805482825590600052602060002090810192821562000527579160200282015b828111156200052757825182546001600160a01b0319166001600160a01b03909116178255602090920191600190910190620004f0565b50620004cb9291506200054c565b5b80821115620004cb576000815560010162000536565b5b80821115620004cb5780546001600160a01b03191681556001016200054d565b612455806200057d6000396000f3fe608060405234801561001057600080fd5b50600436106101285760003560e01c806306e485381461012d57806306fdde0314610185578063095ea7b31461020257806318160ddd1461024257806323b872dd1461025c578063313ce5671461029257806340c10f19146102b0578063556f0dc7146102de57806362ad1b83146102e657806370a082311461042f578063715018a6146104555780638da5cb5b1461045d5780639562364114610481578063959b8c3f1461048957806395d89b41146104af5780639bd9bbc6146104b75780639dc29fac14610570578063a9059cbb1461059c578063d95b6371146105c8578063dd62ed3e146105f6578063f2fde38b14610624578063fad8b32a1461064a578063fc673c4f14610670578063fe9d9303146107ae575b600080fd5b610135610859565b60408051602080825283518183015283519192839290830191858101910280838360005b83811015610171578181015183820152602001610159565b505050509050019250505060405180910390f35b61018d6108bb565b6040805160208082528351818301528351919283929083019185019080838360005b838110156101c75781810151838201526020016101af565b50505050905090810190601f1680156101f45780820380516001836020036101000a031916815260200191505b509250505060405180910390f35b61022e6004803603604081101561021857600080fd5b506001600160a01b038135169060200135610945565b604080519115158252519081900360200190f35b61024a610967565b60408051918252519081900360200190f35b61022e6004803603606081101561027257600080fd5b506001600160a01b0381358116916020810135909116906040013561096d565b61029a610aea565b6040805160ff9092168252519081900360200190f35b6102dc600480360360408110156102c657600080fd5b506001600160a01b038135169060200135610aef565b005b61024a610b75565b6102dc600480360360a08110156102fc57600080fd5b6001600160a01b03823581169260208101359091169160408201359190810190608081016060820135600160201b81111561033657600080fd5b82018360208201111561034857600080fd5b803590602001918460018302840111600160201b8311171561036957600080fd5b91908080601f0160208091040260200160405190810160405280939291908181526020018383808284376000920191909152509295949360208101935035915050600160201b8111156103bb57600080fd5b8201836020820111156103cd57600080fd5b803590602001918460018302840111600160201b831117156103ee57600080fd5b91908080601f016020809104026020016040519081016040528093929190818152602001838380828437600092019190915250929550610b7a945050505050565b61024a6004803603602081101561044557600080fd5b50356001600160a01b0316610bdc565b6102dc610bf7565b610465610c87565b604080516001600160a01b039092168252519081900360200190f35b610465610c96565b6102dc6004803603602081101561049f57600080fd5b50356001600160a01b0316610ca5565b61018d610df1565b6102dc600480360360608110156104cd57600080fd5b6001600160a01b0382351691602081013591810190606081016040820135600160201b8111156104fc57600080fd5b82018360208201111561050e57600080fd5b803590602001918460018302840111600160201b8311171561052f57600080fd5b91908080601f016020809104026020016040519081016040528093929190818152602001838380828437600092019190915250929550610e52945050505050565b6102dc6004803603604081101561058657600080fd5b506001600160a01b038135169060200135610e7c565b61022e600480360360408110156105b257600080fd5b506001600160a01b038135169060200135610efe565b61022e600480360360408110156105de57600080fd5b506001600160a01b0381358116916020013516610fd7565b61024a6004803603604081101561060c57600080fd5b506001600160a01b0381358116916020013516611079565b6102dc6004803603602081101561063a57600080fd5b50356001600160a01b03166110a4565b6102dc6004803603602081101561066057600080fd5b50356001600160a01b031661118b565b6102dc6004803603608081101561068657600080fd5b6001600160a01b0382351691602081013591810190606081016040820135600160201b8111156106b557600080fd5b8201836020820111156106c757600080fd5b803590602001918460018302840111600160201b831117156106e857600080fd5b91908080601f0160208091040260200160405190810160405280939291908181526020018383808284376000920191909152509295949360208101935035915050600160201b81111561073a57600080fd5b82018360208201111561074c57600080fd5b803590602001918460018302840111600160201b8311171561076d57600080fd5b91908080601f0160208091040260200160405190810160405280939291908181526020018383808284376000920191909152509295506112d7945050505050565b6102dc600480360360408110156107c457600080fd5b81359190810190604081016020820135600160201b8111156107e557600080fd5b8201836020820111156107f757600080fd5b803590602001918460018302840111600160201b8311171561081857600080fd5b91908080601f016020809104026020016040519081016040528093929190818152602001838380828437600092019190915250929550611335945050505050565b606060048054806020026020016040519081016040528092919081815260200182805480156108b157602002820191906000526020600020905b81546001600160a01b03168152600190910190602001808311610893575b5050505050905090565b60028054604080516020601f60001961010060018716150201909416859004938401819004810282018101909252828152606093909290918301828280156108b15780601f10610919576101008083540402835291602001916108b1565b820191906000526020600020905b81548152906001019060200180831161092757509395945050505050565b600080610950611357565b905061095d81858561135b565b5060019392505050565b60015490565b60006001600160a01b0383166109b45760405162461bcd60e51b815260040180806020018281038252602481526020018061231b6024913960400191505060405180910390fd5b6001600160a01b0384166109f95760405162461bcd60e51b81526004018080602001828103825260268152602001806123b46026913960400191505060405180910390fd5b6000610a03611357565b9050610a31818686866040518060200160405280600081525060405180602001604052806000815250611447565b610a5d818686866040518060200160405280600081525060405180602001604052806000815250611674565b610ab18582610aac8660405180606001604052806029815260200161238b602991396001600160a01b03808c166000908152600860209081526040808320938b1683529290522054919061187b565b61135b565b610adf8186868660405180602001604052806000815250604051806020016040528060008152506000611912565b506001949350505050565b601290565b610af7611357565b6009546001600160a01b03908116911614610b47576040805162461bcd60e51b8152602060048201819052602482015260008051602061228e833981519152604482015290519081900360640190fd5b610b7182826040518060200160405280600081525060405180602001604052806000815250611b97565b5050565b600190565b610b8b610b85611357565b86610fd7565b610bc65760405162461bcd60e51b815260040180806020018281038252602c81526020018061235f602c913960400191505060405180910390fd5b610bd585858585856001611dbd565b5050505050565b6001600160a01b031660009081526020819052604090205490565b610bff611357565b6009546001600160a01b03908116911614610c4f576040805162461bcd60e51b8152602060048201819052602482015260008051602061228e833981519152604482015290519081900360640190fd5b6009546040516000916001600160a01b0316906000805160206122ae833981519152908390a3600980546001600160a01b0319169055565b6009546001600160a01b031690565b600a546001600160a01b031681565b806001600160a01b0316610cb7611357565b6001600160a01b03161415610cfd5760405162461bcd60e51b81526004018080602001828103825260248152602001806122496024913960400191505060405180910390fd5b6001600160a01b03811660009081526005602052604090205460ff1615610d605760076000610d2a611357565b6001600160a01b03908116825260208083019390935260409182016000908120918516815292529020805460ff19169055610da7565b600160066000610d6e611357565b6001600160a01b03908116825260208083019390935260409182016000908120918616815292529020805460ff19169115159190911790555b610daf611357565b6001600160a01b0316816001600160a01b03167ff4caeb2d6ca8932a215a353d0703c326ec2d81fc68170f320eb2ab49e9df61f960405160405180910390a350565b60038054604080516020601f60026000196101006001881615020190951694909404938401819004810282018101909252828152606093909290918301828280156108b15780601f10610919576101008083540402835291602001916108b1565b610e77610e5d611357565b848484604051806020016040528060008152506001611dbd565b505050565b610e84611357565b6009546001600160a01b03908116911614610ed4576040805162461bcd60e51b8152602060048201819052602482015260008051602061228e833981519152604482015290519081900360640190fd5b610b7182826040518060200160405280600081525060405180602001604052806000815250611e94565b60006001600160a01b038316610f455760405162461bcd60e51b815260040180806020018281038252602481526020018061231b6024913960400191505060405180910390fd5b6000610f4f611357565b9050610f7d818286866040518060200160405280600081525060405180602001604052806000815250611447565b610fa9818286866040518060200160405280600081525060405180602001604052806000815250611674565b61095d8182868660405180602001604052806000815250604051806020016040528060008152506000611912565b6000816001600160a01b0316836001600160a01b0316148061104257506001600160a01b03831660009081526005602052604090205460ff16801561104257506001600160a01b0380831660009081526007602090815260408083209387168352929052205460ff16155b8061107257506001600160a01b0380831660009081526006602090815260408083209387168352929052205460ff165b9392505050565b6001600160a01b03918216600090815260086020908152604080832093909416825291909152205490565b6110ac611357565b6009546001600160a01b039081169116146110fc576040805162461bcd60e51b8152602060048201819052602482015260008051602061228e833981519152604482015290519081900360640190fd5b6001600160a01b0381166111415760405162461bcd60e51b81526004018080602001828103825260268152602001806122016026913960400191505060405180910390fd5b6009546040516001600160a01b038084169216906000805160206122ae83398151915290600090a3600980546001600160a01b0319166001600160a01b0392909216919091179055565b611193611357565b6001600160a01b0316816001600160a01b031614156111e35760405162461bcd60e51b815260040180806020018281038252602181526020018061226d6021913960400191505060405180910390fd5b6001600160a01b03811660009081526005602052604090205460ff161561124f57600160076000611212611357565b6001600160a01b03908116825260208083019390935260409182016000908120918616815292529020805460ff191691151591909117905561128d565b6006600061125b611357565b6001600160a01b03908116825260208083019390935260409182016000908120918516815292529020805460ff191690555b611295611357565b6001600160a01b0316816001600160a01b03167f50546e66e5f44d728365dc3908c63bc5cfeeab470722c1677e3073a6ac294aa160405160405180910390a350565b6112e86112e2611357565b85610fd7565b6113235760405162461bcd60e51b815260040180806020018281038252602c81526020018061235f602c913960400191505060405180910390fd5b61132f84848484611e94565b50505050565b610b71611340611357565b838360405180602001604052806000815250611e94565b3390565b6001600160a01b0383166113a05760405162461bcd60e51b81526004018080602001828103825260258152602001806121936025913960400191505060405180910390fd5b6001600160a01b0382166113e55760405162461bcd60e51b81526004018080602001828103825260238152602001806123fd6023913960400191505060405180910390fd5b6001600160a01b03808416600081815260086020908152604080832094871680845294825291829020859055815185815291517f8c5be1e5ebec7d5bd14f71427d1e84f3dd0314c0f7b2291e5b200ac8c7c3b9259281900390910190a3505050565b6040805163555ddc6560e11b81526001600160a01b03871660048201527f29ddb589b1fb5fc7cf394961c1adf5f8c6454761adf795e67fe149f658abe89560248201529051600091731820a4b7618bde71dce8cdc73aab6c95905fad249163aabbb8ca91604480820192602092909190829003018186803b1580156114cb57600080fd5b505afa1580156114df573d6000803e3d6000fd5b505050506040513d60208110156114f557600080fd5b505190506001600160a01b0381161561166b57806001600160a01b03166375ab97828888888888886040518763ffffffff1660e01b815260040180876001600160a01b03168152602001866001600160a01b03168152602001856001600160a01b031681526020018481526020018060200180602001838103835285818151815260200191508051906020019080838360005b838110156115a0578181015183820152602001611588565b50505050905090810190601f1680156115cd5780820380516001836020036101000a031916815260200191505b50838103825284518152845160209182019186019080838360005b838110156116005781810151838201526020016115e8565b50505050905090810190601f16801561162d5780820380516001836020036101000a031916815260200191505b5098505050505050505050600060405180830381600087803b15801561165257600080fd5b505af1158015611666573d6000803e3d6000fd5b505050505b50505050505050565b6116808686868661132f565b6116bd836040518060600160405280602781526020016121da602791396001600160a01b038816600090815260208190526040902054919061187b565b6001600160a01b0380871660009081526020819052604080822093909355908616815220546116ec90846120bc565b600080866001600160a01b03166001600160a01b0316815260200190815260200160002081905550836001600160a01b0316856001600160a01b0316876001600160a01b03167f06b541ddaa720db2b10a4d0cdac39b8d360425fc073085fac19bc82614677987868686604051808481526020018060200180602001838103835285818151815260200191508051906020019080838360005b8381101561179d578181015183820152602001611785565b50505050905090810190601f1680156117ca5780820380516001836020036101000a031916815260200191505b50838103825284518152845160209182019186019080838360005b838110156117fd5781810151838201526020016117e5565b50505050905090810190601f16801561182a5780820380516001836020036101000a031916815260200191505b509550505050505060405180910390a4836001600160a01b0316856001600160a01b031660008051602061233f833981519152856040518082815260200191505060405180910390a3505050505050565b6000818484111561190a5760405162461bcd60e51b81526004018080602001828103825283818151815260200191508051906020019080838360005b838110156118cf5781810151838201526020016118b7565b50505050905090810190601f1680156118fc5780820380516001836020036101000a031916815260200191505b509250505060405180910390fd5b505050900390565b6040805163555ddc6560e11b81526001600160a01b03871660048201527fb281fc8c12954d22544db45de3159a39272895b169a852b314f9cc762e44c53b60248201529051600091731820a4b7618bde71dce8cdc73aab6c95905fad249163aabbb8ca91604480820192602092909190829003018186803b15801561199657600080fd5b505afa1580156119aa573d6000803e3d6000fd5b505050506040513d60208110156119c057600080fd5b505190506001600160a01b03811615611b3957806001600160a01b03166223de298989898989896040518763ffffffff1660e01b815260040180876001600160a01b03168152602001866001600160a01b03168152602001856001600160a01b031681526020018481526020018060200180602001838103835285818151815260200191508051906020019080838360005b83811015611a6a578181015183820152602001611a52565b50505050905090810190601f168015611a975780820380516001836020036101000a031916815260200191505b50838103825284518152845160209182019186019080838360005b83811015611aca578181015183820152602001611ab2565b50505050905090810190601f168015611af75780820380516001836020036101000a031916815260200191505b5098505050505050505050600060405180830381600087803b158015611b1c57600080fd5b505af1158015611b30573d6000803e3d6000fd5b50505050611b8d565b8115611b8d57611b51866001600160a01b0316612114565b15611b8d5760405162461bcd60e51b815260040180806020018281038252604d8152602001806122ce604d913960600191505060405180910390fd5b5050505050505050565b6001600160a01b038416611bf2576040805162461bcd60e51b815260206004820181905260248201527f4552433737373a206d696e7420746f20746865207a65726f2061646472657373604482015290519081900360640190fd5b6000611bfc611357565b9050611c0b816000878761132f565b600154611c1890856120bc565b6001556001600160a01b038516600090815260208190526040902054611c3e90856120bc565b6001600160a01b038616600090815260208190526040812091909155611c6b908290878787876001611912565b846001600160a01b0316816001600160a01b03167f2fe5be0146f74c5bce36c0b80911af6c7d86ff27e89d5cfa61fc681327954e5d868686604051808481526020018060200180602001838103835285818151815260200191508051906020019080838360005b83811015611cea578181015183820152602001611cd2565b50505050905090810190601f168015611d175780820380516001836020036101000a031916815260200191505b50838103825284518152845160209182019186019080838360005b83811015611d4a578181015183820152602001611d32565b50505050905090810190601f168015611d775780820380516001836020036101000a031916815260200191505b509550505050505060405180910390a36040805185815290516001600160a01b0387169160009160008051602061233f8339815191529181900360200190a35050505050565b6001600160a01b038616611e025760405162461bcd60e51b81526004018080602001828103825260228152602001806121b86022913960400191505060405180910390fd5b6001600160a01b038516611e5d576040805162461bcd60e51b815260206004820181905260248201527f4552433737373a2073656e6420746f20746865207a65726f2061646472657373604482015290519081900360640190fd5b6000611e67611357565b9050611e77818888888888611447565b611e85818888888888611674565b61166b81888888888888611912565b6001600160a01b038416611ed95760405162461bcd60e51b81526004018080602001828103825260228152602001806122276022913960400191505060405180910390fd5b6000611ee3611357565b9050611ef2818660008761132f565b611f0181866000878787611447565b611f3e846040518060600160405280602381526020016123da602391396001600160a01b038816600090815260208190526040902054919061187b565b6001600160a01b038616600090815260208190526040902055600154611f649085612150565b600181905550846001600160a01b0316816001600160a01b03167fa78a9be3a7b862d26933ad85fb11d80ef66b8f972d7cbba06621d583943a4098868686604051808481526020018060200180602001838103835285818151815260200191508051906020019080838360005b83811015611fe9578181015183820152602001611fd1565b50505050905090810190601f1680156120165780820380516001836020036101000a031916815260200191505b50838103825284518152845160209182019186019080838360005b83811015612049578181015183820152602001612031565b50505050905090810190601f1680156120765780820380516001836020036101000a031916815260200191505b509550505050505060405180910390a36040805185815290516000916001600160a01b0388169160008051602061233f8339815191529181900360200190a35050505050565b600082820183811015611072576040805162461bcd60e51b815260206004820152601b60248201527a536166654d6174683a206164646974696f6e206f766572666c6f7760281b604482015290519081900360640190fd5b6000813f7fc5d2460186f7233c927e7db2dcc703c0e500b653ca82273b7bfad8045d85a47081811480159061214857508115155b949350505050565b600061107283836040518060400160405280601e81526020017f536166654d6174683a207375627472616374696f6e206f766572666c6f77000081525061187b56fe4552433737373a20617070726f76652066726f6d20746865207a65726f20616464726573734552433737373a2073656e642066726f6d20746865207a65726f20616464726573734552433737373a207472616e7366657220616d6f756e7420657863656564732062616c616e63654f776e61626c653a206e6577206f776e657220697320746865207a65726f20616464726573734552433737373a206275726e2066726f6d20746865207a65726f20616464726573734552433737373a20617574686f72697a696e672073656c66206173206f70657261746f724552433737373a207265766f6b696e672073656c66206173206f70657261746f724f776e61626c653a2063616c6c6572206973206e6f7420746865206f776e65728be0079c531659141344cd1fd0a4f28419497f9722a3daafe3b4186f6b6457e04552433737373a20746f6b656e20726563697069656e7420636f6e747261637420686173206e6f20696d706c656d656e74657220666f7220455243373737546f6b656e73526563697069656e744552433737373a207472616e7366657220746f20746865207a65726f2061646472657373ddf252ad1be2c89b69c2b068fc378daa952ba7f163c4a11628f55a4df523b3ef4552433737373a2063616c6c6572206973206e6f7420616e206f70657261746f7220666f7220686f6c6465724552433737373a207472616e7366657220616d6f756e74206578636565647320616c6c6f77616e63654552433737373a207472616e736665722066726f6d20746865207a65726f20616464726573734552433737373a206275726e20616d6f756e7420657863656564732062616c616e63654552433737373a20617070726f766520746f20746865207a65726f2061646472657373a2646970667358221220267ca9c3b51275c2eab95fa95a1979cb6c6e42027ad750f60c6a365a2605b3d064736f6c634300060c0033608060405234801561001057600080fd5b506040516108c63803806108c68339818101604052606081101561003357600080fd5b5080516020820151604090920151600080546001600160a01b03928316610100908102610100600160a81b031995151560ff1990931692909217949094161790819055600180546001600160a01b03191693909104909116919091179055600255610823806100a36000396000f3fe608060405234801561001057600080fd5b50600436106100af5760003560e01c80631425bf2e146100b45780631576dfc2146100ce5780631ea736e0146100f45780632f13835d146100fc57806333ad95e7146101185780633ccfd60b146101205780633d402f7e1461012a578063421d0a201461014d57806351ed6a301461016a5780636dd175711461018e5780637f0c75a0146101ab57806385107367146101d15780639b34ae03146101d9575b600080fd5b6100bc6101e1565b60408051918252519081900360200190f35b6100bc600480360360208110156100e457600080fd5b50356001600160a01b03166101e7565b6100bc6101f9565b6101046101ff565b604080519115158252519081900360200190f35b610104610208565b610128610211565b005b6101286004803603604081101561014057600080fd5b5080359060200135610352565b6100bc6004803603602081101561016357600080fd5b5035610414565b610172610432565b604080516001600160a01b039092168252519081900360200190f35b6100bc600480360360208110156101a457600080fd5b5035610441565b6100bc600480360360208110156101c157600080fd5b50356001600160a01b0316610453565b610172610465565b6100bc610479565b60085481565b60056020526000908152604090205481565b60025481565b60005460ff1681565b60075460ff1681565b6002544211610263576040805162461bcd60e51b8152602060048201526019602482015278159bdd19481a5cc81b9bdd081e595d0818dbdb5c1b195d1959603a1b604482015290519081900360640190fd5b61026b610479565b33600090815260056020526040902054146102b75760405162461bcd60e51b81526004018080602001828103825260248152602001806107766024913960400191505060405180910390fd5b336000818152600660209081526040808320805490849055600154825163a9059cbb60e01b8152600481019690965260248601829052915190946001600160a01b039092169363a9059cbb93604480850194919392918390030190829087803b15801561032357600080fd5b505af1158015610337573d6000803e3d6000fd5b505050506040513d602081101561034d57600080fd5b505050565b600254421061039b576040805162461bcd60e51b815260206004820152601060248201526f1d9bdd1a5b99c81a185cc8195b99195960821b604482015290519081900360640190fd5b600081116103ec576040805162461bcd60e51b815260206004820152601960248201527821b0b73737ba103b37ba32903bb4ba3410181039ba30b5b29760391b604482015290519081900360640190fd5b60005460ff1615610406576104018282610588565b610410565b6104108282610686565b5050565b6003818154811061042157fe5b600091825260209091200154905081565b6001546001600160a01b031681565b60046020526000908152604090205481565b60066020526000908152604090205481565b60005461010090046001600160a01b031681565b600060025442116104cd576040805162461bcd60e51b8152602060048201526019602482015278159bdd19481a5cc81b9bdd081e595d0818dbdb5c1b195d1959603a1b604482015290519081900360640190fd5b60075460ff16156104e15750600854610585565b6003546000906104fd57670de0b6b3a763ffff19915050610585565b600360008154811061050b57fe5b600091825260209091200154905060015b60035481101561056f5760006003828154811061053557fe5b60009182526020808320909101548083526004909152604080832054868452922054909250811115610565578193505b505060010161051c565b5060088190556007805460ff1916600117905590505b90565b81600081670de0b6b3a7640000148061059f575081155b806105b2575081670de0b6b3a763ffff19145b9050806105f05760405162461bcd60e51b815260040180806020018281038252602a8152602001806107c4602a913960400191505060405180910390fd5b6105fa84846106f2565b600154604080516323b872dd60e01b81523360048201523060248201526044810186905290516001600160a01b03909216916323b872dd916064808201926020929091908290030181600087803b15801561065457600080fd5b505af1158015610668573d6000803e3d6000fd5b505050506040513d602081101561067e57600080fd5b505050505050565b816000670de0b6b3a7640000821315806106a1575060008212155b806106b4575081670de0b6b3a763ffff19145b9050806105f05760405162461bcd60e51b815260040180806020018281038252602a81526020018061079a602a913960400191505060405180910390fd5b60008281526004602052604090205461073b57600380546001810182556000919091527fc2575a0e9e593c00f959f8c92f12db2869c3395a3b0502d05e2516446f71f85b018290555b600082815260046020908152604080832080548501905533835260058252808320805490950190945560069052919091208054909101905556fe5573657220646964206e6f7420766f7465206f6e2077696e6e696e67206f7574636f6d65566f7465206973206e6f7420696e20636f7272656374205363616c617220566f746520466f726d61742e566f7465206973206e6f7420696e20636f72726563742042696e61727920566f746520466f726d61742ea2646970667358221220c530f49922851c13dddeded843e23de8c8658506626f870459d5914d0c3c681664736f6c634300060c0033",
  "compiler": {
    "name": "solc",
    "version": "0.6.12+commit.27d51765.Emscripten.clang",
    "optimizer": {
      "enabled": true,
      "runs": 1
    },
    "evmVersion": "petersburg"
  }
}