{
  "fileName": "StakePool.sol",
  "contractName": "StakePool",
  "source": "// SPDX-License-Identifier: Unlicense\n\npragma solidity 0.6.12;\n\nimport \"@openzeppelin/contracts/math/SafeMath.sol\";\nimport \"@openzeppelin/contracts/token/ERC20/IERC20.sol\";\nimport \"@openzeppelin/contracts/utils/ReentrancyGuard.sol\";\nimport \"./IYieldOffering.sol\";\n\n\n/// @title StakePool\n/// @notice Creates a stake pool that generates yield with a given staking token.\ncontract StakePool is ReentrancyGuard {\n    using SafeMath for uint;\n\n    /// @notice Token used to stake and generate yield.\n    IERC20 public stakeToken;\n    /// @notice Balance holder for the Staking Pool.\n    IYieldOffering public yieldOffering;\n\n    /// @notice Returns the start of the user's staking at current amount.\n    mapping(address => uint) public timeOfStake;\n    /// @notice Returns the current amount of user's stake.\n    mapping(address => uint) public balances;\n    /// @notice Start of the staking pool.\n    uint public startTime;\n    /// @notice End of the staking pool\n    uint public endTime;\n    /// @notice Staking reward per second.\n    uint public secondReward;\n\n    /// @notice Sets default values for the staking pool.\n    /// @param setYieldOffering Address of the balance holder for staking.\n    /// @param setStakeToken Token used for Staking.\n    /// @param setStartTime Unix timestamp when staking may begin.\n    /// @param setEndTime Unix timestamp when staking ends.\n    /// @param setSecondReward Amount of yield to give per second of 1 stake token.\n    constructor (\n        address setYieldOffering,\n        address setStakeToken,\n        uint setStartTime,\n        uint setEndTime,\n        uint setSecondReward\n    ) public {\n        yieldOffering = IYieldOffering(setYieldOffering);\n        stakeToken = IERC20(setStakeToken);\n        startTime = setStartTime;\n        endTime = setEndTime;\n        secondReward = setSecondReward;\n    }\n\n    /// @notice Deposits stake token into the pool with the given amount.\n    /// @dev Fetches the yield offering balance, computes the amount of yield earned\n    ///      since the last deposit, and updates the balance of deposited stake and\n    ///      earned yield.\n    /// @param amount Amount of stake token to stake.\n    function deposit(uint amount) external nonReentrant returns (uint) {\n        uint t = block.timestamp;\n        require(t < endTime, \"staking pool has closed\");\n        uint currYield = yieldOffering.balances(msg.sender);\n        uint currOwed = updateCurrentOwned();\n        balances[msg.sender] = balances[msg.sender].add(amount);\n        yieldOffering.updateBalance(msg.sender, currOwed + currYield);\n        stakeToken.transferFrom(msg.sender, address(this), amount);\n        return balances[msg.sender];\n    }\n\n    /// @notice Withdraws the given amount of stake token out of the pool.\n    /// @dev Fetches the yield offering balance, computes the amount of yield earned\n    ///      since the last deposit, and updates the balance of deposited stake and\n    ///      earned yield.\n    /// @param amount Amount of stake token to return.\n    function withdraw(uint amount) external nonReentrant returns (uint) {\n        uint currYield = yieldOffering.balances(msg.sender);\n        uint currOwed = updateCurrentOwned();\n        balances[msg.sender] = balances[msg.sender].sub(amount);\n        require(balances[msg.sender] >= 0, \"Balance cannot be less than 0.\");\n        yieldOffering.updateBalance(msg.sender, currOwed + currYield);\n        stakeToken.transfer(msg.sender, amount);\n        return balances[msg.sender];\n    }\n\n    /// @notice Computes the current owned generated yield since the last time of\n    ///         stake, updating the time of stake.\n    /// @dev Before start, maintains the current owed yield is 0. Otherwise updates.\n    function updateCurrentOwned() private returns (uint) {\n        uint t = block.timestamp;\n        uint currBalance = balances[msg.sender];\n        uint prevStart = timeOfStake[msg.sender];\n        uint currOwed = 0;\n        if (t < startTime) {\n            timeOfStake[msg.sender] = startTime;\n        } else {\n            currOwed = (t.sub(prevStart)).mul(secondReward).mul(currBalance);\n            timeOfStake[msg.sender] = t;\n        }\n        return currOwed;\n    }\n\n}\n",
  "sourcePath": "contracts/StakePool.sol",
  "abi": [
    {
      "inputs": [
        {
          "internalType": "address",
          "name": "setYieldOffering",
          "type": "address"
        },
        {
          "internalType": "address",
          "name": "setStakeToken",
          "type": "address"
        },
        {
          "internalType": "uint256",
          "name": "setStartTime",
          "type": "uint256"
        },
        {
          "internalType": "uint256",
          "name": "setEndTime",
          "type": "uint256"
        },
        {
          "internalType": "uint256",
          "name": "setSecondReward",
          "type": "uint256"
        }
      ],
      "stateMutability": "nonpayable",
      "type": "constructor"
    },
    {
      "inputs": [
        {
          "internalType": "address",
          "name": "",
          "type": "address"
        }
      ],
      "name": "balances",
      "outputs": [
        {
          "internalType": "uint256",
          "name": "",
          "type": "uint256"
        }
      ],
      "stateMutability": "view",
      "type": "function"
    },
    {
      "inputs": [
        {
          "internalType": "uint256",
          "name": "amount",
          "type": "uint256"
        }
      ],
      "name": "deposit",
      "outputs": [
        {
          "internalType": "uint256",
          "name": "",
          "type": "uint256"
        }
      ],
      "stateMutability": "nonpayable",
      "type": "function"
    },
    {
      "inputs": [],
      "name": "endTime",
      "outputs": [
        {
          "internalType": "uint256",
          "name": "",
          "type": "uint256"
        }
      ],
      "stateMutability": "view",
      "type": "function"
    },
    {
      "inputs": [],
      "name": "secondReward",
      "outputs": [
        {
          "internalType": "uint256",
          "name": "",
          "type": "uint256"
        }
      ],
      "stateMutability": "view",
      "type": "function"
    },
    {
      "inputs": [],
      "name": "stakeToken",
      "outputs": [
        {
          "internalType": "contract IERC20",
          "name": "",
          "type": "address"
        }
      ],
      "stateMutability": "view",
      "type": "function"
    },
    {
      "inputs": [],
      "name": "startTime",
      "outputs": [
        {
          "internalType": "uint256",
          "name": "",
          "type": "uint256"
        }
      ],
      "stateMutability": "view",
      "type": "function"
    },
    {
      "inputs": [
        {
          "internalType": "address",
          "name": "",
          "type": "address"
        }
      ],
      "name": "timeOfStake",
      "outputs": [
        {
          "internalType": "uint256",
          "name": "",
          "type": "uint256"
        }
      ],
      "stateMutability": "view",
      "type": "function"
    },
    {
      "inputs": [
        {
          "internalType": "uint256",
          "name": "amount",
          "type": "uint256"
        }
      ],
      "name": "withdraw",
      "outputs": [
        {
          "internalType": "uint256",
          "name": "",
          "type": "uint256"
        }
      ],
      "stateMutability": "nonpayable",
      "type": "function"
    },
    {
      "inputs": [],
      "name": "yieldOffering",
      "outputs": [
        {
          "internalType": "contract IYieldOffering",
          "name": "",
          "type": "address"
        }
      ],
      "stateMutability": "view",
      "type": "function"
    }
  ],
  "bytecode": "0x608060405234801561001057600080fd5b5060405161094a38038061094a833981810160405260a081101561003357600080fd5b50805160208201516040830151606084015160809094015160016000818155600280546001600160a01b03199081166001600160a01b039889161790915582541695909416949094179093556005556006929092556007556108af90819061009b90396000f3fe608060405234801561001057600080fd5b50600436106100835760003560e01c80630c98b5da1461008857806327e235e3146100c05780632e1a7d4d146100e65780633197cbb61461010357806351ed6a301461010b57806378e979251461012f5780638476cf6514610137578063b6b55f251461013f578063fec94ad11461015c575b600080fd5b6100ae6004803603602081101561009e57600080fd5b50356001600160a01b0316610164565b60408051918252519081900360200190f35b6100ae600480360360208110156100d657600080fd5b50356001600160a01b0316610176565b6100ae600480360360208110156100fc57600080fd5b5035610188565b6100ae610391565b610113610397565b604080516001600160a01b039092168252519081900360200190f35b6100ae6103a6565b6101136103ac565b6100ae6004803603602081101561015557600080fd5b50356103bb565b6100ae61061c565b60036020526000908152604090205481565b60046020526000908152604090205481565b6000600260005414156101d0576040805162461bcd60e51b815260206004820152601f6024820152600080516020610839833981519152604482015290519081900360640190fd5b600260008181559054604080516327e235e360e01b815233600482015290516001600160a01b03909216916327e235e39160248082019260209290919082900301818787803b15801561022257600080fd5b505af1158015610236573d6000803e3d6000fd5b505050506040513d602081101561024c57600080fd5b50519050600061025a610622565b3360009081526004602052604090205490915061027790856106a5565b336000908152600460205260409020556002546040805163e0b1cccb60e01b8152336004820152838501602482015290516001600160a01b039092169163e0b1cccb9160448082019260009290919082900301818387803b1580156102db57600080fd5b505af11580156102ef573d6000803e3d6000fd5b50506001546040805163a9059cbb60e01b81523360048201526024810189905290516001600160a01b03909216935063a9059cbb92506044808201926020929091908290030181600087803b15801561034757600080fd5b505af115801561035b573d6000803e3d6000fd5b505050506040513d602081101561037157600080fd5b505033600090815260046020526040902054925050506001600055919050565b60065481565b6001546001600160a01b031681565b60055481565b6002546001600160a01b031681565b600060026000541415610403576040805162461bcd60e51b815260206004820152601f6024820152600080516020610839833981519152604482015290519081900360640190fd5b60026000556006544290811061045a576040805162461bcd60e51b81526020600482015260176024820152761cdd185ada5b99c81c1bdbdb081a185cc818db1bdcd959604a1b604482015290519081900360640190fd5b600254604080516327e235e360e01b815233600482015290516000926001600160a01b0316916327e235e391602480830192602092919082900301818787803b1580156104a657600080fd5b505af11580156104ba573d6000803e3d6000fd5b505050506040513d60208110156104d057600080fd5b5051905060006104de610622565b336000908152600460205260409020549091506104fb90866106f0565b33600081815260046020819052604080832094909455600254845163e0b1cccb60e01b815291820193909352858501602482015292516001600160a01b039092169263e0b1cccb926044808301939282900301818387803b15801561055f57600080fd5b505af1158015610573573d6000803e3d6000fd5b5050600154604080516323b872dd60e01b8152336004820152306024820152604481018a905290516001600160a01b0390921693506323b872dd92506064808201926020929091908290030181600087803b1580156105d157600080fd5b505af11580156105e5573d6000803e3d6000fd5b505050506040513d60208110156105fb57600080fd5b50503360009081526004602052604090205493505050506001600055919050565b60075481565b336000908152600460209081526040808320546003909252822054600554429291908490841015610665576005543360009081526003602052604090205561069d565b6106888361068260075461068286896106a590919063ffffffff16565b90610748565b33600090815260036020526040902085905590505b935050505090565b60006106e783836040518060400160405280601e81526020017f536166654d6174683a207375627472616374696f6e206f766572666c6f7700008152506107a1565b90505b92915050565b6000828201838110156106e7576040805162461bcd60e51b815260206004820152601b60248201527a536166654d6174683a206164646974696f6e206f766572666c6f7760281b604482015290519081900360640190fd5b600082610757575060006106ea565b8282028284828161076457fe5b04146106e75760405162461bcd60e51b81526004018080602001828103825260218152602001806108596021913960400191505060405180910390fd5b600081848411156108305760405162461bcd60e51b81526004018080602001828103825283818151815260200191508051906020019080838360005b838110156107f55781810151838201526020016107dd565b50505050905090810190601f1680156108225780820380516001836020036101000a031916815260200191505b509250505060405180910390fd5b50505090039056fe5265656e7472616e637947756172643a207265656e7472616e742063616c6c00536166654d6174683a206d756c7469706c69636174696f6e206f766572666c6f77a26469706673582212201ff80ac8d56835ac75cf6466bd47f3dc254843b046105f1a12ebe630bbeedf1e64736f6c634300060c0033",
  "compiler": {
    "name": "solc",
    "version": "0.6.12+commit.27d51765.Emscripten.clang",
    "optimizer": {
      "enabled": true,
      "runs": 1
    },
    "evmVersion": "petersburg"
  }
}