{
  "fileName": "VisionTest.sol",
  "contractName": "VisionTest",
  "source": "// SPDX-License-Identifier: Unlicense\n\npragma solidity 0.6.12;\n\nimport \"@openzeppelin/contracts/token/ERC777/ERC777.sol\";\n\n\n/// @title VisionTest\n/// @notice Test ERC777 for the Vision token with open mint function.\ncontract VisionTest is ERC777 {\n\n    /// @notice Sets up the token.\n    constructor() public ERC777(\"Vision\", \"VIS\", new address[](0)) {}\n\n    /// @notice Mints tokens for the given address.\n    /// @param amount Amount to mint.\n    function mint(uint amount) public {\n        super._mint(msg.sender, amount, \"\", \"\");\n    }\n}\n",
  "sourcePath": "contracts/VisionTest.sol",
  "abi": [
    {
      "inputs": [],
      "stateMutability": "nonpayable",
      "type": "constructor"
    },
    {
      "anonymous": false,
      "inputs": [
        {
          "indexed": true,
          "internalType": "address",
          "name": "owner",
          "type": "address"
        },
        {
          "indexed": true,
          "internalType": "address",
          "name": "spender",
          "type": "address"
        },
        {
          "indexed": false,
          "internalType": "uint256",
          "name": "value",
          "type": "uint256"
        }
      ],
      "name": "Approval",
      "type": "event"
    },
    {
      "anonymous": false,
      "inputs": [
        {
          "indexed": true,
          "internalType": "address",
          "name": "operator",
          "type": "address"
        },
        {
          "indexed": true,
          "internalType": "address",
          "name": "tokenHolder",
          "type": "address"
        }
      ],
      "name": "AuthorizedOperator",
      "type": "event"
    },
    {
      "anonymous": false,
      "inputs": [
        {
          "indexed": true,
          "internalType": "address",
          "name": "operator",
          "type": "address"
        },
        {
          "indexed": true,
          "internalType": "address",
          "name": "from",
          "type": "address"
        },
        {
          "indexed": false,
          "internalType": "uint256",
          "name": "amount",
          "type": "uint256"
        },
        {
          "indexed": false,
          "internalType": "bytes",
          "name": "data",
          "type": "bytes"
        },
        {
          "indexed": false,
          "internalType": "bytes",
          "name": "operatorData",
          "type": "bytes"
        }
      ],
      "name": "Burned",
      "type": "event"
    },
    {
      "anonymous": false,
      "inputs": [
        {
          "indexed": true,
          "internalType": "address",
          "name": "operator",
          "type": "address"
        },
        {
          "indexed": true,
          "internalType": "address",
          "name": "to",
          "type": "address"
        },
        {
          "indexed": false,
          "internalType": "uint256",
          "name": "amount",
          "type": "uint256"
        },
        {
          "indexed": false,
          "internalType": "bytes",
          "name": "data",
          "type": "bytes"
        },
        {
          "indexed": false,
          "internalType": "bytes",
          "name": "operatorData",
          "type": "bytes"
        }
      ],
      "name": "Minted",
      "type": "event"
    },
    {
      "anonymous": false,
      "inputs": [
        {
          "indexed": true,
          "internalType": "address",
          "name": "operator",
          "type": "address"
        },
        {
          "indexed": true,
          "internalType": "address",
          "name": "tokenHolder",
          "type": "address"
        }
      ],
      "name": "RevokedOperator",
      "type": "event"
    },
    {
      "anonymous": false,
      "inputs": [
        {
          "indexed": true,
          "internalType": "address",
          "name": "operator",
          "type": "address"
        },
        {
          "indexed": true,
          "internalType": "address",
          "name": "from",
          "type": "address"
        },
        {
          "indexed": true,
          "internalType": "address",
          "name": "to",
          "type": "address"
        },
        {
          "indexed": false,
          "internalType": "uint256",
          "name": "amount",
          "type": "uint256"
        },
        {
          "indexed": false,
          "internalType": "bytes",
          "name": "data",
          "type": "bytes"
        },
        {
          "indexed": false,
          "internalType": "bytes",
          "name": "operatorData",
          "type": "bytes"
        }
      ],
      "name": "Sent",
      "type": "event"
    },
    {
      "anonymous": false,
      "inputs": [
        {
          "indexed": true,
          "internalType": "address",
          "name": "from",
          "type": "address"
        },
        {
          "indexed": true,
          "internalType": "address",
          "name": "to",
          "type": "address"
        },
        {
          "indexed": false,
          "internalType": "uint256",
          "name": "value",
          "type": "uint256"
        }
      ],
      "name": "Transfer",
      "type": "event"
    },
    {
      "inputs": [
        {
          "internalType": "address",
          "name": "holder",
          "type": "address"
        },
        {
          "internalType": "address",
          "name": "spender",
          "type": "address"
        }
      ],
      "name": "allowance",
      "outputs": [
        {
          "internalType": "uint256",
          "name": "",
          "type": "uint256"
        }
      ],
      "stateMutability": "view",
      "type": "function"
    },
    {
      "inputs": [
        {
          "internalType": "address",
          "name": "spender",
          "type": "address"
        },
        {
          "internalType": "uint256",
          "name": "value",
          "type": "uint256"
        }
      ],
      "name": "approve",
      "outputs": [
        {
          "internalType": "bool",
          "name": "",
          "type": "bool"
        }
      ],
      "stateMutability": "nonpayable",
      "type": "function"
    },
    {
      "inputs": [
        {
          "internalType": "address",
          "name": "operator",
          "type": "address"
        }
      ],
      "name": "authorizeOperator",
      "outputs": [],
      "stateMutability": "nonpayable",
      "type": "function"
    },
    {
      "inputs": [
        {
          "internalType": "address",
          "name": "tokenHolder",
          "type": "address"
        }
      ],
      "name": "balanceOf",
      "outputs": [
        {
          "internalType": "uint256",
          "name": "",
          "type": "uint256"
        }
      ],
      "stateMutability": "view",
      "type": "function"
    },
    {
      "inputs": [
        {
          "internalType": "uint256",
          "name": "amount",
          "type": "uint256"
        },
        {
          "internalType": "bytes",
          "name": "data",
          "type": "bytes"
        }
      ],
      "name": "burn",
      "outputs": [],
      "stateMutability": "nonpayable",
      "type": "function"
    },
    {
      "inputs": [],
      "name": "decimals",
      "outputs": [
        {
          "internalType": "uint8",
          "name": "",
          "type": "uint8"
        }
      ],
      "stateMutability": "pure",
      "type": "function"
    },
    {
      "inputs": [],
      "name": "defaultOperators",
      "outputs": [
        {
          "internalType": "address[]",
          "name": "",
          "type": "address[]"
        }
      ],
      "stateMutability": "view",
      "type": "function"
    },
    {
      "inputs": [],
      "name": "granularity",
      "outputs": [
        {
          "internalType": "uint256",
          "name": "",
          "type": "uint256"
        }
      ],
      "stateMutability": "view",
      "type": "function"
    },
    {
      "inputs": [
        {
          "internalType": "address",
          "name": "operator",
          "type": "address"
        },
        {
          "internalType": "address",
          "name": "tokenHolder",
          "type": "address"
        }
      ],
      "name": "isOperatorFor",
      "outputs": [
        {
          "internalType": "bool",
          "name": "",
          "type": "bool"
        }
      ],
      "stateMutability": "view",
      "type": "function"
    },
    {
      "inputs": [
        {
          "internalType": "uint256",
          "name": "amount",
          "type": "uint256"
        }
      ],
      "name": "mint",
      "outputs": [],
      "stateMutability": "nonpayable",
      "type": "function"
    },
    {
      "inputs": [],
      "name": "name",
      "outputs": [
        {
          "internalType": "string",
          "name": "",
          "type": "string"
        }
      ],
      "stateMutability": "view",
      "type": "function"
    },
    {
      "inputs": [
        {
          "internalType": "address",
          "name": "account",
          "type": "address"
        },
        {
          "internalType": "uint256",
          "name": "amount",
          "type": "uint256"
        },
        {
          "internalType": "bytes",
          "name": "data",
          "type": "bytes"
        },
        {
          "internalType": "bytes",
          "name": "operatorData",
          "type": "bytes"
        }
      ],
      "name": "operatorBurn",
      "outputs": [],
      "stateMutability": "nonpayable",
      "type": "function"
    },
    {
      "inputs": [
        {
          "internalType": "address",
          "name": "sender",
          "type": "address"
        },
        {
          "internalType": "address",
          "name": "recipient",
          "type": "address"
        },
        {
          "internalType": "uint256",
          "name": "amount",
          "type": "uint256"
        },
        {
          "internalType": "bytes",
          "name": "data",
          "type": "bytes"
        },
        {
          "internalType": "bytes",
          "name": "operatorData",
          "type": "bytes"
        }
      ],
      "name": "operatorSend",
      "outputs": [],
      "stateMutability": "nonpayable",
      "type": "function"
    },
    {
      "inputs": [
        {
          "internalType": "address",
          "name": "operator",
          "type": "address"
        }
      ],
      "name": "revokeOperator",
      "outputs": [],
      "stateMutability": "nonpayable",
      "type": "function"
    },
    {
      "inputs": [
        {
          "internalType": "address",
          "name": "recipient",
          "type": "address"
        },
        {
          "internalType": "uint256",
          "name": "amount",
          "type": "uint256"
        },
        {
          "internalType": "bytes",
          "name": "data",
          "type": "bytes"
        }
      ],
      "name": "send",
      "outputs": [],
      "stateMutability": "nonpayable",
      "type": "function"
    },
    {
      "inputs": [],
      "name": "symbol",
      "outputs": [
        {
          "internalType": "string",
          "name": "",
          "type": "string"
        }
      ],
      "stateMutability": "view",
      "type": "function"
    },
    {
      "inputs": [],
      "name": "totalSupply",
      "outputs": [
        {
          "internalType": "uint256",
          "name": "",
          "type": "uint256"
        }
      ],
      "stateMutability": "view",
      "type": "function"
    },
    {
      "inputs": [
        {
          "internalType": "address",
          "name": "recipient",
          "type": "address"
        },
        {
          "internalType": "uint256",
          "name": "amount",
          "type": "uint256"
        }
      ],
      "name": "transfer",
      "outputs": [
        {
          "internalType": "bool",
          "name": "",
          "type": "bool"
        }
      ],
      "stateMutability": "nonpayable",
      "type": "function"
    },
    {
      "inputs": [
        {
          "internalType": "address",
          "name": "holder",
          "type": "address"
        },
        {
          "internalType": "address",
          "name": "recipient",
          "type": "address"
        },
        {
          "internalType": "uint256",
          "name": "amount",
          "type": "uint256"
        }
      ],
      "name": "transferFrom",
      "outputs": [
        {
          "internalType": "bool",
          "name": "",
          "type": "bool"
        }
      ],
      "stateMutability": "nonpayable",
      "type": "function"
    }
  ],
  "bytecode": "0x60806040523480156200001157600080fd5b50604080518082018252600681527f566973696f6e0000000000000000000000000000000000000000000000000000602080830191825283518085018552600381527f564953000000000000000000000000000000000000000000000000000000000081830152845160008152918201909452825192939290916200009a916002919062000294565b508151620000b090600390602085019062000294565b508051620000c690600490602084019062000319565b5060005b600454811015620001265760016005600060048481548110620000e957fe5b6000918252602080832091909101546001600160a01b031683528201929092526040019020805460ff1916911515919091179055600101620000ca565b50604080517f29965a1d00000000000000000000000000000000000000000000000000000000815230600482018190527fac7fbab5f54a3ca8194167523c6753bfeb96a445279294b6125b68cce2177054602483015260448201529051731820a4b7618bde71dce8cdc73aab6c95905fad24916329965a1d91606480830192600092919082900301818387803b158015620001c057600080fd5b505af1158015620001d5573d6000803e3d6000fd5b5050604080517f29965a1d00000000000000000000000000000000000000000000000000000000815230600482018190527faea199e31a596269b42cdafd93407f14436db6e4cad65417994c2eb37381e05a602483015260448201529051731820a4b7618bde71dce8cdc73aab6c95905fad2493506329965a1d9250606480830192600092919082900301818387803b1580156200027257600080fd5b505af115801562000287573d6000803e3d6000fd5b50505050505050620003b7565b828054600181600116156101000203166002900490600052602060002090601f016020900481019282601f10620002d757805160ff191683800117855562000307565b8280016001018555821562000307579182015b8281111562000307578251825591602001919060010190620002ea565b50620003159291506200037f565b5090565b82805482825590600052602060002090810192821562000371579160200282015b828111156200037157825182546001600160a01b0319166001600160a01b039091161782556020909201916001909101906200033a565b506200031592915062000396565b5b8082111562000315576000815560010162000380565b5b80821115620003155780546001600160a01b031916815560010162000397565b6120b780620003c76000396000f3fe608060405234801561001057600080fd5b50600436106100f15760003560e01c806306e48538146100f657806306fdde031461014e578063095ea7b3146101cb57806318160ddd1461020b57806323b872dd14610225578063313ce5671461025b578063556f0dc71461027957806362ad1b831461028157806370a08231146103cc578063959b8c3f146103f257806395d89b41146104185780639bd9bbc614610420578063a0712d68146104d9578063a9059cbb146104f6578063d95b637114610522578063dd62ed3e14610550578063fad8b32a1461057e578063fc673c4f146105a4578063fe9d9303146106e2575b600080fd5b6100fe61078d565b60408051602080825283518183015283519192839290830191858101910280838360005b8381101561013a578181015183820152602001610122565b505050509050019250505060405180910390f35b6101566107ef565b6040805160208082528351818301528351919283929083019185019080838360005b83811015610190578181015183820152602001610178565b50505050905090810190601f1680156101bd5780820380516001836020036101000a031916815260200191505b509250505060405180910390f35b6101f7600480360360408110156101e157600080fd5b506001600160a01b038135169060200135610879565b604080519115158252519081900360200190f35b61021361089b565b60408051918252519081900360200190f35b6101f76004803603606081101561023b57600080fd5b506001600160a01b038135811691602081013590911690604001356108a1565b610263610a1e565b6040805160ff9092168252519081900360200190f35b610213610a23565b6103ca600480360360a081101561029757600080fd5b6001600160a01b03823581169260208101359091169160408201359190810190608081016060820135600160201b8111156102d157600080fd5b8201836020820111156102e357600080fd5b803590602001918460018302840111600160201b8311171561030457600080fd5b91908080601f0160208091040260200160405190810160405280939291908181526020018383808284376000920191909152509295949360208101935035915050600160201b81111561035657600080fd5b82018360208201111561036857600080fd5b803590602001918460018302840111600160201b8311171561038957600080fd5b91908080601f016020809104026020016040519081016040528093929190818152602001838380828437600092019190915250929550610a28945050505050565b005b610213600480360360208110156103e257600080fd5b50356001600160a01b0316610a8a565b6103ca6004803603602081101561040857600080fd5b50356001600160a01b0316610aa5565b610156610bf1565b6103ca6004803603606081101561043657600080fd5b6001600160a01b0382351691602081013591810190606081016040820135600160201b81111561046557600080fd5b82018360208201111561047757600080fd5b803590602001918460018302840111600160201b8311171561049857600080fd5b91908080601f016020809104026020016040519081016040528093929190818152602001838380828437600092019190915250929550610c52945050505050565b6103ca600480360360208110156104ef57600080fd5b5035610c7c565b6101f76004803603604081101561050c57600080fd5b506001600160a01b038135169060200135610ca9565b6101f76004803603604081101561053857600080fd5b506001600160a01b0381358116916020013516610d82565b6102136004803603604081101561056657600080fd5b506001600160a01b0381358116916020013516610e24565b6103ca6004803603602081101561059457600080fd5b50356001600160a01b0316610e4f565b6103ca600480360360808110156105ba57600080fd5b6001600160a01b0382351691602081013591810190606081016040820135600160201b8111156105e957600080fd5b8201836020820111156105fb57600080fd5b803590602001918460018302840111600160201b8311171561061c57600080fd5b91908080601f0160208091040260200160405190810160405280939291908181526020018383808284376000920191909152509295949360208101935035915050600160201b81111561066e57600080fd5b82018360208201111561068057600080fd5b803590602001918460018302840111600160201b831117156106a157600080fd5b91908080601f016020809104026020016040519081016040528093929190818152602001838380828437600092019190915250929550610f9b945050505050565b6103ca600480360360408110156106f857600080fd5b81359190810190604081016020820135600160201b81111561071957600080fd5b82018360208201111561072b57600080fd5b803590602001918460018302840111600160201b8311171561074c57600080fd5b91908080601f016020809104026020016040519081016040528093929190818152602001838380828437600092019190915250929550610ff9945050505050565b606060048054806020026020016040519081016040528092919081815260200182805480156107e557602002820191906000526020600020905b81546001600160a01b031681526001909101906020018083116107c7575b5050505050905090565b60028054604080516020601f60001961010060018716150201909416859004938401819004810282018101909252828152606093909290918301828280156107e55780601f1061084d576101008083540402835291602001916107e5565b820191906000526020600020905b81548152906001019060200180831161085b57509395945050505050565b60008061088461101f565b9050610891818585611023565b5060019392505050565b60015490565b60006001600160a01b0383166108e85760405162461bcd60e51b8152600401808060200182810382526024815260200180611f7d6024913960400191505060405180910390fd5b6001600160a01b03841661092d5760405162461bcd60e51b81526004018080602001828103825260268152602001806120166026913960400191505060405180910390fd5b600061093761101f565b905061096581868686604051806020016040528060008152506040518060200160405280600081525061110f565b61099181868686604051806020016040528060008152506040518060200160405280600081525061133c565b6109e585826109e086604051806060016040528060298152602001611fed602991396001600160a01b03808c166000908152600860209081526040808320938b16835292905220549190611543565b611023565b610a1381868686604051806020016040528060008152506040518060200160405280600081525060006115da565b506001949350505050565b601290565b600190565b610a39610a3361101f565b86610d82565b610a745760405162461bcd60e51b815260040180806020018281038252602c815260200180611fc1602c913960400191505060405180910390fd5b610a838585858585600161185f565b5050505050565b6001600160a01b031660009081526020819052604090205490565b806001600160a01b0316610ab761101f565b6001600160a01b03161415610afd5760405162461bcd60e51b8152600401808060200182810382526024815260200180611eeb6024913960400191505060405180910390fd5b6001600160a01b03811660009081526005602052604090205460ff1615610b605760076000610b2a61101f565b6001600160a01b03908116825260208083019390935260409182016000908120918516815292529020805460ff19169055610ba7565b600160066000610b6e61101f565b6001600160a01b03908116825260208083019390935260409182016000908120918616815292529020805460ff19169115159190911790555b610baf61101f565b6001600160a01b0316816001600160a01b03167ff4caeb2d6ca8932a215a353d0703c326ec2d81fc68170f320eb2ab49e9df61f960405160405180910390a350565b60038054604080516020601f60026000196101006001881615020190951694909404938401819004810282018101909252828152606093909290918301828280156107e55780601f1061084d576101008083540402835291602001916107e5565b610c77610c5d61101f565b84848460405180602001604052806000815250600161185f565b505050565b610ca633826040518060200160405280600081525060405180602001604052806000815250611936565b50565b60006001600160a01b038316610cf05760405162461bcd60e51b8152600401808060200182810382526024815260200180611f7d6024913960400191505060405180910390fd5b6000610cfa61101f565b9050610d2881828686604051806020016040528060008152506040518060200160405280600081525061110f565b610d5481828686604051806020016040528060008152506040518060200160405280600081525061133c565b61089181828686604051806020016040528060008152506040518060200160405280600081525060006115da565b6000816001600160a01b0316836001600160a01b03161480610ded57506001600160a01b03831660009081526005602052604090205460ff168015610ded57506001600160a01b0380831660009081526007602090815260408083209387168352929052205460ff16155b80610e1d57506001600160a01b0380831660009081526006602090815260408083209387168352929052205460ff165b9392505050565b6001600160a01b03918216600090815260086020908152604080832093909416825291909152205490565b610e5761101f565b6001600160a01b0316816001600160a01b03161415610ea75760405162461bcd60e51b8152600401808060200182810382526021815260200180611f0f6021913960400191505060405180910390fd5b6001600160a01b03811660009081526005602052604090205460ff1615610f1357600160076000610ed661101f565b6001600160a01b03908116825260208083019390935260409182016000908120918616815292529020805460ff1916911515919091179055610f51565b60066000610f1f61101f565b6001600160a01b03908116825260208083019390935260409182016000908120918516815292529020805460ff191690555b610f5961101f565b6001600160a01b0316816001600160a01b03167f50546e66e5f44d728365dc3908c63bc5cfeeab470722c1677e3073a6ac294aa160405160405180910390a350565b610fac610fa661101f565b85610d82565b610fe75760405162461bcd60e51b815260040180806020018281038252602c815260200180611fc1602c913960400191505060405180910390fd5b610ff384848484611b5c565b50505050565b61101b61100461101f565b838360405180602001604052806000815250611b5c565b5050565b3390565b6001600160a01b0383166110685760405162461bcd60e51b8152600401808060200182810382526025815260200180611e5b6025913960400191505060405180910390fd5b6001600160a01b0382166110ad5760405162461bcd60e51b815260040180806020018281038252602381526020018061205f6023913960400191505060405180910390fd5b6001600160a01b03808416600081815260086020908152604080832094871680845294825291829020859055815185815291517f8c5be1e5ebec7d5bd14f71427d1e84f3dd0314c0f7b2291e5b200ac8c7c3b9259281900390910190a3505050565b6040805163555ddc6560e11b81526001600160a01b03871660048201527f29ddb589b1fb5fc7cf394961c1adf5f8c6454761adf795e67fe149f658abe89560248201529051600091731820a4b7618bde71dce8cdc73aab6c95905fad249163aabbb8ca91604480820192602092909190829003018186803b15801561119357600080fd5b505afa1580156111a7573d6000803e3d6000fd5b505050506040513d60208110156111bd57600080fd5b505190506001600160a01b0381161561133357806001600160a01b03166375ab97828888888888886040518763ffffffff1660e01b815260040180876001600160a01b03168152602001866001600160a01b03168152602001856001600160a01b031681526020018481526020018060200180602001838103835285818151815260200191508051906020019080838360005b83811015611268578181015183820152602001611250565b50505050905090810190601f1680156112955780820380516001836020036101000a031916815260200191505b50838103825284518152845160209182019186019080838360005b838110156112c85781810151838201526020016112b0565b50505050905090810190601f1680156112f55780820380516001836020036101000a031916815260200191505b5098505050505050505050600060405180830381600087803b15801561131a57600080fd5b505af115801561132e573d6000803e3d6000fd5b505050505b50505050505050565b61134886868686610ff3565b61138583604051806060016040528060278152602001611ea2602791396001600160a01b0388166000908152602081905260409020549190611543565b6001600160a01b0380871660009081526020819052604080822093909355908616815220546113b49084611d84565b600080866001600160a01b03166001600160a01b0316815260200190815260200160002081905550836001600160a01b0316856001600160a01b0316876001600160a01b03167f06b541ddaa720db2b10a4d0cdac39b8d360425fc073085fac19bc82614677987868686604051808481526020018060200180602001838103835285818151815260200191508051906020019080838360005b8381101561146557818101518382015260200161144d565b50505050905090810190601f1680156114925780820380516001836020036101000a031916815260200191505b50838103825284518152845160209182019186019080838360005b838110156114c55781810151838201526020016114ad565b50505050905090810190601f1680156114f25780820380516001836020036101000a031916815260200191505b509550505050505060405180910390a4836001600160a01b0316856001600160a01b0316600080516020611fa1833981519152856040518082815260200191505060405180910390a3505050505050565b600081848411156115d25760405162461bcd60e51b81526004018080602001828103825283818151815260200191508051906020019080838360005b8381101561159757818101518382015260200161157f565b50505050905090810190601f1680156115c45780820380516001836020036101000a031916815260200191505b509250505060405180910390fd5b505050900390565b6040805163555ddc6560e11b81526001600160a01b03871660048201527fb281fc8c12954d22544db45de3159a39272895b169a852b314f9cc762e44c53b60248201529051600091731820a4b7618bde71dce8cdc73aab6c95905fad249163aabbb8ca91604480820192602092909190829003018186803b15801561165e57600080fd5b505afa158015611672573d6000803e3d6000fd5b505050506040513d602081101561168857600080fd5b505190506001600160a01b0381161561180157806001600160a01b03166223de298989898989896040518763ffffffff1660e01b815260040180876001600160a01b03168152602001866001600160a01b03168152602001856001600160a01b031681526020018481526020018060200180602001838103835285818151815260200191508051906020019080838360005b8381101561173257818101518382015260200161171a565b50505050905090810190601f16801561175f5780820380516001836020036101000a031916815260200191505b50838103825284518152845160209182019186019080838360005b8381101561179257818101518382015260200161177a565b50505050905090810190601f1680156117bf5780820380516001836020036101000a031916815260200191505b5098505050505050505050600060405180830381600087803b1580156117e457600080fd5b505af11580156117f8573d6000803e3d6000fd5b50505050611855565b811561185557611819866001600160a01b0316611ddc565b156118555760405162461bcd60e51b815260040180806020018281038252604d815260200180611f30604d913960600191505060405180910390fd5b5050505050505050565b6001600160a01b0386166118a45760405162461bcd60e51b8152600401808060200182810382526022815260200180611e806022913960400191505060405180910390fd5b6001600160a01b0385166118ff576040805162461bcd60e51b815260206004820181905260248201527f4552433737373a2073656e6420746f20746865207a65726f2061646472657373604482015290519081900360640190fd5b600061190961101f565b905061191981888888888861110f565b61192781888888888861133c565b611333818888888888886115da565b6001600160a01b038416611991576040805162461bcd60e51b815260206004820181905260248201527f4552433737373a206d696e7420746f20746865207a65726f2061646472657373604482015290519081900360640190fd5b600061199b61101f565b90506119aa8160008787610ff3565b6001546119b79085611d84565b6001556001600160a01b0385166000908152602081905260409020546119dd9085611d84565b6001600160a01b038616600090815260208190526040812091909155611a0a9082908787878760016115da565b846001600160a01b0316816001600160a01b03167f2fe5be0146f74c5bce36c0b80911af6c7d86ff27e89d5cfa61fc681327954e5d868686604051808481526020018060200180602001838103835285818151815260200191508051906020019080838360005b83811015611a89578181015183820152602001611a71565b50505050905090810190601f168015611ab65780820380516001836020036101000a031916815260200191505b50838103825284518152845160209182019186019080838360005b83811015611ae9578181015183820152602001611ad1565b50505050905090810190601f168015611b165780820380516001836020036101000a031916815260200191505b509550505050505060405180910390a36040805185815290516001600160a01b03871691600091600080516020611fa18339815191529181900360200190a35050505050565b6001600160a01b038416611ba15760405162461bcd60e51b8152600401808060200182810382526022815260200180611ec96022913960400191505060405180910390fd5b6000611bab61101f565b9050611bba8186600087610ff3565b611bc98186600087878761110f565b611c068460405180606001604052806023815260200161203c602391396001600160a01b0388166000908152602081905260409020549190611543565b6001600160a01b038616600090815260208190526040902055600154611c2c9085611e18565b600181905550846001600160a01b0316816001600160a01b03167fa78a9be3a7b862d26933ad85fb11d80ef66b8f972d7cbba06621d583943a4098868686604051808481526020018060200180602001838103835285818151815260200191508051906020019080838360005b83811015611cb1578181015183820152602001611c99565b50505050905090810190601f168015611cde5780820380516001836020036101000a031916815260200191505b50838103825284518152845160209182019186019080838360005b83811015611d11578181015183820152602001611cf9565b50505050905090810190601f168015611d3e5780820380516001836020036101000a031916815260200191505b509550505050505060405180910390a36040805185815290516000916001600160a01b03881691600080516020611fa18339815191529181900360200190a35050505050565b600082820183811015610e1d576040805162461bcd60e51b815260206004820152601b60248201527a536166654d6174683a206164646974696f6e206f766572666c6f7760281b604482015290519081900360640190fd5b6000813f7fc5d2460186f7233c927e7db2dcc703c0e500b653ca82273b7bfad8045d85a470818114801590611e1057508115155b949350505050565b6000610e1d83836040518060400160405280601e81526020017f536166654d6174683a207375627472616374696f6e206f766572666c6f77000081525061154356fe4552433737373a20617070726f76652066726f6d20746865207a65726f20616464726573734552433737373a2073656e642066726f6d20746865207a65726f20616464726573734552433737373a207472616e7366657220616d6f756e7420657863656564732062616c616e63654552433737373a206275726e2066726f6d20746865207a65726f20616464726573734552433737373a20617574686f72697a696e672073656c66206173206f70657261746f724552433737373a207265766f6b696e672073656c66206173206f70657261746f724552433737373a20746f6b656e20726563697069656e7420636f6e747261637420686173206e6f20696d706c656d656e74657220666f7220455243373737546f6b656e73526563697069656e744552433737373a207472616e7366657220746f20746865207a65726f2061646472657373ddf252ad1be2c89b69c2b068fc378daa952ba7f163c4a11628f55a4df523b3ef4552433737373a2063616c6c6572206973206e6f7420616e206f70657261746f7220666f7220686f6c6465724552433737373a207472616e7366657220616d6f756e74206578636565647320616c6c6f77616e63654552433737373a207472616e736665722066726f6d20746865207a65726f20616464726573734552433737373a206275726e20616d6f756e7420657863656564732062616c616e63654552433737373a20617070726f766520746f20746865207a65726f2061646472657373a2646970667358221220cf01871a8da1d6374ada5bc4fc42cb5a358e4b0fa19fc4380439f4180a59e04e64736f6c634300060c0033",
  "compiler": {
    "name": "solc",
    "version": "0.6.12+commit.27d51765.Emscripten.clang",
    "optimizer": {
      "enabled": true,
      "runs": 1
    },
    "evmVersion": "petersburg"
  }
}