{
  "fileName": "Vision.sol",
  "contractName": "Vision",
  "source": "// SPDX-License-Identifier: Unlicense\n\npragma solidity 0.6.12;\n\nimport \"@openzeppelin/contracts/token/ERC777/ERC777.sol\";\nimport \"@openzeppelin/contracts/access/Ownable.sol\";\n\n\n/// @title Vision\n/// @notice ERC777 for the Vision token\ncontract Vision is ERC777, Ownable {\n\n    /// @notice Sets up the token.\n    constructor() public ERC777(\"Vision\", \"VIS\", new address[](0)) {}\n\n    /// @notice Mints tokens for the given address.\n    /// @param toAddress Address to send token.\n    /// @param amount Amount to mint.\n    function mint(address toAddress, uint amount) public onlyOwner {\n        super._mint(toAddress, amount, \"\", \"\");\n    }\n}\n",
  "sourcePath": "contracts/Vision.sol",
  "abi": [
    {
      "inputs": [],
      "stateMutability": "nonpayable",
      "type": "constructor"
    },
    {
      "anonymous": false,
      "inputs": [
        {
          "indexed": true,
          "internalType": "address",
          "name": "owner",
          "type": "address"
        },
        {
          "indexed": true,
          "internalType": "address",
          "name": "spender",
          "type": "address"
        },
        {
          "indexed": false,
          "internalType": "uint256",
          "name": "value",
          "type": "uint256"
        }
      ],
      "name": "Approval",
      "type": "event"
    },
    {
      "anonymous": false,
      "inputs": [
        {
          "indexed": true,
          "internalType": "address",
          "name": "operator",
          "type": "address"
        },
        {
          "indexed": true,
          "internalType": "address",
          "name": "tokenHolder",
          "type": "address"
        }
      ],
      "name": "AuthorizedOperator",
      "type": "event"
    },
    {
      "anonymous": false,
      "inputs": [
        {
          "indexed": true,
          "internalType": "address",
          "name": "operator",
          "type": "address"
        },
        {
          "indexed": true,
          "internalType": "address",
          "name": "from",
          "type": "address"
        },
        {
          "indexed": false,
          "internalType": "uint256",
          "name": "amount",
          "type": "uint256"
        },
        {
          "indexed": false,
          "internalType": "bytes",
          "name": "data",
          "type": "bytes"
        },
        {
          "indexed": false,
          "internalType": "bytes",
          "name": "operatorData",
          "type": "bytes"
        }
      ],
      "name": "Burned",
      "type": "event"
    },
    {
      "anonymous": false,
      "inputs": [
        {
          "indexed": true,
          "internalType": "address",
          "name": "operator",
          "type": "address"
        },
        {
          "indexed": true,
          "internalType": "address",
          "name": "to",
          "type": "address"
        },
        {
          "indexed": false,
          "internalType": "uint256",
          "name": "amount",
          "type": "uint256"
        },
        {
          "indexed": false,
          "internalType": "bytes",
          "name": "data",
          "type": "bytes"
        },
        {
          "indexed": false,
          "internalType": "bytes",
          "name": "operatorData",
          "type": "bytes"
        }
      ],
      "name": "Minted",
      "type": "event"
    },
    {
      "anonymous": false,
      "inputs": [
        {
          "indexed": true,
          "internalType": "address",
          "name": "previousOwner",
          "type": "address"
        },
        {
          "indexed": true,
          "internalType": "address",
          "name": "newOwner",
          "type": "address"
        }
      ],
      "name": "OwnershipTransferred",
      "type": "event"
    },
    {
      "anonymous": false,
      "inputs": [
        {
          "indexed": true,
          "internalType": "address",
          "name": "operator",
          "type": "address"
        },
        {
          "indexed": true,
          "internalType": "address",
          "name": "tokenHolder",
          "type": "address"
        }
      ],
      "name": "RevokedOperator",
      "type": "event"
    },
    {
      "anonymous": false,
      "inputs": [
        {
          "indexed": true,
          "internalType": "address",
          "name": "operator",
          "type": "address"
        },
        {
          "indexed": true,
          "internalType": "address",
          "name": "from",
          "type": "address"
        },
        {
          "indexed": true,
          "internalType": "address",
          "name": "to",
          "type": "address"
        },
        {
          "indexed": false,
          "internalType": "uint256",
          "name": "amount",
          "type": "uint256"
        },
        {
          "indexed": false,
          "internalType": "bytes",
          "name": "data",
          "type": "bytes"
        },
        {
          "indexed": false,
          "internalType": "bytes",
          "name": "operatorData",
          "type": "bytes"
        }
      ],
      "name": "Sent",
      "type": "event"
    },
    {
      "anonymous": false,
      "inputs": [
        {
          "indexed": true,
          "internalType": "address",
          "name": "from",
          "type": "address"
        },
        {
          "indexed": true,
          "internalType": "address",
          "name": "to",
          "type": "address"
        },
        {
          "indexed": false,
          "internalType": "uint256",
          "name": "value",
          "type": "uint256"
        }
      ],
      "name": "Transfer",
      "type": "event"
    },
    {
      "inputs": [
        {
          "internalType": "address",
          "name": "holder",
          "type": "address"
        },
        {
          "internalType": "address",
          "name": "spender",
          "type": "address"
        }
      ],
      "name": "allowance",
      "outputs": [
        {
          "internalType": "uint256",
          "name": "",
          "type": "uint256"
        }
      ],
      "stateMutability": "view",
      "type": "function"
    },
    {
      "inputs": [
        {
          "internalType": "address",
          "name": "spender",
          "type": "address"
        },
        {
          "internalType": "uint256",
          "name": "value",
          "type": "uint256"
        }
      ],
      "name": "approve",
      "outputs": [
        {
          "internalType": "bool",
          "name": "",
          "type": "bool"
        }
      ],
      "stateMutability": "nonpayable",
      "type": "function"
    },
    {
      "inputs": [
        {
          "internalType": "address",
          "name": "operator",
          "type": "address"
        }
      ],
      "name": "authorizeOperator",
      "outputs": [],
      "stateMutability": "nonpayable",
      "type": "function"
    },
    {
      "inputs": [
        {
          "internalType": "address",
          "name": "tokenHolder",
          "type": "address"
        }
      ],
      "name": "balanceOf",
      "outputs": [
        {
          "internalType": "uint256",
          "name": "",
          "type": "uint256"
        }
      ],
      "stateMutability": "view",
      "type": "function"
    },
    {
      "inputs": [
        {
          "internalType": "uint256",
          "name": "amount",
          "type": "uint256"
        },
        {
          "internalType": "bytes",
          "name": "data",
          "type": "bytes"
        }
      ],
      "name": "burn",
      "outputs": [],
      "stateMutability": "nonpayable",
      "type": "function"
    },
    {
      "inputs": [],
      "name": "decimals",
      "outputs": [
        {
          "internalType": "uint8",
          "name": "",
          "type": "uint8"
        }
      ],
      "stateMutability": "pure",
      "type": "function"
    },
    {
      "inputs": [],
      "name": "defaultOperators",
      "outputs": [
        {
          "internalType": "address[]",
          "name": "",
          "type": "address[]"
        }
      ],
      "stateMutability": "view",
      "type": "function"
    },
    {
      "inputs": [],
      "name": "granularity",
      "outputs": [
        {
          "internalType": "uint256",
          "name": "",
          "type": "uint256"
        }
      ],
      "stateMutability": "view",
      "type": "function"
    },
    {
      "inputs": [
        {
          "internalType": "address",
          "name": "operator",
          "type": "address"
        },
        {
          "internalType": "address",
          "name": "tokenHolder",
          "type": "address"
        }
      ],
      "name": "isOperatorFor",
      "outputs": [
        {
          "internalType": "bool",
          "name": "",
          "type": "bool"
        }
      ],
      "stateMutability": "view",
      "type": "function"
    },
    {
      "inputs": [
        {
          "internalType": "address",
          "name": "toAddress",
          "type": "address"
        },
        {
          "internalType": "uint256",
          "name": "amount",
          "type": "uint256"
        }
      ],
      "name": "mint",
      "outputs": [],
      "stateMutability": "nonpayable",
      "type": "function"
    },
    {
      "inputs": [],
      "name": "name",
      "outputs": [
        {
          "internalType": "string",
          "name": "",
          "type": "string"
        }
      ],
      "stateMutability": "view",
      "type": "function"
    },
    {
      "inputs": [
        {
          "internalType": "address",
          "name": "account",
          "type": "address"
        },
        {
          "internalType": "uint256",
          "name": "amount",
          "type": "uint256"
        },
        {
          "internalType": "bytes",
          "name": "data",
          "type": "bytes"
        },
        {
          "internalType": "bytes",
          "name": "operatorData",
          "type": "bytes"
        }
      ],
      "name": "operatorBurn",
      "outputs": [],
      "stateMutability": "nonpayable",
      "type": "function"
    },
    {
      "inputs": [
        {
          "internalType": "address",
          "name": "sender",
          "type": "address"
        },
        {
          "internalType": "address",
          "name": "recipient",
          "type": "address"
        },
        {
          "internalType": "uint256",
          "name": "amount",
          "type": "uint256"
        },
        {
          "internalType": "bytes",
          "name": "data",
          "type": "bytes"
        },
        {
          "internalType": "bytes",
          "name": "operatorData",
          "type": "bytes"
        }
      ],
      "name": "operatorSend",
      "outputs": [],
      "stateMutability": "nonpayable",
      "type": "function"
    },
    {
      "inputs": [],
      "name": "owner",
      "outputs": [
        {
          "internalType": "address",
          "name": "",
          "type": "address"
        }
      ],
      "stateMutability": "view",
      "type": "function"
    },
    {
      "inputs": [],
      "name": "renounceOwnership",
      "outputs": [],
      "stateMutability": "nonpayable",
      "type": "function"
    },
    {
      "inputs": [
        {
          "internalType": "address",
          "name": "operator",
          "type": "address"
        }
      ],
      "name": "revokeOperator",
      "outputs": [],
      "stateMutability": "nonpayable",
      "type": "function"
    },
    {
      "inputs": [
        {
          "internalType": "address",
          "name": "recipient",
          "type": "address"
        },
        {
          "internalType": "uint256",
          "name": "amount",
          "type": "uint256"
        },
        {
          "internalType": "bytes",
          "name": "data",
          "type": "bytes"
        }
      ],
      "name": "send",
      "outputs": [],
      "stateMutability": "nonpayable",
      "type": "function"
    },
    {
      "inputs": [],
      "name": "symbol",
      "outputs": [
        {
          "internalType": "string",
          "name": "",
          "type": "string"
        }
      ],
      "stateMutability": "view",
      "type": "function"
    },
    {
      "inputs": [],
      "name": "totalSupply",
      "outputs": [
        {
          "internalType": "uint256",
          "name": "",
          "type": "uint256"
        }
      ],
      "stateMutability": "view",
      "type": "function"
    },
    {
      "inputs": [
        {
          "internalType": "address",
          "name": "recipient",
          "type": "address"
        },
        {
          "internalType": "uint256",
          "name": "amount",
          "type": "uint256"
        }
      ],
      "name": "transfer",
      "outputs": [
        {
          "internalType": "bool",
          "name": "",
          "type": "bool"
        }
      ],
      "stateMutability": "nonpayable",
      "type": "function"
    },
    {
      "inputs": [
        {
          "internalType": "address",
          "name": "holder",
          "type": "address"
        },
        {
          "internalType": "address",
          "name": "recipient",
          "type": "address"
        },
        {
          "internalType": "uint256",
          "name": "amount",
          "type": "uint256"
        }
      ],
      "name": "transferFrom",
      "outputs": [
        {
          "internalType": "bool",
          "name": "",
          "type": "bool"
        }
      ],
      "stateMutability": "nonpayable",
      "type": "function"
    },
    {
      "inputs": [
        {
          "internalType": "address",
          "name": "newOwner",
          "type": "address"
        }
      ],
      "name": "transferOwnership",
      "outputs": [],
      "stateMutability": "nonpayable",
      "type": "function"
    }
  ],
  "bytecode": "0x60806040523480156200001157600080fd5b50604080518082018252600681527f566973696f6e0000000000000000000000000000000000000000000000000000602080830191825283518085018552600381527f564953000000000000000000000000000000000000000000000000000000000081830152845160008152918201909452825192939290916200009a9160029190620002f8565b508151620000b0906003906020850190620002f8565b508051620000c69060049060208401906200037d565b5060005b600454811015620001265760016005600060048481548110620000e957fe5b6000918252602080832091909101546001600160a01b031683528201929092526040019020805460ff1916911515919091179055600101620000ca565b50604080517f29965a1d00000000000000000000000000000000000000000000000000000000815230600482018190527fac7fbab5f54a3ca8194167523c6753bfeb96a445279294b6125b68cce2177054602483015260448201529051731820a4b7618bde71dce8cdc73aab6c95905fad24916329965a1d91606480830192600092919082900301818387803b158015620001c057600080fd5b505af1158015620001d5573d6000803e3d6000fd5b5050604080517f29965a1d00000000000000000000000000000000000000000000000000000000815230600482018190527faea199e31a596269b42cdafd93407f14436db6e4cad65417994c2eb37381e05a602483015260448201529051731820a4b7618bde71dce8cdc73aab6c95905fad2493506329965a1d9250606480830192600092919082900301818387803b1580156200027257600080fd5b505af115801562000287573d6000803e3d6000fd5b505050505050506000620002a0620002f460201b60201c565b600980546001600160a01b0319166001600160a01b038316908117909155604051919250906000907f8be0079c531659141344cd1fd0a4f28419497f9722a3daafe3b4186f6b6457e0908290a3506200041b565b3390565b828054600181600116156101000203166002900490600052602060002090601f016020900481019282601f106200033b57805160ff19168380011785556200036b565b828001600101855582156200036b579182015b828111156200036b5782518255916020019190600101906200034e565b5062000379929150620003e3565b5090565b828054828255906000526020600020908101928215620003d5579160200282015b82811115620003d557825182546001600160a01b0319166001600160a01b039091161782556020909201916001909101906200039e565b5062000379929150620003fa565b5b80821115620003795760008155600101620003e4565b5b80821115620003795780546001600160a01b0319168155600101620003fb565b61237a806200042b6000396000f3fe608060405234801561001057600080fd5b50600436106101125760003560e01c806306e485381461011757806306fdde031461016f578063095ea7b3146101ec57806318160ddd1461022c57806323b872dd14610246578063313ce5671461027c57806340c10f191461029a578063556f0dc7146102c857806362ad1b83146102d057806370a0823114610419578063715018a61461043f5780638da5cb5b14610447578063959b8c3f1461046b57806395d89b41146104915780639bd9bbc614610499578063a9059cbb14610552578063d95b63711461057e578063dd62ed3e146105ac578063f2fde38b146105da578063fad8b32a14610600578063fc673c4f14610626578063fe9d930314610764575b600080fd5b61011f61080f565b60408051602080825283518183015283519192839290830191858101910280838360005b8381101561015b578181015183820152602001610143565b505050509050019250505060405180910390f35b610177610871565b6040805160208082528351818301528351919283929083019185019080838360005b838110156101b1578181015183820152602001610199565b50505050905090810190601f1680156101de5780820380516001836020036101000a031916815260200191505b509250505060405180910390f35b6102186004803603604081101561020257600080fd5b506001600160a01b0381351690602001356108fb565b604080519115158252519081900360200190f35b61023461091d565b60408051918252519081900360200190f35b6102186004803603606081101561025c57600080fd5b506001600160a01b03813581169160208101359091169060400135610923565b610284610aa0565b6040805160ff9092168252519081900360200190f35b6102c6600480360360408110156102b057600080fd5b506001600160a01b038135169060200135610aa5565b005b610234610b2b565b6102c6600480360360a08110156102e657600080fd5b6001600160a01b03823581169260208101359091169160408201359190810190608081016060820135600160201b81111561032057600080fd5b82018360208201111561033257600080fd5b803590602001918460018302840111600160201b8311171561035357600080fd5b91908080601f0160208091040260200160405190810160405280939291908181526020018383808284376000920191909152509295949360208101935035915050600160201b8111156103a557600080fd5b8201836020820111156103b757600080fd5b803590602001918460018302840111600160201b831117156103d857600080fd5b91908080601f016020809104026020016040519081016040528093929190818152602001838380828437600092019190915250929550610b30945050505050565b6102346004803603602081101561042f57600080fd5b50356001600160a01b0316610b92565b6102c6610bad565b61044f610c3d565b604080516001600160a01b039092168252519081900360200190f35b6102c66004803603602081101561048157600080fd5b50356001600160a01b0316610c4c565b610177610d98565b6102c6600480360360608110156104af57600080fd5b6001600160a01b0382351691602081013591810190606081016040820135600160201b8111156104de57600080fd5b8201836020820111156104f057600080fd5b803590602001918460018302840111600160201b8311171561051157600080fd5b91908080601f016020809104026020016040519081016040528093929190818152602001838380828437600092019190915250929550610df9945050505050565b6102186004803603604081101561056857600080fd5b506001600160a01b038135169060200135610e23565b6102186004803603604081101561059457600080fd5b506001600160a01b0381358116916020013516610efc565b610234600480360360408110156105c257600080fd5b506001600160a01b0381358116916020013516610f9e565b6102c6600480360360208110156105f057600080fd5b50356001600160a01b0316610fc9565b6102c66004803603602081101561061657600080fd5b50356001600160a01b03166110b0565b6102c66004803603608081101561063c57600080fd5b6001600160a01b0382351691602081013591810190606081016040820135600160201b81111561066b57600080fd5b82018360208201111561067d57600080fd5b803590602001918460018302840111600160201b8311171561069e57600080fd5b91908080601f0160208091040260200160405190810160405280939291908181526020018383808284376000920191909152509295949360208101935035915050600160201b8111156106f057600080fd5b82018360208201111561070257600080fd5b803590602001918460018302840111600160201b8311171561072357600080fd5b91908080601f0160208091040260200160405190810160405280939291908181526020018383808284376000920191909152509295506111fc945050505050565b6102c66004803603604081101561077a57600080fd5b81359190810190604081016020820135600160201b81111561079b57600080fd5b8201836020820111156107ad57600080fd5b803590602001918460018302840111600160201b831117156107ce57600080fd5b91908080601f01602080910402602001604051908101604052809392919081815260200183838082843760009201919091525092955061125a945050505050565b6060600480548060200260200160405190810160405280929190818152602001828054801561086757602002820191906000526020600020905b81546001600160a01b03168152600190910190602001808311610849575b5050505050905090565b60028054604080516020601f60001961010060018716150201909416859004938401819004810282018101909252828152606093909290918301828280156108675780601f106108cf57610100808354040283529160200191610867565b820191906000526020600020905b8154815290600101906020018083116108dd57509395945050505050565b60008061090661127c565b9050610913818585611280565b5060019392505050565b60015490565b60006001600160a01b03831661096a5760405162461bcd60e51b81526004018080602001828103825260248152602001806122406024913960400191505060405180910390fd5b6001600160a01b0384166109af5760405162461bcd60e51b81526004018080602001828103825260268152602001806122d96026913960400191505060405180910390fd5b60006109b961127c565b90506109e781868686604051806020016040528060008152506040518060200160405280600081525061136c565b610a13818686866040518060200160405280600081525060405180602001604052806000815250611599565b610a678582610a62866040518060600160405280602981526020016122b0602991396001600160a01b03808c166000908152600860209081526040808320938b168352929052205491906117a0565b611280565b610a958186868660405180602001604052806000815250604051806020016040528060008152506000611837565b506001949350505050565b601290565b610aad61127c565b6009546001600160a01b03908116911614610afd576040805162461bcd60e51b815260206004820181905260248201526000805160206121b3833981519152604482015290519081900360640190fd5b610b2782826040518060200160405280600081525060405180602001604052806000815250611abc565b5050565b600190565b610b41610b3b61127c565b86610efc565b610b7c5760405162461bcd60e51b815260040180806020018281038252602c815260200180612284602c913960400191505060405180910390fd5b610b8b85858585856001611ce2565b5050505050565b6001600160a01b031660009081526020819052604090205490565b610bb561127c565b6009546001600160a01b03908116911614610c05576040805162461bcd60e51b815260206004820181905260248201526000805160206121b3833981519152604482015290519081900360640190fd5b6009546040516000916001600160a01b0316906000805160206121d3833981519152908390a3600980546001600160a01b0319169055565b6009546001600160a01b031690565b806001600160a01b0316610c5e61127c565b6001600160a01b03161415610ca45760405162461bcd60e51b815260040180806020018281038252602481526020018061216e6024913960400191505060405180910390fd5b6001600160a01b03811660009081526005602052604090205460ff1615610d075760076000610cd161127c565b6001600160a01b03908116825260208083019390935260409182016000908120918516815292529020805460ff19169055610d4e565b600160066000610d1561127c565b6001600160a01b03908116825260208083019390935260409182016000908120918616815292529020805460ff19169115159190911790555b610d5661127c565b6001600160a01b0316816001600160a01b03167ff4caeb2d6ca8932a215a353d0703c326ec2d81fc68170f320eb2ab49e9df61f960405160405180910390a350565b60038054604080516020601f60026000196101006001881615020190951694909404938401819004810282018101909252828152606093909290918301828280156108675780601f106108cf57610100808354040283529160200191610867565b610e1e610e0461127c565b848484604051806020016040528060008152506001611ce2565b505050565b60006001600160a01b038316610e6a5760405162461bcd60e51b81526004018080602001828103825260248152602001806122406024913960400191505060405180910390fd5b6000610e7461127c565b9050610ea281828686604051806020016040528060008152506040518060200160405280600081525061136c565b610ece818286866040518060200160405280600081525060405180602001604052806000815250611599565b6109138182868660405180602001604052806000815250604051806020016040528060008152506000611837565b6000816001600160a01b0316836001600160a01b03161480610f6757506001600160a01b03831660009081526005602052604090205460ff168015610f6757506001600160a01b0380831660009081526007602090815260408083209387168352929052205460ff16155b80610f9757506001600160a01b0380831660009081526006602090815260408083209387168352929052205460ff165b9392505050565b6001600160a01b03918216600090815260086020908152604080832093909416825291909152205490565b610fd161127c565b6009546001600160a01b03908116911614611021576040805162461bcd60e51b815260206004820181905260248201526000805160206121b3833981519152604482015290519081900360640190fd5b6001600160a01b0381166110665760405162461bcd60e51b81526004018080602001828103825260268152602001806121266026913960400191505060405180910390fd5b6009546040516001600160a01b038084169216906000805160206121d383398151915290600090a3600980546001600160a01b0319166001600160a01b0392909216919091179055565b6110b861127c565b6001600160a01b0316816001600160a01b031614156111085760405162461bcd60e51b81526004018080602001828103825260218152602001806121926021913960400191505060405180910390fd5b6001600160a01b03811660009081526005602052604090205460ff16156111745760016007600061113761127c565b6001600160a01b03908116825260208083019390935260409182016000908120918616815292529020805460ff19169115159190911790556111b2565b6006600061118061127c565b6001600160a01b03908116825260208083019390935260409182016000908120918516815292529020805460ff191690555b6111ba61127c565b6001600160a01b0316816001600160a01b03167f50546e66e5f44d728365dc3908c63bc5cfeeab470722c1677e3073a6ac294aa160405160405180910390a350565b61120d61120761127c565b85610efc565b6112485760405162461bcd60e51b815260040180806020018281038252602c815260200180612284602c913960400191505060405180910390fd5b61125484848484611db9565b50505050565b610b2761126561127c565b838360405180602001604052806000815250611db9565b3390565b6001600160a01b0383166112c55760405162461bcd60e51b81526004018080602001828103825260258152602001806120b86025913960400191505060405180910390fd5b6001600160a01b03821661130a5760405162461bcd60e51b81526004018080602001828103825260238152602001806123226023913960400191505060405180910390fd5b6001600160a01b03808416600081815260086020908152604080832094871680845294825291829020859055815185815291517f8c5be1e5ebec7d5bd14f71427d1e84f3dd0314c0f7b2291e5b200ac8c7c3b9259281900390910190a3505050565b6040805163555ddc6560e11b81526001600160a01b03871660048201527f29ddb589b1fb5fc7cf394961c1adf5f8c6454761adf795e67fe149f658abe89560248201529051600091731820a4b7618bde71dce8cdc73aab6c95905fad249163aabbb8ca91604480820192602092909190829003018186803b1580156113f057600080fd5b505afa158015611404573d6000803e3d6000fd5b505050506040513d602081101561141a57600080fd5b505190506001600160a01b0381161561159057806001600160a01b03166375ab97828888888888886040518763ffffffff1660e01b815260040180876001600160a01b03168152602001866001600160a01b03168152602001856001600160a01b031681526020018481526020018060200180602001838103835285818151815260200191508051906020019080838360005b838110156114c55781810151838201526020016114ad565b50505050905090810190601f1680156114f25780820380516001836020036101000a031916815260200191505b50838103825284518152845160209182019186019080838360005b8381101561152557818101518382015260200161150d565b50505050905090810190601f1680156115525780820380516001836020036101000a031916815260200191505b5098505050505050505050600060405180830381600087803b15801561157757600080fd5b505af115801561158b573d6000803e3d6000fd5b505050505b50505050505050565b6115a586868686611254565b6115e2836040518060600160405280602781526020016120ff602791396001600160a01b03881660009081526020819052604090205491906117a0565b6001600160a01b0380871660009081526020819052604080822093909355908616815220546116119084611fe1565b600080866001600160a01b03166001600160a01b0316815260200190815260200160002081905550836001600160a01b0316856001600160a01b0316876001600160a01b03167f06b541ddaa720db2b10a4d0cdac39b8d360425fc073085fac19bc82614677987868686604051808481526020018060200180602001838103835285818151815260200191508051906020019080838360005b838110156116c25781810151838201526020016116aa565b50505050905090810190601f1680156116ef5780820380516001836020036101000a031916815260200191505b50838103825284518152845160209182019186019080838360005b8381101561172257818101518382015260200161170a565b50505050905090810190601f16801561174f5780820380516001836020036101000a031916815260200191505b509550505050505060405180910390a4836001600160a01b0316856001600160a01b0316600080516020612264833981519152856040518082815260200191505060405180910390a3505050505050565b6000818484111561182f5760405162461bcd60e51b81526004018080602001828103825283818151815260200191508051906020019080838360005b838110156117f45781810151838201526020016117dc565b50505050905090810190601f1680156118215780820380516001836020036101000a031916815260200191505b509250505060405180910390fd5b505050900390565b6040805163555ddc6560e11b81526001600160a01b03871660048201527fb281fc8c12954d22544db45de3159a39272895b169a852b314f9cc762e44c53b60248201529051600091731820a4b7618bde71dce8cdc73aab6c95905fad249163aabbb8ca91604480820192602092909190829003018186803b1580156118bb57600080fd5b505afa1580156118cf573d6000803e3d6000fd5b505050506040513d60208110156118e557600080fd5b505190506001600160a01b03811615611a5e57806001600160a01b03166223de298989898989896040518763ffffffff1660e01b815260040180876001600160a01b03168152602001866001600160a01b03168152602001856001600160a01b031681526020018481526020018060200180602001838103835285818151815260200191508051906020019080838360005b8381101561198f578181015183820152602001611977565b50505050905090810190601f1680156119bc5780820380516001836020036101000a031916815260200191505b50838103825284518152845160209182019186019080838360005b838110156119ef5781810151838201526020016119d7565b50505050905090810190601f168015611a1c5780820380516001836020036101000a031916815260200191505b5098505050505050505050600060405180830381600087803b158015611a4157600080fd5b505af1158015611a55573d6000803e3d6000fd5b50505050611ab2565b8115611ab257611a76866001600160a01b0316612039565b15611ab25760405162461bcd60e51b815260040180806020018281038252604d8152602001806121f3604d913960600191505060405180910390fd5b5050505050505050565b6001600160a01b038416611b17576040805162461bcd60e51b815260206004820181905260248201527f4552433737373a206d696e7420746f20746865207a65726f2061646472657373604482015290519081900360640190fd5b6000611b2161127c565b9050611b308160008787611254565b600154611b3d9085611fe1565b6001556001600160a01b038516600090815260208190526040902054611b639085611fe1565b6001600160a01b038616600090815260208190526040812091909155611b90908290878787876001611837565b846001600160a01b0316816001600160a01b03167f2fe5be0146f74c5bce36c0b80911af6c7d86ff27e89d5cfa61fc681327954e5d868686604051808481526020018060200180602001838103835285818151815260200191508051906020019080838360005b83811015611c0f578181015183820152602001611bf7565b50505050905090810190601f168015611c3c5780820380516001836020036101000a031916815260200191505b50838103825284518152845160209182019186019080838360005b83811015611c6f578181015183820152602001611c57565b50505050905090810190601f168015611c9c5780820380516001836020036101000a031916815260200191505b509550505050505060405180910390a36040805185815290516001600160a01b038716916000916000805160206122648339815191529181900360200190a35050505050565b6001600160a01b038616611d275760405162461bcd60e51b81526004018080602001828103825260228152602001806120dd6022913960400191505060405180910390fd5b6001600160a01b038516611d82576040805162461bcd60e51b815260206004820181905260248201527f4552433737373a2073656e6420746f20746865207a65726f2061646472657373604482015290519081900360640190fd5b6000611d8c61127c565b9050611d9c81888888888861136c565b611daa818888888888611599565b61159081888888888888611837565b6001600160a01b038416611dfe5760405162461bcd60e51b815260040180806020018281038252602281526020018061214c6022913960400191505060405180910390fd5b6000611e0861127c565b9050611e178186600087611254565b611e268186600087878761136c565b611e63846040518060600160405280602381526020016122ff602391396001600160a01b03881660009081526020819052604090205491906117a0565b6001600160a01b038616600090815260208190526040902055600154611e899085612075565b600181905550846001600160a01b0316816001600160a01b03167fa78a9be3a7b862d26933ad85fb11d80ef66b8f972d7cbba06621d583943a4098868686604051808481526020018060200180602001838103835285818151815260200191508051906020019080838360005b83811015611f0e578181015183820152602001611ef6565b50505050905090810190601f168015611f3b5780820380516001836020036101000a031916815260200191505b50838103825284518152845160209182019186019080838360005b83811015611f6e578181015183820152602001611f56565b50505050905090810190601f168015611f9b5780820380516001836020036101000a031916815260200191505b509550505050505060405180910390a36040805185815290516000916001600160a01b038816916000805160206122648339815191529181900360200190a35050505050565b600082820183811015610f97576040805162461bcd60e51b815260206004820152601b60248201527a536166654d6174683a206164646974696f6e206f766572666c6f7760281b604482015290519081900360640190fd5b6000813f7fc5d2460186f7233c927e7db2dcc703c0e500b653ca82273b7bfad8045d85a47081811480159061206d57508115155b949350505050565b6000610f9783836040518060400160405280601e81526020017f536166654d6174683a207375627472616374696f6e206f766572666c6f7700008152506117a056fe4552433737373a20617070726f76652066726f6d20746865207a65726f20616464726573734552433737373a2073656e642066726f6d20746865207a65726f20616464726573734552433737373a207472616e7366657220616d6f756e7420657863656564732062616c616e63654f776e61626c653a206e6577206f776e657220697320746865207a65726f20616464726573734552433737373a206275726e2066726f6d20746865207a65726f20616464726573734552433737373a20617574686f72697a696e672073656c66206173206f70657261746f724552433737373a207265766f6b696e672073656c66206173206f70657261746f724f776e61626c653a2063616c6c6572206973206e6f7420746865206f776e65728be0079c531659141344cd1fd0a4f28419497f9722a3daafe3b4186f6b6457e04552433737373a20746f6b656e20726563697069656e7420636f6e747261637420686173206e6f20696d706c656d656e74657220666f7220455243373737546f6b656e73526563697069656e744552433737373a207472616e7366657220746f20746865207a65726f2061646472657373ddf252ad1be2c89b69c2b068fc378daa952ba7f163c4a11628f55a4df523b3ef4552433737373a2063616c6c6572206973206e6f7420616e206f70657261746f7220666f7220686f6c6465724552433737373a207472616e7366657220616d6f756e74206578636565647320616c6c6f77616e63654552433737373a207472616e736665722066726f6d20746865207a65726f20616464726573734552433737373a206275726e20616d6f756e7420657863656564732062616c616e63654552433737373a20617070726f766520746f20746865207a65726f2061646472657373a264697066735822122063a4340c71de9d59d31c00a3a3e90ffe8ddfa872657b45def275e46647c559a964736f6c634300060c0033",
  "compiler": {
    "name": "solc",
    "version": "0.6.12+commit.27d51765.Emscripten.clang",
    "optimizer": {
      "enabled": true,
      "runs": 1
    },
    "evmVersion": "petersburg"
  }
}